:020000040800F2
:10000000D0210020450100084D21000845210008AD
:1000100049210008E5010008C5250008000000008E
:10002000000000000000000000000000FD210008AA
:100030006502000800000000BD21000855220008EC
:100040005F0100085F0100085F0100085F01000810
:100050005F0100085F0100086902000885030008CD
:10006000B1030008DD03000809040008E9010008E5
:10007000FD0100085F0100085F0100085F01000842
:100080005F0100085F0100085F0100085F010008D0
:100090005F0100085F0100085F01000835040008E7
:1000A0005F0100085F0100085F0100085F010008B0
:1000B000F12200085F0100085F0100085F010008ED
:1000C0005F0100085F0100085F0100085F01000890
:1000D0005F0100085F010008B12500085F0100080A
:1000E000910200085F0100085F0100085F0100083D
:1000F0005F0100085F0100085F0100085F01000860
:100100005F0100085F0100085F0100085F0100084F
:100110005F0100085F0100085F0100085F0100083F
:10012000110200085F0100085F0100085F0100087C
:10013000DFF80CD000F03CF800480047E927000841
:10014000D02100200648804706480047FEE7FEE72A
:10015000FEE7FEE7FEE7FEE7FEE7FEE7FEE7FEE777
:10016000E12200083101000840EA01039B0703D0A7
:1001700009E008C9121F08C0042AFAD203E011F8E6
:10018000013B00F8013B521EF9D27047D2B201E0A8
:1001900000F8012B491EFBD270470022F6E710B58C
:1001A00013460A4604461946FFF7F0FF204610BDE5
:1001B0001CB509480090094801900546009C06E0DE
:1001C000E06840F0010394E8070098471034AC421F
:1001D000F6D3FFF7B1FF0000583600087836000864
:1001E000FFE7FEE7FFE7FEE780B540F2DC30C2F252
:1001F0000000D0F86C0500F00DFB80BD80B540F22A
:10020000DC30C2F20000D0F8700500F003FB80BDC6
:100210007047000084B0039002910192009303980C
:10022000C16B026C012090404860009803990968F6
:10023000486003984068102809D1FFE701980399A6
:1002400009688860029803990968C86008E0029804
:10025000039909688860019803990968C860FFE7F5
:1002600004B070477047000080B540F21440C4F2FB
:1002700001000068C00750B1FFE7002002F078FAE3
:1002800040F21441C4F2010101200860FFE780BD83
:1002900080B540F21440C4F2010000684005002817
:1002A0000BD5FFE70A2002F063FA40F21441C4F2D2
:1002B00001014FF480600860FFE740F21440C4F28F
:1002C00001000068000500280BD5FFE70B2002F0B5
:1002D0004FFA40F21441C4F201014FF4006008608B
:1002E000FFE740F21440C4F201000068C004002897
:1002F0000BD5FFE70C2002F03BFA40F21441C4F2A8
:1003000001014FF480500860FFE740F21440C4F24E
:1003100001000068800400280BD5FFE70D2002F0E3
:1003200027FA40F21441C4F201014FF40050086072
:10033000FFE740F21440C4F20100006840040028C6
:100340000BD5FFE70E2002F013FA40F21441C4F27D
:1003500001014FF480400860FFE740F21440C4F20E
:1003600001000068000400280BD5FFE70F2002F011
:10037000FFF940F21441C4F201014FF4004008605B
:10038000FFE780BD80B540F21440C4F20100006870
:10039000800700280AD5FFE7012002F0E9F940F2C2
:1003A0001441C4F2010102200860FFE780BD000093
:1003B00080B540F21440C4F20100006840070028F4
:1003C0000AD5FFE7022002F0D3F940F21441C4F24B
:1003D000010104200860FFE780BD000080B540F205
:1003E0001440C4F201000068000700280AD5FFE7A6
:1003F000032002F0BDF940F21441C4F201010820CB
:100400000860FFE780BD000080B540F21440C4F2F0
:1004100001000068C00600280AD5FFE7042002F0AA
:10042000A7F940F21441C4F2010110200860FFE76F
:1004300080BD000080B540F21440C4F201000068A5
:10044000800600280AD5FFE7052002F091F940F266
:100450001441C4F2010120200860FFE740F214407B
:10046000C4F201000068400600280AD5FFE7062014
:1004700002F07EF940F21441C4F20101402008600C
:10048000FFE740F21440C4F20100006800060028B3
:100490000AD5FFE7072002F06BF940F21441C4F2DD
:1004A000010180200860FFE740F21440C4F201001F
:1004B0000068C00500280BD5FFE7082002F058F9B6
:1004C00040F21441C4F201014FF480700860FFE76C
:1004D00040F21440C4F201000068800500280BD5EA
:1004E000FFE7092002F044F940F21441C4F201018F
:1004F0004FF400700860FFE780BD000080B596B043
:10050000159000208DF85300159890F821000228CE
:1005100007D0FFE715990420886301208DF8530068
:1005200074E115980168086820F00E0008601598BD
:100530000168086820F001000860159800688121B2
:10054000C4F202018842C0F0A880FFE71598006855
:100550000821C4F20201884203D1FFE70120139071
:1005600094E0159800681C21C4F20201884203D16E
:10057000FFE71020129086E0159800683021C4F241
:100580000201884204D1FFE74FF48070119077E0B8
:10059000159800684421C4F20201884204D1FFE7A3
:1005A0004FF48050109068E0159800685821C4F20C
:1005B0000201884204D1FFE74FF480300F9059E0E8
:1005C000159800686C21C4F20201884204D1FFE74B
:1005D0004FF480100E904AE0159800688021C4F214
:1005E0000201884204D1FFE74FF080700D903BE09C
:1005F0001598006840F20841C4F20201884203D114
:10060000FFE701200C902CE01598006840F21C4197
:10061000C4F20201884203D1FFE710200B901DE0D5
:100620001598006840F23041C4F20201884204D1BA
:10063000FFE74FF480700A900DE01598016840F2D2
:100640004442C4F202024FF48030914208BF4FF49A
:1006500080500A90FFE70A980B90FFE70B980C90E8
:10066000FFE70C980D90FFE70D980E90FFE70E98AE
:100670000F90FFE70F981090FFE710981190FFE799
:1006800011981290FFE712981390FFE7139840F229
:100690000441C4F202010860A5E015980068082131
:1006A000C4F20201884203D1FFE70120099094E0DF
:1006B000159800681C21C4F20201884203D1FFE7AB
:1006C0001020089086E0159800683021C4F20201DD
:1006D000884204D1FFE74FF48070079077E01598C7
:1006E00000684421C4F20201884204D1FFE74FF4BC
:1006F0008050069068E0159800685821C4F2020105
:10070000884204D1FFE74FF48030059059E01598F6
:1007100000686C21C4F20201884204D1FFE74FF463
:10072000801004904AE0159800688021C4F202010C
:10073000884204D1FFE74FF0807003903BE01598AA
:10074000006840F20841C4F20201884203D1FFE789
:10075000012002902CE01598006840F21C41C4F280
:100760000201884203D1FFE7102001901DE0159897
:10077000006840F23041C4F20201884204D1FFE730
:100780004FF4807000900DE01598016840F24442EB
:10079000C4F202024FF48030914208BF4FF48050FF
:1007A0000090FFE700980190FFE701980290FFE7B3
:1007B00002980390FFE703980490FFE704980590E0
:1007C000FFE705980690FFE706980790FFE7079870
:1007D0000890FFE708980990FFE709980421C4F200
:1007E00002010860FFE71599012081F82100FFE769
:1007F0001599002081F82000FFE71598406B20B183
:10080000FFE71598416B8847FFE7FFE79DF8530026
:1008100016B080BD80B5ACB02B902B98C06B006833
:100820002A902B980068006829902A982B99096CC7
:10083000C8404007002840F17581FFE79DF8A400FB
:100840004007002840F16E81FFE72B9800680068A0
:100850008006002807D4FFE72B980168086820F07D
:1008600004000860FFE72B9800688121C4F20201B0
:100870008842C0F0A880FFE72B9800680821C4F2E6
:100880000201884203D1FFE70420289094E02B98CE
:1008900000681C21C4F20201884203D1FFE7402016
:1008A000279086E02B9800683021C4F2020188422C
:1008B00004D1FFE74FF48060269077E02B98006822
:1008C0004421C4F20201884204D1FFE74FF4804082
:1008D000259068E02B9800685821C4F202018842F4
:1008E00004D1FFE74FF48020249059E02B98006852
:1008F0006C21C4F20201884204D1FFE74FF480006A
:1009000023904AE02B9800688021C4F202018842BB
:1009100004D1FFE74FF0806022903BE02B98006805
:1009200040F20841C4F20201884203D1FFE70420EB
:1009300021902CE02B98006840F21C41C4F2020187
:10094000884203D1FFE7402020901DE02B980068EB
:1009500040F23041C4F20201884204D1FFE74FF473
:1009600080601F900DE02B98016840F24442C4F271
:1009700002024FF48020914208BF4FF480401F9044
:10098000FFE71F982090FFE720982190FFE721982C
:100990002290FFE722982390FFE723982490FFE717
:1009A00024982590FFE725982690FFE72698279022
:1009B000FFE727982890FFE7289840F20441C4F207
:1009C00002010860A5E02B9800680821C4F202012A
:1009D000884203D1FFE704201E9094E02B98006822
:1009E0001C21C4F20201884203D1FFE740201D9080
:1009F00086E02B9800683021C4F20201884204D1BD
:100A0000FFE74FF480601C9077E02B98006844214A
:100A1000C4F20201884204D1FFE74FF480401B90EA
:100A200068E02B9800685821C4F20201884204D182
:100A3000FFE74FF480201A9059E02B9800686C2152
:100A4000C4F20201884204D1FFE74FF480001990FC
:100A50004AE02B9800688021C4F20201884204D148
:100A6000FFE74FF0806018903BE02B98006840F261
:100A70000841C4F20201884203D1FFE70420179025
:100A80002CE02B98006840F21C41C4F2020188421D
:100A900003D1FFE7402016901DE02B98006840F23C
:100AA0003041C4F20201884204D1FFE74FF4806074
:100AB00015900DE02B98016840F24442C4F2020206
:100AC0004FF48020914208BF4FF480401590FFE71B
:100AD00015981690FFE716981790FFE7179818904B
:100AE000FFE718981990FFE719981A90FFE71A98EE
:100AF0001B90FFE71B981C90FFE71C981D90FFE7D9
:100B00001D981E90FFE71E980421C4F202010860A0
:100B1000FFE72B98C06A20B1FFE72B98C16A88478E
:100B2000FFE7B7E12A982B99096CC8408007002895
:100B300040F17F81FFE79DF8A4008007002840F185
:100B40007881FFE72B9800680068800600280BD4A6
:100B5000FFE72B980168086820F00A0008602B99CD
:100B6000012081F82100FFE72B9800688121C4F261
:100B700002018842C0F0A880FFE72B980068082196
:100B8000C4F20201884203D1FFE70220149094E0EE
:100B90002B9800681C21C4F20201884203D1FFE7B0
:100BA0002020139086E02B9800683021C4F20201C7
:100BB000884204D1FFE74FF40070129077E02B9841
:100BC00000684421C4F20201884204D1FFE74FF4D7
:100BD0000050119068E02B9800685821C4F202017F
:100BE000884204D1FFE74FF40030109059E02B9871
:100BF00000686C21C4F20201884204D1FFE74FF47F
:100C000000100F904AE02B9800688021C4F2020186
:100C1000884204D1FFE74FF000700E903BE02B9824
:100C2000006840F20841C4F20201884203D1FFE7A4
:100C300002200D902CE02B98006840F21C41C4F279
:100C40000201884203D1FFE720200C901DE02B9881
:100C5000006840F23041C4F20201884204D1FFE74B
:100C60004FF400700B900DE02B98016840F2444265
:100C7000C4F202024FF40030914208BF4FF400501A
:100C80000B90FFE70B980C90FFE70C980D90FFE797
:100C90000D980E90FFE70E980F90FFE70F981090B9
:100CA000FFE710981190FFE711981290FFE7129854
:100CB0001390FFE713981490FFE7149840F2044153
:100CC000C4F202010860A5E02B9800680821C4F274
:100CD0000201884203D1FFE702200A9094E02B989A
:100CE00000681C21C4F20201884203D1FFE72020E2
:100CF000099086E02B9800683021C4F202018842F6
:100D000004D1FFE74FF40070089077E02B9800685B
:100D10004421C4F20201884204D1FFE74FF400509D
:100D2000079068E02B9800685821C4F202018842BD
:100D300004D1FFE74FF40030069059E02B9800688B
:100D40006C21C4F20201884204D1FFE74FF4001085
:100D500005904AE02B9800688021C4F20201884285
:100D600004D1FFE74FF0007004903BE02B9800683F
:100D700040F20841C4F20201884203D1FFE7022099
:100D800003902CE02B98006840F21C41C4F2020151
:100D9000884203D1FFE7202002901DE02B980068D5
:100DA00040F23041C4F20201884204D1FFE74FF41F
:100DB000007001900DE02B98016840F24442C4F2AB
:100DC00002024FF40030914208BF4FF400500190EE
:100DD000FFE701980290FFE702980390FFE703986E
:100DE0000490FFE704980590FFE705980690FFE759
:100DF00006980790FFE707980890FFE70898099082
:100E0000FFE709980A90FFE70A980421C4F202015B
:100E10000860FFE7FFE72B99002081F82000FFE73B
:100E20002B98806A20B1FFE72B98816A8847FFE7FB
:100E30002FE02A982B99096CC8400007002827D575
:100E4000FFE79DF8A4000007002821D5FFE72B98B5
:100E50000168086820F00E0008602B98C26B016CD6
:100E6000012000FA01F151602B9988632B9981F8D8
:100E70002100FFE72B99002081F82000FFE72B9845
:100E8000006B20B1FFE72B98016B8847FFE7FFE776
:100E9000FFE7FFE72CB080BD80B586B004900391DA
:100EA0000292019300208DF80300FFE7049890F868
:100EB0002000012804D1FFE702208DF817004CE044
:100EC0000499012081F82000FFE7FFE7049890F8DB
:100ED0002100012832D1FFE70499022081F8210086
:100EE00004990020886304980168086820F00100D4
:100EF000086004980399029A019BFFF78BF9049804
:100F0000C06A38B1FFE704980168086840F00E0035
:100F100008600CE004980168086820F0040008608C
:100F200004980168086840F00A000860FFE7049828
:100F30000168086840F00100086009E0FFE70499D3
:100F4000002081F82000FFE702208DF80300FFE772
:100F50009DF803008DF81700FFE79DF8170006B015
:100F600080BD000041F6CC50C2F20000006870471E
:100F700040F20400C2F20000027841F6CC51C2F205
:100F800000010868104408607047000080B5042024
:100F900000F09AF80F2000F005F800F03BF8002070
:100FA00080BD000080B582B0009040F20000C2F227
:100FB0000000006840F20401C2F200010A784FF418
:100FC0007A71B1FBF2F1B0FBF1F000F033FE20B129
:100FD000FFE701208DF8070018E0009807280DD8DA
:100FE000FFE700994FF0FF30002200F053F800981F
:100FF00040F20801C2F20001086003E001208DF810
:10100000070003E000208DF80700FFE79DF80700C8
:1010100002B080BD84B0FFE741F21800C4F20200C4
:10102000016841F001010160006800F001000390D7
:101030000398FFE7FFE741F21C00C4F202000168D9
:1010400041F080510160006800F0805002900298E9
:10105000FFE7FFE741F23400C4F20200016841F00B
:1010600004010160006800F0040001900198FFE7AE
:10107000FFE741F23400C4F20200016841F00801C8
:101080000160006800F0080000900098FFE704B0DD
:101090007047000080B586B08DF817000491039268
:1010A0000020029001F090FA02909DF91700019043
:1010B00002980499039A01F04BF80146019801F057
:1010C0008BFA06B080BD000080B582B00190019817
:1010D00001F0A4FA02B080BD80B584B00290019105
:1010E000029820B9FFE701208DF80F0021E1019857
:1010F00042F20001C4F20201096801F00F018842C6
:1011000016D9FFE742F20000C4F20200016821F0A4
:101110000F01019A11430160006800F00F0001996E
:10112000884204D0FFE701208DF80F0001E1FFE7BE
:1011300002980078800700282AD5FFE702980078F7
:101140004007002809D5FFE741F20401C4F202017B
:10115000086840F4E0600860FFE702980078000744
:10116000002809D5FFE741F20401C4F20201086832
:1011700040F460500860FFE741F20401C4F202014C
:10118000086820F0F000029A926810430860FFE7B8
:1011900002980078C007002866D0FFE702984068F0
:1011A000012811D1FFE741F20000C4F202000068FB
:1011B00000F400310020B0EB514F04D1FFE70120D3
:1011C0008DF80F00B5E024E00298406802280ED1A7
:1011D000FFE741F20000C4F202000068C0010028ED
:1011E00004D4FFE701208DF80F00A2E010E041F2E7
:1011F0000000C4F20200006800F002010020B0EB21
:10120000510F04D1FFE701208DF80F0091E0FFE7B7
:10121000FFE741F20401C4F20201086820F0030074
:10122000029A526810430860FFF79CFE0090FFE7A7
:1012300041F20400C4F20200006800F00C000299C0
:101240004968B0EB810F0ED0FFE7FFF78BFE0099E6
:10125000401A41F28931884204D3FFE703208DF818
:101260000F0066E0E4E7FFE7019842F20001C4F2F4
:101270000201096801F00F01884216D2FFE742F22D
:101280000000C4F20200016821F00F01019A11432D
:101290000160006800F00F000199884204D0FFE768
:1012A00001208DF80F0044E0FFE702980078400726
:1012B00000280CD5FFE741F20401C4F202010868DE
:1012C00020F4E060029AD26810430860FFE70298B9
:1012D0000078000700280DD5FFE741F20401C4F2B1
:1012E0000201086820F46050029A126940EAC200C4
:1012F0000860FFE700F028F841F20401C4F202019F
:101300000968C9B20A0943F2C421C0F60001895C28
:10131000C84040F20001C2F20001086040F208003B
:10132000C2F200000068FFF73DFE00208DF80F00BC
:10133000FFE79DF80F0004B080BD000040F2000000
:10134000C2F200000068704780B598B043F2842173
:10135000C0F6000108A84022FEF706FF40F2012077
:10136000ADF81E00002006900590049003900290B6
:1013700041F20400C4F2020000680690069800F0F2
:101380000C000146019100284AD0FFE7019804288B
:1013900004D0FFE70198082806D042E042F200405E
:1013A000C0F2F400029042E0069901F0C04001F45E
:1013B0007011400E40EA914108A8405C03900698E5
:1013C00000F44030B0F5803F07D0FFE7069800F406
:1013D0004030B0F5403F18D1FFE741F20400C4F2BD
:1013E0000200006800F400310DF11E0040EA514097
:1013F00000780590039842F20041C0F2F40148439E
:101400000599B0FBF1F0049007E0039841F2002148
:10141000C0F27A0148430490FFE70498029006E086
:10142000FFE741F20020C0F27A000290FFE7029845
:1014300018B080BD80B586B00490049820B9FFE74D
:1014400001208DF81700D4E304980078C007002825
:1014500000F0D680FFE741F20400C4F20200006809
:1014600000F00C00042820D0FFE741F20400C4F291
:101470000200006800F00C0008282BD1FFE741F2C1
:101480000400C4F20200006800F48030B0F5803F30
:101490000BD0FFE741F20400C4F20200006800F440
:1014A0008030B0F5403F15D1FFE741F20000C4F2B3
:1014B0000200006800F400310020B0EB514F08D06A
:1014C000FFE70498406820B9FFE701208DF8170076
:1014D0008FE394E004984068B0F5803F0CD1FFE7BB
:1014E00041F23801C4F20201086820F44070049A05
:1014F000926810430860FFE7FFE704984068B0F582
:10150000803F09D1FFE741F20001C4F202010868FF
:1015100040F48030086032E00498406868B9FFE722
:1015200041F20001C4F20201086820F48030086032
:10153000086820F48020086020E004984068B0F536
:10154000A02F0DD1FFE741F20001C4F202010868AB
:1015500040F480200860086840F4803008600CE0A7
:1015600041F20001C4F20201086820F480300860F2
:10157000086820F480200860FFE7FFE7FFE7FFE747
:1015800004984068E8B1FFE7FFF7ECFC0390FFE741
:1015900041F20000C4F20200006800F400310020B3
:1015A000B0EB514F0CD1FFE7FFF7DCFC0399401A79
:1015B000652804D3FFE703208DF8170019E3E7E758
:1015C0001CE0FFF7CFFC0390FFE741F20000C4F2FC
:1015D0000200006800F400310020B0EB514F0CD045
:1015E000FFE7FFF7BFFC0399401A652804D3FFE724
:1015F00003208DF81700FCE2E7E7FFE7FFE7FFE7CE
:10160000049800788007002840F19080FFE741F2BD
:101610000400C4F20200006810F00C0F20D0FFE7B5
:1016200041F20400C4F20200006800F00C00082837
:101630002CD1FFE741F20400C4F20200006800F47C
:101640008030B0F5803F21D0FFE741F20400C4F2C2
:101650000200006800F48030B0F5403F16D0FFE78C
:1016600041F20000C4F20200006800F00201002014
:10167000B0EB510F09D0FFE704984069012804D06E
:10168000FFE701208DF81700B3E24EE004984069AF
:1016900028B3FFE741F20001C4F20201086840F0FC
:1016A00001000860FFF75EFC0390FFE741F20000D5
:1016B000C4F20200006800F002010020B0EB510FFC
:1016C0000CD1FFE7FFF74EFC0399401A032804D31F
:1016D000FFE703208DF817008BE2E7E724E041F2F3
:1016E0000001C4F20201086820F001000860FFF761
:1016F00039FC0390FFE741F20000C4F202000068E9
:1017000000F002010020B0EB510F0CD0FFE7FFF713
:1017100029FC0399401A032804D3FFE703208DF81E
:10172000170066E2E7E7FFE7FFE7FFE704980078C6
:10173000C00600284FD5FFE70498806928B3FFE76B
:1017400041F22801C4F20201086840F0100008606C
:10175000FFF708FC0390FFE741F22800C4F2020003
:10176000006800F020010020B0EB511F0CD1FFE712
:10177000FFF7F8FB0399401A032804D3FFE703207F
:101780008DF8170035E2E7E724E041F22801C4F2C2
:101790000201086820F010000860FFF7E3FB0390E7
:1017A000FFE741F22800C4F20200006800F02001C7
:1017B0000020B0EB511F0CD0FFE7FFF7D3FB0399DC
:1017C000401A032804D3FFE703208DF8170010E226
:1017D000E7E7FFE7FFE7049800780007002852D505
:1017E000FFE70498C06940B3FFE741F22401C4F267
:1017F0000201086840F001000860FFF7B3FB0390A6
:10180000FFE741F22400C4F20200006800F0020188
:101810000020B0EB510F0CD1FFE7FFF7A3FB0399BA
:10182000401A032804D3FFE703208DF81700E0E1F6
:10183000E7E7012000F0C4FC24E041F22401C4F2F7
:101840000201086820F001000860FFF78BFB03909D
:10185000FFE741F22400C4F20200006800F0020138
:101860000020B0EB510F0CD0FFE7FFF77BFB039993
:10187000401A032804D3FFE703208DF81700B8E1CE
:10188000E7E7FFE7FFE7049800784007002840F10A
:10189000EF80FFE700208DF8070041F21C00C4F242
:1018A00002000068C000002813D4FFE7FFE741F200
:1018B0001C00C4F20200016841F080510160006820
:1018C00000F0805000900098FFE701208DF807009D
:1018D000FFE747F20000C4F200000068C0050028DE
:1018E00022D4FFE747F20001C4F20001086840F487
:1018F00080700860FFF736FB0390FFE747F20000B7
:10190000C4F200000068C00500280CD4FFE7FFF710
:1019100029FB0399401A652804D3FFE703208DF8BB
:10192000170066E1EAE7FFE70498C06801280CD1D8
:10193000FFE741F22001C4F20201086820F018001C
:10194000049A126910430860FFE7FFE70498C06833
:10195000012809D1FFE741F22001C4F20201086821
:1019600040F00100086031E00498C06868B9FFE702
:1019700041F22001C4F20201086820F00100086071
:10198000086820F0040008601FE00498C06805287B
:101990000DD1FFE741F22001C4F20201086840F0D6
:1019A00004000860086840F0010008600CE041F2A3
:1019B0002001C4F20201086820F0010008600868F4
:1019C00020F004000860FFE7FFE7FFE7FFE7049867
:1019D000C068F8B1FFE7FFF7C5FA0390FFE741F2EF
:1019E0002000C4F20200006800F002010020B0EB09
:1019F000510F0ED1FFE7FFF7B5FA0399401A41F2F4
:101A00008931884204D3FFE703208DF81700F0E006
:101A1000E5E71EE0FFF7A6FA0390FFE741F220009A
:101A2000C4F20200006800F002010020B0EB510F88
:101A30000ED0FFE7FFF796FA0399401A41F2893179
:101A4000884204D3FFE703208DF81700D1E0E5E7D3
:101A5000FFE79DF80700012809D1FFE741F21C01CB
:101A6000C4F20201086820F080500860FFE7FFE739
:101A70000498006A002800F0B880FFE741F20400F3
:101A8000C4F20200006800F00C00082800F0858015
:101A9000FFE70498006A022859D1FFE741F20001EC
:101AA000C4F20201086820F080700860FFF75AFA5B
:101AB0000390FFE741F20000C4F20200006800F06A
:101AC00000710020B0EB516F0CD0FFE7FFF74AFA2E
:101AD0000399401A032804D3FFE703208DF8170069
:101AE00087E0E7E741F20401C4F2020108684FF61B
:101AF000FF72C9F6C0721040049B5A6A9B6A1A436F
:101B00001043086041F20001C4F20201086840F08D
:101B100080700860FFF726FA0390FFE741F20000AB
:101B2000C4F20200006800F000710020B0EB516FB9
:101B30000CD1FFE7FFF716FA0399401A032804D3E4
:101B4000FFE703208DF8170053E0E7E724E041F2B8
:101B50000001C4F20201086820F080700860FFF7FD
:101B600001FA0390FFE741F20000C4F202000068AE
:101B700000F000710020B0EB516F0CD0FFE7FFF7D1
:101B8000F1F90399401A032804D3FFE703208DF8E5
:101B900017002EE0E7E7FFE726E00498006A012837
:101BA00004D1FFE701208DF8170022E041F2040084
:101BB000C4F2020000680290029800F48030049998
:101BC000496A88420AD1FFE702980021C6F23C0127
:101BD00008400499896A884204D0FFE701208DF803
:101BE000170006E0FFE7FFE7FFE700208DF817008A
:101BF000FFE79DF8170006B080BD000081B000909F
:101C00000098042809D1FFE74EF21001CEF200013E
:101C1000086840F00400086008E04EF21001CEF2BF
:101C20000001086820F004000860FFE701B0704779
:101C30007047000080B582B00190019800F0E0FA92
:101C400002B080BD80B5FFF7F3FF80BD80B584B0E2
:101C5000039000200290FFE7029804283BDCFFE796
:101C6000029840F2DC32C2F200024FF4A66100FB9F
:101C700001200399884229D1FFE7029840F2DC3223
:101C8000C2F200024FF4A66100FB0120019001990D
:101C9000D1F880000130C1F880000199002081F85E
:101CA0007400019981F87500019981F81303019975
:101CB00081F814030198406E38B1FFE701999DF84F
:101CC00008004A6E896E9047FFE704E0FFE702983C
:101CD00001300290C0E704B080BD000080B588B03C
:101CE0000790079800680068069007980068C06829
:101CF00005900798006840690490002003900290C6
:101D0000069800F00F000390039888B9FFE79DF84C
:101D10001800800600280AD5FFE79DF81400800609
:101D2000002804D5FFE7079800F098FBEFE0FFE7F5
:101D30000398002800F0AE80FFE79DF81000C00770
:101D400038B9FFE7BDF8140010F4907F00F0A280CE
:101D5000FFE79DF81800C00758B1FFE79DF8150090
:101D6000C00730B1FFE70799886C40F00100886434
:101D7000FFE79DF81800400700280BD5FFE79DF806
:101D80001000C00730B1FFE70799886C40F00200EF
:101D90008864FFE79DF81800800700280BD5FFE74F
:101DA0009DF81000C00730B1FFE70799886C40F03C
:101DB00004008864FFE79DF81800000700280BD591
:101DC000FFE79DF81000C00730B1FFE70799886C66
:101DD00040F008008864FFE70798806C002858D01E
:101DE000FFE79DF81800800600280AD5FFE79DF858
:101DF00014008006002804D5FFE7079800F02EFBAA
:101E0000FFE7079800684069C0F3801002900798C8
:101E1000806C0007002803D4FFE7029888B3FFE72F
:101E2000079800F0E5FA0798006840694006002826
:101E300022D5FFE707980168486920F04000486113
:101E40000798006C98B1FFE70798016C42F2F52003
:101E5000C0F6000048630798006CFEF74FFB28B1FE
:101E6000FFE70798006C416B8847FFE703E007989E
:101E7000FFF7ECFEFFE703E00798FFF7E7FEFFE759
:101E800006E00798FFF7E2FE079900208864FFE765
:101E9000FFE73CE09DF81800C006002817D5FFE7D3
:101EA0009DF81400C006002811D5FFE7FFE70020C9
:101EB00001900798006800680190079800684068E2
:101EC00001900198FFE7079800F024F8FFE79DF8DC
:101ED0001800000600280AD5FFE79DF81400000648
:101EE000002804D5FFE7079800F014FB0FE09DF8E9
:101EF0001800400600280AD5FFE79DF814004006A8
:101F0000002804D5FFE7079800F086FAFFE708B03D
:101F100080BD000081B0009001B0704780B584B0F2
:101F2000039000200290FFE70298042833DCFFE7CB
:101F3000029840F2DC32C2F200024FF4A66100FBCC
:101F400001200399884221D1FFE7029840F2DC3258
:101F5000C2F200024FF4A66100FB0120019001993A
:101F6000002081F87500019981F814039DF808009C
:101F700001F0D8F80198406D38B1FFE701999DF85C
:101F800008004A6D896D9047FFE704E0FFE702987B
:101F900001300290C8E704B080BD000080B586B073
:101FA00004900391ADF80A20049890F84500202889
:101FB00067D1FFE7039820B1FFE7BDF80A0020B919
:101FC000FFE701208DF817005FE0FFE7049890F825
:101FD0004400012804D1FFE702208DF8170054E0E7
:101FE0000499012081F84400FFE7FFE70398049972
:101FF000C862BDF80A0004990886BDF80A00049971
:102000004886049900208864049A212182F84510AA
:102010000499CA6B42F29131C0F6000191620499B1
:10202000CA6B42F2D931C0F60001D1620499CA6B81
:1020300042F21531C0F6000111630499C96B48637F
:1020400003A8019004980268C06B019909680432E2
:10205000BDF80A30FEF720FF049801686FF04000D9
:102060000860FFE70499002081F84400FFE7049826
:102070000168486940F08000486100208DF8170031
:1020800003E002208DF81700FFE79DF8170006B067
:1020900080BD000080B584B0039000200290FFE76F
:1020A0000298042847DCFFE7029840F2DC32C2F2D3
:1020B00000024FF4A66100FB01200399884235D14C
:1020C000FFE7029840F2DC32C2F200024FF4A66150
:1020D00000FB012001900199002081F87400019912
:1020E00081F813030398008EADF80200019800F503
:1020F0004970BDF8021000F08DFE019800F549709E
:1021000000F096FD012805DBFFE79DF8080001F0CF
:102110003FF8FFE70198C06C38B1FFE701999DF8DF
:102120000800CA6C096D9047FFE704E0FFE70298DA
:1021300001300290B4E704B080BD000081B000908F
:1021400001B07047FFE7FEE7FFE7FEE770470000DA
:1021500088B0079006910592079800F00700049058
:102160000498C0F10700042803D3FFE7032001907F
:1021700004E00498C0F107000190FFE70198039084
:1021800004980330062803D8FFE70020009003E0FE
:10219000049804380090FFE700980290069803998D
:1021A000012202FA01F101390840029B9840059989
:1021B0009A40013A1140084308B070477047000048
:1021C00082B00190019840F20001C2F2000109685A
:1021D000C90844F6D352C1F26202A1FB0221890967
:1021E00048430090FFE700BFFFE70098411E0091C1
:1021F0000028F8D1FFE702B07047000070470000E8
:1022000080B584B0029002980138B0F1807F03D38A
:10221000FFE7012003901AE0029801384EF2140102
:10222000CEF2000108604FF0FF300721019100F06D
:10223000D3F901994EF21802CEF20002002010608C
:102240004EF21002CEF2000211600390FFE70398F5
:1022500004B080BD80B5FEF78BFEFFF7F3FC00F005
:1022600079FB80BD80B592B007A801902C21FDF7C5
:1022700094FF01980023069305930493039302931C
:102280001F2107914FF4803108914FF44072099259
:1022900010220D9201220C920A930E9202220F92AA
:1022A00010914FF4E0111191FFF7C4F818B1FFE756
:1022B000FDF796FFFFE70F20029002200390002019
:1022C000049005904FF48060069002A80621FEF766
:1022D00003FF18B1FFE7FDF783FFFFE712B080BDF2
:1022E0004EF60851CEF200014FF0006008607047D2
:1022F0007047000080B582B001900198406A00905C
:10230000009900204887009948860098FFF79EFCB6
:1023100002B080BD80B584B0039000200290039885
:10232000406A0190019800684069C0B2C0090290FB
:10233000019890F8450021280AD1FFE7029838B1AA
:10234000FFE7019900204886019800F079F8FFE73F
:10235000019800684069C0F380100290019890F8DD
:10236000460022280AD1FFE7029838B1FFE7019919
:1023700000204887019800F03BF8FFE70199886C3E
:1023800040F0100088640198FFF760FC04B080BD45
:1023900080B582B001900198406A00900198006871
:1023A00000688006002810D4FFE7009900204886C6
:1023B00000980168486920F0800048610098016831
:1023C000C86840F04000C86003E00098FFF762FE74
:1023D000FFE702B080BD000080B582B00190019897
:1023E000406A00900098FFF7A9FE02B080BD00008F
:1023F00081B0009000980168C86820F49070C860AF
:1024000000980168486920F0010048610099202087
:1024100081F8460001B0704780B582B00190019804
:102420000168C86820F04000C8600199202081F848
:1024300045000198FFF72EFE002002B080BD00008D
:1024400081B0009000980168C86820F0C000C860A2
:102450000099202081F8450001B0704780B584B014
:102460000290029890F8460022284AD1FFE702988D
:102470008068B0F5805F13D1FFE70298006978B9F2
:10248000FFE70298406B01900298006840686FF384
:102490005F20019908800299486B0230486308E088
:1024A000029800684068029B596B4A1C5A63087086
:1024B000FFE70299488F013848870004E8B9FFE731
:1024C00002980168C86820F02000C860029801687E
:1024D000C86820F48070C86002980168486920F0DC
:1024E000010048610299202081F846000298FFF718
:1024F00015FD00208DF80F0007E000208DF80F007B
:1025000003E002208DF80F00FFE79DF80F0004B0F4
:1025100080BD000084B00290029890F84500212808
:102520003ED1FFE702988068B0F5805F13D1FFE7E6
:102530000298006978B9FFE70298C06A0190019893
:1025400000886FF35F200299096848600299C86AA1
:102550000230C8620CE00298C06A009000980078CF
:102560000299096848600299C86A0130C862FFE7A9
:102570000299488E01384886000468B9FFE702983E
:102580000168C86820F08000C86002980168C868C7
:1025900040F04000C860FFE700208DF80F0003E026
:1025A00002208DF80F00FFE79DF80F0004B0704780
:1025B00080B540F2DC30C2F2000000F5A660FFF703
:1025C0008DFB80BDFFE7FEE74EF60C50CEF200001B
:1025D0000068C0F30220704782B08DF807000091B8
:1025E0009DF9070000280AD4FFE7009840019DF9F3
:1025F00007104EF20042CEF2000288540BE0009821
:1026000040019DF8071001F00F014EF61452CEF272
:1026100000028854FFE702B07047000083B00290C8
:10262000029800F0070000904EF60C51CEF2000127
:102630000868019001984FF6FF0210400190019840
:10264000009A40EA02200022C0F2FA5210430190A0
:102650000198086003B0704781B0009001B07047E6
:1026600080B584B00020ADF80E00FFE7BDF80E0085
:102670001F285AD8FFE7BDF80E1040F22010C2F212
:10268000000000EB8100D0F80001002846D0FFE7F1
:10269000BDF80E1040F22010C2F2000050F82100E8
:1026A000D8BBFFE7BDF80E0040F22011C2F20001D6
:1026B00001F5807353F820000290BDF80E0001F17F
:1026C000800252F820000190BDF80E0001F5C071A3
:1026D00051F820000090BDF80EC0002043F82C00F7
:1026E000BDF80E3042F82300BDF80E2041F822005C
:1026F000029A01980099904740F21400C2F200003B
:102700000068013040B1FFE740F21401C2F200015D
:10271000086801300860FFE7FFE7FFE7FFE7BDF863
:102720000E000130ADF80E00A0E704B080BD00003F
:1027300081B000900098808A01B0704782B08DF817
:1027400003009DF80300052803DBFFE7002001904C
:102750000BE09DF8030040F2DC32C2F200024FF4BD
:10276000A66110FB01200190FFE7019802B07047BD
:1027700080B582B08DF807009DF807000F2817DCA0
:10278000FFE79DF8071040F22000C2F2000000EBC6
:102790000110406860B1FFE79DF8071040F220008B
:1027A000C2F2000000EB0110416880688847FFE733
:1027B00002B080BD80B584B08DF80F009DF80F0089
:1027C000FFF7BCFF029002990020019039B1FFE7AA
:1027D00002980068002818BF01200190FFE70198C7
:1027E00000F0010004B080BD80B5FEF7CFFBFFF71D
:1027F00039FD00F067F8002080BD000080B582B090
:102800000020ADF8040040F21C02C2F20002116880
:1028100001311160ADF80600FFE7BDF806001F2882
:102820004ED8FFE7BDF8061040F22010C2F20000BB
:1028300000EB8100D0F80001D8B3FFE7BDF8040039
:102840000130ADF8040040F22010C2F20000B0F8F0
:102850000002BDF80410884214DAFFE7BDF8041046
:1028600040F22010C2F20000A0F80012B0F80012EE
:1028700064204843420943F2D420C0F60000FFF729
:10288000EBFEFFE7BDF8061040F22010C2F2000098
:1028900050F8210060B1FFE7BDF8062040F220119A
:1028A000C2F2000151F82200013841F82200FFE78E
:1028B000FFE7FFE7BDF806000130ADF80600ACE722
:1028C00002B080BD80B500F05BFB00F0CBFCFFE701
:1028D000FFF7C6FEFFE700F069FBA8B1FFE7FFE7DF
:1028E000FFE740F21400C2F200000068013040B17E
:1028F000FFE740F21401C2F20001086801300860ED
:10290000FFE7FFF7ADFEE6E740F21400C2F2000079
:102910000068013040B1FFE740F21401C2F200014B
:10292000086801300860FFE740F22430C2F200007E
:10293000D0F804C00023184619461A46E047FFE7BE
:10294000FFE7C5E740F21801C2F200010868013054
:102950000860704780B5FEF70BFB40F2DA30C2F238
:1029600000000188013101800088B0F57A7F24DB06
:10297000FFE740F2DA31C2F200010020088040F2A5
:102980001201C2F200010120087040F2D831C2F2F7
:10299000000108880130088080B23C280CDBFFE78A
:1029A00040F2D830C2F2000000230380F121184623
:1029B0001A4600F069FAFFE7FFE700F049FBFFF76E
:1029C0001DFFFFF7BFFF80BD80B58AB0069005915F
:1029D000ADF812200020ADF80A00069818B1FFE704
:1029E000059820B9FFE70020ADF81E0088E0FFE75A
:1029F000EFF31080089008980190EFF3108072B602
:102A0000099040F21001C2F20001088801300880EC
:102A1000FFE70698FFF78CFEADF80E00BDF80E003C
:102A200090B9FFE7FFE740F21001C2F20001088809
:102A300001380880000410B9FFE762B6FFE7FFE73E
:102A40000020ADF81E005BE0BDF80E00BDF81210CE
:102A5000884205DBFFE7BDF81200ADF80C0004E08A
:102A6000BDF80E00ADF80C00FFE7FFE70020ADF861
:102A70001000FFE7BDF81000BDF80C10884226DA00
:102A8000FFE70598BDF80A100844069A1168528AB3
:102A9000FDF76AFB0698418ABDF80A000844ADF8C4
:102AA0000A00069908684A8A801A08600699086828
:102AB0008968884204D2FFE70699C8680860FFE782
:102AC000FFE7BDF810000130ADF81000D2E7BDF807
:102AD0000C200699888A801A8882FFE740F210014C
:102AE000C2F20001088801380880000410B9FFE72D
:102AF00062B6FFE7FFE7BDF80C00ADF81E00FFE788
:102B0000BDF81E000AB080BD80B588B00490039166
:102B1000ADF80A200020ADF80400049818B1FFE7D2
:102B2000039820B9FFE700208DF817007BE0FFE74E
:102B3000EFF31080069006980090EFF3108072B6C5
:102B4000079040F21001C2F20001088801300880AD
:102B5000FFE70498FFF7ECFDADF80600BDF80A00AA
:102B60000499098ABDF80620891A884212DDFFE718
:102B7000FFE740F21001C2F2000108880138088026
:102B8000000410B9FFE762B6FFE7FFE700208DF809
:102B9000170048E00020ADF80800FFE7BDF8080086
:102BA000BDF80A10884226DAFFE7049A50680399B4
:102BB000BDF804301944528AFDF7D6FA0498418AC8
:102BC000BDF804000844ADF80400049948684A8A36
:102BD000801A4860049948688968884204D2FFE7EF
:102BE0000499C8684860FFE7FFE7BDF808000130B6
:102BF000ADF80800D2E7BDF80A200499888A10448D
:102C00008882FFE740F21001C2F200010888013813
:102C10000880000410B9FFE762B6FFE7FFE7012074
:102C20008DF81700FFE79DF8170008B080BD000081
:102C300082B00190019820B1FFE70198408900908F
:102C400002E000200090FFE7009880B202B07047D9
:102C500082B00190019830B1FFE7019988884989D5
:102C6000401A009002E000200090FFE7009880B238
:102C700002B0704780B588B006900591ADF812207B
:102C8000ADF81030069838B1FFE7059820B1FFE79E
:102C9000BDF8120020B9FFE70020ADF81E0057E094
:102CA0000698FFF7C5FFADF80E00BDF81000BDF89F
:102CB0000E10884204DBFFE70020ADF81E0047E05D
:102CC000BDF81200BDF80E10BDF81020891A884218
:102CD00007DDFFE7BDF80E00BDF81010401A0190A7
:102CE00003E0BDF812000190FFE70198ADF80C0079
:102CF0000020ADF80A00FFE7BDF80A00BDF80C108F
:102D0000884220DAFFE706980089BDF810100844D1
:102D1000BDF80A10421806988188B2FBF1F000FB5A
:102D20001120ADF8080006980068BDF80810405C56
:102D30000599BDF80A208854FFE7BDF80A00013064
:102D4000ADF80A00D8E7BDF80C00ADF81E00FFE7AB
:102D5000BDF81E0008B080BD80B586B00490039118
:102D6000ADF80A20049838B1FFE7039820B1FFE7D7
:102D7000BDF80A0020B9FFE70020ADF8160045E0D5
:102D80000498FFF765FFADF80800BDF80A00BDF82C
:102D90000810884204DDFFE7BDF80800009003E05A
:102DA000BDF80A000090FFE70098ADF8060000208B
:102DB000ADF80400FFE7BDF80400BDF80610884236
:102DC00019DAFFE70398BDF80410405C049A116813
:102DD000D28888540498C088431C04998A88B3FB1D
:102DE000F2F000FB1230C880FFE7BDF804000130AC
:102DF000ADF80400DFE7BDF80620049948891044C7
:102E00004881BDF80600ADF81600FFE7BDF81600D2
:102E100006B080BD80B584B00390ADF80A10039869
:102E200020B1FFE7BDF80A0008B9FFE729E00398E1
:102E3000FFF7FEFEADF80800BDF80A00BDF8081067
:102E4000884204DDFFE7BDF80800009003E0BDF80C
:102E50000A000090FFE70098ADF80600039800898B
:102E6000BDF80610431803998A88B3FBF2F000FB03
:102E700012300881BDF8062003994889801A4881DC
:102E8000FFE704B080BD000080B588B08DF81E005B
:102E90008DF81D100692ADF816309DF81E008DF8C5
:102EA0000C009DF81D008DF80D0006980490BDF8EB
:102EB0001600ADF80E0040F25430C2F20000FFF7E9
:102EC00037FCADF80A00BDF80A00212812D3FFE74D
:102ED00043F2BA30C0F600002121FFF7BDFB9DF898
:102EE0000A0040F22431C2F20001087000208DF87F
:102EF0001F0041E0BDF80A000130ADF80A0040F2C1
:102F00002430C2F200000078BDF80A10884218DAB6
:102F1000FFE79DF80A1040F22430C2F20000017071
:102F20000178642048434FF27D02C0F2C172A0FBD9
:102F30000220C2B243F2B240C0F60000FFF78CFBA1
:102F4000FFE79DF81E109DF81D20069BBDF816009A
:102F5000EC46CCF8000043F21850C0F60000FFF732
:102F60007BFB40F25430C2F2000003A90122FFF7BC
:102F7000CBFD8DF81F00FFE79DF81F0008B080BD56
:102F800080B5FEF7DBF944F6D351C1F26201A0FB34
:102F900001108009FEF74EFE0420FEF72FFE4FF0D1
:102FA000FF3000221146FEF775F880BD80B584B071
:102FB00040F25430C2F20000FFF7BAFB20B9FFE73D
:102FC00000208DF80F003FE040F25430C2F20000C4
:102FD00001A90122FFF7F8FC9DF8040040F224311A
:102FE000C2F200014978884209DDFFE740F254301F
:102FF000C2F20000FFF79CFB8DF80F0024E09DF863
:10300000041040F22430C2F2000000EB810040685E
:1030100088B1FFE740F22432C2F200029DF80400BA
:103020009DF8051002EB8002D2F804C0029ABDF8A8
:103030000630E047FFE740F25430C2F20000FFF7ED
:1030400077FB8DF80F00FFE79DF80F0004B080BDFF
:1030500080B582B00020ADF80400ADF80600FFE7AF
:10306000BDF8060007285BD8FFE7BDF8061040F260
:103070006C30C2F2000000EB8100806C002848D068
:10308000FFE7BDF804000130ADF8040040F26C30F9
:10309000C2F20000B0F86800BDF80410884214DAEB
:1030A000FFE7BDF8041040F26C30C2F20000A0F857
:1030B0006810B0F8681064204843C20843F2AB506F
:1030C000C0F60000FFF7C8FAFFE7BDF8062040F29F
:1030D0006C30C2F20000283050F82210013940F85C
:1030E0002210BDF8061050F8210088B9FFE7BDF89E
:1030F000061040F26C30C2F2000000EB81029168D1
:103100009162BDF8061000EB8100806C8047FFE7FC
:10311000FFE7FFE7BDF806000130ADF806009FE7C6
:1031200002B080BD80B584B08DF80F009DF80F000F
:1031300040F2DC32C2F200024FF4A66110FB012023
:103140000290029890F81103C00708B1FFE71DE054
:103150008020ADF80600029901F54670BDF8062002
:10316000114401F58671FFF7F7FDADF804000299EF
:10317000012081F811030299002081F81003BDF8A5
:1031800004200299C86F1044C867FFE704B080BDEF
:1031900080B584B08DF80E009DF80E00FFF70AFB95
:1031A00020B9FFE7FE208DF80F0056E09DF80E00D5
:1031B00040F2DC32C2F200024FF4A66110FB0120A3
:1031C0000290029890F81303C00720B1FFE7FD209A
:1031D0008DF80F0041E0029800F54970FFF728FDD7
:1031E000ADF80600BDF8060020B9FFE700208DF815
:1031F0000F0032E0BDF80600B0F5807F04DDFFE788
:103200004FF48070009003E0BDF806000090FFE7E7
:103210000098ADF80400029901F5497001F50371B9
:10322000BDF804200023FFF725FD029800F5037187
:10323000BDF80420FEF7B2FE20B1FFE7FF208DF8B5
:103240000F000AE00299012081F81303029981F826
:10325000740000208DF80F00FFE79DF90F0004B007
:1032600080BD0000704702E008C8121F08C1002A94
:10327000FAD170477047002001E001C1121F002AF7
:10328000FBD1704702030405060708090A0B0C0D61
:103290000E0F101112131415161718191A1B1C1DD6
:1032A0001E1F202122232425262728292A2B2C2DC6
:1032B0002E2F303132333435363738393A3B3C3DB6
:1032C0003E3F3F3F000000000000000001020304F9
:1032D000060708094D61784576656E743D25642CB6
:1032E00055736550657263656E746167653D2564ED
:1032F00025250D0A0D0A000D0A0D0A637265617419
:10330000654576656E7446616C73652C706C65619D
:103310007365436865636B202245564E545F434F87
:103320004E43555252454E54223D25640D0A0D0A16
:10333000004576656E7449734E6F744372656174AF
:1033400065640D0A000D0A637265617465457665F2
:103350006E74537563636573732C49643D25642CE7
:103360007046756E6374696F6E3D25780D0A004373
:103370006C65616E4576656E7453756363657373D2
:103380002C49643D25642C7046756E6374696F6EBC
:103390003D25780D0A00726573657474696E674522
:1033A00076656E742C49643D25642C7046756E6399
:1033B00074696F6E3D25780D0A000D0A0D0A74615F
:1033C000736B4D736753656E6446616C73652C70E7
:1033D0006C6561736520636865636B20224D41589D
:1033E0005F5441534B5F4D53475F4255465F4E55C7
:1033F0004D223D25640D0A0D0A000D0A0D0A746167
:10340000736B43726561746546616C73652C706C97
:103410006561736520636865636B20224D41585F69
:103420005441534B5F4E554D223D25640D0A0D0A04
:10343000004D617854696D65723D25642C55736546
:1034400050657263656E746167653D256425250D61
:103450000A004D61784576656E743D25642C557380
:103460006550657263656E746167653D25642525E9
:103470000D0A004D73674D61783D25642C557365C9
:1034800050657263656E746167653D256425250D21
:103490000A005461736B4D61783D25642C5573654A
:1034A00050657263656E746167653D256425250D01
:1034B0000A0067745461736B2E7461736B4D73678C
:1034C0004D61783D25642C55736167652070657288
:1034D00063656E746167653D256425250D0A00747A
:1034E00061736B4372656174655375636365737370
:1034F0002C5461736B49643D25640D0A007461733B
:103500006B44656C537563636573732C5461736BA3
:1035100049643D25640D0A0053656E644D7367541C
:103520006F5461736B537563636573732C5461736C
:103530006B49643D25642C4D73673D25782C64618F
:103540007461416464726573733D25782C73697A84
:10355000653D25640D0A000D0A7461736B49734360
:103560007265617465640D0A007461736B44656C07
:103570004661696C0D0A0069646C6520496E697466
:103580000D0A0063707555736550657263656E74DE
:103590006167653D256425252C69646C653D25784A
:1035A0002C626173653D25780D0A004D6178546980
:1035B0006D65723D25642C55736550657263656E4B
:1035C000746167653D256425250D0A0D0A00637247
:1035D0006561746554696D657246616C73652C70C4
:1035E0006C65617365436865636B20224D41585F6C
:1035F00054494D45525F4E554D223D25640D0A00FC
:1036000054696D657254696D654861734265656E94
:103610004D6F6469666965640D0A0054696D657271
:1036200049734E6F74437265617465640D0A00637B
:10363000726561746554696D657253756363657312
:10364000732C49443D25642C46756E6374696F6E16
:103650003D25780D0A0000007836000800000020A3
:1036600010000000663200088836000810000020B4
:10367000C02100007632000800127A00010000002C
:0836800008000000000000003A
:0400000508000131BD
:00000001FF
