:020000040800F2
:10000000F03C002045010008ED2B0008E52B00081E
:10001000E92B0008E5010008053300080000000096
:10002000000000000000000000000000A92C0008F3
:100030006502000800000000692C0008012D00087E
:100040005F0100085F0100085F0100085F01000810
:100050005F0100085F0100086902000885030008CD
:10006000B1030008DD03000809040008E9010008E5
:10007000FD0100085F0100085F0100085F01000842
:100080005F0100085F0100085F0100085F010008D0
:100090005F0100085F0100085F01000835040008E7
:1000A0005F0100085F0100085F0100085F010008B0
:1000B000A12D00085F0100085F0100085F01000832
:1000C0005F0100085F0100085F0100085F01000890
:1000D0005F0100085F010008F13200085F010008BD
:1000E000910200085F0100085F0100085F0100083D
:1000F0005F0100085F0100085F0100085F01000860
:100100005F0100085F0100085F0100085F0100084F
:100110005F0100085F0100085F0100085F0100083F
:10012000110200085F0100085F0100085F0100087C
:10013000DFF80CD000F03CF80048004725380008F4
:10014000F03C00200648804706480047FEE7FEE7EF
:10015000FEE7FEE7FEE7FEE7FEE7FEE7FEE7FEE777
:10016000912D00083101000840EA01039B0703D0EC
:1001700009E008C9121F08C0042AFAD203E011F8E6
:10018000013B00F8013B521EF9D27047D2B201E0A8
:1001900000F8012B491EFBD270470022F6E710B58C
:1001A00013460A4604461946FFF7F0FF204610BDE5
:1001B0001CB509480090094801900546009C06E0DE
:1001C000E06840F0010394E8070098471034AC421F
:1001D000F6D3FFF7B1FF000020610008406100087E
:1001E000FFE7FEE7FFE7FEE780B541F6FC60C2F2FD
:1001F0000000D0F86C0500F019FC80BD80B541F618
:10020000FC60C2F20000D0F8700500F00FFC80BD69
:100210007047000084B0039002910192009303980C
:10022000C16B026C012090404860009803990968F6
:10023000486003984068102809D1FFE701980399A6
:1002400009688860029803990968C86008E0029804
:10025000039909688860019803990968C860FFE7F5
:1002600004B070477047000080B540F21440C4F2FB
:1002700001000068C00750B1FFE7002003F0D2F989
:1002800040F21441C4F2010101200860FFE780BD83
:1002900080B540F21440C4F2010000684005002817
:1002A0000BD5FFE70A2003F0BDF940F21441C4F278
:1002B00001014FF480600860FFE740F21440C4F28F
:1002C00001000068000500280BD5FFE70B2003F0B4
:1002D000A9F940F21441C4F201014FF40060086032
:1002E000FFE740F21440C4F201000068C004002897
:1002F0000BD5FFE70C2003F095F940F21441C4F24E
:1003000001014FF480500860FFE740F21440C4F24E
:1003100001000068800400280BD5FFE70D2003F0E2
:1003200081F940F21441C4F201014FF40050086019
:10033000FFE740F21440C4F20100006840040028C6
:100340000BD5FFE70E2003F06DF940F21441C4F223
:1003500001014FF480400860FFE740F21440C4F20E
:1003600001000068000400280BD5FFE70F2003F010
:1003700059F940F21441C4F201014FF40040086001
:10038000FFE780BD80B540F21440C4F20100006870
:10039000800700280AD5FFE7012003F043F940F267
:1003A0001441C4F2010102200860FFE780BD000093
:1003B00080B540F21440C4F20100006840070028F4
:1003C0000AD5FFE7022003F02DF940F21441C4F2F0
:1003D000010104200860FFE780BD000080B540F205
:1003E0001440C4F201000068000700280AD5FFE7A6
:1003F000032003F017F940F21441C4F20101082070
:100400000860FFE780BD000080B540F21440C4F2F0
:1004100001000068C00600280AD5FFE7042003F0A9
:1004200001F940F21441C4F2010110200860FFE715
:1004300080BD000080B540F21440C4F201000068A5
:10044000800600280AD5FFE7052003F0EBF840F20C
:100450001441C4F2010120200860FFE740F214407B
:10046000C4F201000068400600280AD5FFE7062014
:1004700003F0D8F840F21441C4F2010140200860B2
:10048000FFE740F21440C4F20100006800060028B3
:100490000AD5FFE7072003F0C5F840F21441C4F283
:1004A000010180200860FFE740F21440C4F201001F
:1004B0000068C00500280BD5FFE7082003F0B2F85C
:1004C00040F21441C4F201014FF480700860FFE76C
:1004D00040F21440C4F201000068800500280BD5EA
:1004E000FFE7092003F09EF840F21441C4F2010135
:1004F0004FF400700860FFE780BD000083B00190FA
:1005000000208DF80300019890F8210002280DD0FA
:10051000FFE7019904208863FFE70199002081F833
:100520002000FFE701208DF80B0021E00198016811
:10053000086820F00E00086001980168086820F043
:10054000010008600198C16B026C01209040486076
:10055000FFE70199012081F82100FFE701990020C0
:1005600081F82000FFE79DF803008DF80B00FFE7FE
:100570009DF80B0003B0704780B596B01590002031
:100580008DF85300159890F82100022807D0FFE756
:1005900015990420886301208DF8530074E11598A3
:1005A0000168086820F00E00086015980168086866
:1005B00020F001000860159800688121C4F2020152
:1005C0008842C0F0A880FFE7159800680821C4F2AF
:1005D0000201884203D1FFE70120139094E01598AF
:1005E00000681C21C4F20201884203D1FFE71020F9
:1005F000129086E0159800683021C4F2020188420A
:1006000004D1FFE74FF48070119077E015980068EF
:100610004421C4F20201884204D1FFE74FF4805024
:10062000109068E0159800685821C4F202018842D1
:1006300004D1FFE74FF480300F9059E0159800681F
:100640006C21C4F20201884204D1FFE74FF480100C
:100650000E904AE0159800688021C4F20201884299
:1006600004D1FFE74FF080700D903BE015980068D3
:1006700040F20841C4F20201884203D1FFE70120A1
:100680000C902CE01598006840F21C41C4F2020165
:10069000884203D1FFE710200B901DE015980068F9
:1006A00040F23041C4F20201884204D1FFE74FF426
:1006B00080700A900DE01598016840F24442C4F23F
:1006C00002024FF48030914208BF4FF480500A90EC
:1006D000FFE70A980B90FFE70B980C90FFE70C9848
:1006E0000D90FFE70D980E90FFE70E980F90FFE733
:1006F0000F981090FFE710981190FFE71198129053
:10070000FFE712981390FFE7139840F20441C4F2F8
:1007100002010860A5E0159800680821C4F20201F2
:10072000884203D1FFE70120099094E01598006802
:100730001C21C4F20201884203D1FFE71020089077
:1007400086E0159800683021C4F20201884204D185
:10075000FFE74FF48070079077E015980068442118
:10076000C4F20201884204D1FFE74FF480500690A2
:1007700068E0159800685821C4F20201884204D14B
:10078000FFE74FF48030059059E0159800686C2120
:10079000C4F20201884204D1FFE74FF480100490B4
:1007A0004AE0159800688021C4F20201884204D111
:1007B000FFE74FF0807003903BE01598006840F22F
:1007C0000841C4F20201884203D1FFE701200290F0
:1007D0002CE01598006840F21C41C4F202018842E6
:1007E00003D1FFE7102001901DE01598006840F24A
:1007F0003041C4F20201884204D1FFE74FF4807017
:1008000000900DE01598016840F24442C4F20202E3
:100810004FF48030914208BF4FF480500090FFE7C2
:1008200000980190FFE701980290FFE7029803907B
:10083000FFE703980490FFE704980590FFE7059809
:100840000690FFE706980790FFE707980890FFE7F4
:1008500008980990FFE709980421C4F20201086092
:10086000FFE71599012081F82100FFE71599002085
:1008700081F82000FFE71598406B20B1FFE715983D
:10088000416B8847FFE7FFE79DF8530016B080BD36
:1008900084B0039002910398006840F20741C4F2CB
:1008A0000201884210D8FFE7039800684FF6F871FC
:1008B000CBF6FD7108444CF6CD41CCF6CC41A0FB03
:1008C00001100009019011E0039800684FF6F8311B
:1008D000CBF6FD7108444CF6CD41CCF6CC41A0FBE3
:1008E0000101072000EB11100190FFE7FFE741F243
:1008F0001800C4F20200016841F0010101600068C3
:1009000000F0010000900098FFE7019820F003003C
:100910000822C4F201028058019901F003034FEA52
:10092000C30C7F2303FA0CF39843029B03FA0CF3E6
:10093000184321F00301885004B0704782B0009042
:10094000009820B9FFE701208DF807006AE00098C1
:100950000168086820F00100086000980168002024
:1009600008600099096848600099096888600099E2
:100970000968C8600098006840F20741C4F20201AB
:10098000884218D8FFE7009908684FF6F872CBF64E
:10099000FD7210444CF6CD42CCF6CC42A0FB0202D4
:1009A0006FF0030000EA9200086400990020C4F28E
:1009B0000200C86318E0009908684FF6F832CBF6D9
:1009C000FD7210444CF6CD42CCF6CC42A0FB0202A4
:1009D0006FF0030000EA92000864009940F20040C2
:1009E000C4F20200C863FFE70098C16B026C0120EB
:1009F000904048600099002088620099C862009980
:100A000008630099486300998863009981F8210080
:100A1000FFE70099002081F82000FFE700208DF813
:100A20000700FFE79DF8070002B0704780B5ACB043
:100A30002B902B98C06B00682A902B980068006858
:100A400029902A982B99096CC8404007002840F14A
:100A50007581FFE79DF8A4004007002840F16E81F2
:100A6000FFE72B98006800688006002807D4FFE79E
:100A70002B980168086820F004000860FFE72B98B5
:100A800000688121C4F202018842C0F0A880FFE71B
:100A90002B9800680821C4F20201884203D1FFE7C5
:100AA0000420289094E02B9800681C21C4F20201D5
:100AB000884203D1FFE74020279086E02B9800680A
:100AC0003021C4F20201884204D1FFE74FF4806074
:100AD000269077E02B9800684421C4F202018842F6
:100AE00004D1FFE74FF48040259068E02B98006820
:100AF0005821C4F20201884204D1FFE74FF480205C
:100B0000249059E02B9800686C21C4F202018842BD
:100B100004D1FFE74FF4800023904AE02B9800684F
:100B20008021C4F20201884204D1FFE74FF08060C7
:100B300022903BE02B98006840F20841C4F2020189
:100B4000884203D1FFE7042021902CE02B98006815
:100B500040F21C41C4F20201884203D1FFE7402069
:100B600020901DE02B98006840F23041C4F2020151
:100B7000884204D1FFE74FF480601F900DE02B986E
:100B8000016840F24442C4F202024FF480209142D4
:100B900008BF4FF480401F90FFE71F982090FFE7A9
:100BA00020982190FFE721982290FFE72298239038
:100BB000FFE723982490FFE724982590FFE72598E6
:100BC0002690FFE726982790FFE727982890FFE7D1
:100BD000289840F20441C4F202010860A5E02B9875
:100BE00000680821C4F20201884203D1FFE7042013
:100BF0001E9094E02B9800681C21C4F202018842E8
:100C000003D1FFE740201D9086E02B98006830213B
:100C1000C4F20201884204D1FFE74FF480601C90C7
:100C200077E02B9800684421C4F20201884204D185
:100C3000FFE74FF480401B9068E02B980068582134
:100C4000C4F20201884204D1FFE74FF480201A90D9
:100C500059E02B9800686C21C4F20201884204D14B
:100C6000FFE74FF4800019904AE02B98006880213C
:100C7000C4F20201884204D1FFE74FF0806018906F
:100C80003BE02B98006840F20841C4F20201884220
:100C900003D1FFE7042017902CE02B98006840F266
:100CA0001C41C4F20201884203D1FFE740201690A4
:100CB0001DE02B98006840F23041C4F202018842E6
:100CC00004D1FFE74FF4806015900DE02B98016888
:100CD00040F24442C4F202024FF48020914208BF25
:100CE0004FF480401590FFE715981690FFE716988F
:100CF0001790FFE717981890FFE718981990FFE7EB
:100D000019981A90FFE71A981B90FFE71B981C9000
:100D1000FFE71C981D90FFE71D981E90FFE71E98A7
:100D20000421C4F202010860FFE72B98C06A20B1D9
:100D3000FFE72B98C16A8847FFE7B7E12A982B990C
:100D4000096CC8408007002840F17F81FFE79DF8CB
:100D5000A4008007002840F17881FFE72B98006805
:100D60000068800600280BD4FFE72B98016808680C
:100D700020F00A0008602B99012081F82100FFE78C
:100D80002B9800688121C4F202018842C0F0A8803B
:100D9000FFE72B9800680821C4F20201884203D1C2
:100DA000FFE70220149094E02B9800681C21C4F205
:100DB0000201884203D1FFE72020139086E02B98A0
:100DC00000683021C4F20201884204D1FFE74FF4E9
:100DD0000070129077E02B9800684421C4F2020161
:100DE000884204D1FFE74FF40050119068E02B983F
:100DF00000685821C4F20201884204D1FFE74FF491
:100E00000030109059E02B9800686C21C4F2020168
:100E1000884204D1FFE74FF400100F904AE02B986E
:100E200000688021C4F20201884204D1FFE74FF03C
:100E300000700E903BE02B98006840F20841C4F22D
:100E40000201884203D1FFE702200D902CE02B988D
:100E5000006840F21C41C4F20201884203D1FFE75E
:100E600020200C901DE02B98006840F23041C4F225
:100E70000201884204D1FFE74FF400700B900DE0AF
:100E80002B98016840F24442C4F202024FF4003051
:100E9000914208BF4FF400500B90FFE70B980C9065
:100EA000FFE70C980D90FFE70D980E90FFE70E9866
:100EB0000F90FFE70F981090FFE710981190FFE751
:100EC00011981290FFE712981390FFE7139814906F
:100ED000FFE7149840F20441C4F202010860A5E063
:100EE0002B9800680821C4F20201884203D1FFE771
:100EF00002200A9094E02B9800681C21C4F20201A1
:100F0000884203D1FFE72020099086E02B980068F3
:100F10003021C4F20201884204D1FFE74FF400708F
:100F2000089077E02B9800684421C4F202018842BF
:100F300004D1FFE74FF40050079068E02B98006859
:100F40005821C4F20201884204D1FFE74FF4003077
:100F5000069059E02B9800686C21C4F20201884287
:100F600004D1FFE74FF4001005904AE02B98006889
:100F70008021C4F20201884204D1FFE74FF00070E3
:100F800004903BE02B98006840F20841C4F2020153
:100F9000884203D1FFE7022003902CE02B980068E1
:100FA00040F21C41C4F20201884203D1FFE7202035
:100FB00002901DE02B98006840F23041C4F202011B
:100FC000884204D1FFE74FF4007001900DE02B98A8
:100FD000016840F24442C4F202024FF400309142F0
:100FE00008BF4FF400500190FFE701980290FFE71F
:100FF00002980390FFE703980490FFE70498059098
:10100000FFE705980690FFE706980790FFE7079827
:101010000890FFE708980990FFE709980A90FFE712
:101020000A980421C4F202010860FFE7FFE72B9948
:10103000002081F82000FFE72B98806A20B1FFE7AD
:101040002B98816A8847FFE72FE02A982B99096C33
:10105000C8400007002827D5FFE79DF8A400000737
:10106000002821D5FFE72B980168086820F00E00C2
:1010700008602B98C26B016C012000FA01F15160ED
:101080002B9988632B9981F82100FFE72B99002089
:1010900081F82000FFE72B98006B20B1FFE72B9829
:1010A000016B8847FFE7FFE7FFE7FFE72CB080BD54
:1010B00083B0019000200090019820B9FFE7012043
:1010C0008DF80B006AE00198006840F20741C4F215
:1010D0000201884218D8FFE7019908684FF6F872B4
:1010E000CBF6FD7210444CF6CD42CCF6CC42A0FBC0
:1010F00002026FF0030000EA9200086401990020E8
:10110000C4F20200C86318E0019908684FF6F8328B
:10111000CBF6FD7210444CF6CD42CCF6CC42A0FB8F
:1011200002026FF0030000EA92000864019940F2A5
:101130000040C4F20200C863FFE70199022081F871
:1011400021000198006800680090009843F6F07153
:101150008843009001994868D1F808C0CB680A69B3
:1011600040EA0C00184310434A6910438A6910434F
:10117000C9690143009808430090009801990968E3
:101180000860019900208863019A012182F82110EA
:10119000019981F820008DF80B00FFE79DF80B0006
:1011A00003B0704780B586B004900391029201931A
:1011B00000208DF80300FFE7049890F82000012834
:1011C00004D1FFE702208DF817004CE004990120BC
:1011D00081F82000FFE7FFE7049890F8210001283C
:1011E00032D1FFE70499022081F821000499002000
:1011F000886304980168086820F00100086004987A
:101200000399029A019BFFF705F80498C06A38B168
:10121000FFE704980168086840F00E0008600CE0E1
:1012200004980168086820F00400086004980168C8
:10123000086840F00A000860FFE704980168086841
:1012400040F00100086009E0FFE70499002081F800
:101250002000FFE702208DF80300FFE79DF8030060
:101260008DF81700FFE79DF8170006B080BD00005D
:101270008AB00990089100200790FFE7089800685D
:101280000799C840002800F09881FFE70898006897
:10129000079A01219140084006900698002800F026
:1012A0008881FFE708984068022805D0FFE7089882
:1012B0004068122826D1FFE7099807996FF00302CA
:1012C00002EA51010844006A0590079800F00700FF
:1012D00081000F2000FA01F10598884305900898D5
:1012E0000069079901F00701890000FA01F10598EA
:1012F0000843059005980999079B02EA5302114497
:101300000862FFE7099800680590079841000320EC
:1013100000FA01F10598884305900898406800F0AC
:1013200003000799490000FA01F105980843059068
:101330000598099908600898406801280FD0FFE7D0
:101340000898406802280AD0FFE7089840681128EA
:1013500005D0FFE70898406812282FD1FFE70998C9
:101360008068059007984100032000FA01F1059874
:10137000884305900898C0680799490000FA01F170
:101380000598084305900598099988600998406870
:1013900005900799012000FA01F10598884305900E
:1013A00008984068C0F30010079900FA01F1059809
:1013B00008430590059809994860FFE70998C068B7
:1013C000059007984100032000FA01F10598884331
:1013D0000590089880680799490000FA01F105987E
:1013E0000843059005980999C8600898C079C00617
:1013F000002840F1DD80FFE7FFE741F21800C4F26A
:101400000200016841F001010160006800F0010084
:1014100004900498FFE7079820F003001421C4F219
:10142000010140580590079800F0030081000F204B
:1014300000FA01F10598884305900998B0F1904FA2
:1014400003D1FFE70020039034E0099840F2004107
:10145000C4F60001884203D1FFE70120029026E094
:10146000099840F60001C4F60001884203D1FFE765
:101470000220019018E0099840F60041C4F60001EE
:10148000884203D1FFE7032000900AE0099941F266
:101490000002C4F600020720914208BF0420009019
:1014A000FFE700980190FFE701980290FFE702989C
:1014B0000390FFE70398079901F00301890000FA00
:1014C00001F10598084305900598079921F003015B
:1014D0001422C4F20102885040F20040C4F201001C
:1014E00000680590069905988843059008988079CA
:1014F000C00728B1FFE70699059808430590FFE764
:10150000059840F20041C4F20101086040F2044035
:10151000C4F201000068059006990598884305907B
:10152000089880798007002805D5FFE70699059877
:1015300008430590FFE7059840F20441C4F2010119
:10154000086040F20840C4F2010000680590069966
:1015500005988843059008988079C006002805D52D
:10156000FFE70699059808430590FFE7059840F2C4
:101570000841C4F20101086040F20C40C4F20100CD
:101580000068059006990598884305900898807929
:101590008006002805D5FFE70699059808430590C1
:1015A000FFE7059840F20C41C4F201010860FFE733
:1015B000FFE707980130079060E60AB07047000027
:1015C00082B00190ADF8021001984069BDF8021098
:1015D000084205D0FFE7BDF802000199886204E0E7
:1015E000BDF8020001998861FFE702B07047000072
:1015F00043F6EC00C2F200000068704740F20D00B4
:10160000C2F20000027843F6EC01C2F20001086861
:10161000104408607047000080B5042000F0A4F872
:101620000F2000F005F800F03BF8002080BD00001E
:1016300080B582B0009040F20000C2F20000006865
:1016400040F20D01C2F200010A784FF47A71B1FB49
:10165000F2F1B0FBF1F000F047FE20B1FFE701200E
:101660008DF8070018E0009807280DD8FFE70099CB
:101670004FF0FF30002200F05DF8009840F21001BA
:10168000C2F20001086003E001208DF8070003E0CA
:1016900000208DF80700FFE79DF8070002B080BD2D
:1016A00084B0FFE741F21800C4F20200016841F083
:1016B00001010160006800F0010003900398FFE75A
:1016C000FFE741F21C00C4F20200016841F08051C2
:1016D0000160006800F0805002900298FFE7FFE789
:1016E00041F23400C4F20200016841F004010160DB
:1016F000006800F0040001900198FFE7FFE741F265
:101700003400C4F20200016841F008010160006881
:1017100000F0080000900098FFE704B07047000058
:1017200080B582B08DF807009DF9070001F0ECFD4F
:1017300002B080BD80B586B08DF817000491039289
:101740000020029001F0F8FD02909DF91700019031
:1017500002980499039A01F04BFA0146019801F0AE
:10176000F3FD06B080BD000080B582B00190019805
:1017700001F00CFE02B080BD80B584B002900191F2
:10178000029820B9FFE701208DF80F0021E10198B0
:1017900042F20001C4F20201096801F00F0188421F
:1017A00016D9FFE742F20000C4F20200016821F0FE
:1017B0000F01019A11430160006800F00F000199C8
:1017C000884204D0FFE701208DF80F0001E1FFE718
:1017D00002980078800700282AD5FFE70298007851
:1017E0004007002809D5FFE741F20401C4F20201D5
:1017F000086840F4E0600860FFE70298007800079E
:10180000002809D5FFE741F20401C4F2020108688B
:1018100040F460500860FFE741F20401C4F20201A5
:10182000086820F0F000029A926810430860FFE711
:1018300002980078C007002866D0FFE70298406849
:10184000012811D1FFE741F20000C4F20200006854
:1018500000F400310020B0EB514F04D1FFE701202C
:101860008DF80F00B5E024E00298406802280ED100
:10187000FFE741F20000C4F202000068C001002846
:1018800004D4FFE701208DF80F00A2E010E041F240
:101890000000C4F20200006800F002010020B0EB7A
:1018A000510F04D1FFE701208DF80F0091E0FFE711
:1018B000FFE741F20401C4F20201086820F00300CE
:1018C000029A526810430860FFF792FE0090FFE70B
:1018D00041F20400C4F20200006800F00C0002991A
:1018E0004968B0EB810F0ED0FFE7FFF781FE00994A
:1018F000401A41F28931884204D3FFE703208DF872
:101900000F0066E0E4E7FFE7019842F20001C4F24D
:101910000201096801F00F01884216D2FFE742F286
:101920000000C4F20200016821F00F01019A114386
:101930000160006800F00F000199884204D0FFE7C1
:1019400001208DF80F0044E0FFE70298007840077F
:1019500000280CD5FFE741F20401C4F20201086837
:1019600020F4E060029AD26810430860FFE7029812
:101970000078000700280DD5FFE741F20401C4F20A
:101980000201086820F46050029A126940EAC2001D
:101990000860FFE700F04CF841F20401C4F20201D4
:1019A0000968C9B20A0945F63211C0F60001895C1E
:1019B000C84040F20001C2F20001086040F210008D
:1019C000C2F200000068FFF733FE00208DF80F0020
:1019D000FFE79DF80F0004B080BD000040F200005A
:1019E000C2F200000068704780B5FFF7F7FF41F2D0
:1019F0000401C4F202010968C1F3022245F6421152
:101A0000C0F60001895CC84080BD000080B5FFF7CA
:101A1000E5FF41F20401C4F202010968C1F3C222E8
:101A200045F64211C0F60001895CC84080BD000047
:101A300080B598B045F6F201C0F6000108A8402232
:101A4000FEF792FB40F20120ADF81E000020069048
:101A5000059004900390029041F20400C4F2020049
:101A600000680690069800F00C00014601910028DD
:101A70004AD0FFE70198042804D0FFE7019808281E
:101A800006D042E042F20040C0F2F400029042E090
:101A9000069901F0C04001F47011400E40EA9141F6
:101AA00008A8405C0390069800F44030B0F5803FF1
:101AB00007D0FFE7069800F44030B0F5403F18D15A
:101AC000FFE741F20400C4F20200006800F40031B4
:101AD0000DF11E0040EA514000780590039842F253
:101AE0000041C0F2F40148430599B0FBF1F00490C5
:101AF00007E0039841F20021C0F27A0148430490C4
:101B0000FFE70498029006E0FFE741F20020C0F2F0
:101B10007A000290FFE7029818B080BD80B586B0C9
:101B20000490049820B9FFE701208DF81700D4E352
:101B300004980078C007002800F0D680FFE741F243
:101B40000400C4F20200006800F00C00042820D059
:101B5000FFE741F20400C4F20200006800F00C004C
:101B600008282BD1FFE741F20400C4F2020000680C
:101B700000F48030B0F5803F0BD0FFE741F2040065
:101B8000C4F20200006800F48030B0F5403F15D187
:101B9000FFE741F20000C4F20200006800F40031E7
:101BA0000020B0EB514F08D0FFE70498406820B9FF
:101BB000FFE701208DF817008FE394E00498406858
:101BC000B0F5803F0CD1FFE741F23801C4F20201C9
:101BD000086820F44070049A926810430860FFE798
:101BE000FFE704984068B0F5803F09D1FFE741F274
:101BF0000001C4F20201086840F48030086032E05D
:101C00000498406868B9FFE741F20001C4F202019C
:101C1000086820F480300860086820F4802008609C
:101C200020E004984068B0F5A02F0DD1FFE741F205
:101C30000001C4F20201086840F4802008600868CE
:101C400040F4803008600CE041F20001C4F202016F
:101C5000086820F480300860086820F4802008605C
:101C6000FFE7FFE7FFE7FFE704984068E8B1FFE719
:101C7000FFF7BEFC0390FFE741F20000C4F2020050
:101C8000006800F400310020B0EB514F0CD1FFE7A9
:101C9000FFF7AEFC0399401A652804D3FFE7032041
:101CA0008DF8170019E3E7E71CE0FFF7A1FC0390AC
:101CB000FFE741F20000C4F20200006800F40031C6
:101CC0000020B0EB514F0CD0FFE7FFF791FC0399D8
:101CD000401A652804D3FFE703208DF81700FCE2C3
:101CE000E7E7FFE7FFE7FFE70498007880070028B1
:101CF00040F19080FFE741F20400C4F20200006866
:101D000010F00C0F20D0FFE741F20400C4F20200F3
:101D1000006800F00C0008282CD1FFE741F2040015
:101D2000C4F20200006800F48030B0F5803F21D09A
:101D3000FFE741F20400C4F20200006800F48030C2
:101D4000B0F5403F16D0FFE741F20000C4F20200B8
:101D5000006800F002010020B0EB510F09D0FFE74E
:101D600004984069012804D0FFE701208DF817008E
:101D7000B3E24EE00498406928B3FFE741F2000166
:101D8000C4F20201086840F001000860FFF730FC6F
:101D90000390FFE741F20000C4F20200006800F087
:101DA00002010020B0EB510F0CD1FFE7FFF720FC40
:101DB0000399401A032804D3FFE703208DF8170086
:101DC0008BE2E7E724E041F20001C4F20201086877
:101DD00020F001000860FFF70BFC0390FFE741F2E1
:101DE0000000C4F20200006800F002010020B0EB25
:101DF000510F0CD0FFE7FFF7FBFB0399401A0328B4
:101E000004D3FFE703208DF8170066E2E7E7FFE75A
:101E1000FFE7FFE704980078C00600284FD5FFE7EA
:101E20000498806928B3FFE741F22801C4F2020157
:101E3000086840F010000860FFF7DAFB0390FFE746
:101E400041F22800C4F20200006800F020010020E6
:101E5000B0EB511F0CD1FFE7FFF7CAFB0399401A03
:101E6000032804D3FFE703208DF8170035E2E7E7E6
:101E700024E041F22801C4F20201086820F01000B9
:101E80000860FFF7B5FB0390FFE741F22800C4F2BA
:101E90000200006800F020010020B0EB511F0CD0C0
:101EA000FFE7FFF7A5FB0399401A032804D3FFE7D8
:101EB00003208DF8170010E2E7E7FFE7FFE704983B
:101EC00000780007002852D5FFE70498C06940B3A6
:101ED000FFE741F22401C4F20201086840F001006A
:101EE0000860FFF785FB0390FFE741F22400C4F28E
:101EF0000200006800F002010020B0EB510F0CD18D
:101F0000FFE7FFF775FB0399401A032804D3FFE7A7
:101F100003208DF81700E0E1E7E7012000F0A6FEBE
:101F200024E041F22401C4F20201086820F001001B
:101F30000860FFF75DFB0390FFE741F22400C4F265
:101F40000200006800F002010020B0EB510F0CD03D
:101F5000FFE7FFF74DFB0399401A032804D3FFE77F
:101F600003208DF81700B8E1E7E7FFE7FFE70498E3
:101F700000784007002840F1EF80FFE700208DF84F
:101F8000070041F21C00C4F202000068C0000028F3
:101F900013D4FFE7FFE741F21C00C4F2020001681E
:101FA00041F080510160006800F08050009000987E
:101FB000FFE701208DF80700FFE747F20000C4F2B9
:101FC00000000068C005002822D4FFE747F20001A6
:101FD000C4F20001086840F480700860FFF708FB55
:101FE0000390FFE747F20000C4F200000068C0055C
:101FF00000280CD4FFE7FFF7FBFA0399401A652885
:1020000004D3FFE703208DF8170066E1EAE7FFE756
:102010000498C06801280CD1FFE741F22001C4F206
:102020000201086820F01800049A12691043086041
:10203000FFE7FFE70498C068012809D1FFE741F2F4
:102040002001C4F20201086840F00100086031E09C
:102050000498C06868B9FFE741F22001C4F20201A8
:10206000086820F001000860086820F0040008609B
:102070001FE00498C06805280DD1FFE741F2200158
:10208000C4F20201086840F004000860086840F0EB
:10209000010008600CE041F22001C4F2020108686E
:1020A00020F001000860086820F004000860FFE7E5
:1020B000FFE7FFE7FFE70498C068F8B1FFE7FFF725
:1020C00097FA0390FFE741F22000C4F20200006893
:1020D00000F002010020B0EB510F0ED1FFE7FFF737
:1020E00087FA0399401A41F28931884204D3FFE705
:1020F00003208DF81700F0E0E5E71EE0FFF778FA1F
:102100000390FFE741F22000C4F20200006800F0F3
:1021100002010020B0EB510F0ED0FFE7FFF768FA85
:102120000399401A41F28931884204D3FFE7032022
:102130008DF81700D1E0E5E7FFE79DF807000128DB
:1021400009D1FFE741F21C01C4F20201086820F046
:1021500080500860FFE7FFE70498006A002800F05D
:10216000B880FFE741F20400C4F20200006800F00A
:102170000C00082800F08580FFE70498006A022818
:1021800059D1FFE741F20001C4F20201086820F0D2
:1021900080700860FFF72CFA0390FFE741F200001F
:1021A000C4F20200006800F000710020B0EB516F33
:1021B0000CD0FFE7FFF71CFA0399401A032804D359
:1021C000FFE703208DF8170087E0E7E741F20401FD
:1021D000C4F2020108684FF6FF72C9F6C0721040DF
:1021E000049B5A6A9B6A1A431043086041F200013B
:1021F000C4F20201086840F080700860FFF7F8F947
:102200000390FFE741F20000C4F20200006800F012
:1022100000710020B0EB516F0CD1FFE7FFF7E8F938
:102220000399401A032804D3FFE703208DF8170011
:1022300053E0E7E724E041F20001C4F2020108683C
:1022400020F080700860FFF7D3F90390FFE741F2B8
:102250000000C4F20200006800F000710020B0EB42
:10226000516F0CD0FFE7FFF7C3F90399401A032819
:1022700004D3FFE703208DF817002EE0E7E7FFE720
:1022800026E00498006A012804D1FFE701208DF8B8
:10229000170022E041F20400C4F20200006802903C
:1022A000029800F480300499496A88420AD1FFE715
:1022B00002980021C6F23C0108400499896A8842CC
:1022C00004D0FFE701208DF8170006E0FFE7FFE7E5
:1022D000FFE700208DF81700FFE79DF8170006B014
:1022E00080BD00007047000080B582B00190019869
:1022F00000F0DCFC02B080BD80B5FFF7F3FF80BDCD
:1023000080B582B00190002000900198006840697B
:10231000C0B2C0090090019890F84500212816D15C
:10232000FFE7009898B1FFE701980168486920F03D
:10233000800048610198C06B28B1FFE70198C06B2D
:10234000FEF7DCF8FFE7019800F032FEFFE70198A6
:1023500000684069C0F380100090019890F8460032
:10236000222816D1FFE7009898B1FFE7019801688D
:10237000486920F0400048610198006C28B1FFE7EF
:102380000198006CFEF7BAF8FFE7019800F0E8FD4D
:10239000FFE7002002B080BD80B582B000900098B9
:1023A00020B9FFE701208DF807001FE000992420E5
:1023B00081F8450000980168C86820F40050C860A2
:1023C000009800F0D5F9009900208864009981F800
:1023D0004500009981F84600FFE70099002081F848
:1023E0004400FFE700208DF80700FFE79DF8070095
:1023F00002B080BD80B584B0039000200290FFE75A
:10240000029804283BDCFFE7029841F6FC62C2F226
:1024100000024FF4A66100FB01200399884229D1F4
:10242000FFE7029841F6FC62C2F200024FF4A66197
:1024300000FB012001900199D1F880000130C1F822
:1024400080000199002081F87400019981F87500DD
:10245000019981F81303019981F814030198406EE2
:1024600038B1FFE701999DF808004A6E896E9047E0
:10247000FFE704E0FFE7029801300290C0E704B0F4
:1024800080BD000080B588B007900798006800689C
:10249000069007980068C068059007980068406932
:1024A0000490002003900290069800F00F00039023
:1024B000039888B9FFE79DF81800800600280AD520
:1024C000FFE79DF814008006002804D5FFE7079871
:1024D00000F07CFDEFE0FFE70398002800F0AE80FD
:1024E000FFE79DF81000C00738B9FFE7BDF81400FA
:1024F00010F4907F00F0A280FFE79DF81800C0075D
:1025000058B1FFE79DF81500C00730B1FFE7079904
:10251000886C40F001008864FFE79DF818004007D0
:1025200000280BD5FFE79DF81000C00730B1FFE78A
:102530000799886C40F002008864FFE79DF8180056
:10254000800700280BD5FFE79DF81000C00730B1C9
:10255000FFE70799886C40F004008864FFE79DF866
:102560001800000700280BD5FFE79DF81000C007F2
:1025700030B1FFE70799886C40F008008864FFE7F6
:102580000798806C002858D0FFE79DF81800800657
:1025900000280AD5FFE79DF814008006002804D51E
:1025A000FFE7079800F012FDFFE707980068406911
:1025B000C0F3801002900798806C0007002803D4B5
:1025C000FFE7029888B3FFE7079800F0C9FC079877
:1025D000006840694006002822D5FFE70798016897
:1025E000486920F0400048610798006C98B1FFE707
:1025F0000798016C42F6F550C0F600004863079852
:10260000006CFDF7B9FF28B1FFE70798006C416B3C
:102610008847FFE703E00798FFF7ECFEFFE703E0DA
:102620000798FFF7E7FEFFE706E00798FFF7E2FEEF
:10263000079900208864FFE7FFE73CE09DF8180059
:10264000C006002817D5FFE79DF81400C006002833
:1026500011D5FFE7FFE700200190079800680068A8
:10266000019007980068406801900198FFE707987B
:1026700000F024F8FFE79DF81800000600280AD5AE
:10268000FFE79DF814000006002804D5FFE707982F
:1026900000F0E0FD0FE09DF81800400600280AD584
:1026A000FFE79DF814004006002804D5FFE70798CF
:1026B00000F06AFCFFE708B080BD000081B0009028
:1026C00001B0704780B582B00090009820B9FFE754
:1026D00001208DF8070046E00098806908B1FFE707
:1026E00000E0FFE7009890F8450040B9FFE7009947
:1026F000002081F84400009800F03EF8FFE70099C0
:10270000242081F8450000980168C86820F4005032
:10271000C860009800F0B6FC0098006A20B1FFE79E
:10272000009800F03FFBFFE700980168086920F47B
:102730009040086100980168486920F02A004861CB
:1027400000980168C86840F40050C86000990020F3
:102750008864009A202182F84510009A82F8461079
:102760008DF80700FFE79DF8070002B080BD00006C
:1027700081B0009001B0704780B58CB00B90002004
:102780000A9009900890079006900B98006844F210
:102790000041C4F20001884237D1FFE7FFE741F270
:1027A0003400C4F20200016841F0040101600068D5
:1027B00000F0040005900598FFE7FFE741F21C00D8
:1027C000C4F20200016841F400310160006800F4C5
:1027D000003004900498FFE7042006900220019046
:1027E00007900121089109900A904FF090400290C3
:1027F00006A90391FEF73CFD019A0298039908236C
:1028000006930A92FEF734FDFFE70CB080BD00008E
:1028100080B586B004900391ADF80A20049890F832
:102820004600202840F08980FFE7039820B1FFE7A9
:10283000BDF80A0020B9FFE701208DF8170080E0FD
:1028400004988068B0F5805F0ED1FFE704980069B6
:1028500050B9FFE79DF80C00C00720B1FFE7012049
:102860008DF817006DE0FFE7FFE7049890F844004B
:10287000012804D1FFE702208DF8170061E00499D8
:10288000012081F84400FFE7FFE7039804994863BB
:10289000BDF80A0004990887049900208864049A06
:1028A000222182F8461004990A6C42F69161C0F622
:1028B0000001916204990A6C42F6E961C0F60001D8
:1028C000D16204990A6C42F61561C0F600011163E9
:1028D0000499096C486304980168426B006C0431E8
:1028E000BDF80A30FEF75EFCFFE700200190049877
:1028F00000680068019004980068406801900198A1
:10290000FFE7FFE70499002081F84400FFE70498FF
:102910000168C86840F48070C8600498016848691C
:1029200040F00100486104980168486940F04000A7
:10293000486100208DF8170003E002208DF8170091
:10294000FFE79DF8170006B080BD000080B584B099
:10295000039000200290FFE70298042833DCFFE791
:10296000029841F6FC62C2F200024FF4A66100FB3D
:1029700001200399884221D1FFE7029841F6FC62C9
:10298000C2F200024FF4A66100FB01200190019900
:10299000002081F87500019981F814039DF8080062
:1029A00002F00CFD0198406D38B1FFE701999DF8E8
:1029B00008004A6D896D9047FFE704E0FFE7029841
:1029C00001300290C8E704B080BD000080B584B03B
:1029D000039000200290FFE7029804282CDCFFE718
:1029E000029841F6FC62C2F200024FF4A66100FBBD
:1029F0000120039988421AD1FFE7029841F6FC6250
:102A0000C2F200024FF4A66100FB012001909DF884
:102A1000080002F009FD0198C06D38B1FFE7019987
:102A20009DF80800CA6D096E9047FFE704E0FFE7D4
:102A3000029801300290CFE704B080BD80B586B027
:102A400004900391ADF80A20049890F845002028DE
:102A500067D1FFE7039820B1FFE7BDF80A0020B96E
:102A6000FFE701208DF817005FE0FFE7049890F87A
:102A70004400012804D1FFE702208DF8170054E03C
:102A80000499012081F84400FFE7FFE703980499C7
:102A9000C862BDF80A0004990886BDF80A000499C6
:102AA0004886049900208864049A212182F8451000
:102AB0000499CA6B42F60171C0F600019162049953
:102AC000CA6B42F64971C0F60001D1620499CA6B23
:102AD00042F61561C0F6000111630499C96B4863A1
:102AE00003A8019004980268C06B01990968043238
:102AF000BDF80A30FEF756FB049801686FF04000FD
:102B00000860FFE70499002081F84400FFE704987B
:102B10000168486940F08000486100208DF8170086
:102B200003E002208DF81700FFE79DF8170006B0BC
:102B300080BD000080B584B0039000200290FFE7C4
:102B40000298042847DCFFE7029841F6FC62C2F2D3
:102B500000024FF4A66100FB01200399884235D1A1
:102B6000FFE7029841F6FC62C2F200024FF4A66150
:102B700000FB012001900199002081F87400019967
:102B800081F813030398008EADF80200019800F558
:102B90004970BDF8021002F097FA019800F54970EB
:102BA00002F076F9012805DBFFE79DF8080002F046
:102BB000E1FDFFE70198C06C38B1FFE701999DF88E
:102BC0000800CA6C096D9047FFE704E0FFE7029830
:102BD00001300290B4E704B080BD000081B00090E5
:102BE00001B07047FFE7FEE7FFE7FEE77047000030
:102BF00088B0079006910592079800F007000490AE
:102C00000498C0F10700042803D3FFE703200190D4
:102C100004E00498C0F107000190FFE701980390D9
:102C200004980330062803D8FFE70020009003E053
:102C3000049804380090FFE70098029006980399E2
:102C4000012202FA01F101390840029B98400599DE
:102C50009A40013A1140084308B07047704700009D
:102C600070470000704700007047000082B001907C
:102C7000019840F20001C2F200010968C90844F657
:102C8000D352C1F26202A1FB02218909484300909C
:102C9000FFE700BFFFE70098411E00910028F8D130
:102CA000FFE702B0704700007047000080B584B0B5
:102CB000029002980138B0F1807F03D3FFE7012032
:102CC00003901AE0029801384EF21401CEF200018E
:102CD00008604FF0FF300721019100F035FB0199AA
:102CE0004EF21802CEF20002002010604EF21002E6
:102CF000CEF2000211600390FFE7039804B080BD9C
:102D000080B5FEF77BFCFFF7F7FA012001F020FC0D
:102D100080BD000080B592B007A801902C21FDF77E
:102D20003CFA0198002306930593049303930293BE
:102D30001F2107914FF4803108914FF4407209929E
:102D400010220D9201220C920A930E9202220F92EF
:102D500010914FF4E0111191FEF7E0FE18B1FFE77A
:102D6000FDF73EFAFFE70F200290022003900020BB
:102D7000049005904FF48060069002A80621FEF7AB
:102D8000FBFC18B1FFE7FDF72BFAFFE712B080BD9F
:102D90004EF60851CEF200014FF000600860704717
:102DA0007047000081B00090009890F82000400625
:102DB00000281CD5FFE700980068406920F4805087
:102DC000009A1168526A104348610098406AB0F551
:102DD000805F0BD1FFE700980068406920F4C04095
:102DE000009A1168926A10434861FFE7FFE701B05B
:102DF0007047000080B582B001900198406A009051
:102E0000009900204887009948860098FFF7F2FA59
:102E100002B080BD80B584B003900020029003987A
:102E2000406A0190019800684069C0B2C0090290F0
:102E3000019890F8450021280AD1FFE7029838B19F
:102E4000FFE7019900204886019800F0B1F8FFE7FC
:102E5000019800684069C0F380100290019890F8D2
:102E6000460022280AD1FFE7029838B1FFE701990E
:102E700000204887019800F073F8FFE70199886CFB
:102E800040F0100088640198FFF7B4FA04B080BDE8
:102E900080B582B001900198406A00900198006866
:102EA0000068800600281AD4FFE7009900204887B0
:102EB00000980168C86820F48070C86000980168B4
:102EC000486920F00100486100980168486920F0D5
:102ED000400048610099202081F84600FFE70098F3
:102EE000FFF734FD02B080BD80B582B0019001983B
:102EF000406A00900098FFF769FD02B080BD0000B5
:102F000080B582B001900198406A009001980068F5
:102F100000688006002810D4FFE70099002048864A
:102F200000980168486920F08000486100980168B5
:102F3000C86840F04000C86003E00098FFF7FAFD61
:102F4000FFE702B080BD000080B582B0019001981B
:102F5000406A00900098FFF741FE02B080BD00007B
:102F600081B0009000980168C86820F49070C86033
:102F700000980168486920F001004861009920200C
:102F800081F8460001B0704780B582B00190019889
:102F90000168C86820F04000C8600199202081F8CD
:102FA00045000198FFF7C6FD002002B080BD00007B
:102FB00081B0009000980168C86820F0C000C86027
:102FC0000099202081F8450001B0704780B584B099
:102FD0000290029890F8460022284AD1FFE7029812
:102FE0008068B0F5805F13D1FFE70298006978B977
:102FF000FFE70298406B01900298006840686FF309
:103000005F20019908800299486B0230486308E00C
:10301000029800684068029B596B4A1C5A6308700A
:10302000FFE70299488F013848870004E8B9FFE7B5
:1030300002980168C86820F02000C8600298016802
:10304000C86820F48070C86002980168486920F060
:10305000010048610299202081F846000298FFF79C
:1030600075FC00208DF80F0007E000208DF80F00A0
:1030700003E002208DF80F00FFE79DF80F0004B079
:1030800080BD000080B584B003900398006800699B
:1030900020F44050039A1168D268104308610399E4
:1030A00088680A69496910430843029003980068D8
:1030B000C06841F20C61884302990843039909688A
:1030C000C86003980068406920F44070039A116852
:1030D00092691043486103980068406920F40060D9
:1030E000039A1168D269104348610398C069B0F52A
:1030F000006F58D1FFE70398006843F60001C4F25F
:103100000101884227D1FFE7FEF780FC019001987A
:1031100019214843039A116852685200B0FBF2FE2D
:1031200048F21F53C5F2EB13AEFB03204209100116
:103130004FF0640C02FB1CEC322202EBCC02A2FB2F
:103140000332F82303EA521300EB4300C2F34212A6
:103150001044886026E0FEF747FC01900198192191
:103160004843039A116852685200B0FBF2FE48F2DD
:103170001F53C5F2EB13AEFB0320420910014FF0C1
:10318000640C02FB1CEC322202EBCC02A2FB0332E9
:10319000F82303EA521300EB4300C2F34212104437
:1031A0008860FFE753E00398006843F60001C4F22B
:1031B0000101884225D1FFE7FEF728FC0190019824
:1031C00019214843039A116852689200B0FBF2FC3F
:1031D00048F21F52C5F2EB12ACFB023043096420E7
:1031E00003FB10CC322000EB0C10A0FB0202F020FD
:1031F00000EA521000EB0310C2F34312104488603F
:1032000024E0FEF7F1FB0190019819214843039A4D
:10321000116852689200B0FBF2FC48F21F52C5F2EE
:10322000EB12ACFB02304309642003FB10CC3220CC
:1032300000EB0C10A0FB0202F02000EA521000EBA1
:103240000310C2F3431210448860FFE7FFE704B0A5
:1032500080BD000084B00290029890F845002128BB
:103260003ED1FFE702988068B0F5805F13D1FFE799
:103270000298006978B9FFE70298C06A0190019846
:1032800000886FF35F200299096848600299C86A54
:103290000230C8620CE00298C06A00900098007882
:1032A0000299096848600299C86A0130C862FFE75C
:1032B0000299488E01384886000468B9FFE70298F1
:1032C0000168C86820F08000C86002980168C8687A
:1032D00040F04000C860FFE700208DF80F0003E0D9
:1032E00002208DF80F00FFE79DF80F0004B0704733
:1032F00080B541F6FC60C2F2000000F5A660FFF761
:10330000C1F880BDFFE7FEE781B08DF803009DF9AD
:10331000030000280ED4FFE79DF9031001F01F02FF
:10332000012090404A094EF20011CEF2000141F80E
:103330002200FFE701B070474EF60C50CEF20000BD
:103340000068C0F30220704782B08DF8070000913A
:103350009DF9070000280AD4FFE7009840019DF975
:1033600007104EF20042CEF2000288540BE00098A3
:1033700040019DF8071001F00F014EF61452CEF2F5
:1033800000028854FFE702B07047000083B002904B
:10339000029800F0070000904EF60C51CEF20001AA
:1033A0000868019001984FF6FF02104001900198C3
:1033B000009A40EA02200022C0F2FA521043019023
:1033C0000198086003B0704783B002908DF8071031
:1033D000FFE79DF807100020022900900BDBFFE7B4
:1033E00002999DF80700084410F8010CB0FA80F02B
:1033F00040090090FFE70098C00730B1FFE79DF853
:10340000070001388DF80700E3E79DF8070003B0D7
:103410007047000080B582B040F20C00C2F200009C
:1034200000784FF4E13102F0A7F88DF806009DF91D
:10343000060028B1FFE79DF806008DF8070007E0B9
:103440000121084602F026F800208DF80700FFE76A
:103450009DF9070002B080BD83B08DF80B0001918B
:103460009DF80B000199098848408DF803009DF8EC
:10347000030080EA00108DF80300019948789DF858
:10348000032040EA022080EAC20080EA121008808D
:1034900003B0704780B584B003900291ADF8062068
:1034A00002980090FFE7BDF80600411EADF8061037
:1034B00040B1FFE70098411C009100780399FFF7A5
:1034C000CBFFF0E704B080BD80B582B00190ADF8CD
:1034D0000210684600F014F8FFE7BDF80200411E34
:1034E000ADF8021040B1FFE70198411C019100784E
:1034F0006946FFF7B1FFF0E7BDF8000002B080BDFC
:1035000081B0009000994FF6FF70088001B07047BD
:1035100082B08DF803009DF80300052803DBFFE768
:10352000002001900BE09DF8030041F6FC62C2F21E
:1035300000024FF4A66110FB01200190FFE7019803
:1035400002B0704783B0ADF80600BDF806004F2802
:1035500011D8FFE7BDF8061045F64C10C0F6000084
:1035600000EB011000900098406818B1FFE7009848
:10357000029003E0FFE700200290FFE7029803B00B
:103580007047000085B0FFE741F23400C4F202004A
:10359000016841F004010160006800F0040004903B
:1035A0000498FFE7FFE741F23400C4F2020001682B
:1035B00041F008010160006800F0080003900398E2
:1035C000FFE7FFE741F23400C4F20200016841F076
:1035D00010010160006800F0100002900298FFE7FF
:1035E000FFE741F23400C4F20200016841F020011B
:1035F0000160006800F0200001900198FFE7FFE7FC
:1036000041F23400C4F20200016841F0400101605F
:10361000006800F0400000900098FFE7002005B02F
:103620007047000080B582B08DF807009DF8070054
:103630000F2817DCFFE79DF8071041F63400C2F2AF
:10364000000000EB0110406860B1FFE79DF8071033
:1036500041F63400C2F2000000EB011041688068BE
:103660008847FFE702B080BD80B58AB0ADF8220080
:103670008DF8211000200690059004900390029090
:10368000BDF82200FFF75EFF0790079820B9FFE71B
:103690006FF00100099034E0079800890290022041
:1036A00005909DF821000146019104281DD801993B
:1036B000DFE801F008030C11160001200390002040
:1036C000049016E000200390049012E00020039084
:1036D000012004900DE0002003900220049008E0F7
:1036E000112003900020049003E06FF00100099086
:1036F00007E00798406802A9FDF7BAFD002009908D
:10370000FFE709980AB080BD80B584B0ADF80A0023
:10371000BDF80A00FFF716FF0190019820B9FFE7F6
:103720006FF00100039007E0019948680989FDF7EF
:1037300047FF00200390FFE7039804B080BD00001E
:1037400080B584B08DF80F009DF80F00FFF7E0FE04
:10375000029002990020019039B1FFE702980068B9
:10376000002818BF01200190FFE7019800F0010038
:1037700004B080BD80B584B08DF80D00ADF80A109E
:10378000BDF80A000004002819D5FFE79DF80D00D8
:1037900001F066FA0190FFE7019848B1FFE7019850
:1037A00001F016FA9DF80D0001F05AFA0190F3E7C6
:1037B000BDF80A0080F40040ADF80E0012E0BDF83C
:1037C0000A00C00750B1FFE71220FFF79DFFBDF8C8
:1037D0000A0080F00100ADF80E0003E00020ADF813
:1037E0000E00FFE7BDF80E0004B080BD80B584B0C8
:1037F0008DF80F009DF80F0041F63411C2F2000160
:1038000002910870FFF7BEFE122001210191FFF71F
:103810002BFF0199029800784FF4FA7201F098FAA0
:1038200004B080BD80B5FDF7F7FEFFF773FA00F036
:10383000EDFF002080BD000080B584B08DF80D0044
:10384000ADF80A10BDF80A000004002819D5FFE7FA
:103850009DF80D0001F004FA0190FFE7019848B1CE
:10386000FFE7019801F0B4F99DF80D0001F0F8F9B7
:103870000190F3E7BDF80A0080F40040ADF80E00B7
:1038800011E0BDF80A00C00748B1FFE700F0E8FA10
:10389000BDF80A0080F00100ADF80E0003E0002042
:1038A000ADF80E00FFE7BDF80E0004B080BD0000CB
:1038B00080B582B08DF807009DF8070041F67C6165
:1038C000C2F200010091087000F08EF900980078B3
:1038D00001214FF47A7201F03BFA02B080BD000082
:1038E00010B586B08C46864609980899CDF814E044
:1038F0008DF813C08DF812208DF811308DF810104E
:103900008DF80F0005989DF813109DF812209DF872
:1039100011309DF810E09DF80F40EC46CCF80840BF
:10392000CCF804E0CCF80030002300F01BF906B01E
:1039300010BD0000B0B58EB094468E460446149873
:103940001399129A0D948DF833E08DF832C00B93D1
:103950008DF82B208DF82A108DF829000B98007B0C
:10396000C0F340008DF828009DF828100020C907FA
:10397000059069B9FFE70B9801690020059039B1FE
:10398000FFE70B980069007800F001000590FFE761
:10399000059800F001008DF827009DF8270000F041
:1039A0000100002818BF0D208DF826000A208DF890
:1039B00025009DF82800C00738B1FFE70D99FE20CB
:1039C000887006208DF8250003E00D99FD20887091
:1039D000FFE79DF82800C00720B1FFE79DF82B0006
:1039E000049007E00D980C309DF82A10FFF7ECFCCE
:1039F0000490FFE704980D99C8709DF833000D9965
:103A0000C8719DF832000D9908720D990020087157
:103A10009DF82700C00730B1FFE70D99087940F005
:103A200001000871FFE70D99002048710B9880791B
:103A30000D9988710B998879013088710D9880787B
:103A40008DF81B000D98C0788DF81C009DF828009B
:103A5000C00790B1FFE70D9880798DF81D000D9893
:103A6000C0798DF81E000D98007A8DF81F000D9812
:103A7000B0F809008DF8200021E00D9800798DF84C
:103A80001D000D9840798DF81E000D9880798DF8F5
:103A90001F000D98C0798DF820000D98007A8DF8E0
:103AA00021000D98B0F809008DF822000D9840898A
:103AB0008DF823000D98C07A8DF82400FFE70DF1F2
:103AC0001B0001309DF82510013989B2FFF7FCFC7D
:103AD000ADF818000D9800F10C01C27806A803900B
:103AE000FFF7D8FC03999DF82900FFF7B5FCBDF856
:103AF00018000D99CA78114408739DF819000D9AA1
:103B0000D17811444873BDF818000D9908809DF8CC
:103B10002700C007D0B1FFE70B980069DDF834C07B
:103B20000CF58B719DF825300CF10C029CF803E02C
:103B300002EB0E04EC46CCF80840CCF804E0CCF8DC
:103B400000200DF11B0200F0C5FBFFE70D98C078C7
:103B50009DF8251008449DF82610084402300EB048
:103B6000B0BD0000B0B588B094468E4604460E98AD
:103B70000D990C9A07948DF81BE08DF81AC08DF8FA
:103B800019308DF818208DF817108DF816009DF853
:103B9000190000F019F8049007989DF81B109DF883
:103BA0001A20049B9DF818C09DF817409DF81650E8
:103BB000EE46CEF80850CEF80440CEF800C0FFF72D
:103BC000B9FE08B0B0BD000081B08DF803009DF8CB
:103BD000030000EB400141F68060C2F2000000EB00
:103BE000C10001B07047000080B582B041F63810C6
:103BF000C2F20000019040F24451FCF7CEFA019964
:103C000040F20C00C2F20000007808700020A1F819
:103C10000204FDF7EDFC0199C1F8040402B080BD77
:103C200070B588B08DF81F008DF81E1006920593B0
:103C30009DF81F009DF81E10069ADDF814E09EF80E
:103C400004309EF805C09EF80640DEF800509EF84D
:103C50000760EE46CEF80C60CEF80850CEF804406F
:103C6000CEF800C000F002F808B070BDB0B588B062
:103C700094468E4604460F980E990D990C9A8DF82D
:103C80001F408DF81EE0CDF818C08DF817308DF864
:103C900016208DF815108DF814000E9802909DF8DE
:103CA00017008DF80C009DF816008DF80D009DF89A
:103CB00015008DF80E009DF814008DF80F000320FC
:103CC0008DF8100006999DF8100008750298039A67
:103CD0000A61C86006990020C872A1F80900069818
:103CE0009DF81F109DF81E20EC463223CCF80430BE
:103CF0000923CCF80030FFF7F3FD08B0B0BD000099
:103D000080B586B0059004910498C0788DF80700BE
:103D100004988078FE2831D1FFE700208DF80F004D
:103D200005208DF80E0004988078059908709DF89C
:103D3000070005994870049880790599887004985F
:103D4000C0790599C8700498007A0599087104989B
:103D5000B0F809000599487105980630049A02F1F7
:103D60000C01D278FCF700FA05989DF80E10084473
:103D70000499C9780844013002904EE004980C3050
:103D80009DF80710FFF720FB8DF8070009208DF83C
:103D90000E0004988078059908709DF80700059931
:103DA00048700498007905998870049840790599BD
:103DB000C87004988079059908710498C0790599AC
:103DC00048710498007A059988710498B0F8090040
:103DD0000599C87104984089059908720498C07AB9
:103DE0000599487205980A3004990C319DF807200E
:103DF000FCF7BAF905989DF80E1008449DF80710D5
:103E00000844013002900498007900F00100002875
:103E100018BF0D208DF80F00FFE704980088029965
:103E2000087004984078029948709DF80F000128A6
:103E30000ADBFFE702980230049901F58B719DF8C7
:103E40000F20FCF791F9FFE79DF80E009DF8071091
:103E500008449DF80F100844033006B080BD0000F0
:103E600080B5CCB003204B900220C0F2C0404A90F5
:103E70000020499040F20500C2F20000007840F2B4
:103E80000401C2F2000109780DF1010249ABFFF70C
:103E9000C7FE41F6E060C2F2000001684A1C026001
:103EA0008DF807100068B0F5807F07D3FFE741F673
:103EB000E061C2F2000100200860FFE70DF101009F
:103EC00000F002F84CB080BD80B5CAB04990499965
:103ED00003A80190FFF714FF0199ADF80A0041F61D
:103EE0003810C2F200000078BDF80A20642301F007
:103EF000ADFB4AB080BD000010B5CDB04C904B91E9
:103F00004C9880684A904C98C06849904C980069D9
:103F100048904C98406947904C98806946904C98DE
:103F2000C06945904C98006A44904C98406A439010
:103F300000200290FFE702980F280CDCFFE74B9867
:103F4000029A50F8220003A941F82200FFE70298E4
:103F500001300290EFE710200290FFE702983F281F
:103F600022DCFFE7029A03A901EB820050F8403CF3
:103F700050F83CEC50F81CCC50F8084C4FEA744018
:103F800080EAF44080EA942060444FEAFE1C8CEA08
:103F9000BE4C8CEADE0C6044184441F82200FFE776
:103FA000029801300290D9E700200290FFE70298C2
:103FB0003F2849DCFFE74398469B4FEAB31181EA6B
:103FC000F32181EA7361084445991940449A9A4360
:103FD00011440844029A45F64C61C0F6000151F8BC
:103FE0002210084403A951F8221008440190DDF87A
:103FF00028C14FEABC0080EA7C3080EABC50499A74
:104000000CEA0201489B0CEA030C81EA0C011A40FD
:1040100051400844009044984390459844904698F5
:104020004590479801990844469048984790499888
:1040300048904A9849900198009908444A90FFE7AF
:10404000029801300290B2E74A9A4C99886810446D
:104050008860499A4C99C8681044C860489A4C993D
:10406000086910440861479A4C99486910444861AE
:10407000469A4C99886910448861459A4C99C86958
:104080001044C861449A4C99086A10440862439AE3
:104090004C99486A104448624DB010BD80B598B044
:1040A0001790169117980068C0F3C5000390039805
:1040B000C0F1770000F03F000130029017980830FF
:1040C000019080208DF8100004A800900130472155
:1040D000FCF763F8009917980068029A0A44D071B7
:1040E00017980068000A029A0A449071179840884D
:1040F000029A0A4450711798C078029A0A441071C3
:1041000017984068029A0A44D07017984068000ACD
:10411000029A0A4490701798C088029A0A44507014
:104120001798C079029A88541798029A083200F0BA
:1041300055F80198C07816990870019880781699FA
:1041400048700198407816998870019800781699FF
:10415000C8700198C07916990871019880791699EC
:10416000487118B080BD000081B000900099002017
:1041700008600099486000994EF26760C6F6092011
:10418000886000994AF68560CBF66730C860009970
:104190004FF27230C3F66E40086100994FF23A5008
:1041A000CAF24F504861009945F27F20C5F20E10C7
:1041B0008861009946F68C00C9F60530C8610099FF
:1041C0004DF6AB10C1F68370086200994CF6195099
:1041D000C5F6E030486201B07047000080B59CB081
:1041E0001B901A9119921A9818901B9800681790B2
:1041F000199A1B99086800EBC20008601B980068B8
:104200001799884205D2FFE71B994868013048603A
:10421000FFE71798C0F3C5001690FFE7199800282C
:1042200055D0FFE71698C0F14000159019981599E0
:10423000884203D2FFE719981590FFE71B9816995B
:10424000084428301899159AFBF78EFF159916988F
:1042500008441690159918980844189015991998BB
:10426000401A19901698402830D1FFE71B98283043
:10427000039000201490FFE714980F281FDCFFE73D
:104280000398149900EB81000290149904A800EBA4
:10429000810001900298C078019908700298807896
:1042A00001994870029840780199887002980078C6
:1042B0000199C870FFE7149801301490DCE71B984F
:1042C00004A9FFF719FE00201690FFE7A6E71CB02F
:1042D00080BD000080B5A4B0844628982798DDF8FA
:1042E00098E0CDF888C0219120928DF87F308DF82C
:1042F0007E00229828B1FFE722980078C00720B9F5
:10430000FFE700208DF88F0041E022984078219946
:10431000087022998868C968039102902199BDF8B4
:104320000C00A1F805000298C1F8010022998A68E2
:10433000C868013240F100008A60C86005A8019099
:10434000FFF712FF0198229910312022FFF746FF54
:10435000019820999DF87F20FFF740FF019826994A
:104360009DF87E20FFF73AFF019828990222FFF777
:1043700035FF019821990722FFF730FF0198219915
:104380000731FFF78BFE0D208DF88F00FFE79DF8BA
:104390008F0024B080BD000080B586B08DF813007A
:1043A000ADF81010ADF80E209DF81300BDF81010F8
:1043B00000F070F80290029838B1FFE7BDF80E00E7
:1043C00002998880029805903EE00C2000F04AFA9D
:1043D00002900298A8B3FFE79DF8130002990872B3
:1043E000BDF810000299C880BDF80E0002998880BF
:1043F0000299002008600299488141F6F460C2F2F7
:104400000000006838B9FFE7029841F6F461C2F293
:104410000001086012E041F6F460C2F2000000689A
:104420000190FFE70198006820B1FFE7019800685C
:104430000190F7E7029801990860FFE7029805905C
:1044400002E000200590FFE7059806B080BD00005F
:1044500083B08DF8070040F21C00C2F20000006833
:104460000090FFE7009870B1FFE70098007B9DF88F
:104470000710884203D1FFE70098029006E00098F9
:1044800000680090EEE700200290FFE7029803B07A
:104490007047000082B08DF80700ADF8041041F6B7
:1044A000F460C2F2000000680090FFE7009898B145
:1044B000FFE70098C088BDF80410884208D1FFE7E4
:1044C0000098007A9DF80710884201D1FFE703E0C9
:1044D000009800680090E9E7009802B0704700007B
:1044E00082B040F21C00C2F2000000680090FFE7BA
:1044F000009858B1FFE70098C08918B1FFE700980D
:10450000019006E0009800680090F1E7002001901B
:10451000FFE7019802B0704780B582B0FEF79EFBBE
:1045200041F6F861C2F200010120087000200190FC
:1045300000F08CFC019841F6F261C2F200010870B3
:1045400041F6EC61C2F20001086002B080BD0000DB
:1045500080B586B0ADF80E00EFF3108072B605900E
:10456000BDF80E2041F6EC61C2F20001086810446B
:10457000086062B641F6F460C2F2000000680028EC
:1045800072D0FFE741F6F460C2F2000000680290CA
:1045900000200190FFE70298002864D0FFE7002088
:1045A0000090EFF3108072B6049002988088BDF8F6
:1045B0000E10884204DCFFE702990020888006E0A4
:1045C00002998888BDF80E20801A8880FFE702983B
:1045D000808888B9FFE70298408968B1FFE70298B0
:1045E000C08848B1FFE70299087AC98800F08AFBC1
:1045F000029948898880FFE70298808820B1FFE708
:104600000298C088B0B9FFE7019840B9FFE7029867
:10461000006841F6F461C2F20001086004E002980B
:10462000006801990860FFE702980090029800680E
:10463000029005E002980190029800680290FFE75E
:1046400062B6009870B1FFE70098808830B9FFE744
:104650000099087AC98800F055FBFFE7009800F040
:104660001DFAFFE797E7FFE706B080BD80B540F28F
:104670001C00C2F20000006840F21801C2F2000102
:104680000860FFE740F21800C2F200000068C8B1FD
:10469000FFE740F21800C2F200000068406848B12D
:1046A000FFE740F21800C2F2000000684168007B9A
:1046B0008847FFE740F21801C2F20001086800686D
:1046C0000860DFE740F21801C2F200010020086034
:1046D00080BD000080B586B0059004918DF80F2054
:1046E000102000F0BFF802900298002842D0FFE7A7
:1046F00005980299486004980299886040F2200267
:10470000C2F200021078411C1170029908730299DC
:104710000020C8819DF80F10029A51730299086019
:1047200040F21C00C2F2000000900068019041F6C7
:10473000F161C2F20001087801300870FFE70198CA
:10474000A0B1FFE70298407B0199497B884207DDD1
:10475000FFE70198029908600298009908600AE052
:1047600001980090019800680190E8E7029800998C
:104770000860FFE7FFE706B080BD000080B584B0A9
:104780008DF80A00ADF808109DF80A00FFF760FEEA
:104790000190019860B1FFE7EFF3108072B60390CB
:1047A000BDF808200199C8899043C88162B603E02A
:1047B00002208DF80B0003E001208DF80B00FFE7CD
:1047C0009DF80B0004B080BD40F21C01C2F2000154
:1047D0000020086040F21801C2F20001086040F2B7
:1047E0002001C2F2000108707047000080B500F09F
:1047F00093F941F6E861C2F2000100200860FFF77A
:104800008BFEFFF7E1FF012080BD000080B582B084
:10481000FEF7B8FEFEF7FEFDEFF3108072B60190D2
:10482000FFF7E4FF43F2ED70C0F6000043F275714C
:10483000C0F6000101220092FFF74CFF009A43F6F8
:10484000B100C0F6000043F63901C0F60001FFF7E1
:1048500041FFFFF70BFF00F0A9F962B600F0ACFAD8
:1048600002B080BD80B586B0ADF8120000208DF892
:10487000050041F6F060C2F200000078E22803D0A3
:10488000FFE700F049F9FFE7BDF812000430ADF88A
:104890001200BDF8120000F003008DF804009DF82E
:1048A000040048B1FFE79DF80410BDF81200401A5B
:1048B0000430ADF81200FFE7EFF3108072B60590F8
:1048C000BDF81200102807DCFFE741F62C00C2F209
:1048D00000000068029006E041F63000C2F20000DD
:1048E00000680290FFE702980068ADF80600FFE755
:1048F000BDF80600000400280AD5FFE7BDF8060051
:1049000080F40040ADF8060000208DF8050035E089
:104910009DF8050018B3FFE741F62401C2F200013B
:1049200008880138088041F62601C2F20001088893
:1049300001380880029802680399086810440860EA
:1049400003980068BDF81210884207D3FFE7039868
:10495000029002980068ADF8060024E00DE0BDF872
:104960000600BDF81210884201DBFFE71BE00120C2
:104970008DF8050002980390FFE7FFE70298BDF865
:1049800006100844029002980068ADF80600BDF8D1
:10499000060018B9FFE70020029004E0FFE70120BD
:1049A0000028A5D1FFE70298002872D0FFE7BDF8E4
:1049B0001210BDF80600401AADF80600BDF806005A
:1049C000042834DBFFE70298BDF812100844009079
:1049D000BDF8060000990860BDF8120040F40040E0
:1049E0000299086041F62401C2F2000108880130F2
:1049F000088041F62800C2F2000000880988884239
:104A00000BDAFFE741F62400C2F20000008841F60D
:104A10002801C2F200010880FFE7BDF8122041F62C
:104A2000E461C2F2000108881044088015E0029891
:104A3000026841F6E461C2F200010888104408806F
:104A400041F62601C2F20001088801380880029967
:104A5000086840F400400860FFE741F6E660C2F2F3
:104A60000000008841F6E461C2F200010988884232
:104A70000BDAFFE741F6E460C2F20000008841F67D
:104A8000E661C2F200010880FFE70298043002905C
:104A9000FFE762B6029806B080BD000080B584B022
:104AA000029041F6F060C2F200000078E22803D0E4
:104AB000FFE700F031F8FFE7EFF3108072B60390E4
:104AC0000298043801900199086820F400400860B9
:104AD00041F62C00C2F2000000680199884207D913
:104AE000FFE7019841F62C01C2F200010860FFE7E0
:104AF0000198026841F6E461C2F200010888801A58
:104B0000088041F62601C2F20001088801300880C1
:104B100062B604B080BD000080B584B040F20801E8
:104B2000C2F200010091086841F2FC721044039047
:104B3000039A0020029010600A680392039BE82207
:104B40001A600968E8310391039A41F21471116007
:104B500041F6F062C2F20002E2211170039941F6BF
:104B60002C02C2F2000201921160FFF77BFE009955
:104B7000019A0346029841F6300CC2F2000CCCF8C0
:104B800000300968116041F62602C2F200020221DB
:104B9000118041F62402C2F20002118041F6E46164
:104BA000C2F20001088004B080BD000081B0EFF3C4
:104BB000108072B6009041F63000C2F2000000682A
:104BC00041F62C01C2F20001086062B601B07047E4
:104BD00080B584B00290029820B9FFE703208DF8D9
:104BE0000F0013E0029810F8020C062804D0FFE72B
:104BF00007208DF80F0009E002980838019001980D
:104C0000FFF74CFF01208DF80F00FFE79DF80F0024
:104C100004B080BD84B0029001910092EFF3108047
:104C200072B60390019802990968884206D1FFE79D
:104C3000019850F8080C0299086006E0019850F8B5
:104C4000080C009941F8080CFFE70199002041F891
:104C5000080C0199062001F8020C62B604B07047F6
:104C600080B586B08DF81300002002900190EFF31C
:104C7000108072B6059041F6E860C2F2000000684C
:104C80000390FFE70398D8B1FFE7039810F8020CF0
:104C90009DF81310884208D1FFE7019818B9FFE783
:104CA0000398019000E00BE0FFE7019818B9FFE7D7
:104CB00003980290FFE7039850F8080C0390E1E78F
:104CC000039838B1FFE79DF813004FF4004100F05E
:104CD00019F806E09DF813004FF40041FFF74EFD70
:104CE000FFE7019848B1FFE70199029A41F6E860B1
:104CF000C2F20000FFF78EFFFFE762B6019806B030
:104D000080BD000080B584B08DF80A00ADF80810B1
:104D10009DF80A00FFF79CFB0190019860B1FFE746
:104D2000EFF3108072B60390BDF808200199C8898E
:104D30001043C88162B603E002208DF80B0003E047
:104D400001208DF80B00FFE79DF80B0004B080BD3B
:104D500080B584B08DF80B00ADF80810ADF80620D2
:104D6000EFF3108072B603909DF80B00BDF80810A9
:104D7000BDF80620FFF710FB0090009828B1FFE770
:104D8000BDF8060000994881FFE7009860B1FFE791
:104D900041F6F260C2F20000007820B9FFE701207E
:104DA00000F054F8FFE7FFE762B6009905200029FC
:104DB00018BF012004B080BD80B584B0FFE7FFF7C5
:104DC0008FFB014640F21800C2F20000016000684B
:104DD000002839D0FFE7EFF3108072B6039040F25D
:104DE0001800C2F200000168C989ADF80610016818
:104DF0000020C88162B6BDF8060020B3FFE740F28C
:104E00001800C2F2000000688068D8B1FFE740F2E5
:104E10001800C2F20000009000688268007BBDF8B4
:104E20000610904701460098ADF80410EFF310818A
:104E300072B60291BDF804200168C8891043C88188
:104E400062B6FFE7FFE7FFE7B9E7000080B582B091
:104E50008DF807009DF8070000F00AF89DF807009C
:104E600041F6F261C2F20001087002B080BD00009C
:104E700080B582B08DF807009DF8070018B1FFE7F4
:104E8000FDF7EEFE02E0FDF7EDFEFFE702B080BDAC
:104E900082B00190019820B1FFE70198408900900D
:104EA00002E000200090FFE7009880B202B0704757
:104EB00082B00190019830B1FFE701998888498953
:104EC000401A009002E000200090FFE7009880B2B6
:104ED00002B0704784B002900191ADF802200298B0
:104EE00038B1FFE7019820B1FFE7BDF8020020B913
:104EF000FFE700208DF80F0011E00198029908608B
:104F0000BDF802000299888002990020C8800299A9
:104F100008810299488101208DF80F00FFE79DF874
:104F20000F0004B07047000080B588B0069005916E
:104F3000ADF81220ADF81030069838B1FFE70598AB
:104F400020B1FFE7BDF8120020B9FFE70020ADF85F
:104F50001E0057E00698FFF79BFFADF80E00BDF866
:104F60001000BDF80E10884204DBFFE70020ADF80A
:104F70001E0047E0BDF81200BDF80E10BDF810206D
:104F8000891A884207DDFFE7BDF80E00BDF8101052
:104F9000401A019003E0BDF812000190FFE701986C
:104FA000ADF80C000020ADF80A00FFE7BDF80A00DC
:104FB000BDF80C10884220DAFFE706980089BDF89A
:104FC00010100844BDF80A10421806988188B2FBF8
:104FD000F1F000FB1120ADF8080006980068BDF85C
:104FE0000810405C0599BDF80A208854FFE7BDF819
:104FF0000A000130ADF80A00D8E7BDF80C00ADF8A2
:105000001E00FFE7BDF81E0008B080BD80B586B069
:1050100004900391ADF80A20049838B1FFE7039893
:1050200020B1FFE7BDF80A0020B9FFE70020ADF886
:10503000160045E00498FFF73BFFADF80800BDF807
:105040000A00BDF80810884204DDFFE7BDF808003B
:10505000009003E0BDF80A000090FFE70098ADF86B
:1050600006000020ADF80400FFE7BDF80400BDF81D
:105070000610884219DAFFE70398BDF80410405C77
:10508000049A1168D28888540498C088431C0499F3
:105090008A88B3FBF2F000FB1230C880FFE7BDF84E
:1050A00004000130ADF80400DFE7BDF806200499E4
:1050B000488910444881BDF80600ADF81600FFE7A6
:1050C000BDF8160006B080BD80B584B00390ADF881
:1050D0000A10039820B1FFE7BDF80A0008B9FFE7FE
:1050E00029E00398FFF7D4FEADF80800BDF80A00E8
:1050F000BDF80810884204DDFFE7BDF80800009005
:1051000003E0BDF80A000090FFE70098ADF8060044
:1051100003980089BDF80610431803998A88B3FBE9
:10512000F2F000FB12300881BDF80620039948898F
:10513000801A4881FFE704B080BD000080B586B0CA
:105140008DF816009DF81600052804DBFFE7FE2009
:105150008DF8170035E09DF8161046F21810C0F6CD
:105160000000405C8DF815009DF91500012100221A
:105170000392FCF7DFFA9DF91500FCF7D1FA039AC8
:105180009DF8160041F6FC63C2F200034FF4A661DD
:1051900010FB013004900B20019004210091FCF7DA
:1051A000C9FA0099039A0C200290FCF7C3FA0198FF
:1051B000FCF7B6FA0298FCF7B3FA03988DF81700DB
:1051C000FFE79DF9170006B080BD000080B584B0F0
:1051D0008DF80E009DF80E00FEF79AF902900298E5
:1051E00020B9FFE7FE208DF80F00E2E0FFE741F273
:1051F0001400C4F20200016841F00101016000687E
:1052000000F0010001900198FFE7029884304421EA
:10521000FAF7C3FF9DF80E1046F20410C0F6000026
:1052200050F821000299C1F8840002991020C1F8B9
:10523000880002990020C1F88C00029A8021C2F8EF
:1052400090100299C1F894000299C1F8980002994F
:10525000C1F89C0002994FF48050C1F8A000029858
:105260008430FBF725FF20B1FFE7FA208DF80F000F
:105270009FE0FFE7029901F18400C8630298C0F83B
:10528000A800FFE70298C8304421FAF786FF9DF88E
:105290000E1046F2DC00C0F6000050F82100029922
:1052A000C1F8C80002990020C1F8CC000299C1F8E9
:1052B000D000029A8021C2F8D4100299C1F8D80017
:1052C0000299C1F8DC0002992020C1F8E00002999F
:1052D0004FF40050C1F8E4000298C830FBF7E8FE34
:1052E00040B1FFE702988430FBF728FBFA208DF8E5
:1052F0000F005EE0FFE7029901F1C8000864029820
:10530000C0F8EC00FFE79DF80E00042819DCFFE769
:10531000029884309DF80E2046F2F001C0F600019C
:1053200051F82210FBF7B4FA0298C8309DF80E200D
:1053300046F2C801C0F6000151F82210FBF7A8FAA6
:10534000FFE7029901F5467001F54C714FF4807248
:105350000092FFF7BFFD009A029901F5497001F52F
:105360008661FFF7B7FD0099029800F58670FAF79D
:1053700014FF0099029800F50370FAF70EFF0299E6
:105380000020A1F80C030299A1F80E03029981F8FC
:105390001003029981F81103029A012182F8121375
:1053A000029981F81303029981F814038DF80F0014
:1053B000FFE79DF90F0004B080BD000080B584B008
:1053C0008DF80F009DF80F0041F6FC62C2F200025A
:1053D0004FF4A66110FB01200290029890F811038F
:1053E000C00708B1FFE71DE08020ADF80600029974
:1053F00001F54670BDF80620114401F58671FFF7EE
:1054000005FEADF804000299012081F8110302990C
:10541000002081F81003BDF804200299C86F1044E1
:10542000C867FFE704B080BD80B584B08DF80F0079
:105430009DF80F0041F6FC62C2F200024FF4A66133
:1054400010FB01200290029890F81003C00708B1E9
:10545000FFE71CE08020ADF80600029901F54670D8
:1054600001F58671BDF80620FFF7D0FDADF8040008
:105470000299012081F810030299002081F811039C
:10548000BDF804200299C86F1044C867FFE704B054
:1054900080BD000080B584B08DF80E008DF80D1031
:1054A0009DF80E00FEF74CF920B9FFE7FE208DF8BD
:1054B0000F005DE09DF80E0041F6FC62C2F20002B2
:1054C0004FF4A66110FB012002900298FCF718FF30
:1054D0009DF80D000138B0FA80F04009029981F87A
:1054E0001203029991F8120300F00100002818BF7E
:1054F0002020C1F8E0000298C830FBF71FFA02989C
:10550000C830FBF7D5FD20B1FFE7FA208DF80F007A
:105510002EE002990020A1F80C030299A1F80E03D5
:10552000029981F81003029981F81103029800F59D
:1055300086704FF480710191FAF72FFE019A02985C
:105540000168C86840F01000C860029800F58671D4
:10555000FDF75EF920B1FFE7FA208DF80F0007E0B4
:105560000299012081F8140300208DF80F00FFE755
:105570009DF90F0004B080BD80B584B08DF80E0099
:1055800002919DF80E00052804DBFFE7FE208DF850
:105590000F0057E09DF80E0041F6FC62C2F20002D7
:1055A0004FF4A66110FB012001900198006820B122
:1055B000FFE7FD208DF80F0044E001984FF4A6614D
:1055C000FAF7EBFD9DF80E1046F2B400C0F60000AD
:1055D00050F82100019908600298019948600199EA
:1055E000002088600199C86001990861019A0C2126
:1055F0005161019988610199C86101990862019816
:10560000FDF760F820B1FFE7FF208DF80F0019E0EB
:105610009DF80E00FFF7DAFD8DF803009DF90300F9
:1056200040B1FFE70198FCF7B7FE9DF803008DF845
:105630000F0007E09DF80E00FFF780FD00208DF8B9
:105640000F00FFE79DF90F0004B080BD80B588B062
:105650008DF81E000691ADF8162004939DF81E00EB
:10566000FEF76EF838B1FFE7069820B1FFE7BDF806
:10567000160020B9FFE7FE208DF81F0075E09DF8A9
:105680001E0041F6FC62C2F200024FF4A66110FB5C
:1056900001200390039890F81303C007A0B1FFE71F
:1056A0009DF81E000699BDF8162000F0CDF8ADF863
:1056B0000A00BDF80A00BDF81610401A18BF6FF0B6
:1056C00006008DF81F0050E0BDF81600B0F5807F91
:1056D00004DDFFE74FF48070009003E0BDF8160092
:1056E0000090FFE70098ADF80800039800F50370FC
:1056F0000699BDF80820FAF737FD039800F5037105
:10570000BDF80820FDF79AF98DF807009DF807000D
:1057100030BBFFE70399012081F87400039981F8F9
:105720001303BDF808200399886F10448867BDF8FB
:105730001600BDF8081088420EDDFFE7039800F55B
:1057400049700699BDF808301944BDF81620D21AE0
:1057500092B2FFF75BFCFFE700208DF81F0004E02A
:10576000FFE7FF208DF81F00FFE79DF91F0008B03D
:1057700080BD000080B584B08DF80E009DF80E004D
:10578000FDF7DEFF20B9FFE7FE208DF80F0056E0A1
:105790009DF80E0041F6FC62C2F200024FF4A661D1
:1057A00010FB01200290029890F81303C00720B16B
:1057B000FFE7FD208DF80F0041E0029800F54970E9
:1057C000FFF766FBADF80600BDF8060020B9FFE75D
:1057D00000208DF80F0032E0BDF80600B0F5807FA4
:1057E00004DDFFE74FF48070009003E0BDF8060091
:1057F0000090FFE70098ADF80400029901F54970A8
:1058000001F50371BDF804200023FFF78DFB02981A
:1058100000F50371BDF80420FDF710F920B1FFE792
:10582000FF208DF80F000AE00299012081F8130390
:10583000029981F8740000208DF80F00FFE79DF9B0
:105840000F0004B080BD000080B586B08DF8150053
:105850000491ADF80E209DF81500FDF771FF38B1E9
:10586000FFE7049820B1FFE7BDF80E0020B9FFE77D
:105870000020ADF8160029E09DF8150041F6FC6205
:10588000C2F200024FF4A66110FB012002900298C0
:1058900000F549700499BDF80E20FFF7B7FBADF88D
:1058A0000600029890F81303C00750B9FFE7BDF84F
:1058B0000600012805DBFFE79DF81500FFF75AFFFA
:1058C000FFE7BDF80600ADF81600FFE7BDF81600CB
:1058D00006B080BD02E008C8121F08C1002AFAD134
:1058E00070477047002001E001C1121F002AFBD160
:1058F000704702030405060708090A0B0C0D0E0F7A
:10590000101112131415161718191A1B1C1D1E1F1F
:10591000202122232425262728292A2B2C2D2E2F0F
:10592000303132333435363738393A3B3C3D3E3FFF
:105930003F3F0000000000000000010203040607D2
:10594000080900000000010203040000000000003C
:105950000000004801000000655F00080100000031
:105960000000004802000000925F000802000000F2
:105970000000004804000000BF5F000803000000B2
:105980000000004808000000EC5F00080400000070
:105990000000004810000000196000080500000029
:1059A00000000048200000004660000806000000DB
:1059B00000000048400000005A6000080700000096
:1059C00000000048800000006E6000080800000031
:1059D000000000480001000082600008090000008B
:1059E0000000004800020000966000080A00000065
:1059F00000000048000400004C5F00080B0000009D
:105A00000000004800080000795F00080C0000005A
:105A10000000004800100000A65F00080D00000014
:105A20000000004800200000D35F00080E000000C6
:105A30000000004800400000006000080F00000067
:105A400000000048008000002D60000810000000E9
:105A50000004004801000000695F00081100000018
:105A60000004004802000000965F000812000000D9
:105A70000004004804000000C35F00081300000099
:105A80000004004808000000F05F00081400000057
:105A900000040048100000001D6000081500000010
:105AA00000040048200000004A60000816000000C2
:105AB00000040048400000005E600008170000007D
:105AC0000004004880000000726000081800000018
:105AD0000004004800010000866000081900000072
