:020000040800F2
:10000000780500204501000875370008F12C00082C
:100010007137000805070008A13D00080000000036
:10002000000000000000000000000000253800086B
:100030000907000800000000E53700087D380008C7
:100040006B0100086B0100086B0100086B010008E0
:100050006B0100086B0100086B0100086B010008D0
:100060006B0100086B0100086B0100086B010008C0
:100070006B0100086B0100086B0100086B010008B0
:100080006B0100086B0100086B0100086B010008A0
:100090006B0100086B0100086B0100080D070008E8
:1000A0006B0100086B0100086B0100086B01000880
:1000B0006B0100086B0100086B0100086B01000870
:1000C0006B0100086B0100086B0100086B01000860
:1000D0006B010008913D00086B0100086B010008EE
:1000E0006B0100086B0100086B0100086B01000840
:1000F0006B0100086B0100086B0100086B01000830
:100100006B0100086B0100086B0100086B0100081F
:100110006B0100086B0100086B0100086B0100080F
:100120006B0100086B0100086B0100086B010008FF
:10013000DFF80CD000F0C2FA00480047DD3F0008AD
:1001400078050020DFF82400016841F470010160A7
:100150000748804707480047FEE7FEE7FEE7FEE75F
:10016000FEE7FEE7FEE7FEE7FEE7FEE788ED00E0DC
:10017000013900083101000840EA01039B0703D060
:1001800009E008C9121F08C0042AFAD203E011F8D6
:10019000013B00F8013B521EF9D27047D2B201E098
:1001A00000F8012B491EFBD270470022F6E710B57C
:1001B00013460A4604461946FFF7F0FF204610BDD5
:1001C0002DE9FE4F804681EA0300C00F0C460090E7
:1001D00021F0004123F00045B8EB0200A94105D20F
:1001E0004046214690461C460B46024623F00040FE
:1001F000104347D0270DC7F30A00C3F30A510290FA
:10020000401A019040286BDAC3F3130040F4801BBE
:100210000098924620B10023D2EB030A63EB0B0B4C
:1002200001985946C0F14002504600F029F90646AF
:100230000D4650465946019A00F031F910EB08007E
:100240006141002487EA115284EAE7731A4340D0DF
:10025000009A62B3019A012A4FEA075215DC001B8B
:1002600061EB02014FF0004202EA0752CDE9004281
:10027000001C41F5801132462B4600F031F903B0E5
:10028000BDE8F08F40462146F9E7001B61EB020113
:10029000001C41F5801300185B412018A2F50017DF
:1002A00047EB030140EAD570B6196D4111E06D08C6
:1002B0004FEA360645EAC0754FEA0752001B61EB6C
:1002C0000201001C41F5801149084FEA3000001975
:1002D000514132462B4603B0BDE8F04F00F0F1B873
:1002E0000098012240000023D0EB020263EBE07390
:1002F000009821464FEAE074B8EB000061EB04017E
:10030000E9E783F000435BE781F0004158E72DE91E
:10031000FE4F81EA030404F0004421F00041009400
:100320004FF0000B23F0004350EA01045ED052EA84
:1003300003045BD0C3F30A54C1F30A552C44A4F25E
:10034000F3340194A0FB0254C1F3130141F4801172
:10035000C3F3130343F4801301FB024400FB034E79
:10036000840A970A44EA815447EA8357A4FB076842
:1003700002958D0A05FB07854FEA932C04FB0C546C
:100380002705029D4FEA065847EA1637B5EB0805E0
:100390006EEB070C870E920E47EA811742EA831232
:1003A000A7FB0201B6EB0B0164EB00042B0D43EA43
:1003B0000C335E1844EB1C50DA465146E7FB020151
:1003C000C5F313044FEA0B3343EA14534FEA0432E4
:1003D000019C43EA0603A4F10C040294009CCDE9BD
:1003E00000B400F07DF803B0BDE8F08F00200146B6
:1003F000F9E730B50B46014600202022012409E030
:1004000021FA02F59D4205D303FA02F5491B04FACD
:1004100002F52844151EA2F10102F1DC30BD2DE9E0
:10042000F05F0546002092469B4688460646814678
:1004300040241BE0284641464746224600F050F93A
:1004400053465A46C01A914110D3114618462246C7
:1004500000F016F82D1A67EB01084F4622460120DE
:10046000002100F00DF817EB00094E41201EA4F109
:100470000104DFDC484631462A464346BDE8F09F8A
:10048000202A04DB203A00FA02F100207047914054
:10049000C2F1200320FA03F3194390407047202A49
:1004A00006DBCB17203A41FA02F043EAE07306E09C
:1004B00041FA02F3D040C2F12002914008431946AC
:1004C000704710B5141E73F1000408DA401C41F1A6
:1004D000000192185B411A4301D120F0010010BDC8
:1004E0002DE9F04D92469B4611B1B1FA81F202E03E
:1004F000B0FA80F220329046FFF7C2FF04460F4662
:1005000040EA0A0041EA0B0153465A46084313D019
:10051000114653EA010019D0C8F14002504600F0DC
:10052000DFF805460E46504659464246FFF7A8FFFB
:10053000084305D0012004E020463946BDE8F08D8F
:100540000020054346EAE0762C4337430A986305CA
:10055000E40AA0EB08000022FD0A44EA47540A30EE
:1005600002D500200146E9E7010510196941DDE9DE
:10057000084500196941BDE8F04DA2E72DE9F04DAD
:1005800081EA030404F0004B21F0004514464FF0CB
:10059000000A23F0004150EA050220D054EA01028B
:1005A0001DD0C5F30A570246C5F31303C1F3130068
:1005B000C1F30A5640F4801543F48013A7EB0608F4
:1005C000101BD64608F2FD3873EB050002D308F184
:1005D000010801E092185B41B8F1000F03DA002036
:1005E0000146BDE8F08D00204FF480110646844698
:1005F0000EE0171B73EB050705D3121B63EB050316
:1006000006434CEA010C49084FEA300092185B415E
:1006100050EA0107EDD152EA030012D082EA040049
:1006200083EA0501084305D0101BAB4106D2012225
:10063000002306E000224FF0004302E06FF00102C9
:1006400053101AEB06004CEB085110EB0A0041EB7B
:100650000B01BDE8F04DFFF734BFC1F30A52C1F3FF
:10066000130140F2FF3341F480119A4202DA002074
:100670000146704740F233439A42A2F2334202DC11
:10068000524200F02DB8FFF7FBBE000030B5041E4B
:1006900071F1000404DB4FF00044404264EB0101BF
:1006A000141E73F1000405DB1C464FF00043524258
:1006B00063EB0403994208BF904230BD064C074DDE
:1006C00006E0E06840F0010394E807009847103422
:1006D000AC42F6D3FFF730FD80490008A04900087E
:1006E000202A04DB203A21FA02F00021704721FA87
:1006F00002F3D040C2F120029140084319467047EE
:10070000FFE7FEE7FFE7FEE77047000080B54FF424
:10071000807000F0D7F94FF4007000F0D3F980BD7D
:1007200080B596B0159000208DF85300159890F87C
:100730002100022807D0FFE71599042088630120D3
:100740008DF8530074E115980168086820F00E00D8
:10075000086015980168086820F001000860159885
:1007600000688121C4F202018842C0F0A880FFE73E
:10077000159800680821C4F20201884203D1FFE7FE
:100780000120139094E0159800681C21C4F2020126
:10079000884203D1FFE71020129086E01598006888
:1007A0003021C4F20201884204D1FFE74FF4807087
:1007B000119077E0159800684421C4F20201884244
:1007C00004D1FFE74FF48050109068E0159800685E
:1007D0005821C4F20201884204D1FFE74FF480306F
:1007E0000F9059E0159800686C21C4F2020188420C
:1007F00004D1FFE74FF480100E904AE0159800688E
:100800008021C4F20201884204D1FFE74FF08070DA
:100810000D903BE01598006840F20841C4F20201D7
:10082000884203D1FFE701200C902CE01598006866
:1008300040F21C41C4F20201884203D1FFE71020BC
:100840000B901DE01598006840F23041C4F202019F
:10085000884204D1FFE74FF480700A900DE01598AC
:10086000016840F24442C4F202024FF480309142E7
:1008700008BF4FF480500A90FFE70A980B90FFE7FB
:100880000B980C90FFE70C980D90FFE70D980E90D9
:10089000FFE70E980F90FFE70F981090FFE7109872
:1008A0001190FFE711981290FFE712981390FFE75D
:1008B000139840F20441C4F202010860A5E01598C3
:1008C00000680821C4F20201884203D1FFE7012039
:1008D000099094E0159800681C21C4F20201884236
:1008E00003D1FFE71020089086E0159800683021BA
:1008F000C4F20201884204D1FFE74FF480700790F0
:1009000077E0159800684421C4F20201884204D1BE
:10091000FFE74FF48050069068E015980068582172
:10092000C4F20201884204D1FFE74FF48030059001
:1009300059E0159800686C21C4F20201884204D184
:10094000FFE74FF4801004904AE01598006880217A
:10095000C4F20201884204D1FFE74FF08070039097
:100960003BE01598006840F20841C4F20201884259
:1009700003D1FFE7012002902CE01598006840F2B7
:100980001C41C4F20201884203D1FFE7102001900C
:100990001DE01598006840F23041C4F2020188421F
:1009A00004D1FFE74FF4807000900DE015980168C6
:1009B00040F24442C4F202024FF48030914208BF38
:1009C0004FF480500090FFE700980190FFE70198F6
:1009D0000290FFE702980390FFE703980490FFE777
:1009E00004980590FFE705980690FFE706980790A2
:1009F000FFE707980890FFE708980990FFE7099834
:100A00000421C4F202010860FFE71599012081F872
:100A10002100FFE71599002081F82000FFE71598D5
:100A2000406B20B1FFE71598416B8847FFE7FFE770
:100A30009DF8530016B080BD80B584B0039000F0DF
:100A400033FA0290039801900198013048B1FFE712
:100A500040F20800C2F200000178019808440190B9
:100A6000FFE7FFE700F020FA0299401A0199884257
:100A700001D2FFE7F6E704B080BD000080B582B088
:100A8000ADF80600BDF80600B0F5807F09D1FFE79C
:100A900040F60000C4F600004FF4804100F0D6F9A3
:100AA000FFE7BDF80600B0F5007F09D1FFE740F68B
:100AB0000000C4F600004FF4004100F0C7F9FFE762
:100AC00002B080BD80B582B0ADF8060040F214409F
:100AD000C4F201000068BDF8061008420CD0FFE720
:100AE000BDF8060040F21441C4F201010860BDF8EF
:100AF0000600FFF7C3FFFFE702B080BD8AB0099090
:100B0000089100200790FFE7089800680799C840FF
:100B1000002800F09881FFE708980068079A0121F3
:100B20009140084006900698002800F08881FFE771
:100B300008984068022805D0FFE708984068122806
:100B400026D1FFE7099807996FF0030202EA5101E5
:100B50000844006A0590079800F0070081000F2004
:100B600000FA01F1059888430590089800690799F3
:100B700001F00701890000FA01F10598084305908A
:100B800005980999079B02EA530211440862FFE79E
:100B900009980068059007984100032000FA01F1C8
:100BA0000598884305900898406800F0030007996D
:100BB000490000FA01F10598084305900598099944
:100BC00008600898406801280FD0FFE7089840683F
:100BD00002280AD0FFE708984068112805D0FFE7EF
:100BE0000898406812282FD1FFE70998806805907F
:100BF00007984100032000FA01F105988843059009
:100C00000898C0680799490000FA01F1059808435F
:100C1000059005980999886009984068059007999A
:100C2000012000FA01F10598884305900898406872
:100C3000C0F30010079900FA01F1059808430590E8
:100C4000059809994860FFE70998C06805900798DA
:100C50004100032000FA01F10598884305900898A7
:100C600080680799490000FA01F10598084305904A
:100C700005980999C8600898C079C006002840F115
:100C8000DD80FFE7FFE741F21800C4F202000168CF
:100C900041F001010160006800F001000490049837
:100CA000FFE7079820F003001421C4F20101405827
:100CB0000590079800F0030081000F2000FA01F171
:100CC0000598884305900998B0F1904F03D1FFE74C
:100CD0000020039034E0099840F20041C4F600017E
:100CE000884203D1FFE70120029026E0099840F6F0
:100CF0000001C4F60001884203D1FFE70220019001
:100D000018E0099840F60041C4F60001884203D17A
:100D1000FFE7032000900AE0099941F20002C4F6BF
:100D200000020720914208BF04200090FFE70098CE
:100D30000190FFE701980290FFE702980390FFE718
:100D40000398079901F00301890000FA01F1059861
:100D5000084305900598079921F003011422C4F275
:100D60000102885040F20040C4F201000068059082
:100D7000069905988843059008988079C00728B19E
:100D8000FFE70699059808430590FFE7059840F2AC
:100D90000041C4F20101086040F20440C4F20100C5
:100DA0000068059006990598884305900898807911
:100DB0008007002805D5FFE70699059808430590A8
:100DC000FFE7059840F20441C4F20101086040F2D7
:100DD0000840C4F201000068059006990598884310
:100DE000059008988079C006002805D5FFE7069988
:100DF000059808430590FFE7059840F20841C4F2C2
:100E00000101086040F20C40C4F201000068059046
:100E100006990598884305900898807980060028EF
:100E200005D5FFE70699059808430590FFE7059863
:100E300040F20C41C4F201010860FFE7FFE70798A8
:100E40000130079060E60AB07047000082B0019060
:100E5000ADF8021001984069BDF80210084205D0B3
:100E6000FFE7BDF802000199886204E0BDF80200C6
:100E700001998861FFE702B07047000082B00190DD
:100E8000ADF802108DF801209DF8010028B1FFE7B0
:100E9000BDF802000199886104E0BDF802000199E3
:100EA0008862FFE702B0704740F27010C2F20000A3
:100EB0000068704780B58EB00C900C9820B9FFE7A1
:100EC00001208DF8370037E10C9890F83D0040B9CB
:100ED000FFE70C99002081F83C000C9800F06CFDB5
:100EE000FFE70C99242081F83D000C980168086800
:100EF00020F00100086000F0E7FF0A900C984068BD
:100F000048F2A061C0F2010188420BD8FFE70A99BC
:100F100048F28042C0F21E020020914238BF0120F8
:100F200009900AE00A9940F60012C0F23D02002042
:100F3000914238BF01200990FFE70998012804D1A8
:100F4000FFE701208DF83700F6E00A984DF683613F
:100F5000C4F21B31A0FB0110800C0B900C980068B0
:100F6000406820F03F000B9908430C9909684860DD
:100F70000C980068006A20F03F0008900C984068C8
:100F800048F2A061C0F20101884204D8FFE70B9843
:100F9000013007900EE00B984FF49671484344F6E9
:100FA000D351C1F26201A0FB0101012000EB9110BD
:100FB0000790FFE70898079908430C9909680862A9
:100FC0000C980068C0694CF6FF71884306900C9835
:100FD000406848F2A061C0F2010188421FD8FFE7D3
:100FE0000A9801380C9949684900B0FBF1F00130CA
:100FF0006FF31F30032803D8FFE7042005900BE0B0
:101000000A9801380C9949684900B0FBF1F00130A9
:101010006FF31F300590FFE7059804904CE00C98A3
:10102000806868B9FFE70A9801380C99496801EBB4
:101030004101B0FBF1F001306FF31F3003900DE080
:101040000A9801380C99496819225143B0FBF1F014
:101050000130042161F31F300390FFE7039800057E
:1010600018B9FFE70120029023E00C98806868B966
:10107000FFE70A9801380C99496801EB4101B0FB80
:10108000F1F001306FF31F3001900DE00A98013844
:101090000C99496819225143B0FBF1F00130042149
:1010A00061F31F300190FFE7019840F40040029087
:1010B000FFE702980490FFE70698049908430C990B
:1010C0000968C8610C980068006820F0C0000C9B9B
:1010D0001968DA691B6A1A43104308600C980068A3
:1010E000806848F2FF3188430C9A1168D36812690E
:1010F0001A43104388600C980068C06820F0FF0015
:101100000C9B19685A699B691A431043C8600C9874
:101110000168086840F0010008600C99002008642C
:101120000C9A202182F83D100C9908630C9981F8E3
:101130003E008DF83700FFE79DF837000EB080BD08
:1011400080B588B0DDF828C00690ADF8161004927E
:10115000ADF80E30FFF7A8FE0290069890F83D001B
:10116000202840F0E980FFE7069802996A4611605E
:101170000221C0F210010122192302F0A9F820B1C6
:10118000FFE702208DF81F00DAE0FFE7069890F8ED
:101190003C00012804D1FFE702208DF81F00CFE0BA
:1011A0000699012081F83C00FFE7FFE706980068F8
:1011B0000068C00738B9FFE706980168086840F082
:1011C00001000860FFE706980168086820F40060E5
:1011D00008600699212081F83D000699102081F8C9
:1011E0003E00069900200864049806994862BDF8FC
:1011F0000E00069948850698408D0699088506993F
:101200000020CFF6FF70C8620698BDF816100A9A43
:10121000029B01F027FE20B1FFE701208DF81F009F
:101220008EE0FFE700200190069800684069019079
:1012300006980068806901900198FFE7FFE706982B
:10124000008D002860D0FFE706980A99029A02F004
:1012500095F980B1FFE70698006C042807D1FFE7F5
:1012600006980168086840F400700860FFE70120F4
:101270008DF81F0064E006980168406A00780861F4
:101280000699486A013048620699488D01384885B8
:101290000699088D0138088506980068406900F0B5
:1012A00004010120B0EB910F16D1FFE70698008DE5
:1012B00090B1FFE706980168406A007808610699D6
:1012C000486A013048620699488D01384885069978
:1012D000088D01380885FFE706980A99029A01F0FF
:1012E000ABFF80B1FFE70698006C042807D1FFE749
:1012F00006980168086840F400700860FFE7012064
:101300008DF81F001CE09AE706980168086840F411
:10131000007008600699202081F83D0006990020A1
:1013200081F83E00FFE70699002081F83C00FFE7C6
:1013300000208DF81F0003E002208DF81F00FFE75A
:101340009DF81F0008B080BD10B590B08446149879
:101350001398DDF848E0CDF828C0ADF82610ADF8B8
:101360002420ADF82230ADF82000FFF79DFD079056
:101370000A9890F83D00202840F00E82FFE70A9876
:1013800007996A4611600221C0F210010122192357
:1013900001F09EFF20B1FFE702208DF82F00FFE152
:1013A000FFE70A9890F83C00012804D1FFE70220EB
:1013B0008DF82F00F4E10A99012081F83C00FFE745
:1013C000FFE70A9800680068C00738B9FFE70A9885
:1013D0000168086840F001000860FFE70A980168AA
:1013E000086820F4006008600A99222081F83D0016
:1013F0000A99402081F83E000A990020086412985A
:101400000A994862BDF820000A9948850A98408DDB
:101410000A9908850A990020CFF6FF70C8620A98D9
:10142000BDF82610BDF82420BDF82230DDF850C0EC
:10143000079CEE46CEF80440CEF800C001F090FDC7
:1014400020B1FFE701208DF82F00A9E10A98008D57
:10145000A0B9FFE7FFE7002006900A9800684069FE
:1014600006900A980068806906900698FFE70A9837
:101470000168086840F4007008605DE00A98008D1B
:1014800001281FD1FFE70A980168086820F48060EE
:101490000860EFF3108072B60F90FFE70020059010
:1014A0000A980068406905900A980068806905906C
:1014B0000598FFE70A980168086840F40070086022
:1014C00062B638E00A98008D02281FD1FFE70A981B
:1014D0000168086840F400600860EFF3108072B69D
:1014E0000E90FFE7002004900A980068406904907D
:1014F0000A980068806904900498FFE70A980168D8
:10150000086820F48060086062B613E00A980168F9
:10151000086840F480600860FFE7002003900A98A4
:101520000068406903900A980068806903900398F6
:10153000FFE7FFE7FFE7FFE7FFE70A98008D0028D6
:1015400000F01881FFE70A98008D032800F2D6808A
:10155000FFE70A98008D01281ED1FFE70A98149929
:10156000079A01F09DFF20B1FFE701208DF82F00C1
:1015700016E10A98006800690A99496A08700A9990
:10158000486A013048620A99088D013808850A992D
:10159000488D01384885B0E00A98008D022841D175
:1015A000FFE70A98149B07996A4611600421C0F26C
:1015B0000101002201F08CFE20B1FFE701208DF82F
:1015C0002F00EDE0EFF3108072B60D900A980168DD
:1015D000086840F4007008600A98006800690A9979
:1015E000496A08700A99486A013048620A99088D68
:1015F000013808850A99488D0138488562B60A98ED
:10160000006800690A99496A08700A99486A0130B5
:1016100048620A99088D013808850A99488D013871
:10162000488569E00A98149B07996A46116004216D
:10163000C0F20101002201F04BFE20B1FFE70120C2
:101640008DF82F00ACE00A980168086820F48060EB
:101650000860EFF3108072B60C900A980068006979
:101660000A99496A08700A99486A013048620A99D9
:10167000088D013808850A99488D013848850A98EF
:10168000149B07996A4611600421C0F201010022EF
:1016900001F01EFE20B1FFE701208DF82F007FE052
:1016A0000A980168086840F4007008600A980068A9
:1016B00000690A99496A08700A99486A01304862C3
:1016C0000A99088D013808850A99488D013848859E
:1016D00062B60A98006800690A99496A08700A990E
:1016E000486A013048620A99088D013808850A99CC
:1016F000488D01384885FFE7FFE73AE00A981499DA
:10170000079A01F0CDFE20B1FFE701208DF82F00F0
:1017100046E00A98006800690A99496A08700A99BF
:10172000486A013048620A99088D013808850A998B
:10173000488D013848850A980068406900F0040126
:101740000120B0EB910F13D1FFE70A980068006900
:101750000A99496A08700A99486A013048620A99E8
:10176000088D013808850A99488D01384885FFE7BA
:10177000FFE7E2E60A99202081F83D000A9900205F
:1017800081F83E00FFE70A99002081F83C00FFE75E
:1017900000208DF82F0003E002208DF82F00FFE7D6
:1017A0009DF82F0010B010BD10B588B084460C987D
:1017B0000B98DDF828E0CDF818C0ADF81610ADF89C
:1017C0001420ADF81230ADF81000FFF76DFB039058
:1017D000069890F83D00202840F0E680FFE7069844
:1017E00003996A4611600221C0F2100101221923F7
:1017F00001F06EFD20B1FFE702208DF81F00D7E059
:10180000FFE7069890F83C00012804D1FFE702208A
:101810008DF81F00CCE00699012081F83C00FFE71D
:10182000FFE7069800680068C00738B9FFE7069828
:101830000168086840F001000860FFE70698016849
:10184000086820F4006008600699212081F83D00B6
:101850000699402081F83E000699002008640A9805
:1018600006994862BDF81000069948850698408D93
:101870000699088506990020CFF6FF70C862069881
:10188000BDF81610BDF81420BDF81230DDF830C0D8
:10189000039CEE46CEF80440CEF800C001F03AFCBE
:1018A00020B1FFE701208DF81F0081E0FFE70698D7
:1018B000008D002849D0FFE706980C99039A01F0A3
:1018C0005DFE80B1FFE70698006C042807D1FFE7B2
:1018D00006980168086840F400700860FFE701207E
:1018E0008DF81F0064E006980168406A007808617E
:1018F0000699486A013048620699088D01380885C2
:101900000699488D0138488506980068406900F0BE
:1019100004010120B0EB910F16D1FFE70698008D6E
:1019200090B1FFE706980168406A0078086106995F
:10193000486A013048620699088D01380885069981
:10194000488D01384885FFE7B1E706980C99039A5E
:1019500001F072FC80B1FFE70698006C042807D103
:10196000FFE706980168086840F400700860FFE728
:1019700001208DF81F001BE006980168086840F4FC
:10198000007008600699202081F83D00069900202B
:1019900081F83E00FFE70699002081F83C00FFE750
:1019A00000208DF81F0003E002208DF81F00FFE7E4
:1019B0009DF81F0008B010BD80B588B007900020CA
:1019C000069005900490039002900798006845F6F1
:1019D0000001C4F20001884230D1FFE7FFE741F285
:1019E0003400C4F20200016841F00801016000689F
:1019F00000F0080001900198FFE74FF4406002906A
:101A0000122003900120049003210591069040F2DA
:101A10000040C4F6000002A9FFF770F8FFE741F2AA
:101A20001C00C4F20200016841F4800101600068FA
:101A300000F4800000900098FFE7FFE708B080BD49
:101A400040F20800C2F20000027840F27011C2F2C7
:101A500000010868104408607047000080B5042049
:101A600000F0F2F80F2000F005F800F03BF800203D
:101A700080BD000080B582B0009040F20400C2F248
:101A80000000006840F20801C2F200010A784FF439
:101A90007A71B1FBF2F1B0FBF1F000F093FE20B1EE
:101AA000FFE701208DF8070018E0009807280DD8FF
:101AB000FFE700994FF0FF30002200F0ABF80098EC
:101AC00040F20C01C2F20001086003E001208DF831
:101AD000070003E000208DF80700FFE79DF80700EE
:101AE00002B080BD80B58AB0FFE741F21800C4F2B1
:101AF0000200016841F001010160006800F001008E
:101B000009900998FFE7FFE741F21C00C4F20200C8
:101B1000016841F080510160006800F08050089039
:101B20000898FFE7FFE741F23400C4F202000168C1
:101B300041F008010160006800F008000790079874
:101B4000FFE7FFE741F21C00C4F20200016841F424
:101B500080010160006800F4800006900698FFE7AD
:101B6000FFE741F21800C4F20200016841F480412D
:101B70000160006800F4804005900598FFE7FFE7EA
:101B800041F21C00C4F20200016841F4003101601E
:101B9000006800F4003004900498FFE7FFE741F28A
:101BA0001C00C4F20200016841F480010160006879
:101BB00000F4800003900398FFE7FFE741F2140070
:101BC000C4F20200016841F001010160006800F008
:101BD000010002900298FFE7FFE741F21400C4F20F
:101BE0000200016841F002010160006800F002009B
:101BF00001900198FFE7052000F026F80AB080BDAB
:101C000080B582B08DF807009DF9070002F0CAF890
:101C100002B080BD80B586B08DF8170004910392A4
:101C20000020029002F0D6F802909DF91700019072
:101C300002980499039A01F09FFD0146019802F071
:101C4000D1F806B080BD000080B582B00190019847
:101C500002F0EAF802B080BD80B584B00290019134
:101C6000029820B9FFE701208DF80F0021E10198CB
:101C700042F20001C4F20201096801F00F0188423A
:101C800016D9FFE742F20000C4F20200016821F019
:101C90000F01019A11430160006800F00F000199E3
:101CA000884204D0FFE701208DF80F0001E1FFE733
:101CB00002980078800700282AD5FFE7029800786C
:101CC0004007002809D5FFE741F20401C4F20201F0
:101CD000086840F4E0600860FFE7029800780007B9
:101CE000002809D5FFE741F20401C4F202010868A7
:101CF00040F460500860FFE741F20401C4F20201C1
:101D0000086820F0F000029A926810430860FFE72C
:101D100002980078C007002866D0FFE70298406864
:101D2000012811D1FFE741F20000C4F2020000686F
:101D300000F400310020B0EB514F04D1FFE7012047
:101D40008DF80F00B5E024E00298406802280ED11B
:101D5000FFE741F20000C4F202000068C001002861
:101D600004D4FFE701208DF80F00A2E010E041F25B
:101D70000000C4F20200006800F002010020B0EB95
:101D8000510F04D1FFE701208DF80F0091E0FFE72C
:101D9000FFE741F20401C4F20201086820F00300E9
:101DA000029A526810430860FFF77EF80090FFE740
:101DB00041F20400C4F20200006800F00C00029935
:101DC0004968B0EB810F0ED0FFE7FFF76DF800997F
:101DD000401A41F28931884204D3FFE703208DF88D
:101DE0000F0066E0E4E7FFE7019842F20001C4F269
:101DF0000201096801F00F01884216D2FFE742F2A2
:101E00000000C4F20200016821F00F01019A1143A1
:101E10000160006800F00F000199884204D0FFE7DC
:101E200001208DF80F0044E0FFE70298007840079A
:101E300000280CD5FFE741F20401C4F20201086852
:101E400020F4E060029AD26810430860FFE702982D
:101E50000078000700280DD5FFE741F20401C4F225
:101E60000201086820F46050029A126940EAC20038
:101E70000860FFE700F04CF841F20401C4F20201EF
:101E80000968C9B20A0944F63611C0F60001895C36
:101E9000C84040F20401C2F20001086040F20C00A8
:101EA000C2F200000068FFF7E5FD00208DF80F008A
:101EB000FFE79DF80F0004B080BD000040F2040071
:101EC000C2F200000068704780B5FFF7F7FF41F2EB
:101ED0000401C4F202010968C1F3022244F646116A
:101EE000C0F60001895CC84080BD000080B5FFF7E6
:101EF000E5FF41F20401C4F202010968C1F3C22204
:101F000044F64611C0F60001895CC84080BD00005F
:101F100080B598B044F6F601C0F6000108A840224A
:101F2000FEF72AF940F20120ADF81E0000200690CD
:101F3000059004900390029041F20400C4F2020064
:101F400000680690069800F00C00014601910028F8
:101F50004AD0FFE70198042804D0FFE70198082839
:101F600006D042E042F20040C0F2F400029042E0AB
:101F7000069901F0C04001F47011400E40EA914111
:101F800008A8405C0390069800F44030B0F5803F0C
:101F900007D0FFE7069800F44030B0F5403F18D175
:101FA000FFE741F20400C4F20200006800F40031CF
:101FB0000DF11E0040EA514000780590039842F26E
:101FC0000041C0F2F40148430599B0FBF1F00490E0
:101FD00007E0039841F20021C0F27A0148430490DF
:101FE000FFE70498029006E0FFE741F20020C0F20C
:101FF0007A000290FFE7029818B080BD80B586B0E5
:102000000490049820B9FFE701208DF81700D4E36D
:1020100004980078C007002800F0D680FFE741F25E
:102020000400C4F20200006800F00C00042820D074
:10203000FFE741F20400C4F20200006800F00C0067
:1020400008282BD1FFE741F20400C4F20200006827
:1020500000F48030B0F5803F0BD0FFE741F2040080
:10206000C4F20200006800F48030B0F5403F15D1A2
:10207000FFE741F20000C4F20200006800F4003102
:102080000020B0EB514F08D0FFE70498406820B91A
:10209000FFE701208DF817008FE394E00498406873
:1020A000B0F5803F0CD1FFE741F23801C4F20201E4
:1020B000086820F44070049A926810430860FFE7B3
:1020C000FFE704984068B0F5803F09D1FFE741F28F
:1020D0000001C4F20201086840F48030086032E078
:1020E0000498406868B9FFE741F20001C4F20201B8
:1020F000086820F480300860086820F480200860B8
:1021000020E004984068B0F5A02F0DD1FFE741F220
:102110000001C4F20201086840F4802008600868E9
:1021200040F4803008600CE041F20001C4F202018A
:10213000086820F480300860086820F48020086077
:10214000FFE7FFE7FFE7FFE704984068E8B1FFE734
:10215000FEF7AAFE0390FFE741F20000C4F202007E
:10216000006800F400310020B0EB514F0CD1FFE7C4
:10217000FEF79AFE0399401A652804D3FFE703206F
:102180008DF8170019E3E7E71CE0FEF78DFE0390DA
:10219000FFE741F20000C4F20200006800F40031E1
:1021A0000020B0EB514F0CD0FFE7FEF77DFE039906
:1021B000401A652804D3FFE703208DF81700FCE2DE
:1021C000E7E7FFE7FFE7FFE70498007880070028CC
:1021D00040F19080FFE741F20400C4F20200006881
:1021E00010F00C0F20D0FFE741F20400C4F202000F
:1021F000006800F00C0008282CD1FFE741F2040031
:10220000C4F20200006800F48030B0F5803F21D0B5
:10221000FFE741F20400C4F20200006800F48030DD
:10222000B0F5403F16D0FFE741F20000C4F20200D3
:10223000006800F002010020B0EB510F09D0FFE769
:1022400004984069012804D0FFE701208DF81700A9
:10225000B3E24EE00498406928B3FFE741F2000181
:10226000C4F20201086840F001000860FEF71CFE9D
:102270000390FFE741F20000C4F20200006800F0A2
:1022800002010020B0EB510F0CD1FFE7FEF70CFE6E
:102290000399401A032804D3FFE703208DF81700A1
:1022A0008BE2E7E724E041F20001C4F20201086892
:1022B00020F001000860FEF7F7FD0390FFE741F210
:1022C0000000C4F20200006800F002010020B0EB40
:1022D000510F0CD0FFE7FEF7E7FD0399401A0328E2
:1022E00004D3FFE703208DF8170066E2E7E7FFE776
:1022F000FFE7FFE704980078C00600284FD5FFE706
:102300000498806928B3FFE741F22801C4F2020172
:10231000086840F010000860FEF7C6FD0390FFE774
:1023200041F22800C4F20200006800F02001002001
:10233000B0EB511F0CD1FFE7FEF7B6FD0399401A31
:10234000032804D3FFE703208DF8170035E2E7E701
:1023500024E041F22801C4F20201086820F01000D4
:102360000860FEF7A1FD0390FFE741F22800C4F2E8
:102370000200006800F020010020B0EB511F0CD0DB
:10238000FFE7FEF791FD0399401A032804D3FFE706
:1023900003208DF8170010E2E7E7FFE7FFE7049856
:1023A00000780007002852D5FFE70498C06940B3C1
:1023B000FFE741F22401C4F20201086840F0010085
:1023C0000860FEF771FD0390FFE741F22400C4F2BC
:1023D0000200006800F002010020B0EB510F0CD1A8
:1023E000FFE7FEF761FD0399401A032804D3FFE7D6
:1023F00003208DF81700E0E1E7E7012001F0F4F990
:1024000024E041F22401C4F20201086820F0010036
:102410000860FEF749FD0390FFE741F22400C4F293
:102420000200006800F002010020B0EB510F0CD058
:10243000FFE7FEF739FD0399401A032804D3FFE7AD
:1024400003208DF81700B8E1E7E7FFE7FFE70498FE
:1024500000784007002840F1EF80FFE700208DF86A
:10246000070041F21C00C4F202000068C00000280E
:1024700013D4FFE7FFE741F21C00C4F20200016839
:1024800041F080510160006800F080500090009899
:10249000FFE701208DF80700FFE747F20000C4F2D4
:1024A00000000068C005002822D4FFE747F20001C1
:1024B000C4F20001086840F480700860FEF7F4FC84
:1024C0000390FFE747F20000C4F200000068C00577
:1024D00000280CD4FFE7FEF7E7FC0399401A6528B3
:1024E00004D3FFE703208DF8170066E1EAE7FFE772
:1024F0000498C06801280CD1FFE741F22001C4F222
:102500000201086820F01800049A1269104308605C
:10251000FFE7FFE70498C068012809D1FFE741F20F
:102520002001C4F20201086840F00100086031E0B7
:102530000498C06868B9FFE741F22001C4F20201C3
:10254000086820F001000860086820F004000860B6
:102550001FE00498C06805280DD1FFE741F2200173
:10256000C4F20201086840F004000860086840F006
:10257000010008600CE041F22001C4F20201086889
:1025800020F001000860086820F004000860FFE700
:10259000FFE7FFE7FFE70498C068F8B1FFE7FEF741
:1025A00083FC0390FFE741F22000C4F202000068C0
:1025B00000F002010020B0EB510F0ED1FFE7FEF753
:1025C00073FC0399401A41F28931884204D3FFE732
:1025D00003208DF81700F0E0E5E71EE0FEF764FC4D
:1025E0000390FFE741F22000C4F20200006800F00F
:1025F00002010020B0EB510F0ED0FFE7FEF754FCB4
:102600000399401A41F28931884204D3FFE703203D
:102610008DF81700D1E0E5E7FFE79DF807000128F6
:1026200009D1FFE741F21C01C4F20201086820F061
:1026300080500860FFE7FFE70498006A002800F078
:10264000B880FFE741F20400C4F20200006800F025
:102650000C00082800F08580FFE70498006A022833
:1026600059D1FFE741F20001C4F20201086820F0ED
:1026700080700860FEF718FC0390FFE741F200004D
:10268000C4F20200006800F000710020B0EB516F4E
:102690000CD0FFE7FEF708FC0399401A032804D387
:1026A000FFE703208DF8170087E0E7E741F2040118
:1026B000C4F2020108684FF6FF72C9F6C0721040FA
:1026C000049B5A6A9B6A1A431043086041F2000156
:1026D000C4F20201086840F080700860FEF7E4FB75
:1026E0000390FFE741F20000C4F20200006800F02E
:1026F00000710020B0EB516F0CD1FFE7FEF7D4FB67
:102700000399401A032804D3FFE703208DF817002C
:1027100053E0E7E724E041F20001C4F20201086857
:1027200020F080700860FEF7BFFB0390FFE741F2E6
:102730000000C4F20200006800F000710020B0EB5D
:10274000516F0CD0FFE7FEF7AFFB0399401A032847
:1027500004D3FFE703208DF817002EE0E7E7FFE73B
:1027600026E00498006A012804D1FFE701208DF8D3
:10277000170022E041F20400C4F202000068029057
:10278000029800F480300499496A88420AD1FFE730
:1027900002980021C6F23C0108400499896A8842E7
:1027A00004D0FFE701208DF8170006E0FFE7FFE700
:1027B000FFE700208DF81700FFE79DF8170006B02F
:1027C00080BD000080B582B00190019801F02CF826
:1027D00002B080BD81B0009001B0704780B588B074
:1027E0000790079800680068069007980068C0681E
:1027F00005900798006840690490002003900290BB
:10280000069800F00F000390039888B9FFE79DF841
:102810001800800600280AD5FFE79DF814008006FE
:10282000002804D5FFE7079801F0D2F8EFE0FFE7B2
:102830000398002800F0AE80FFE79DF81000C00765
:1028400038B9FFE7BDF8140010F4907F00F0A280C3
:10285000FFE79DF81800C00758B1FFE79DF8150085
:10286000C00730B1FFE70799886C40F00100886429
:10287000FFE79DF81800400700280BD5FFE79DF8FB
:102880001000C00730B1FFE70799886C40F00200E4
:102890008864FFE79DF81800800700280BD5FFE744
:1028A0009DF81000C00730B1FFE70799886C40F031
:1028B00004008864FFE79DF81800000700280BD586
:1028C000FFE79DF81000C00730B1FFE70799886C5B
:1028D00040F008008864FFE70798806C002858D013
:1028E000FFE79DF81800800600280AD5FFE79DF84D
:1028F00014008006002804D5FFE7079801F068F867
:10290000FFE7079800684069C0F3801002900798BD
:10291000806C0007002803D4FFE7029888B3FFE724
:10292000079801F02DF807980068406940060028D4
:1029300022D5FFE707980168486920F04000486108
:102940000798006C98B1FFE70798016C43F6611097
:10295000C0F6000048630798006CFDF7E1FE28B15F
:10296000FFE70798006C416B8847FFE703E0079893
:10297000FFF730FFFFE703E00798FFF72BFFFFE7C4
:1029800006E00798FFF726FF079900208864FFE715
:10299000FFE73CE09DF81800C006002817D5FFE7C8
:1029A0009DF81400C006002811D5FFE7FFE70020BE
:1029B00001900798006800680190079800684068D7
:1029C00001900198FFE7079800F024F8FFE79DF8D1
:1029D0001800000600280AD5FFE79DF8140000063D
:1029E000002804D5FFE7079801F036F90FE09DF8BD
:1029F0001800400600280AD5FFE79DF8140040069D
:102A0000002804D5FFE7079800F0CEFFFFE708B0E5
:102A100080BD000081B0009001B0704780B582B0E9
:102A20000090009820B9FFE701208DF8070046E0EC
:102A30000098806908B1FFE700E0FFE7009890F890
:102A4000450040B9FFE70099002081F84400009854
:102A500000F03AF8FFE70099242081F8450000983B
:102A60000168C86820F40050C860009801F00CF8B4
:102A70000098006A20B1FFE7009800F049FFFFE7E7
:102A800000980168086920F4904008610098016886
:102A9000486920F02A00486100980168C86840F43D
:102AA0000050C860009900208864009A202182F8B4
:102AB0004510009A82F846108DF80700FFE79DF850
:102AC000070002B080BD000080B58CB00B900020E4
:102AD0000A9009900890079006900B98006844F2BD
:102AE0000041C4F2000188423BD1FFE7FFE741F219
:102AF0003400C4F20200016841F004010160006882
:102B000000F0040005900598FFE7FFE741F21C0084
:102B1000C4F20200016841F400310160006800F471
:102B2000003004900498FFE70420069002200190F2
:102B3000079001210291089109900A904FF090406E
:102B400006A9FDF7DBFF0198029A082106910A9079
:102B5000262003900021FFF75DF80398FFF750F857
:102B6000FFE70CB080BD000081B0009001B070475D
:102B700080B58AB008900791ADF81A20059300201F
:102B80000290089890F84500202840F0A480FFE7C4
:102B9000079820B1FFE7BDF81A0020B9FFE7012030
:102BA0008DF827009BE008988068B0F5805F0ED113
:102BB000FFE70898006950B9FFE79DF81C00C007BF
:102BC00020B1FFE701208DF8270088E0FFE7FFE74D
:102BD000089890F84400012804D1FFE702208DF8FE
:102BE00027007CE00899012081F84400FFE7FFE717
:102BF0000899002088640899212081F84500FEF793
:102C000053F90290BDF81A0008990886BDF81A0019
:102C10000899488608988068B0F5805F09D1FFE779
:102C20000898006928B9FFE70020049007980390EE
:102C300004E00798049000200390FFE7FFE708985E
:102C4000408E58B3FFE70898029B05996A461160C9
:102C50008021002201F04EF820B1FFE703208DF81B
:102C600027003CE0049858B9FFE7039800886FF309
:102C70005F2008990968486003980230039008E0D3
:102C80000498007808990968486004980130049015
:102C9000FFE70899488E01384886D0E70898029BDC
:102CA00005996A4611604021002201F023F820B105
:102CB000FFE703208DF8270011E00899202081F814
:102CC0004500FFE70899002081F84400FFE7002055
:102CD0008DF8270003E002208DF82700FFE79DF81C
:102CE00027000AB080BD000081B0009001B070479D
:102CF000FFE7FEE780B582B008208DF80600FFE709
:102D00009DF80600772837DCFFE79DF806004000B5
:102D10008DF805009DF805106A464FF47A70106032
:102D200040F21000C2F2000000231A46FEF708FA33
:102D30008DF807009DF80700B8B9FFE79DF8060079
:102D400040F2FC03C2F200031A78511C197040F2E1
:102D5000FD01C2F2000188549DF8061044F66C1083
:102D6000C0F6000001F04EF9FFE7FFE79DF806000E
:102D700001308DF80600C3E740F2FC00C2F200000B
:102D8000007838B9FFE744F66410C0F6000001F09F
:102D900039F933E040F2FC00C2F20000017844F659
:102DA0005610C0F6000001F02DF900208DF8040047
:102DB000FFE79DF8040040F2FC01C2F2000109782F
:102DC000884214DAFFE79DF8041040F2FD00C2F2D9
:102DD0000000415C44F64E10C0F6000001F012F90C
:102DE000FFE79DF8040001308DF80400E1E744F6A8
:102DF0007A10C0F6000001F005F9FFE702B080BDCF
:102E000082B0009000980068406900F48061012061
:102E1000B0EB912F1ED1FFE7009801686FF480603E
:102E20004861009900200863009A202182F83D1033
:102E3000009981F83E000099086C40F00400086495
:102E4000FFE70099002081F83C00FFE701208DF8A2
:102E5000070003E000208DF80700FFE79DF807005A
:102E600002B0704780B588B00690ADF81610049295
:102E700003930698C06A02900298082809D0FFE7D9
:102E80000298012805D0FFE7029810F5803F07D18E
:102E9000FFE706980168086840F4807008600DE05C
:102EA0000698006B122807D1FFE7069801680868AA
:102EB00040F48070086000E0FFE7FFE70698049B9D
:102EC00003996A4611604FF00111002200F000FAE8
:102ED00020B1FFE701208DF81F003CE00698006953
:102EE000B0F5804F08D1FFE7BDF8160000F0FE00F6
:102EF0000699096808611CE0BDF8160000F44070EE
:102F0000C009F0300699096808610698049A039B85
:102F10000821C0F2010100F03BFA20B1FFE70120D7
:102F20008DF81F0017E09DF81600069909680861E2
:102F3000FFE70698049A039B0221C0F2010100F00A
:102F400027FA20B1FFE701208DF81F0003E00020E1
:102F50008DF81F00FFE79DF81F0008B080BD00003E
:102F600080B586B0DDF824C0DDF820C00490ADF84F
:102F70000E10ADF80C20ADF80A300498016808680E
:102F800040F48060086004980168086840F480702C
:102F900008600498089B09996A4611604FF0011176
:102FA000002200F095F920B1FFE701208DF817000D
:102FB000ABE0BDF80E0000F0FE000499096808615E
:102FC0000498089A099B0221C0F2010100F0E0F97F
:102FD00020B1FFE701208DF8170096E0FFE7002001
:102FE0000190049800684069019004980068806925
:102FF00001900198FFE704980899099A00F0BEFA39
:1030000080B1FFE70498006C042807D1FFE704981B
:103010000168086840F400700860FFE701208DF83F
:10302000170072E0BDF80A00012806D1FFE79DF8FD
:103030000C0004990968086121E09DF80D000499CD
:103040000968086104980899099A00F097FA80B114
:10305000FFE70498006C042807D1FFE70498016893
:10306000086840F400700860FFE701208DF8170041
:103070004BE09DF80C00049909680861FFE704988B
:103080000899099A00F07AFA80B1FFE70498006C79
:10309000042807D1FFE704980168086840F400702D
:1030A0000860FFE701208DF817002EE00498016802
:1030B000086840F4807008600498089B09996A4683
:1030C00011604FF00111002200F002F920B1FFE77A
:1030D00001208DF8170018E09DF80E0040F0010067
:1030E0000499096808610498089A099B0221C0F2B2
:1030F000010100F04DF920B1FFE701208DF8170024
:1031000003E000208DF81700FFE79DF8170006B0D8
:1031100080BD000080B586B0DDF824C0DDF820C099
:103120000490ADF80E10ADF80C20ADF80A300498FC
:103130000168086840F4807008600498089B099949
:103140006A4611604FF00111002200F0C1F820B171
:10315000FFE701208DF8170069E0BDF80E0000F0D0
:10316000FE000499096808610498089A099B0221E5
:10317000C0F2010100F00CF920B1FFE701208DF849
:10318000170054E0FFE700200190049800684069B0
:10319000019004980068806901900198FFE7049805
:1031A0000899099A00F0EAF980B1FFE70498006CE9
:1031B000042807D1FFE704980168086840F400700C
:1031C0000860FFE701208DF8170030E0BDF80A0025
:1031D000012806D1FFE79DF80C00049909680861F1
:1031E00021E09DF80D000499096808610498089988
:1031F000099A00F0C3F980B1FFE70498006C042835
:1032000007D1FFE704980168086840F4007008607F
:10321000FFE701208DF8170009E09DF80C000499E4
:1032200009680861FFE700208DF81700FFE79DF8A7
:10323000170006B080BD000080B584B002900191F7
:103240000092FFE702980068406900F00401002046
:10325000B0EB910F33D1FFE70298FFF7D1FD20B11A
:10326000FFE701208DF80F002DE00198013028B311
:10327000FFE7FDF719FE0099401A0199884203D82B
:10328000FFE70198C8B9FFE7029900200863029A96
:10329000202182F83D10029981F83E000299086CC5
:1032A00040F020000864FFE70299002081F83C000C
:1032B000FFE701208DF80F0005E0FFE7C2E70020DF
:1032C0008DF80F00FFE79DF80F0004B080BD0000EF
:1032D00080B586B0DDF820C0049003918DF80B20F6
:1032E0000193FFE79DF80E0001280CD1FFE7049839
:1032F00000684069BDF80C100840401AB0FA80F030
:10330000400900900BE0049800688069BDF80C103B
:103310000840401AB0FA80F040090090FFE700989A
:103320009DF80B1088422AD1FFE70198013028B39D
:10333000FFE7FDF7B9FD0899401A0199884203D8C3
:10334000FFE70198C8B9FFE7049900200863049AD1
:10335000202182F83D10049981F83E000499086C00
:1033600040F020000864FFE70499002081F83C0049
:10337000FFE701208DF8170005E0FFE7B2E7002026
:103380008DF81700FFE79DF8170006B080BD00001C
:1033900080B586B00490039102920193FFE79DF8F7
:1033A0000E0001280CD1FFE7049800684069BDF8C1
:1033B0000C100840401AB0FA80F0400900900BE071
:1033C000049800688069BDF80C100840401AB0FAF3
:1033D00080F040090090FFE70098002858D1FFE7EF
:1033E00004980068406900F480610120B0EB912FDF
:1033F00024D1FFE704980168086840F40070086071
:10340000049801686FF480604861049900200863A3
:10341000049A202182F83D10049981F83E00049915
:10342000086C40F004000864FFE70499002081F86C
:103430003C00FFE701208DF817002DE002980130D5
:1034400028B3FFE7FDF730FD0199401A0299884241
:1034500003D8FFE70298C8B9FFE704990020086382
:10346000049A202182F83D10049981F83E000499C5
:10347000086C40F020000864FFE70499002081F800
:103480003C00FFE701208DF8170005E0FFE786E725
:1034900000208DF81700FFE79DF8170006B080BDEB
:1034A00080B586B0049003910292FFE7049800680B
:1034B000406900F040010020B0EB911F55D1FFE7BB
:1034C00004980068406900F010010120B0EB111F62
:1034D00026D1FFE7FFE700200190049800684069CB
:1034E000019004980168086840F0010008600198A4
:1034F000FFE7049900200863049A202182F83D1018
:10350000049981F83E000499086C0864FFE7049967
:10351000002081F83C00FFE701208DF8170028E02B
:10352000FDF7C2FC0299401A0399884203D8FFE7CD
:103530000398C8B9FFE7049900200863049A202182
:1035400082F83D10049981F83E000499086C40F01F
:1035500020000864FFE70499002081F83C00FFE7A1
:1035600001208DF8170004E0A0E700208DF8170077
:10357000FFE79DF8170006B080BD000080B584B05D
:10358000029001910092FFE7029800684069C1B281
:103590000020B0EBD11F33D1FFE70298FFF730FCDA
:1035A00020B1FFE701208DF80F002DE001980130D8
:1035B00028B3FFE7FDF778FC0099401A019988428B
:1035C00003D8FFE70198C8B9FFE702990020086314
:1035D000029A202182F83D10029981F83E0002995A
:1035E000086C40F020000864FFE70299002081F891
:1035F0003C00FFE701208DF80F0005E0FFE7C3E77F
:1036000000208DF80F00FFE79DF80F0004B080BD8B
:1036100080B58CB000200B900A900990089007901C
:10362000FFE741F23400C4F20200016841F00401F6
:103630000160006800F0040006900698FFE7FFE7CD
:1036400041F23400C4F20200016841F00801016057
:10365000006800F0080005900598FFE740F2004080
:10366000C4F6000001904FF4806100220392FDF740
:1036700005FC0198039A4FF40061FDF7FFFB0198E8
:10368000039A4FF44171FDF7F9FB0198042107916A
:1036900001210891099102210A9107A90291FDF7E0
:1036A0002DFA01980299039A4FF44073079300236F
:1036B000C1F2210308930992FDF720FA039A07202B
:1036C00004901146FEF7A6FA0498FEF799FA0CB09A
:1036D00080BD000080B582B040F21000C2F2000050
:1036E000019045F60001C4F20001016048F2A061BA
:1036F000C0F20101416000218160C1604FF480424D
:10370000026141618161C1610162FDF7D3FB18B1C2
:10371000FFE7FCF7F5FFFFE702B080BD80B582B0A0
:1037200040F2B000C2F20000019044F20041C4F245
:10373000000101604FF4E131416000218160C1600E
:1037400001610C2242618161C1610162FFF766F98A
:1037500018B1FFE7FCF7D4FFFFE740F2B000C2F278
:1037600000000168C86840F01000C86002B080BD69
:10377000FFE7FEE77047000088B0079006910592CA
:10378000079800F0070004900498C0F1070004288F
:1037900003D3FFE70320019004E00498C0F1070081
:1037A0000190FFE70198039004980330062803D89E
:1037B000FFE70020009003E0049804380090FFE742
:1037C0000098029006980399012202FA01F101394A
:1037D0000840029B984005999A40013A11400843DD
:1037E00008B070477047000082B00190019840F225
:1037F0000401C2F200010968C90844F6D352C1F2BB
:103800006202A1FB0221890948430090FFE700BF43
:10381000FFE70098411E00910028F8D1FFE702B0B1
:10382000704700007047000080B584B00290029895
:103830000138B0F1807F03D3FFE7012003901AE045
:10384000029801384EF21401CEF2000108604FF0E8
:10385000FF300721019100F0C5FA01994EF21802DC
:10386000CEF20002002010604EF21002CEF20002F2
:1038700011600390FFE7039804B080BD80B5FEF7A8
:10388000DFF880BD80B592B007A801902C21FCF72D
:103890008CFC0198002206920592049203920292F7
:1038A0001F2107914FF4803108914FF44073099321
:1038B00010230D9301230C930A920E9202220F9271
:1038C00010914FF4E0111191FEF798FB18B1FFE74A
:1038D000FCF716FFFFE70F20029002200390002064
:1038E000049005904FF48060069002A80621FEF730
:1038F000B3F918B1FFE7FCF703FFFFE712B080BD93
:103900004EF60851CEF200014FF00060086070479B
:1039100081B00090009890F82000400600281CD547
:10392000FFE700980068406920F48050009A116811
:10393000526A104348610098406AB0F5805F0BD12D
:10394000FFE700980068406920F4C040009A1168C1
:10395000926A10434861FFE7FFE701B0704700003B
:1039600080B582B001900198406A009000990020D3
:103970004887009948860098FEF72CFF02B080BD6A
:1039800081B0009000980168C86820F49070C86009
:1039900000980168486920F00100486100992020E2
:1039A00081F8460001B0704780B582B0019001985F
:1039B0000168C86820F04000C8600199202081F8A3
:1039C00045000198FFF790F9002002B080BD00008B
:1039D00080B584B00290029890F8460022284AD11F
:1039E000FFE702988068B0F5805F13D1FFE7029887
:1039F000006978B9FFE70298406B0190029800686F
:103A000040686FF35F20019908800299486B02308B
:103A1000486308E0029800684068029B596B4A1CA2
:103A20005A630870FFE70299488F013848870004FD
:103A3000E8B9FFE702980168C86820F02000C86074
:103A400002980168C86820F48070C8600298016814
:103A5000486920F0010048610299202081F8460061
:103A60000298FFF781F800208DF80F0007E0002092
:103A70008DF80F0003E002208DF80F00FFE79DF89E
:103A80000F0004B080BD000080B584B0039003989F
:103A90000068006920F44050039A1168D26810430E
:103AA0000861039988680A694969104308430290CC
:103AB00003980068C06841F20C618843029908438A
:103AC00003990968C86003980068406920F4407051
:103AD000039A11689269104348610398006840692D
:103AE00020F40060039A1168D2691043486103987A
:103AF000C069B0F5006F58D1FFE70398006843F63E
:103B00000001C4F20101884227D1FFE7FEF7EEF978
:103B10000190019819214843039A11685268520094
:103B2000B0FBF2FE48F21F53C5F2EB13AEFB0320CD
:103B3000420910014FF0640C02FB1CEC322202EB34
:103B4000CC02A2FB0332F82303EA521300EB43003A
:103B5000C2F342121044886026E0FEF7B5F90190E6
:103B6000019819214843039A116852685200B0FB2A
:103B7000F2FE48F21F53C5F2EB13AEFB03204209DD
:103B800010014FF0640C02FB1CEC322202EBCC0261
:103B9000A2FB0332F82303EA521300EB4300C2F303
:103BA000421210448860FFE753E00398006843F630
:103BB0000001C4F20101884225D1FFE7FEF796F922
:103BC0000190019819214843039A116852689200A4
:103BD000B0FBF2FC48F21F52C5F2EB12ACFB023014
:103BE0004309642003FB10CC322000EB0C10A0FB37
:103BF0000202F02000EA521000EB0310C2F343125D
:103C00001044886024E0FEF75FF9019001981921C3
:103C10004843039A116852689200B0FBF2FC48F2E4
:103C20001F52C5F2EB12ACFB02304309642003FBC8
:103C300010CC322000EB0C10A0FB0202F02000EAB6
:103C4000521000EB0310C2F3431210448860FFE7E8
:103C5000FFE704B080BD000084B00290029890F8A5
:103C6000450021283ED1FFE702988068B0F5805FCB
:103C700013D1FFE70298006978B9FFE70298C06A9C
:103C80000190019800886FF35F20029909684860ED
:103C90000299C86A0230C8620CE00298C06A0090BB
:103CA000009800780299096848600299C86A013052
:103CB000C862FFE70299488E01384886000468B957
:103CC000FFE702980168C86820F08000C860029889
:103CD0000168C86840F04000C860FFE700208DF828
:103CE0000F0003E002208DF80F00FFE79DF80F00A2
:103CF00004B0704780B586B0DDF820C00490039111
:103D00008DF80B200193FFE7049800680068039981
:103D10000840401AB0FA80F040099DF80B10884224
:103D20002ED1FFE70898013048B3FFE7089840B16B
:103D3000FFE7FDF7B9F80199401A089988421DD9A3
:103D4000FFE704980168C86820F4D070C860049840
:103D50000168486920F0010048610499202081F839
:103D60004500049981F84600FFE70499002081F896
:103D70004400FFE703208DF8170005E0FFE7C3E7E5
:103D800000208DF81700FFE79DF8170006B080BDF2
:103D900080B540F26400C2F20000FEF71FFD80BD56
:103DA000FFE7FEE781B08DF803009DF903000028CE
:103DB0000ED4FFE79DF9031001F01F02012090408F
:103DC0004A094EF20011CEF2000141F82200FFE74D
:103DD00001B070474EF60C50CEF200000068C0F300
:103DE0000220704782B08DF8070000919DF907000E
:103DF00000280AD4FFE7009840019DF907104EF211
:103E00000042CEF2000288540BE0009840019DF879
:103E1000071001F00F014EF61452CEF20002885442
:103E2000FFE702B07047000083B00290029800F0F4
:103E3000070000904EF60C51CEF200010868019088
:103E400001984FF6FF02104001900198009A40EA55
:103E500002200022C0F2FA5210430190019808603B
:103E600003B0704780B582B00190009140F2B0007D
:103E7000C2F2000001A901224FF0FF33FEF778FEE5
:103E8000019802B080BD000010B590B004208DF8FC
:103E90003A0069464FF4807404948C6001230A93BD
:103EA0004B600DF13A00086040F21000C2F20000D1
:103EB0000C90BB21069111220592FDF775FC059A25
:103EC00006990A9B0C98EE46CEF80840CEF80430CE
:103ED0000DF1390CCEF800C0FDF736FA06990A9BB1
:103EE0000C98EC46CCF80840CCF804300FAACCF87B
:103EF00000200F220792FDF727FA0699079A0A9BDE
:103F00000C98EE46CEF80840CEF804300DF13B0C8C
:103F1000CEF800C0FDF718FA0A9B0C9840218DF8E6
:103F200038106A46946053600EA91160B921099156
:103F30001022FDF739FC09990A9B0C98EC46CCF845
:103F4000084003220B92CCF804200DF13D020892A8
:103F5000CCF800202822FDF7F7F9089A09990A9B66
:103F6000DDF82CE00C980132EC46CCF80840CCF897
:103F700004E0CCF800202922FDF7E6F9089A099917
:103F80000A9BDDF82CE00C980232EC46CCF8084095
:103F9000CCF804E0CCF800202A22FDF7D5F99DF8F2
:103FA0003D109DF83E209DF83F00000440EA0220AD
:103FB00008440D909DF836000006002805D5FFE75F
:103FC0000D9840F07F400D90FFE70D98C11700EB72
:103FD000115000130D9010B010BD000080B5FDF71A
:103FE0003DFDFFF74FFCFFF713FB0120FCF724FD1D
:103FF000FFF770FBFFF792FBFEF77CFEFFF744FF35
:10400000002080BD0FB4054B10B503A9044A0298E7
:1040100000F0DAF810BC5DF814FB0000653E000803
:104020000000002002E008C8121F08C1002AFAD1CF
:1040300070477047002001E001C1121F002AFBD128
:10404000704700002DE9FF5F82B00021DDE90430F8
:10405000020DDDF840B0034318D044F61050A2F230
:10406000FF3242431514119801281FD0A5EB0B0015
:10407000401C5FEA000A4FF000064E4FDFF838910F
:10408000B046504615D5CAF1000413E0119801243A
:104090004AA3012801D16FEA0B010298119AC0E9E5
:1040A0000031C0E9024206B0BDE8F09FCBF100004C
:1040B000DFE704460021404A491842EB0450CDE9AD
:1040C000001012E0E00707D032463B464046494622
:1040D000FCF71DF98046894632463B461046194694
:1040E000FCF715F906460F466410002CEAD1DDE90D
:1040F0000401DDE90023BAF1000F06DAFCF707F945
:1041000042464B46FCF703F905E0FCF737FA424616
:104110004B46FCF733FA04460E460022284BFCF7C8
:10412000B5FA03D84FF0FF30014607E00022254BD7
:1041300020463146FCF744F8FCF78FFA102409E0DA
:10414000002C0ADB0A220023FCF769F9039B3032BA
:104150001A55641E50EA0102F2D1641C039AC4F19C
:1041600011031444119A012A03D0012208430DD1EE
:104170000AE0084304D000204FF0110B119072E7C1
:10418000A3EB0B056D1E0DE05B4504DD4FF0000257
:1041900005F1010504E003DA4FF00002A5F1010585
:1041A000002AECD002981199C0E90231C0E900451B
:1041B00079E70000000014400000F03F30000000EC
:1041C0000000F0430000E03F2DE9FF4F95B09B4613
:1041D0008946064600250FE2252877D10024274688
:1041E000F84A0121059400E0044316F8013F203B02
:1041F00001FA03F01042F7D130782A2811D06FF07D
:104200002F033078A0F13002092A16D8059A44F01D
:10421000020402EB820203EB42021044761C05907A
:10422000EFE759F8042B0592002A03DA504244F4D0
:104230000054059044F00204761C30782E2816D1E4
:1042400016F8010F44F004042A280DD06FF02F0255
:104250003078A0F13003092B09D807EB870302EB74
:104260004303C718761CF3E759F8047B761C3078B3
:104270006C280FD006DC4C2817D068280DD06A288F
:1042800014D104E0742810D07A280FD10DE044F442
:1042900000140AE044F4801401E044F440147278FD
:1042A000824202D104F58014761C761C3078662890
:1042B0000BD013DC582877D009DC002875D04528AE
:1042C000F6D04628F4D047281AD19DE118E063289B
:1042D00035D0642879D0652812D195E1702873D043
:1042E00008DC6728F1D069286FD06E280DD06F28C0
:1042F00006D1B5E073282CD0752875D0782874D0F5
:104300005A46179990476D1C75E1C4F30250022874
:1043100009D003280DD0D9F8001004280DD00D6065
:1043200009F1040967E1D9F80010EA17C1E9005260
:10433000F6E7D9F800100D80F2E70D70F0E719F8F4
:10434000041B8DF8001000208DF80100EA460120C2
:1043500003E059F804AB4FF0FF3061074FF0000164
:1043600002D40DE008F101018846B9420FDA804518
:10437000F8DB1AF808100029F4D108E008F101016F
:1043800088468142FADB1AF808100029F6D1059810
:104390005B46A0EB080721463846179A00F094FACE
:1043A000284400EB080507E04DE029E10DE01AF88C
:1043B000010B5A4617999047B8F10108F7D25B46AE
:1043C00021463846179A13E142E00A220092C4F3CC
:1043D00002524FF0000A022A08D059F804CB032AEF
:1043E0004FEAEC710AD00DE029E02AE009F107015B
:1043F00021F00702F2E802C1914609E00FFA8CFCB5
:104400004FEAEC71042A03D14FFA8CFC4FEAEC71AD
:10441000002907DA0A460021DCF1000C61EB0201F9
:104420002D2202E0220504D52B228DF80420012242
:1044300003E0E20701D02022F7E7904659E00A2185
:1044400002E010220DE010214FF0000A00910BE075
:1044500010224FF0000A44F004040827009203E001
:1044600008224FF0000A0092C4F30252022A05D03B
:1044700059F804CB0021032A08D009E009F107010B
:1044800021F00702F2E802C1914605E01FFA8CFC18
:10449000042A01D10CF0FF0C4FF00008220728D5A8
:1044A000702806D0009B83F0100353EA0A0305D05E
:1044B0000EE040228DF80420012208E05CEA0102AF
:1044C00006D030228DF804208DF805000222904697
:1044D000009B83F0080353EA0A030AD15CEA010255
:1044E00001D1620705D530228DF804204FF0010874
:1044F0007F1E582804D034A003900EA802900DE02F
:1045000036A0F9E753466046009AFBF788FF8446D9
:104510000398825C0298401E029002705CEA0100DF
:10452000F0D1029806A9081A00F1200A600702D506
:1045300024F4803400E00127574502DDA7EB0A0090
:1045400000E0002000EB0A01009005984144401A69
:104550000590E00306D45B462146179A059800F0C3
:10456000B3F90544002706E001A85A46C05D179933
:1045700090476D1C7F1C4745F6DBE0030CD55B467E
:104580002146179A059800F09FF9054404E0302071
:104590005A46179990476D1C0099481E00900029B3
:1045A000F5DC08E0029802995A460078491C02910D
:1045B000179990476D1CBAF10001AAF1010AF1DCCC
:1045C00065E10000092801003031323334353637D7
:1045D000383961626364656600000000303132334F
:1045E00034353637383941424344454600000000EF
:1045F00000F058F90544761C307800287FF4ECADC3
:1046000019B02846BDE8F08F620700D4062709F1EB
:10461000070222F0070CFCE80223E14603F0004801
:104620005FEA080C02D00FF2702C0DE05FEA045C28
:1046300002D50FF2682C07E05FEAC47C02D00FF2CB
:10464000602C01E0AFF2700C4FF0FF3823F0004314
:10465000CDF850C065280CD006DC452809D0462886
:104660001DD047283DD13DE0662818D067287ED16F
:1046700038E00021112F01DB112000E0781CCDE98A
:10468000000106A90EA8FFF7DDFCDDE90F010E9A77
:1046900003910021009207F1010A04914DE04FF0CF
:1046A00000400097CDE9011006A90EA8FFF7CAFC4B
:1046B000DDE90F0203920E9B11990022DDF80CA098
:1046C0000093049211B9791C00EB010AB7EB0A00C0
:1046D00004D4C0F1FF3007F1010A0490AAEB0700EF
:1046E000019044E0012F00DA01270021112F01DDA4
:1046F000112000E03846CDE9000106A90EA8FFF719
:10470000A1FCDDE90F010E9A0391002104910092B2
:10471000BA4621070CD40399514500DA8A46BAF10A
:10472000010F05DD009AAAF10101515C302908D082
:10473000B84202DA10F1040F06DA0121CDE90110C6
:1047400015E0AAF10101E9E7002805DC049901441C
:104750000491AAEB000102E0411C514500DD8A46AC
:104760000499401A401C01904FF00040029020072D
:1047700004D40198504501DBCDF8048000208DF869
:104780004F0002980DF14F07B0F1004F25D02B20BC
:104790000E9002984FF0020800280CDA4042029076
:1047A0002D200E9007E00A210298FBF722FE3031FF
:1047B000029007F8011DB8F10001A8F10108F2DC30
:1047C00002980028EFD1791E0E980870307800F01A
:1047D000200040F0450007F8020D12A8C01B00F1B0
:1047E00007081498007800B1012000EB0A01019835
:1047F00001EBE07105984144401A401E0590E0032A
:1048000006D45B462146179A059800F05DF80544EA
:104810001498007818B15A46179990476D1CE00318
:1048200024D55B462146179A059800F04DF80544BB
:104830001CE00498002807DBDDE90301884203DD62
:104840000098405C179901E0179930205A4690472C
:10485000049805F10105401C04900198401E019048
:1048600004D12E205A46179990476D1CBAF10001C9
:10487000AAF1010ADDDC05E017F8010B5A46179989
:1048800090476D1CB8F10001A8F10108F4DC5B460B
:104890002146179A0598ABE62D0000002B0000007A
:1048A000200000002DE9F041044600251E46174671
:1048B000880404D405E039462020B0476D1C641EEE
:1048C000F9D52846BDE8F0812DE9F04104460025E0
:1048D0001E469046C80301D5302700E020278804F3
:1048E00004D505E041463846B0476D1C641EF9D535
:1048F0002846BDE8F08102030405060708090A0BF3
:104900000C0D0E0F101112131415161718191A1B6F
:104910001C1D1E1F202122232425262728292A2B5F
:104920002C2D2E2F303132333435363738393A3B4F
:104930003C3D3E3F3F3F0000000000000000010200
:104940000304060708090000000001020304307890
:1049500025303258200049324332206765742025C3
:1049600064203A0049324332204E4F0049324332EC
:10497000203A20307825303258002F6E0000000099
:10498000A04900080000002010000000244000089A
:10499000B0490008100000206805000034400008FD
:1049A0000000000000127A00010000000800000072
:0400000508000131BD
:00000001FF
