:020000040800F2
:10000000084A002045010008C93E0008452C0008A8
:10001000C53E0008FD010008ED4300080000000097
:10002000000000000000000000000000853F000804
:100030007D02000800000000453F0008DD3F000889
:1000400071010008710100087101000871010008C8
:100050007101000871010008810200089D03000879
:10006000C9030008F5030008210400080102000884
:1000700015020008710100087101000871010008F3
:100080007101000871010008710100087101000888
:100090007101000871010008710100084D04000899
:1000A0007101000871010008710100087101000868
:1000B0007D4000087101000871010008592C0008FA
:1000C000492C00087D2C0008692C000871010008EB
:1000D0007101000871010008D9430008710100088E
:1000E000A9020008710100087101000871010008EF
:1000F0007101000871010008710100087101000818
:100100007101000871010008710100087101000807
:1001100071010008710100087101000871010008F7
:10012000290200087101000871010008710100082E
:10013000DFF80CD000F048F8004800479948000864
:10014000084A00200B48016841F470010160BFF3C8
:100150004F8FBFF36F8F0848804708480047FEE77E
:10016000FEE7FEE7FEE7FEE7FEE7FEE7FEE7FEE767
:10017000FEE7000088ED00E06D4000083101000856
:1001800040EA01039B0703D009E008C9121F08C019
:10019000042AFAD203E011F8013B00F8013B521E99
:1001A000F9D27047D2B201E000F8012B491EFBD210
:1001B00070470022F6E710B513460A460446194672
:1001C000FFF7F0FF204610BD1CB509480090094814
:1001D00001900546009C06E0E06840F0010394E8C9
:1001E000070098471034AC42F6D3FFF7A5FF000094
:1001F000146F0008346F0008FFE7FEE7FFE7FEE733
:1002000080B542F2FC70C2F20000D0F8700500F038
:1002100015FB80BD80B542F2FC70C2F20000D0F840
:10022000740500F00BFB80BD7047000084B00390A4
:100230000291019200930398C16B026C01209040DF
:10024000486000980399096848600398406810283E
:1002500009D1FFE70198039909688860029803991A
:100260000968C86008E002980399096888600198E5
:1002700003990968C860FFE704B070477047000041
:1002800080B540F21440C4F201000068C00750B1CC
:10029000FFE7002004F000FA40F21441C4F201012B
:1002A00001200860FFE780BD80B540F21440C4F231
:1002B00001000068400500280BD5FFE70A2004F084
:1002C000EBF940F21441C4F201014FF48060086080
:1002D000FFE740F21440C4F2010000680005002866
:1002E0000BD5FFE70B2004F0D7F940F21441C4F21C
:1002F00001014FF400600860FFE740F21440C4F2CF
:1003000001000068C00400280BD5FFE70C2004F0B2
:10031000C3F940F21441C4F201014FF48050086067
:10032000FFE740F21440C4F2010000688004002896
:100330000BD5FFE70D2004F0AFF940F21441C4F2F1
:1003400001014FF400500860FFE740F21440C4F28E
:1003500001000068400400280BD5FFE70E2004F0E0
:100360009BF940F21441C4F201014FF4804008604F
:10037000FFE740F21440C4F20100006800040028C6
:100380000BD5FFE70F2004F087F940F21441C4F2C7
:1003900001014FF400400860FFE780BD80B540F2E6
:1003A0001440C4F201000068800700280AD5FFE766
:1003B000012004F071F940F21441C4F2010102205D
:1003C0000860FFE780BD000080B540F21440C4F231
:1003D00001000068400700280AD5FFE7022004F06A
:1003E0005BF940F21441C4F2010104200860FFE708
:1003F00080BD000080B540F21440C4F201000068E6
:10040000000700280AD5FFE7032004F045F940F271
:100410001441C4F2010108200860FFE780BD00001C
:1004200080B540F21440C4F201000068C006002804
:100430000AD5FFE7042004F02FF940F21441C4F27A
:10044000010110200860FFE780BD000080B540F288
:100450001440C4F201000068800600280AD5FFE7B6
:10046000052004F019F940F21441C4F201012020E2
:100470000860FFE740F21440C4F201000068400643
:1004800000280AD5FFE7062004F006F940F21441DF
:10049000C4F2010140200860FFE740F21440C4F2BA
:1004A00001000068000600280AD5FFE7072004F0D5
:1004B000F3F840F21441C4F2010180200860FFE724
:1004C00040F21440C4F201000068C00500280BD5BA
:1004D000FFE7082004F0E0F840F21441C4F2010103
:1004E0004FF480700860FFE740F21440C4F201004E
:1004F0000068800500280BD5FFE7092004F0CCF840
:1005000040F21441C4F201014FF400700860FFE7AB
:1005100080BD000080B596B0159000208DF8530086
:10052000159890F82100022807D0FFE715990420BC
:10053000886301208DF8530074E1159801680868FC
:1005400020F00E00086015980168086820F001008E
:100550000860159800688121C4F202018842C0F049
:10056000A880FFE7159800680821C4F202018842BC
:1005700003D1FFE70120139094E0159800681C2137
:10058000C4F20201884203D1FFE71020129086E0F6
:10059000159800683021C4F20201884204D1FFE7B7
:1005A0004FF48070119077E0159800684421C4F2F0
:1005B0000201884204D1FFE74FF48050109068E0B8
:1005C000159800685821C4F20201884204D1FFE75F
:1005D0004FF480300F9059E0159800686C21C4F2F8
:1005E0000201884204D1FFE74FF480100E904AE0E8
:1005F000159800688021C4F20201884204D1FFE707
:100600004FF080700D903BE01598006840F2084173
:10061000C4F20201884203D1FFE701200C902CE0D4
:100620001598006840F21C41C4F20201884203D1CF
:10063000FFE710200B901DE01598006840F2304154
:10064000C4F20201884204D1FFE74FF480700A909F
:100650000DE01598016840F24442C4F202024FF4E2
:100660008030914208BF4FF480500A90FFE70A980B
:100670000B90FFE70B980C90FFE70C980D90FFE7AD
:100680000D980E90FFE70E980F90FFE70F981090CF
:10069000FFE710981190FFE711981290FFE712986A
:1006A0001390FFE7139840F20441C4F2020108607E
:1006B000A5E0159800680821C4F20201884203D120
:1006C000FFE70120099094E0159800681C21C4F20E
:1006D0000201884203D1FFE71020089086E01598B8
:1006E00000683021C4F20201884204D1FFE74FF4D0
:1006F0008070079077E0159800684421C4F20201E9
:10070000884204D1FFE74FF48050069068E01598C6
:1007100000685821C4F20201884204D1FFE74FF477
:100720008030059059E0159800686C21C4F20201F0
:10073000884204D1FFE74FF4801004904AE01598F6
:1007400000688021C4F20201884204D1FFE74FF023
:10075000807003903BE01598006840F20841C4F2B5
:100760000201884203D1FFE7012002902CE0159896
:10077000006840F21C41C4F20201884203D1FFE745
:10078000102001901DE01598006840F23041C4F23D
:100790000201884204D1FFE74FF4807000900DE021
:1007A0001598016840F24442C4F202024FF48030CE
:1007B000914208BF4FF480500090FFE700980190ED
:1007C000FFE701980290FFE702980390FFE7039884
:1007D0000490FFE704980590FFE705980690FFE76F
:1007E00006980790FFE707980890FFE70898099098
:1007F000FFE709980421C4F202010860FFE7159998
:10080000012081F82100FFE71599002081F82000E0
:10081000FFE71598406B20B1FFE71598416B8847BB
:10082000FFE7FFE79DF8530016B080BD81B0009050
:10083000009890F8210001B07047000080B5ACB07E
:100840002B902B98C06B00682A902B98006800684A
:1008500029902A982B99096CC8404007002840F13C
:100860007581FFE79DF8A4004007002840F16E81E4
:10087000FFE72B98006800688006002807D4FFE790
:100880002B980168086820F004000860FFE72B98A7
:1008900000688121C4F202018842C0F0A880FFE70D
:1008A0002B9800680821C4F20201884203D1FFE7B7
:1008B0000420289094E02B9800681C21C4F20201C7
:1008C000884203D1FFE74020279086E02B980068FC
:1008D0003021C4F20201884204D1FFE74FF4806066
:1008E000269077E02B9800684421C4F202018842E8
:1008F00004D1FFE74FF48040259068E02B98006812
:100900005821C4F20201884204D1FFE74FF480204D
:10091000249059E02B9800686C21C4F202018842AF
:1009200004D1FFE74FF4800023904AE02B98006841
:100930008021C4F20201884204D1FFE74FF08060B9
:1009400022903BE02B98006840F20841C4F202017B
:10095000884203D1FFE7042021902CE02B98006807
:1009600040F21C41C4F20201884203D1FFE740205B
:1009700020901DE02B98006840F23041C4F2020143
:10098000884204D1FFE74FF480601F900DE02B9860
:10099000016840F24442C4F202024FF480209142C6
:1009A00008BF4FF480401F90FFE71F982090FFE79B
:1009B00020982190FFE721982290FFE7229823902A
:1009C000FFE723982490FFE724982590FFE72598D8
:1009D0002690FFE726982790FFE727982890FFE7C3
:1009E000289840F20441C4F202010860A5E02B9867
:1009F00000680821C4F20201884203D1FFE7042005
:100A00001E9094E02B9800681C21C4F202018842D9
:100A100003D1FFE740201D9086E02B98006830212D
:100A2000C4F20201884204D1FFE74FF480601C90B9
:100A300077E02B9800684421C4F20201884204D177
:100A4000FFE74FF480401B9068E02B980068582126
:100A5000C4F20201884204D1FFE74FF480201A90CB
:100A600059E02B9800686C21C4F20201884204D13D
:100A7000FFE74FF4800019904AE02B98006880212E
:100A8000C4F20201884204D1FFE74FF08060189061
:100A90003BE02B98006840F20841C4F20201884212
:100AA00003D1FFE7042017902CE02B98006840F258
:100AB0001C41C4F20201884203D1FFE74020169096
:100AC0001DE02B98006840F23041C4F202018842D8
:100AD00004D1FFE74FF4806015900DE02B9801687A
:100AE00040F24442C4F202024FF48020914208BF17
:100AF0004FF480401590FFE715981690FFE7169881
:100B00001790FFE717981890FFE718981990FFE7DC
:100B100019981A90FFE71A981B90FFE71B981C90F2
:100B2000FFE71C981D90FFE71D981E90FFE71E9899
:100B30000421C4F202010860FFE72B98C06A20B1CB
:100B4000FFE72B98C16A8847FFE7B7E12A982B99FE
:100B5000096CC8408007002840F17F81FFE79DF8BD
:100B6000A4008007002840F17881FFE72B980068F7
:100B70000068800600280BD4FFE72B9801680868FE
:100B800020F00A0008602B99012081F82100FFE77E
:100B90002B9800688121C4F202018842C0F0A8802D
:100BA000FFE72B9800680821C4F20201884203D1B4
:100BB000FFE70220149094E02B9800681C21C4F2F7
:100BC0000201884203D1FFE72020139086E02B9892
:100BD00000683021C4F20201884204D1FFE74FF4DB
:100BE0000070129077E02B9800684421C4F2020153
:100BF000884204D1FFE74FF40050119068E02B9831
:100C000000685821C4F20201884204D1FFE74FF482
:100C10000030109059E02B9800686C21C4F202015A
:100C2000884204D1FFE74FF400100F904AE02B9860
:100C300000688021C4F20201884204D1FFE74FF02E
:100C400000700E903BE02B98006840F20841C4F21F
:100C50000201884203D1FFE702200D902CE02B987F
:100C6000006840F21C41C4F20201884203D1FFE750
:100C700020200C901DE02B98006840F23041C4F217
:100C80000201884204D1FFE74FF400700B900DE0A1
:100C90002B98016840F24442C4F202024FF4003043
:100CA000914208BF4FF400500B90FFE70B980C9057
:100CB000FFE70C980D90FFE70D980E90FFE70E9858
:100CC0000F90FFE70F981090FFE710981190FFE743
:100CD00011981290FFE712981390FFE71398149061
:100CE000FFE7149840F20441C4F202010860A5E055
:100CF0002B9800680821C4F20201884203D1FFE763
:100D000002200A9094E02B9800681C21C4F2020192
:100D1000884203D1FFE72020099086E02B980068E5
:100D20003021C4F20201884204D1FFE74FF4007081
:100D3000089077E02B9800684421C4F202018842B1
:100D400004D1FFE74FF40050079068E02B9800684B
:100D50005821C4F20201884204D1FFE74FF4003069
:100D6000069059E02B9800686C21C4F20201884279
:100D700004D1FFE74FF4001005904AE02B9800687B
:100D80008021C4F20201884204D1FFE74FF00070D5
:100D900004903BE02B98006840F20841C4F2020145
:100DA000884203D1FFE7022003902CE02B980068D3
:100DB00040F21C41C4F20201884203D1FFE7202027
:100DC00002901DE02B98006840F23041C4F202010D
:100DD000884204D1FFE74FF4007001900DE02B989A
:100DE000016840F24442C4F202024FF400309142E2
:100DF00008BF4FF400500190FFE701980290FFE711
:100E000002980390FFE703980490FFE70498059089
:100E1000FFE705980690FFE706980790FFE7079819
:100E20000890FFE708980990FFE709980A90FFE704
:100E30000A980421C4F202010860FFE7FFE72B993A
:100E4000002081F82000FFE72B98806A20B1FFE79F
:100E50002B98816A8847FFE72FE02A982B99096C25
:100E6000C8400007002827D5FFE79DF8A400000729
:100E7000002821D5FFE72B980168086820F00E00B4
:100E800008602B98C26B016C012000FA01F15160DF
:100E90002B9988632B9981F82100FFE72B9900207B
:100EA00081F82000FFE72B98006B20B1FFE72B981B
:100EB000016B8847FFE7FFE7FFE7FFE72CB080BD46
:100EC00080B586B0049003910292019300208DF8C2
:100ED0000300FFE7049890F82000012804D1FFE701
:100EE00002208DF817004CE00499012081F82000C1
:100EF000FFE7FFE7049890F82100012832D1FFE7CF
:100F00000499022081F82100049900208863049844
:100F10000168086820F00100086004980399029AAB
:100F2000019BFFF783F90498C06A38B1FFE7049882
:100F30000168086840F00E0008600CE00498016841
:100F4000086820F00400086004980168086840F010
:100F50000A000860FFE704980168086840F0010093
:100F6000086009E0FFE70499002081F82000FFE70E
:100F700002208DF80300FFE79DF803008DF81700AD
:100F8000FFE79DF8170006B080BD00008AB0099009
:100F9000089100200790FFE7089800680799C8406B
:100FA000002800F09881FFE708980068079A01215F
:100FB0009140084006900698002800F08881FFE7DD
:100FC00008984068022805D0FFE708984068122872
:100FD00026D1FFE7099807996FF0030202EA510151
:100FE0000844006A0590079800F0070081000F2070
:100FF00000FA01F10598884305900898006907995F
:1010000001F00701890000FA01F1059808430590F5
:1010100005980999079B02EA530211440862FFE709
:1010200009980068059007984100032000FA01F133
:101030000598884305900898406800F003000799D8
:10104000490000FA01F105980843059005980999AF
:1010500008600898406801280FD0FFE708984068AA
:1010600002280AD0FFE708984068112805D0FFE75A
:101070000898406812282FD1FFE7099880680590EA
:1010800007984100032000FA01F105988843059074
:101090000898C0680799490000FA01F105980843CB
:1010A0000590059809998860099840680590079906
:1010B000012000FA01F105988843059008984068DE
:1010C000C0F30010079900FA01F105980843059054
:1010D000059809994860FFE70998C0680590079846
:1010E0004100032000FA01F1059888430590089813
:1010F00080680799490000FA01F1059808430590B6
:1011000005980999C8600898C079C006002840F180
:10111000DD80FFE7FFE741F21800C4F2020001683A
:1011200041F001010160006800F0010004900498A2
:10113000FFE7079820F003001421C4F20101405892
:101140000590079800F0030081000F2000FA01F1DC
:101150000598884305900998B0F1904F03D1FFE7B7
:101160000020039034E0099840F20041C4F60001E9
:10117000884203D1FFE70120029026E0099840F65B
:101180000001C4F60001884203D1FFE7022001906C
:1011900018E0099840F60041C4F60001884203D1E6
:1011A000FFE7032000900AE0099941F20002C4F62B
:1011B00000020720914208BF04200090FFE700983A
:1011C0000190FFE701980290FFE702980390FFE784
:1011D0000398079901F00301890000FA01F10598CD
:1011E000084305900598079921F003011422C4F2E1
:1011F0000102885040F20040C4F2010000680590EE
:10120000069905988843059008988079C00728B109
:10121000FFE70699059808430590FFE7059840F217
:101220000041C4F20101086040F20440C4F2010030
:10123000006805900699059888430590089880797C
:101240008007002805D5FFE7069905980843059013
:10125000FFE7059840F20441C4F20101086040F242
:101260000840C4F20100006805900699059888437B
:10127000059008988079C006002805D5FFE70699F3
:10128000059808430590FFE7059840F20841C4F22D
:101290000101086040F20C40C4F2010000680590B2
:1012A000069905988843059008988079800600285B
:1012B00005D5FFE70699059808430590FFE70598CF
:1012C00040F20C41C4F201010860FFE7FFE7079814
:1012D0000130079060E60AB07047000082B00190CC
:1012E000ADF8021001984069BDF80210084205D01F
:1012F000FFE7BDF802000199886204E0BDF8020032
:1013000001998861FFE702B07047000044F20020B5
:10131000C2F200000068704781B0009001B07047D1
:1013200082B001908DF80310ADF8002002B0704734
:1013300080B588B0079007980068406902900798C8
:10134000006840680190002000909DF80900C007E7
:10135000A8B1FFE79DF80500C00780B1FFE700983E
:1013600040F001000090079801686FF480704861B8
:1013700007980168086840F400400860FFE79DF89E
:10138000090000F002010020B0EB510F0FD0FFE781
:101390009DF80500C00750B1FFE7009840F002003B
:1013A0000090079801686FF400704861FFE79DF8AE
:1013B000090000F004010020B0EB910F4DD0FFE7D1
:1013C0009DF80500C007002847D0FFE7079890F870
:1013D0003E008DF81B000798408D0590079890F807
:1013E0003D008DF813000798006B03909DF81B00DB
:1013F00020281AD1FFE70598B8B9FFE79DF8130038
:1014000021280ED0FFE79DF81300292809D0FFE717
:101410009DF81300282808D1FFE70398212804D15C
:10142000FFE7079802F0B8FB16E0079801686FF431
:1014300080604861009840F004000090079890F8A0
:101440003E00102807D1FFE707980168086840F4BC
:1014500000700860FFE7FFE7FFE79DF8090000F074
:1014600008010020B0EBD10F0FD0FFE79DF8050079
:10147000C00750B1FFE7009840F0080000900798BF
:1014800001686FF400604861FFE7009848B1FFE72A
:10149000009A0799086C10430864079801F076FCDD
:1014A000FFE708B080BD000080B588B0079000203D
:1014B000059007980068406804900798C06A0390F8
:1014C000079890F83E008DF80B00079890F83D00C3
:1014D0008DF80A009DF80B00102806D0FFE79DF854
:1014E0000B00402840F0F080FFE707980068806913
:1014F000059007980068406906900698C007A0B953
:10150000FFE703990120B1F52A0F019008D0FFE70A
:10151000039800F1AC40B0FA80F040090190FFE779
:101520000198C00708B1FFE791E10698C00780B1B4
:10153000FFE79DF8110000F002010020B0EB510F11
:1015400007D0FFE7079801F0A3FB079802F0B6F970
:10155000B9E09DF8180000F008010020B0EBD10FB1
:101560000DD0FFE79DF8110000F002010020B0EB64
:10157000510F04D0FFE7079801F0D0FFA2E09DF8DB
:10158000180000F002010020B0EB510F0DD0FFE772
:101590009DF8110000F002010020B0EB510F04D0C3
:1015A000FFE7079801F0DEFF8BE09DF8140000F0E4
:1015B00004010020B0EB910F40D0FFE707980068CE
:1015C000406800F40060B0F5006F36D0FFE79DF88A
:1015D00018100020B0EBD11F16D0FFE79DF81100C6
:1015E00000F004010020B0EB910F0DD0FFE79DF853
:1015F000180000F004010020B0EB910F04D1FFE7C8
:10160000079801F08FFE17E09DF8180000F0040124
:101610000020B0EB910F0DD0FFE79DF8110000F016
:1016200002010020B0EB510F04D0FFE7079801F052
:101630000BFE00E0FFE7FFE7FFE741E007980068E7
:10164000406800F40060B0F5006F38D0FFE79DF807
:10165000180000F040010020B0EB911F16D0FFE70A
:101660009DF8110000F004010020B0EB910F0DD0A7
:10167000FFE79DF8180000F004010020B0EB910F87
:1016800004D1FFE7079801F069FD17E09DF8180005
:1016900000F004010020B0EB910F0DD0FFE79DF8A2
:1016A000110000F002010020B0EB510F04D0FFE761
:1016B000079801F083FC00E0FFE7FFE7FFE7FFE7A3
:1016C000FFE7FFE7FFE7C2E00798006C28B1FFE7FC
:1016D000079800684069069008E0079800688069EC
:1016E00005900798006840690690FFE79DF818008C
:1016F00000F002010020B0EB510F17D0FFE79DF87A
:10170000110000F002010020B0EB510F0ED0FFE7F6
:101710000798006C28B1FFE707980068806905907A
:10172000FFE70798059902F0DFF98FE09DF81800B0
:1017300000F010010020B0EB111F0DD0FFE79DF865
:10174000110000F002010020B0EB510F04D0FFE7C0
:10175000079802F091FA78E09DF80A00212805D058
:10176000FFE79DF80A00292836D1FFE79DF81810F9
:101770000020B0EBD11F16D0FFE79DF8110000F05C
:1017800004010020B0EB910F0DD0FFE79DF8180089
:1017900000F004010020B0EB910F04D1FFE707989F
:1017A00002F06CF917E09DF8180000F00401002029
:1017B000B0EB910F0DD0FFE79DF8110000F0020192
:1017C0000020B0EB510F04D0FFE7079802F040F97A
:1017D00000E0FFE7FFE737E09DF8180000F0400168
:1017E0000020B0EB911F16D0FFE79DF8110000F02C
:1017F00004010020B0EB910F0DD0FFE79DF8180019
:1018000000F004010020B0EB910F04D1FFE707982E
:1018100002F0E6F817E09DF8180000F0040100203F
:10182000B0EB910F0DD0FFE79DF8110000F0020121
:101830000020B0EB510F04D0FFE7079802F0B8F892
:1018400000E0FFE7FFE7FFE7FFE7FFE7FFE708B09C
:1018500080BD000081B0009001B0704781B0009061
:1018600001B0704781B0009001B0704781B0009026
:1018700001B0704781B0009001B0704781B0009016
:1018800001B0704781B0009001B0704781B0009006
:1018900001B0704740F20D00C2F20000027844F23D
:1018A0000021C2F20001086810440860704700007F
:1018B00080B5042000F09AF80F2000F005F800F041
:1018C0003BF8002080BD000080B582B0009040F25F
:1018D0000000C2F20000006840F20D01C2F20001F7
:1018E0000A784FF47A71B1FBF2F1B0FBF1F000F03D
:1018F00013FE20B1FFE701208DF8070018E00098E3
:1019000007280DD8FFE700994FF0FF30002200F0C4
:1019100053F8009840F21001C2F20001086003E0A1
:1019200001208DF8070003E000208DF80700FFE795
:101930009DF8070002B080BD84B0FFE741F21800B7
:10194000C4F20200016841F001010160006800F08A
:10195000010003900398FFE7FFE741F21C00C4F287
:101960000200016841F080510160006800F0805081
:1019700002900298FFE7FFE741F23400C4F2020050
:10198000016841F004010160006800F0040001906A
:101990000198FFE7FFE741F23400C4F2020001685A
:1019A00041F008010160006800F008000090009814
:1019B000FFE704B07047000080B586B08DF81700CF
:1019C000049103920020029002F012FD02909DF912
:1019D0001700019002980499039A02F077FA0146E1
:1019E000019802F00DFD06B080BD000080B582B008
:1019F0000190019802F026FD02B080BD80B584B050
:101A000002900191029820B9FFE701208DF80F00A4
:101A100021E1019842F20001C4F20201096801F0DB
:101A20000F01884216D9FFE742F20000C4F202001B
:101A3000016821F00F01019A11430160006800F074
:101A40000F000199884204D0FFE701208DF80F00B4
:101A500001E1FFE702980078800700282AD5FFE718
:101A6000029800784007002809D5FFE741F20401F9
:101A7000C4F20201086840F4E0600860FFE70298E1
:101A800000780007002809D5FFE741F20401C4F2FD
:101A90000201086840F460500860FFE741F2040169
:101AA000C4F20201086820F0F000029A9268104324
:101AB0000860FFE702980078C007002866D0FFE7BB
:101AC00002984068012811D1FFE741F20000C4F2FA
:101AD0000200006800F400310020B0EB514F04D147
:101AE000FFE701208DF80F00B5E024E00298406880
:101AF00002280ED1FFE741F20000C4F202000068A4
:101B0000C001002804D4FFE701208DF80F00A2E0F7
:101B100010E041F20000C4F20200006800F002018F
:101B20000020B0EB510F04D1FFE701208DF80F002A
:101B300091E0FFE7FFE741F20401C4F20201086807
:101B400020F00300029A526810430860FFF7DEFBA2
:101B50000090FFE741F20400C4F20200006800F0C8
:101B60000C0002994968B0EB810F0ED0FFE7FFF738
:101B7000CDFB0099401A41F28931884204D3FFE736
:101B800003208DF80F0066E0E4E7FFE7019842F2DA
:101B90000001C4F20201096801F00F01884216D267
:101BA000FFE742F20000C4F20200016821F00F01D9
:101BB000019A11430160006800F00F00019988420A
:101BC00004D0FFE701208DF80F0044E0FFE7029802
:101BD0000078400700280CD5FFE741F20401C4F269
:101BE0000201086820F4E060029AD268104308609D
:101BF000FFE702980078000700280DD5FFE741F2C3
:101C00000401C4F20201086820F46050029A1269CB
:101C100040EAC2000860FFE700F022F841F2040148
:101C2000C4F202010968C9B20A0946F29C71C0F601
:101C30000001895CC84040F20001C2F20001086066
:101C400040F21000C2F200000068FFF73DFE0020E5
:101C50008DF80F00FFE79DF80F0004B080BD000075
:101C600080B598B046F25C71C0F6000108A8402229
:101C7000FEF786FA40F20120ADF81E000020069023
:101C8000059004900390029041F20400C4F2020017
:101C900000680690069800F00C00014601910028AB
:101CA0004AD0FFE70198042804D0FFE701980828EC
:101CB00006D042E042F20040C0F2F400029042E05E
:101CC000069901F0C04001F47011400E40EA9141C4
:101CD00008A8405C0390069800F44030B0F5803FBF
:101CE00007D0FFE7069800F44030B0F5403F18D128
:101CF000FFE741F20400C4F20200006800F4003182
:101D00000DF11E0040EA514000780590039842F220
:101D10000041C0F2F40148430599B0FBF1F0049092
:101D200007E0039841F20021C0F27A014843049091
:101D3000FFE70498029006E0FFE741F20020C0F2BE
:101D40007A000290FFE7029818B080BD80B586B097
:101D50000490049820B9FFE701208DF81700D4E320
:101D600004980078C007002800F0D680FFE741F211
:101D70000400C4F20200006800F00C00042820D027
:101D8000FFE741F20400C4F20200006800F00C001A
:101D900008282BD1FFE741F20400C4F202000068DA
:101DA00000F48030B0F5803F0BD0FFE741F2040033
:101DB000C4F20200006800F48030B0F5403F15D155
:101DC000FFE741F20000C4F20200006800F40031B5
:101DD0000020B0EB514F08D0FFE70498406820B9CD
:101DE000FFE701208DF817008FE394E00498406826
:101DF000B0F5803F0CD1FFE741F23801C4F2020197
:101E0000086820F44070049A926810430860FFE765
:101E1000FFE704984068B0F5803F09D1FFE741F241
:101E20000001C4F20201086840F48030086032E02A
:101E30000498406868B9FFE741F20001C4F202016A
:101E4000086820F480300860086820F4802008606A
:101E500020E004984068B0F5A02F0DD1FFE741F2D3
:101E60000001C4F20201086840F48020086008689C
:101E700040F4803008600CE041F20001C4F202013D
:101E8000086820F480300860086820F4802008602A
:101E9000FFE7FFE7FFE7FFE704984068E8B1FFE7E7
:101EA000FFF734FA0390FFE741F20000C4F20200AA
:101EB000006800F400310020B0EB514F0CD1FFE777
:101EC000FFF724FA0399401A652804D3FFE703209B
:101ED0008DF8170019E3E7E71CE0FFF717FA039006
:101EE000FFE741F20000C4F20200006800F4003194
:101EF0000020B0EB514F0CD0FFE7FFF707FA039932
:101F0000401A652804D3FFE703208DF81700FCE290
:101F1000E7E7FFE7FFE7FFE704980078800700287E
:101F200040F19080FFE741F20400C4F20200006833
:101F300010F00C0F20D0FFE741F20400C4F20200C1
:101F4000006800F00C0008282CD1FFE741F20400E3
:101F5000C4F20200006800F48030B0F5803F21D068
:101F6000FFE741F20400C4F20200006800F4803090
:101F7000B0F5403F16D0FFE741F20000C4F2020086
:101F8000006800F002010020B0EB510F09D0FFE71C
:101F900004984069012804D0FFE701208DF817005C
:101FA000B3E24EE00498406928B3FFE741F2000134
:101FB000C4F20201086840F001000860FFF7A6F9CA
:101FC0000390FFE741F20000C4F20200006800F055
:101FD00002010020B0EB510F0CD1FFE7FFF796F99B
:101FE0000399401A032804D3FFE703208DF8170054
:101FF0008BE2E7E724E041F20001C4F20201086845
:1020000020F001000860FFF781F90390FFE741F23B
:102010000000C4F20200006800F002010020B0EBF2
:10202000510F0CD0FFE7FFF771F90399401A03280D
:1020300004D3FFE703208DF8170066E2E7E7FFE728
:10204000FFE7FFE704980078C00600284FD5FFE7B8
:102050000498806928B3FFE741F22801C4F2020125
:10206000086840F010000860FFF750F90390FFE7A0
:1020700041F22800C4F20200006800F020010020B4
:10208000B0EB511F0CD1FFE7FFF740F90399401A5D
:10209000032804D3FFE703208DF8170035E2E7E7B4
:1020A00024E041F22801C4F20201086820F0100087
:1020B0000860FFF72BF90390FFE741F22800C4F214
:1020C0000200006800F020010020B0EB511F0CD08E
:1020D000FFE7FFF71BF90399401A032804D3FFE732
:1020E00003208DF8170010E2E7E7FFE7FFE7049809
:1020F00000780007002852D5FFE70498C06940B374
:10210000FFE741F22401C4F20201086840F0010037
:102110000860FFF7FBF80390FFE741F22400C4F2E8
:102120000200006800F002010020B0EB510F0CD15A
:10213000FFE7FFF7EBF80399401A032804D3FFE702
:1021400003208DF81700E0E1E7E7012001F0FCFE35
:1021500024E041F22401C4F20201086820F00100E9
:102160000860FFF7D3F80390FFE741F22400C4F2C0
:102170000200006800F002010020B0EB510F0CD00B
:10218000FFE7FFF7C3F80399401A032804D3FFE7DA
:1021900003208DF81700B8E1E7E7FFE7FFE70498B1
:1021A00000784007002840F1EF80FFE700208DF81D
:1021B000070041F21C00C4F202000068C0000028C1
:1021C00013D4FFE7FFE741F21C00C4F202000168EC
:1021D00041F080510160006800F08050009000984C
:1021E000FFE701208DF80700FFE747F20000C4F287
:1021F00000000068C005002822D4FFE747F2000174
:10220000C4F20001086840F480700860FFF77EF8AF
:102210000390FFE747F20000C4F200000068C00529
:1022200000280CD4FFE7FFF771F80399401A6528DE
:1022300004D3FFE703208DF8170066E1EAE7FFE724
:102240000498C06801280CD1FFE741F22001C4F2D4
:102250000201086820F01800049A1269104308600F
:10226000FFE7FFE70498C068012809D1FFE741F2C2
:102270002001C4F20201086840F00100086031E06A
:102280000498C06868B9FFE741F22001C4F2020176
:10229000086820F001000860086820F00400086069
:1022A0001FE00498C06805280DD1FFE741F2200126
:1022B000C4F20201086840F004000860086840F0B9
:1022C000010008600CE041F22001C4F2020108683C
:1022D00020F001000860086820F004000860FFE7B3
:1022E000FFE7FFE7FFE70498C068F8B1FFE7FFF7F3
:1022F0000DF80390FFE741F22000C4F202000068ED
:1023000000F002010020B0EB510F0ED1FFE7FEF705
:10231000FDFF0399401A41F28931884204D3FFE757
:1023200003208DF81700F0E0E5E71EE0FEF7EEFF72
:102330000390FFE741F22000C4F20200006800F0C1
:1023400002010020B0EB510F0ED0FFE7FEF7DEFFD9
:102350000399401A41F28931884204D3FFE70320F0
:102360008DF81700D1E0E5E7FFE79DF807000128A9
:1023700009D1FFE741F21C01C4F20201086820F014
:1023800080500860FFE7FFE70498006A002800F02B
:10239000B880FFE741F20400C4F20200006800F0D8
:1023A0000C00082800F08580FFE70498006A0228E6
:1023B00059D1FFE741F20001C4F20201086820F0A0
:1023C00080700860FEF7A2FF0390FFE741F2000073
:1023D000C4F20200006800F000710020B0EB516F01
:1023E0000CD0FFE7FEF792FF0399401A032804D3AD
:1023F000FFE703208DF8170087E0E7E741F20401CB
:10240000C4F2020108684FF6FF72C9F6C0721040AC
:10241000049B5A6A9B6A1A431043086041F2000108
:10242000C4F20201086840F080700860FEF76EFF99
:102430000390FFE741F20000C4F20200006800F0E0
:1024400000710020B0EB516F0CD1FFE7FEF75EFF8B
:102450000399401A032804D3FFE703208DF81700DF
:1024600053E0E7E724E041F20001C4F2020108680A
:1024700020F080700860FEF749FF0390FFE741F20B
:102480000000C4F20200006800F000710020B0EB10
:10249000516F0CD0FFE7FEF739FF0399401A03286C
:1024A00004D3FFE703208DF817002EE0E7E7FFE7EE
:1024B00026E00498006A012804D1FFE701208DF886
:1024C000170022E041F20400C4F20200006802900A
:1024D000029800F480300499496A88420AD1FFE7E3
:1024E00002980021C6F23C0108400499896A88429A
:1024F00004D0FFE701208DF8170006E0FFE7FFE7B3
:10250000FFE700208DF81700FFE79DF8170006B0E1
:1025100080BD00007047000080B582B00190019836
:1025200001F032FD02B080BD80B5FFF7F3FF80BD42
:1025300080B584B0039000200290FFE70298042841
:102540003BDCFFE7029842F2FC72C2F2000240F26A
:10255000345100FB01200399884229D1FFE70298FA
:1025600042F2FC72C2F2000240F2345100FB012040
:1025700001900199D1F884000130C1F884000199DB
:10258000002081F87800019981F87900019981F89B
:102590001703019981F818030198806E38B1FFE79D
:1025A00001999DF808008A6EC96E9047FFE704E024
:1025B000FFE7029801300290C0E704B080BD000040
:1025C00080B588B007900798006800680690079863
:1025D0000068C06805900798006840690490002072
:1025E00003900290069800F00F000390039888B9BA
:1025F000FFE79DF81800800600280AD5FFE79DF840
:1026000014008006002804D5FFE7079801F0ECFDD0
:10261000EFE0FFE70398002800F0AE80FFE79DF8A9
:102620001000C00738B9FFE7BDF8140010F4907F20
:1026300000F0A280FFE79DF81800C00758B1FFE73F
:102640009DF81500C00730B1FFE70799886C40F08E
:1026500001008864FFE79DF81800400700280BD5AB
:10266000FFE79DF81000C00730B1FFE70799886CBD
:1026700040F002008864FFE79DF8180080070028FA
:102680000BD5FFE79DF81000C00730B1FFE70799B1
:10269000886C40F004008864FFE79DF8180000078C
:1026A00000280BD5FFE79DF81000C00730B1FFE709
:1026B0000799886C40F008008864FFE70798806CF1
:1026C000002858D0FFE79DF81800800600280AD59A
:1026D000FFE79DF814008006002804D5FFE707985F
:1026E00001F082FDFFE7079800684069C0F38010A1
:1026F00002900798806C0007002803D4FFE7029837
:1027000088B3FFE7079801F039FD07980068406932
:102710004006002822D5FFE707980168486920F0A5
:10272000400048610798006C98B1FFE70798016C7A
:1027300044F28100C0F6000048630798006CFDF782
:10274000E9FE28B1FFE70798006C416B8847FFE777
:1027500003E00798FFF7ECFEFFE703E00798FFF7B9
:10276000E7FEFFE706E00798FFF7E2FE0799002083
:102770008864FFE7FFE73CE09DF81800C0060028EA
:1027800017D5FFE79DF81400C006002811D5FFE714
:10279000FFE7002001900798006800680190079803
:1027A0000068406801900198FFE7079800F024F85E
:1027B000FFE79DF81800000600280AD5FFE79DF8FE
:1027C00014000006002804D5FFE7079801F068FD13
:1027D0000FE09DF81800400600280AD5FFE79DF895
:1027E00014004006002804D5FFE7079801F0DAFC42
:1027F000FFE708B080BD000081B0009001B07047D5
:1028000080B584B0039000200290FFE7029804286E
:1028100033DCFFE7029842F2FC72C2F2000240F29F
:10282000345100FB01200399884221D1FFE702982F
:1028300042F2FC72C2F2000240F2345100FB01206D
:1028400001900199002081F87900019981F818031D
:102850009DF8080003F08CFD0198806D38B1FFE70A
:1028600001999DF808008A6DC96D9047FFE704E063
:10287000FFE7029801300290C8E704B080BD000075
:1028800080B58AB008900791ADF81A200593002012
:102890000290089890F84500202840F0A480FFE7B7
:1028A000079820B1FFE7BDF81A0020B9FFE7012023
:1028B0008DF827009BE008988068B0F5805F0ED106
:1028C000FFE70898006950B9FFE79DF81C00C007B2
:1028D00020B1FFE701208DF8270088E0FFE7FFE740
:1028E000089890F84400012804D1FFE702208DF8F1
:1028F00027007CE00899012081F84400FFE7FFE70A
:102900000899002088640899212081F84500FEF785
:10291000FDFC0290BDF81A0008990886BDF81A005F
:102920000899488608988068B0F5805F09D1FFE76C
:102930000898006928B9FFE70020049007980390E1
:1029400004E00798049000200390FFE7FFE7089851
:10295000408E58B3FFE70898029B05996A461160BC
:102960008021002201F0EAFC20B1FFE703208DF86E
:1029700027003CE0049858B9FFE7039800886FF3FC
:102980005F2008990968486003980230039008E0C6
:102990000498007808990968486004980130049008
:1029A000FFE70899488E01384886D0E70898029BCF
:1029B00005996A4611604021002201F0BFFC20B158
:1029C000FFE703208DF8270011E00899202081F807
:1029D0004500FFE70899002081F84400FFE7002048
:1029E0008DF8270003E002208DF82700FFE79DF80F
:1029F00027000AB080BD000080B586B00490039126
:102A0000ADF80A20049890F84500202867D1FFE728
:102A1000039820B1FFE7BDF80A0020B9FFE70120C5
:102A20008DF817005FE0FFE7049890F84400012854
:102A300004D1FFE702208DF8170054E0049901202B
:102A400081F84400FFE7FFE703980499C862BDF8E6
:102A50000A0004990886BDF80A000499488604997A
:102A600000208864049A212182F845100499CA6BD9
:102A700044F21D11C0F6000191620499CA6B44F240
:102A80006511C0F60001D1620499CA6B44F2A1013C
:102A9000C0F6000111630499C96B486303A8019053
:102AA00004980268C06B019909680432BDF80A30C5
:102AB000FEF706FA049801686FF040000860FFE72F
:102AC0000499002081F84400FFE7049801684869F0
:102AD00040F08000486100208DF8170003E00220DC
:102AE0008DF81700FFE79DF8170006B080BD0000C5
:102AF00084B002900191ADF80220029890F8450050
:102B000020283ED1FFE7019820B1FFE7BDF8020081
:102B100020B9FFE701208DF80F0036E0FFE70298AB
:102B200090F84400012804D1FFE702208DF80F003F
:102B30002BE00299012081F84400FFE7FFE70198AC
:102B40000299C862BDF8020002990886BDF8020029
:102B5000029948860299002088640299212081F810
:102B60004500FFE70299002081F84400FFE7029842
:102B70000168C86840F08000C86000208DF80F0030
:102B800003E002208DF80F00FFE79DF80F0004B06E
:102B90007047000080B584B0039000200290FFE7EA
:102BA0000298042847DCFFE7029842F2FC72C2F266
:102BB000000240F2345100FB01200399884235D1D4
:102BC000FFE7029842F2FC72C2F2000240F2345176
:102BD00000FB012001900199002081F87800019903
:102BE00081F817030398008EADF80200019800F5F4
:102BF0004A70BDF8021003F043FB019800F54A70DB
:102C000003F04CFA012805DBFFE79DF8080003F00C
:102C1000D1FCFFE70198006D38B1FFE701999DF8FD
:102C200008000A6D496D9047FFE704E0FFE702984E
:102C300001300290B4E704B080BD000081B0009084
:102C400001B07047FFE7FEE780B542F23410C2F2F0
:102C50000000FEF76DFB80BD80B542F23410C2F279
:102C60000000FEF721FC80BD80B542F23410C2F2B4
:102C700000008030FEF75CFB80BD000080B542F2B2
:102C80003410C2F200008030FEF70EFC80BD000060
:102C900081B000900098C06AB0F52A0F04D1FFE718
:102CA00000990120C8620BE00098C06AB0F12A4F79
:102CB00004D1FFE700990820C86200E0FFE7FFE7C2
:102CC00001B0704780B584B003900398406A0290C9
:102CD000029890F83D008DF807000298416B0020A3
:102CE00088620299896B886202990A68116821F4E6
:102CF00080611160029948850299496B4863029985
:102D0000896B486302980168086820F00100086038
:102D1000029890F83D0060280ED1FFE7029920202C
:102D200081F83D000299002081F83E000299086474
:102D30000298FEF7F1FA27E09DF8070000F028005E
:102D4000282814D1FFE702980168086840F00100C4
:102D5000086002980168086840F480600860029981
:102D6000002008630299282081F83D0008E00299BC
:102D7000202081F83D000299002081F83E00FFE705
:102D80000298FEF767FDFFE704B080BD80B582B012
:102D90000190019890F83D008DF80300019890F89B
:102DA0003E0010280CD1FFE79DF80300222807D130
:102DB000FFE701980168086820F400600860FFE7F9
:102DC0009DF8030000F02800282808D1FFE70199AA
:102DD000002008630199282081F83D0019E001983E
:102DE0000068406800F40060B0F5006F0AD0FFE7AB
:102DF0009DF80300602805D0FFE70199202081F8A5
:102E00003D00FFE7019900200863019981F83E0029
:102E1000FFE7019800684068000500285DD5FFE7DE
:102E200001980168486820F4006048600198406B90
:102E300090F8210001281DD0FFE70198416B42F670
:102E4000C540C0F6000048630198406BFDF762FB87
:102E500078B1FFE701980168086820F00100086078
:102E60000199202081F83D000198406B416B884713
:102E7000FFE731E00198816B42F6C540C0F60000E3
:102E800048630198806BFDF745FB20B3FFE701988D
:102E90000068406900F040010120B0EB911F0BD1A8
:102EA000FFE70198006800690199496A0870019973
:102EB000486A01304862FFE701980168086820F01D
:102EC000010008600199202081F83D000198806B85
:102ED000416B8847FFE7FFE745E0019890F83D0028
:102EE000602826D1FFE70199202081F83D00019953
:102EF0000020086401980068406900F0400101204A
:102F0000B0EB911F0BD1FFE70198006800690199B0
:102F1000496A08700199486A01304862FFE70198E0
:102F20000168086820F0010008600198FEF7F4F9D4
:102F300018E001980068406900F040010120B0EB02
:102F4000911F0BD1FFE70198006800690199496A58
:102F500008700199486A01304862FFE70198FEF75E
:102F600079FCFFE7FFE7019890F83D008DF803003A
:102F70000198006C400700281ED5FFE79DF803006C
:102F8000282819D1FFE701980168486820F4E0601B
:102F9000486001990020CFF6FF70C86201990020B7
:102FA0000863019A202182F83D10019981F83E00C2
:102FB0000198FEF753FCFFE702B080BD80B582B0F8
:102FC00001900198C06A00900198408D042815D1A5
:102FD000FFE701980168486820F480604860019824
:102FE000006800690199496A08700199486A0130CE
:102FF00048620199488D01384885ACE00198408DC0
:10300000032824D1FFE701980168486820F4806014
:103010004860009804280BD0FFE70098022807D0EA
:10302000FFE701980168086820F480600860FFE706
:103030000198006800690199496A08700199486A15
:10304000013048620199488D0138488582E0019835
:10305000408D02286ED1FFE70098012804D0FFE7D9
:103060000098102807D1FFE701980168086820F44C
:10307000806008601CE00098042804D0FFE70098F6
:10308000022807D1FFE701980168086840F48060D2
:1030900008600CE00098102807D0FFE7019801684D
:1030A000086840F40070086000E0FFE7FFE7FFE712
:1030B0000198006800690199496A08700199486A95
:1030C000013048620199488D0138488501980068AF
:1030D00000690199496A08700199486A013048629B
:1030E0000199488D0138488501980168486820F4A5
:1030F000407048600199202081F83D00019890F8C7
:103100003E0040280AD1FFE70199002081F83E00E7
:10311000019908630198FEF7ADFB0AE001990020D0
:1031200081F83E000199122008630198FEF79AFB8E
:10313000FFE70EE00198006800690199496A08708C
:103140000199486A013048620199488D01384885E3
:10315000FFE7FFE7FFE702B080BD000080B582B067
:103160000190019890F83D0022286BD1FFE701986B
:10317000408D0090009804281BD3FFE70198006859
:1031800000690199496A08700199486A01304862EA
:103190000199488D013848850198408D032807D151
:1031A000FFE701980168486820F480604860FFE705
:1031B00047E00198C06A022841D0FFE70098012843
:1031C00003D0FFE70098D0BBFFE7019801680868CB
:1031D00020F48060086001980168486820F4E0608D
:1031E00048600198006800690199496A087001996E
:1031F000486A013048620199488D01384885019933
:10320000202081F83D00019890F83E0040280AD126
:10321000FFE70199002081F83E00019908630198B9
:10322000FEF728FB0AE00199002081F83E00019991
:10323000122008630198FEF715FBFFE700E0FFE7A7
:10324000FFE7FFE702B080BD80B582B00190019832
:10325000C06A0090019890F83D00212860D1FFE7F6
:103260000198408D70B1FFE701980168406A0078CD
:1032700008610199486A013048620199488D013816
:1032800048854CE0009808281ED0FFE700982028C9
:103290001AD0FFE7009810F5803F15D0FFE701989E
:1032A0000168486820F4E0604860019911200863D3
:1032B0000199002081F83E000199202081F83D000D
:1032C0000198FEF7D3FA29E001980168486820F4D4
:1032D000E060486001980168086840F40070086088
:1032E0000199002008630199202081F83D00019890
:1032F00090F83E00402808D1FFE70199002081F8AE
:103300003E000198FEF7BAFA07E00199002081F823
:103310003E000198FEF7AAFAFFE7FFE7FFE7FFE7A5
:1033200002B080BD80B584B00390039890F83D0052
:103330008DF80B00039890F83E008DF80A00039872
:10334000C06A01900398008D002852D1FFE79DF8D4
:103350000B0021284DD1FFE7019808281ED0FFE778
:10336000019820281AD0FFE7019810F5803F15D06A
:10337000FFE703980168486820F4E060486003991B
:10338000112008630399002081F83E000399202052
:1033900081F83D000398FEF769FA29E00398016877
:1033A000486820F4E060486003980168086840F4C9
:1033B000007008600399002008630399202081F8B9
:1033C0003D00039890F83E00402808D1FFE703999C
:1033D000002081F83E000398FEF750FA07E00399B9
:1033E000002081F83E000398FEF740FAFFE7FFE770
:1033F00091E09DF80B0021280CD0FFE79DF80A0012
:10340000402840F08680FFE79DF80B00222840F01E
:103410008080FFE70398408D38B9FFE70398016883
:10342000486820F48060486072E0039890F83E009D
:1034300040285ED1FFE70398006DE8B9FFE70398E5
:10344000C06C01280BD1FFE70398806CC0B20399D0
:10345000096808610399086D023008650BE003985C
:10346000806C80B2000A0399096808610399086DAD
:1034700001300865FFE73BE00398006D01280BD1A0
:10348000FFE70398806CC0B203990968086103994B
:10349000086D013008652AE00398006D022824D1E8
:1034A000FFE7039890F83D00222807D1FFE7039833
:1034B0000168086840F48070086015E0039890F88F
:1034C0003D0021280ED1FFE703980168406A00788B
:1034D00008610399486A013048620399488D0138B0
:1034E000488500E0FFE7FFE700E0FFE7FFE7FFE7D1
:1034F0000DE003980168406A007808610399486A02
:10350000013048620399488D01384885FFE7FFE79D
:1035100000E0FFE7FFE704B080BD000081B000904D
:103520000098406CC0B20099096808610098406B2F
:1035300020B9FFE70098806B90B1FFE70098406BDF
:10354000806A28B9FFE70098806B806A38B1FFE78E
:1035500000980168486840F400604860FFE7FFE7B2
:1035600001B070478FB00E900E9890F83E008DF825
:1035700037000E98C06A0C900E98006B0B900E9856
:1035800090F83D00222840F08981FFE70E98006DF9
:1035900098B9FFE79DF8370040280ED1FFE7FFE715
:1035A00000200A900E98006840690A900E98006802
:1035B00080690A900A98FFE76FE10E98006DF0B9F4
:1035C000FFE70E980069B0F5404F18D1FFE7FFE71D
:1035D000002009900E980068406909900E980068D4
:1035E000806909900998FFE70E980168086840F41F
:1035F000807008600E99086D013008654CE10E98E6
:10360000408DA0B9FFE7FFE7002008900E98006802
:10361000406908900E980068806908900898FFE754
:103620000E980168086840F40070086030E10E9858
:10363000408D012840F09080FFE70C9810F5803F06
:1036400036D1FFE70E980168086820F480600860B2
:103650000E98006840680005002814D5FFE70E9812
:103660000168086820F480600860FFE70020079088
:103670000E980068406907900E980068806907906E
:103680000798FFE713E0FFE7002006900E98006818
:10369000406906900E980068806906900698FFE7DA
:1036A0000E980168086840F400700860FFE752E077
:1036B0000C98082834D0FFE70C98202830D0FFE77A
:1036C0000B98122804D1FFE70C98012828D1FFE7B6
:1036D0000C9804280FD0FFE70C9802280BD0FFE7C6
:1036E0000C98102807D0FFE70E980168086820F4AE
:1036F0008060086006E00E980168086840F4806009
:103700000860FFE7FFE7002005900E980068406919
:1037100005900E980068806905900598FFE719E00C
:103720000E980168086820F480600860FFE70020B8
:1037300004900E980068406904900E9800688069B3
:1037400004900498FFE70E980168086840F4007040
:103750000860FFE7FFE79AE00E98408D02285ED1EF
:10376000FFE70C98042822D0FFE70C9802281ED00F
:10377000FFE70C9810281AD0FFE70E980168086838
:1037800040F400600860FFE7002003900E98006896
:10379000406903900E980068806903900398FFE7E2
:1037A0000E980168086820F48060086013E00E98A5
:1037B0000168086840F480600860FFE7002002901C
:1037C0000E980068406902900E9800688069029027
:1037D0000298FFE7FFE70E980068406800050028A0
:1037E0001CD5FFE70C9810F5803F10D0FFE70C9830
:1037F00001280CD0FFE70C98082808D0FFE70C98A8
:10380000102804D0FFE70C98202807D1FFE70E9876
:103810000168486840F480504860FFE736E00E9841
:103820000168086840F4806008600E98006840688D
:10383000000500281CD5FFE70C9810F5803F10D03C
:10384000FFE70C9801280CD0FFE70C98082808D057
:10385000FFE70C98102804D0FFE70C98202807D128
:10386000FFE70E980168486840F480504860FFE721
:10387000FFE7002001900E980068406901900E98C3
:103880000068806901900198FFE7FFE7FFE7FFE725
:103890000E9900200865FFE7FFE70DE0FFE7002035
:1038A00000900E980068406900900E98006880694A
:1038B00000900098FFE7FFE70FB0704781B00090DD
:1038C000009890F83E00402816D1FFE70098006D60
:1038D00040B9FFE70098406C00F0FE0000990968CD
:1038E000086108E00098406C40F00100C0B2009907
:1038F00009680861FFE758E000980069B0F5804F5B
:1039000032D1FFE7009890F83D00212808D1FFE769
:103910000098406C00F0FE0000990968086108E01A
:103920000098406C40F00100C0B20099096808613D
:10393000FFE70098406B20B9FFE70098806B90B1DB
:10394000FFE70098406B806A28B9FFE70098806B1A
:10395000806A38B1FFE700980168486840F4006069
:103960004860FFE7FFE71FE00098006D50B9FFE7F0
:103970000098406C00F44070C009F030009909686C
:10398000086110E00098006D01280AD1FFE7009857
:10399000406C00F44070C009F1300099096808617A
:1039A00000E0FFE7FFE7FFE7FFE701B07047000037
:1039B00081B000900098408D78B1FFE700980068D2
:1039C00000690099496A08700099486A01304862A4
:1039D0000099488D01384885FFE701B07047000025
:1039E00080B582B00190019890F83D008DF80300F9
:1039F0000198408D48B3FFE701980068006901997C
:103A0000496A08700199486A013048620199488DF5
:103A1000013848850198408DB0B9FFE79DF8030053
:103A20002A2811D1FFE701980168486820F48060D6
:103A300048600199222008630199282081F83D00FF
:103A40000198FDF71FFFFFE7FFE702B080BD000010
:103A500081B000900098408D70B1FFE70098016838
:103A6000406A007808610099486A0130486200990C
:103A7000488D01384885FFE701B0704780B582B0B6
:103A80000190019890F83D008DF803000198408D59
:103A900040B3FFE701980168406A00780861019926
:103AA000486A013048620199488D0138488501987B
:103AB000408DB0B9FFE79DF80300292811D1FFE739
:103AC00001980168486820F48060486001992120CD
:103AD00008630199282081F83D000198FDF7D6FE82
:103AE000FFE7FFE702B080BD80B584B0039002918C
:103AF00000208DF80700039890F83D0000F02800A2
:103B0000282832D1FFE703980168486820F48060D4
:103B100048609DF8080000F004010020B0EB910F10
:103B200004D1FFE701208DF80700FFE79DF808109A
:103B30000020B0EBD11F05D1FFE70398C068ADF8B6
:103B4000040004E003988069ADF80400FFE7FFE794
:103B50000399002081F83C00FFE703989DF80710C7
:103B6000BDF80420FDF7DCFB13E0FFE70020009028
:103B7000039800684069009003980068806900908D
:103B80000098FFE7FFE70399002081F83C00FFE77A
:103B9000FFE704B080BD000080B584B003900398B7
:103BA00090F83D008DF80B000398C06A01900198D1
:103BB000082804D0FFE70198202829D1FFE79DF8C5
:103BC0000B00282824D1FFE703990020CFF6FF70CF
:103BD000C86203980168486820F4E0604860039870
:103BE00001686FF48060486103980168086820F4F8
:103BF00080600860039900200863039A202182F8FE
:103C00003D10039981F83E000398FDF727FE30E050
:103C10009DF80B00212825D1FFE703990020CFF65E
:103C2000FF70C8620399212008630399202081F85E
:103C30003D000399002081F83E0003980168486820
:103C400020F4E0604860039801686FF48060486188
:103C500003980168086820F4806008600398FDF705
:103C600015FE05E0039801686FF480604861FFE786
:103C7000FFE704B080BD000080B584B003900398D6
:103C800090F83D008DF80B0003980168486820F417
:103C9000E0604860FFE700200190039800684069F9
:103CA000019003980168086840F0010008600198DD
:103CB000FFE703980168086820F4806008600398B3
:103CC00000684068000500286DD5FFE79DF80B00EF
:103CD000222805D0FFE79DF80B002A2831D1FFE705
:103CE0000398806B00684068039948850398408D6D
:103CF00030B1FFE70399086C40F004000864FFE767
:103D000003980168486820F4006048600398806B5D
:103D1000FCF78CFD012813D0FFE70398816B42F676
:103D2000C540C0F6000048630398806BFCF7F2FBC7
:103D300028B1FFE70398806B416B8847FFE7FFE7F7
:103D400030E00398406B0068406803994885039809
:103D5000408D30B1FFE70399086C40F0040008641F
:103D6000FFE703980168486820F400604860039802
:103D7000406BFCF75BFD012813D0FFE70398416B14
:103D800042F6C540C0F6000048630398406BFCF75C
:103D9000C1FB28B1FFE70398406B416B8847FFE701
:103DA000FFE7FFE7FFE70398408DE8B3FFE70398DD
:103DB0000068406900F004010120B0EB910F0FD1C1
:103DC000FFE70398006800690399496A087003993E
:103DD000486A013048620399488D01384885FFE7F9
:103DE00003980068406900F040010120B0EB911F8A
:103DF0000FD1FFE70398006800690399496A0870CA
:103E00000399486A013048620399488D0138488512
:103E1000FFE70398408D30B1FFE70399086C40F04D
:103E200004000864FFE7FFE70398006C20B1FFE798
:103E30000398FEF7ABFF42E09DF80B002A280BD158
:103E4000FFE70399002008630399282081F83D00CB
:103E50000398FDF717FDFFE7039890F83D00282829
:103E600013D1FFE703990020CFF6FF70C8620399D2
:103E700000200863039A202182F83D10039981F8FD
:103E80003E000398FDF7EAFC18E00398006B222837
:103E900005D0FFE79DF80B0022280ED1FFE703991C
:103EA00000200863039A202182F83D10039981F8CD
:103EB0003E000398FDF7E6FCFFE7FFE7FFE704B0ED
:103EC00080BD0000FFE7FEE77047000088B0079064
:103ED00006910592079800F0070004900498C0F13D
:103EE0000700042803D3FFE70320019004E00498AF
:103EF000C0F107000190FFE7019803900498033098
:103F0000062803D8FFE70020009003E00498043857
:103F10000090FFE70098029006980399012202FAA8
:103F200001F101390840029B984005999A40013AF5
:103F30001140084308B07047704700007047000008
:103F4000704700007047000082B00190019840F275
:103F50000001C2F200010968C90844F6D352C1F257
:103F60006202A1FB0221890948430090FFE700BFDC
:103F7000FFE70098411E00910028F8D1FFE702B04A
:103F8000704700007047000080B584B0029002982E
:103F90000138B0F1807F03D3FFE7012003901AE0DE
:103FA000029801384EF21401CEF2000108604FF081
:103FB000FF300721019100F023FA01994EF2180217
:103FC000CEF20002002010604EF21002CEF200028B
:103FD00011600390FFE7039804B080BD80B5FDF742
:103FE00059FCFEF7A1FA012001F0BCFB80BD0000E6
:103FF00080B592B007A801902C21FCF7DAF801985F
:104000000023069305930493039302931F210791C2
:104010004FF4803108914FF44072099210220D92B2
:1040200001220C920A930E9202220F9210914FF4E9
:10403000E0111191FDF78AFE18B1FFE7FCF7DCF8FB
:10404000FFE70F20029002200390002004900590CB
:104050004FF48060069002A80621FDF7CFFC18B14E
:10406000FFE7FCF7C9F8FFE712B080BD4EF6085134
:10407000CEF200014FF0006008607047704700000A
:1040800080B582B001900198406A009000990020AC
:104090004887009948860098FEF74AFA02B080BD2A
:1040A00080B584B00390002002900398406A01908C
:1040B000019800684069C0B2C0090290019890F868
:1040C000450021280AD1FFE7029838B1FFE701999E
:1040D00000204886019800F079F8FFE70198006811
:1040E0004069C0F380100290019890F846002228A1
:1040F0000AD1FFE7029838B1FFE70199002048870D
:10410000019800F03BF8FFE70199886C40F010003F
:1041100088640198FEF70CFA04B080BD80B582B0C7
:1041200001900198406A009001980068006880063C
:10413000002810D4FFE70099002048860098016805
:10414000486920F08000486100980168C86840F024
:104150004000C86003E00098FEF71CFDFFE702B0D6
:1041600080BD000080B582B001900198406A009047
:104170000098FEF763FD02B080BD000081B00090A2
:1041800000980168C86820F49070C86000980168C1
:10419000486920F0010048610099202081F846001C
:1041A00001B0704780B582B0019001980168C8687D
:1041B00020F04000C8600199202081F84500019856
:1041C000FEF7E8FC002002B080BD000081B0009046
:1041D00000980168C86820F0C000C86000992020DD
:1041E00081F8450001B0704780B584B00290029814
:1041F00090F8460022284AD1FFE702988068B0F57F
:10420000805F13D1FFE70298006978B9FFE7029851
:10421000406B01900298006840686FF35F2001993D
:1042200008800299486B0230486308E002980068F1
:104230004068029B596B4A1C5A630870FFE7029959
:10424000488F013848870004E8B9FFE70298016801
:10425000C86820F02000C86002980168C86820F48F
:104260008070C86002980168486920F001004861C8
:104270000299202081F846000298FEF7C1FA00203A
:104280008DF80F0007E000208DF80F0003E00220FA
:104290008DF80F00FFE79DF80F0004B080BD00000F
:1042A00084B00290029890F8450021283ED1FFE7A3
:1042B00002988068B0F5805F13D1FFE7029800692B
:1042C00078B9FFE70298C06A0190019800886FF3FF
:1042D0005F200299096848600299C86A0230C86282
:1042E0000CE00298C06A0090009800780299096872
:1042F00048600299C86A0130C862FFE70299488E97
:1043000001384886000468B9FFE702980168C86868
:1043100020F08000C86002980168C86840F0400042
:10432000C860FFE700208DF80F0003E002208DF841
:104330000F00FFE79DF80F0004B0704780B586B00E
:10434000DDF820C0049003918DF80B200193FFE766
:1043500004980068006803990840401AB0FA80F099
:1043600040099DF80B1088422ED1FFE708980130D4
:1043700048B3FFE7089840B1FFE7FCF7C7FF019992
:10438000401A089988421DD9FFE704980168C86857
:1043900020F4D070C86004980168486920F00100DA
:1043A00048610499202081F84500049981F846006D
:1043B000FFE70499002081F84400FFE703208DF80F
:1043C000170005E0FFE7C3E700208DF81700FFE7BF
:1043D0009DF8170006B080BD80B542F2FC70C2F2B5
:1043E000000000F23450FEF7EBF880BDFFE7FEE777
:1043F0004EF60C50CEF200000068C0F30220704769
:1044000082B08DF8070000919DF9070000280AD4BA
:10441000FFE7009840019DF907104EF20042CEF2EE
:10442000000288540BE0009840019DF8071001F04D
:104430000F014EF61452CEF200028854FFE702B08C
:104440007047000083B00290029800F007000090CF
:104450004EF60C51CEF200010868019001984FF61B
:10446000FF02104001900198009A40EA02200022C9
:10447000C0F2FA52104301900198086003B07047EF
:1044800083B002908DF80710FFE79DF80710002019
:10449000022900900BDBFFE702999DF80700084412
:1044A00010F8010CB0FA80F040090090FFE7009886
:1044B000C00730B1FFE79DF8070001388DF807000D
:1044C000E3E79DF8070003B07047000083B08DF864
:1044D0000B0001919DF80B000199098848408DF867
:1044E00003009DF8030080EA00108DF80300019995
:1044F00048789DF8032040EA022080EAC20080EA62
:104500001210088003B0704780B584B00390029108
:10451000ADF8062002980090FFE7BDF80600411EA6
:10452000ADF8061040B1FFE70098411C00910078FB
:104530000399FFF7CBFFF0E704B080BD80B582B0F0
:104540000190ADF80210684600F014F8FFE7BDF8DE
:104550000200411EADF8021040B1FFE70198411C76
:10456000019100786946FFF7B1FFF0E7BDF8000060
:1045700002B080BD81B0009000994FF6FF700880B6
:1045800001B0704782B08DF803009DF80300052844
:1045900003DBFFE7002001900BE09DF8030042F2EF
:1045A000FC72C2F2000240F2345110FB0120019073
:1045B000FFE7019802B0704783B0ADF80600BDF880
:1045C00006004F2811D8FFE7BDF8061046F2AC7080
:1045D000C0F6000000EB011000900098406818B190
:1045E000FFE70098029003E0FFE700200290FFE75A
:1045F000029803B07047000085B0FFE741F2340035
:10460000C4F20200016841F004010160006800F09A
:10461000040004900498FFE7FFE741F23400C4F27D
:104620000200016841F008010160006800F0080024
:1046300003900398FFE7FFE741F23400C4F2020061
:10464000016841F010010160006800F01000029064
:104650000298FFE7FFE741F23400C4F2020001686C
:1046600041F020010160006800F0200001900198F5
:10467000FFE7FFE741F23400C4F20200016841F0B5
:1046800040010160006800F0400000900098FFE7E2
:10469000002005B07047000080B582B08DF807009B
:1046A0009DF807000F2817DCFFE79DF8071042F27E
:1046B0003400C2F2000000EB0110406860B1FFE777
:1046C0009DF8071042F23400C2F2000000EB011026
:1046D000416880688847FFE702B080BD80B58AB036
:1046E000ADF822008DF8211000200690059004906E
:1046F00003900290BDF82200FFF75EFF0790079835
:1047000020B9FFE76FF00100099034E007980089B5
:104710000290022005909DF8210001460191042895
:104720001DD80199DFE801F008030C1116000120E3
:1047300003900020049016E000200390049012E003
:1047400000200390012004900DE00020039002203F
:10475000049008E0112003900020049003E06FF023
:104760000100099007E00798406802A9FCF70EFCD9
:1047700000200990FFE709980AB080BD80B584B099
:10478000ADF80A00BDF80A00FFF716FF0190019886
:1047900020B9FFE76FF00100039007E00199486836
:1047A0000989FCF79BFD00200390FFE7039804B004
:1047B00080BD000080B584B08DF80F009DF80F001B
:1047C000FFF7E0FE029002990020019039B1FFE767
:1047D00002980068002818BF01200190FFE70198A7
:1047E00000F0010004B080BD80B584B08DF80D00EC
:1047F000ADF80A10BDF80A000004002819D5FFE73B
:104800009DF80D0001F032FB0190FFE7019848B1DF
:10481000FFE7019801F0E2FA9DF80D0001F026FB98
:104820000190F3E7BDF80A0080F40040ADF80E00F7
:1048300012E0BDF80A00C00750B1FFE71220FFF7F1
:104840009DFFBDF80A0080F00100ADF80E0003E006
:104850000020ADF80E00FFE7BDF80E0004B080BDEB
:1048600080B584B08DF80F009DF80F0042F234211E
:10487000C2F2000102910870FFF7BEFE1220012172
:104880000191FFF72BFF0199029800784FF4FA721B
:1048900001F064FB04B080BD80B5FDF709F8FFF7B7
:1048A000A7FB01F0BDF8002080BD000080B584B0FA
:1048B0008DF80D00ADF80A10BDF80A0000040028BC
:1048C00019D5FFE79DF80D0001F0D0FA0190FFE740
:1048D000019848B1FFE7019801F080FA9DF80D00BA
:1048E00001F0C4FA0190F3E7BDF80A0080F400403B
:1048F000ADF80E0028E0BDF80A008007002809D5B1
:10490000FFE700F0B7FBBDF80A0080F00200ADF849
:104910000E0019E0BDF80A00800788B1FFE7B8EE85
:10492000081ADFED0B1AB0EE610AF0EE610A01F031
:10493000E1FCBDF80A0080F00300ADF80E0003E0D2
:104940000020ADF80E00FFE7BDF80E0004B080BDFA
:104950000000000080B582B08DF807009DF80700C8
:1049600042F27C71C2F200010091087000F094F9EB
:104970000098007802214FF47A7201F0EFFA009863
:10498000007803214FF4FA7201F0E8FA02B080BD1A
:1049900010B586B08C46864609980899CDF814E083
:1049A0008DF813C08DF812208DF811308DF810108D
:1049B0008DF80F0005989DF813109DF812209DF8B2
:1049C00011309DF810E09DF80F40EC46CCF80840FF
:1049D000CCF804E0CCF80030002300F01BF906B05E
:1049E00010BD0000B0B58EB094468E4604461498B3
:1049F0001399129A0D948DF833E08DF832C00B9311
:104A00008DF82B208DF82A108DF829000B98007B4B
:104A1000C0F340008DF828009DF828100020C90739
:104A2000059069B9FFE70B9801690020059039B13D
:104A3000FFE70B980069007800F001000590FFE7A0
:104A4000059800F001008DF827009DF8270000F080
:104A50000100002818BF0D208DF826000A208DF8CF
:104A600025009DF82800C00738B1FFE70D99FE200A
:104A7000887006208DF8250003E00D99FD208870D0
:104A8000FFE79DF82800C00720B1FFE79DF82B0045
:104A9000049007E00D980C309DF82A10FFF7F0FC09
:104AA0000490FFE704980D99C8709DF833000D99A4
:104AB000C8719DF832000D9908720D990020087197
:104AC0009DF82700C00730B1FFE70D99087940F045
:104AD00001000871FFE70D99002048710B9880795B
:104AE0000D9988710B998879013088710D988078BB
:104AF0008DF81B000D98C0788DF81C009DF82800DB
:104B0000C00790B1FFE70D9880798DF81D000D98D2
:104B1000C0798DF81E000D98007A8DF81F000D9851
:104B2000B0F809008DF8200021E00D9800798DF88B
:104B30001D000D9840798DF81E000D9880798DF834
:104B40001F000D98C0798DF820000D98007A8DF81F
:104B500021000D98B0F809008DF822000D984089C9
:104B60008DF823000D98C07A8DF82400FFE70DF131
:104B70001B0001309DF82510013989B2FFF7DEFCDA
:104B8000ADF818000D9800F10C01C27806A803904A
:104B9000FFF7BAFC03999DF82900FFF797FCBDF8D1
:104BA00018000D99CA78114408739DF819000D9AE0
:104BB000D17811444873BDF818000D9908809DF80C
:104BC0002700C007D0B1FFE70B980069DDF834C0BB
:104BD0000CF58B719DF825300CF10C029CF803E06C
:104BE00002EB0E04EC46CCF80840CCF804E0CCF81C
:104BF00000200DF11B0200F077FCFFE70D98C07854
:104C00009DF8251008449DF82610084402300EB087
:104C1000B0BD0000B0B588B094468E4604460E98EC
:104C20000D990C9A07948DF81BE08DF81AC08DF839
:104C300019308DF818208DF817108DF816009DF892
:104C4000190000F019F8049007989DF81B109DF8C2
:104C50001A20049B9DF818C09DF817409DF8165027
:104C6000EE46CEF80850CEF80440CEF800C0FFF76C
:104C7000B9FE08B0B0BD000081B08DF803009DF80A
:104C8000030000EB400142F28070C2F2000000EB32
:104C9000C10001B07047000080B582B042F23820F8
:104CA000C2F20000019040F24451FBF782FA0199F0
:104CB00040F20C00C2F20000007808700020A1F859
:104CC0000204FCF723FB0199C1F8040402B080BD83
:104CD00070B588B08DF81F008DF81E1006920593F0
:104CE0009DF81F009DF81E10069ADDF814E09EF84E
:104CF00004309EF805C09EF80640DEF800509EF88D
:104D00000760EE46CEF80C60CEF80850CEF80440AE
:104D1000CEF800C000F002F808B070BDB0B588B0A1
:104D200094468E4604460F980E990D990C9A8DF86C
:104D30001F408DF81EE0CDF818C08DF817308DF8A3
:104D400016208DF815108DF814000E9802909DF81D
:104D500017008DF80C009DF816008DF80D009DF8D9
:104D600015008DF80E009DF814008DF80F0003203B
:104D70008DF8100006999DF8100008750298039AA6
:104D80000A61C86006990020C872A1F80900069857
:104D90009DF81F109DF81E20EC463223CCF80430FD
:104DA0000923CCF80030FFF7F3FD08B0B0BD0000D8
:104DB00070B588B08DF81F008DF81E10069205930F
:104DC0009DF81F009DF81E10069ADDF814E0DEF82D
:104DD00000309EF832C09EF833409EF83450BEF842
:104DE00030609EED010ADEED020A9EED031ADEED53
:104DF000041A9EED052ADEED062A9EED073ADEED49
:104E0000083A9EED094ADEED0A4A9EED0B5AEE463F
:104E1000CEF80C60CEF80850CEF80440CEF800C0B2
:104E200000F002F808B070BD70B5A2B09C4696467E
:104E30000C46054629982899279A269B8DF8875075
:104E40008DF88640CDF880E0CDF87CC08DF87B30C1
:104E50008DF87A208DF87910ADF876008DED1C0A6A
:104E6000CDED1B0A8DED1A1ACDED191A8DED182A0C
:104E7000CDED172A8DED163ACDED153A8DED144A8C
:104E8000CDED134A8DED125A1F9804901C98059091
:104E90001B9806901A9807901998089018980990EE
:104EA00017980A9016980B9015980C9014980D90DE
:104EB00013980E9012980F90BDF87600ADF8400050
:104EC0009DF87B008DF842009DF87A008DF8430034
:104ED0009DF879008DF8440020980C3004A9352203
:104EE0000392FBF74DF9039B20990020C8725420D0
:104EF000A1F8090020989DF887109DF88620EC46BF
:104F00004FF08F0ECCF804E0CCF80030FFF740FDF6
:104F100022B070BD80B586B0059004910498C07829
:104F20008DF8070004988078FE2831D1FFE7002033
:104F30008DF80F0005208DF80E00049880780599F3
:104F400008709DF8070005994870049880790599C4
:104F500088700498C0790599C8700498007A0599FA
:104F600008710498B0F80900059948710598063051
:104F7000049A02F10C01D278FBF702F905989DF82A
:104F80000E1008440499C9780844013002904EE09C
:104F900004980C309DF80710FFF772FA8DF807009F
:104FA00009208DF80E0004988078059908709DF806
:104FB000070005994870049800790599887004984D
:104FC00040790599C870049880790599087104980A
:104FD000C079059948710498007A059988710498F8
:104FE000B0F809000599C8710498408905990872BC
:104FF0000498C07A0599487205980A3004990C31D2
:105000009DF80720FBF7BCF805989DF80E100844A2
:105010009DF807100844013002900498007900F0D0
:105020000100002818BF0D208DF80F00FFE704983D
:1050300000880299087004984078029948709DF899
:105040000F0001280ADBFFE702980230049901F5FE
:105050008B719DF80F20FBF793F8FFE79DF80E008A
:105060009DF8071008449DF80F100844033006B05F
:1050700080BD000080B5CCB003204B900220C0F270
:10508000C0404A900020499040F20500C2F2000062
:10509000007840F20401C2F2000109780DF101022A
:1050A00049ABFFF715FE42F2E070C2F20000016862
:1050B0004A1C02608DF807100068B0F5807F07D3A6
:1050C000FFE742F2E071C2F2000100200860FFE752
:1050D0000DF1010000F002F84CB080BD80B5CAB0FF
:1050E0004990499903A80190FFF714FF0199ADF881
:1050F0000A0042F23820C2F200000078BDF80A200F
:10510000642301F06DF94AB080BD000010B5CDB048
:105110004C904B914C9880684A904C98C06849904C
:105120004C98006948904C98406947904C98806929
:1051300046904C98C06945904C98006A44904C98B1
:10514000406A439000200290FFE702980F280CDC91
:10515000FFE74B98029A50F8220003A941F8220079
:10516000FFE7029801300290EFE710200290FFE77E
:1051700002983F2822DCFFE7029A03A901EB820094
:1051800050F8403C50F83CEC50F81CCC50F8084C1F
:105190004FEA744080EAF44080EA942060444FEA89
:1051A000FE1C8CEABE4C8CEADE0C6044184441F8CC
:1051B0002200FFE7029801300290D9E70020029018
:1051C000FFE702983F2849DCFFE74398469B4FEAF8
:1051D000B31181EAF32181EA7361084445991940CA
:1051E000449A9A4311440844029A46F6AC41C0F6E8
:1051F000000151F82210084403A951F82210084474
:105200000190DDF828C14FEABC0080EA7C3080EADA
:10521000BC50499A0CEA0201489B0CEA030C81EA53
:105220000C011A405140084400904498439045981E
:10523000449046984590479801990844469048986C
:105240004790499848904A98499001980099084495
:105250004A90FFE7029801300290B2E74A9A4C99CF
:10526000886810448860499A4C99C8681044C8609E
:10527000489A4C99086910440861479A4C994869C2
:1052800010444861469A4C99886910448861459A4F
:105290004C99C8691044C861449A4C99086A1044F2
:1052A0000862439A4C99486A104448624DB010BD58
:1052B00080B598B01790169117980068C0F3C50094
:1052C00003900398C0F1770000F03F000130029096
:1052D00017980830019080208DF8100004A80090E5
:1052E00001304721FAF765FF009917980068029A84
:1052F0000A44D07117980068000A029A0A44907113
:1053000017984088029A0A4450711798C078029AF8
:105310000A44107117984068029A0A44D07017988E
:105320004068000A029A0A4490701798C088029A4E
:105330000A4450701798C079029A88541798029AB4
:10534000083200F055F80198C07816990870019855
:10535000807816994870019840781699887001985D
:1053600000781699C8700198C0791699087101984B
:1053700080791699487118B080BD000081B0009006
:105380000099002008600099486000994EF267601B
:10539000C6F60920886000994AF68560CBF667302A
:1053A000C86000994FF27230C3F66E4008610099F0
:1053B0004FF23A50CAF24F504861009945F27F20AF
:1053C000C5F20E108861009946F68C00C9F60530CA
:1053D000C86100994DF6AB10C1F683700862009960
:1053E0004CF61950C5F6E030486201B07047000035
:1053F00080B59CB01B901A9119921A9818901B981E
:1054000000681790199A1B99086800EBC2000860A1
:105410001B9800681799884205D2FFE71B994868D6
:1054200001304860FFE71798C0F3C5001690FFE70A
:105430001998002855D0FFE71698C0F14000159044
:1054400019981599884203D2FFE719981590FFE73C
:105450001B981699084428301899159AFAF790FE67
:10546000159916980844169015991898084418909C
:1054700015991998401A19901698402830D1FFE7CD
:105480001B982830039000201490FFE714980F28F1
:105490001FDCFFE70398149900EB81000290149938
:1054A00004A800EB810001900298C078019908706F
:1054B0000298807801994870029840780199887024
:1054C000029800780199C870FFE714980130149091
:1054D000DCE71B9804A9FFF719FE00201690FFE7F0
:1054E000A6E71CB080BD000080B5A4B08446289813
:1054F0002798DDF898E0CDF888C0219120928DF8AA
:105500007F308DF87E00229828B1FFE7229800783E
:10551000C00720B9FFE700208DF88F0041E02298F6
:1055200040782199087022998868C968039102908F
:105530002199BDF80C00A1F805000298C1F80100FE
:1055400022998A68C868013240F100008A60C86008
:1055500005A80190FFF712FF01982299103120222F
:10556000FFF746FF019820999DF87F20FFF740FF45
:10557000019826999DF87E20FFF73AFF0198289917
:105580000222FFF735FF019821990722FFF730FF2C
:10559000019821990731FFF78BFE0D208DF88F00C0
:1055A000FFE79DF88F0024B080BD000080B586B075
:1055B0008DF81300ADF81010ADF80E209DF8130013
:1055C000BDF8101000F070F80290029838B1FFE7B3
:1055D000BDF80E0002998880029805903EE00C20EC
:1055E00000F046FA02900298A8B3FFE79DF8130076
:1055F00002990872BDF810000299C880BDF80E002B
:10560000029988800299002008600299488142F23C
:10561000F470C2F20000006838B9FFE7029842F265
:10562000F471C2F20001086012E042F2F470C2F2BA
:10563000000000680190FFE70198006820B1FFE7D3
:10564000019800680190F7E7029801990860FFE768
:105650000298059002E000200590FFE7059806B04B
:1056600080BD000083B08DF8070040F21C00C2F23C
:10567000000000680090FFE7009870B1FFE7009815
:10568000007B9DF80710884203D1FFE70098029045
:1056900006E0009800680090EEE700200290FFE727
:1056A000029803B07047000082B08DF80700ADF893
:1056B000041042F2F470C2F2000000680090FFE7AC
:1056C000009898B1FFE70098C088BDF804108842A0
:1056D00008D1FFE70098007A9DF80710884201D1B1
:1056E000FFE703E0009800680090E9E7009802B047
:1056F0007047000082B040F21C00C2F20000006857
:105700000090FFE7009858B1FFE70098C08918B1F2
:10571000FFE70098019006E0009800680090F1E72C
:1057200000200190FFE7019802B0704780B582B079
:10573000FEF702FC42F2F871C2F20001012008708B
:105740000020019000F088FC019842F2F271C2F250
:105750000001087042F2EC71C2F20001086002B070
:1057600080BD000080B586B0ADF80E00EFF310806C
:1057700072B60590BDF80E2042F2EC71C2F2000143
:1057800008681044086062B642F2F470C2F2000089
:105790000068002872D0FFE742F2F470C2F2000005
:1057A0000068029000200190FFE70298002864D072
:1057B000FFE700200090EFF3108072B6049002988B
:1057C0008088BDF80E10884204DCFFE702990020B3
:1057D000888006E002998888BDF80E20801A8880AB
:1057E000FFE70298808888B9FFE70298408968B18E
:1057F000FFE70298C08848B1FFE70299087AC98894
:1058000000F086FB029948898880FFE7029880882B
:1058100020B1FFE70298C088B0B9FFE7019840B90E
:10582000FFE70298006842F2F471C2F200010860DA
:1058300004E00298006801990860FFE70298009070
:1058400002980068029005E00298019002980068B2
:105850000290FFE762B6009870B1FFE70098808879
:1058600030B9FFE70099087AC98800F051FBFFE7DB
:10587000009800F019FAFFE797E7FFE706B080BD50
:1058800080B540F21C00C2F20000006840F218012E
:10589000C2F200010860FFE740F21800C2F2000007
:1058A0000068C8B1FFE740F21800C2F200000068CB
:1058B000406848B1FFE740F21800C2F200000068FB
:1058C0004168007B8847FFE740F21801C2F20001FF
:1058D000086800680860DFE740F21801C2F20001C2
:1058E0000020086080BD000080B586B0059004915E
:1058F0008DF80F20102000F0BBF8029002980028CD
:1059000042D0FFE7059802994860049802998860A0
:1059100040F22002C2F200021078411C117002997C
:10592000087302990020C8819DF80F10029A5173E4
:105930000299086040F21C00C2F20000009000686A
:10594000019042F2F171C2F2000108780130087052
:10595000FFE70198A0B1FFE70298407B0199497BDE
:10596000884207DDFFE701980299086002980099D4
:1059700008600AE001980090019800680190E8E74B
:10598000029800990860FFE7FFE706B080BD0000BD
:1059900080B584B08DF80A00ADF808109DF80A00B3
:1059A000FFF760FE0190019860B1FFE7EFF3108010
:1059B00072B60390BDF808200199C8899043C88148
:1059C00062B603E002208DF80B0003E001208DF8A1
:1059D0000B00FFE79DF80B0004B080BD40F21C01F6
:1059E000C2F200010020086040F21801C2F200017A
:1059F000086040F22001C2F2000108707047000008
:105A000080B500F08FF942F2E871C2F20001002087
:105A10000860FFF78BFEFFF7E1FF012080BD00006B
:105A200080B582B0EFF3108072B60190FFF7E8FF07
:105A300044F66100C0F6000044F2E971C0F60001CE
:105A400001220092FFF750FF009A44F65510C0F66D
:105A5000000044F6AD01C0F60001FFF745FFFFF777
:105A60000FFF00F0A9F962B600F0ACFA02B080BDF9
:105A700080B586B0ADF8120000208DF8050042F226
:105A8000F070C2F200000078E22803D0FFE700F0D7
:105A900049F9FFE7BDF812000430ADF81200BDF877
:105AA000120000F003008DF804009DF8040048B1D6
:105AB000FFE79DF80410BDF81200401A0430ADF85D
:105AC0001200FFE7EFF3108072B60590BDF81200E8
:105AD000102807DCFFE742F22C00C2F20000006849
