:020000040800F2
:10000000E00700204501000829110008211100081F
:1000100025110008D9010008D112000800000000D5
:10002000000000000000000000000000D9110008DE
:10003000E1010008000000009911000831120008D9
:100040005F0100085F0100085F0100085F01000810
:100050005F0100085F010008E501000801030008D6
:100060002D03000859030008850300085F010008FC
:100070005F0100085F0100085F0100085F010008E0
:100080005F0100085F0100085F0100085F010008D0
:100090005F0100085F0100085F010008B10300086C
:1000A0005F0100085F0100085F0100085F010008B0
:1000B000CD1200085F0100085F0100085F01000821
:1000C0005F0100085F0100085F0100085F01000890
:1000D0005F0100085F0100085F0100085F01000880
:1000E0000D0200085F0100085F0100085F010008C1
:1000F0005F0100085F0100085F0100085F01000860
:100100005F0100085F0100085F0100085F0100084F
:100110005F0100085F0100085F0100085F0100083F
:10012000DD0100085F0100085F0100085F010008B1
:10013000DFF80CD000F03CF800480047C913000875
:10014000E00700200648804706480047FEE7FEE734
:10015000FEE7FEE7FEE7FEE7FEE7FEE7FEE7FEE777
:10016000BD1200083101000840EA01039B0703D0DB
:1001700009E008C9121F08C0042AFAD203E011F8E6
:10018000013B00F8013B521EF9D27047D2B201E0A8
:1001900000F8012B491EFBD270470022F6E710B58C
:1001A00013460A4604461946FFF7F0FF204610BDE5
:1001B000064C074D06E0E06840F0010394E80700B4
:1001C00098471034AC42F6D3FFF7B6FF6419000825
:1001D00084190008FFE7FEE7FFE7FEE7704700002D
:1001E0007047000080B540F21440C4F2010000687E
:1001F000C00750B1FFE7002001F0C4F840F21441FD
:10020000C4F2010101200860FFE780BD80B540F223
:100210001440C4F201000068400500280BD5FFE738
:100220000A2001F0AFF840F21441C4F201014FF48A
:1002300080600860FFE740F21440C4F201000068EB
:10024000000500280BD5FFE70B2001F09BF840F2DA
:100250001441C4F201014FF400600860FFE740F26E
:100260001440C4F201000068C00400280BD5FFE769
:100270000C2001F087F840F21441C4F201014FF460
:1002800080500860FFE740F21440C4F201000068AB
:10029000800400280BD5FFE70D2001F073F840F231
:1002A0001441C4F201014FF400500860FFE740F22E
:1002B0001440C4F201000068400400280BD5FFE799
:1002C0000E2001F05FF840F21441C4F201014FF436
:1002D00080400860FFE740F21440C4F2010000686B
:1002E000000400280BD5FFE70F2001F04BF840F287
:1002F0001441C4F201014FF400400860FFE780BDE3
:1003000080B540F21440C4F2010000688007002864
:100310000AD5FFE7012001F035F840F21441C4F29C
:10032000010102200860FFE780BD000080B540F2B7
:100330001440C4F201000068400700280AD5FFE716
:10034000022001F01FF840F21441C4F20101042020
:100350000860FFE780BD000080B540F21440C4F2A1
:1003600001000068000700280AD5FFE7032001F01C
:1003700009F840F21441C4F2010108200860FFE7C7
:1003800080BD000080B540F21440C4F20100006856
:10039000C00600280AD5FFE7042000F0F3FF40F272
:1003A0001441C4F2010110200860FFE780BD000085
:1003B00080B540F21440C4F20100006880060028B5
:1003C0000AD5FFE7052000F0DDFF40F21441C4F23A
:1003D000010120200860FFE740F21440C4F2010050
:1003E0000068400600280AD5FFE7062000F0CAFF93
:1003F00040F21441C4F2010140200860FFE740F2DE
:100400001440C4F201000068000600280AD5FFE786
:10041000072000F0B7FF40F21441C4F20101802030
:100420000860FFE740F21440C4F201000068C00514
:1004300000280BD5FFE7082000F0A4FF40F214418C
:10044000C4F201014FF480700860FFE740F21440ED
:10045000C4F201000068800500280BD5FFE70920E1
:1004600000F090FF40F21441C4F201014FF400701B
:100470000860FFE780BD000040F2D830C2F2000003
:100480000068704740F20400C2F20000027840F2B7
:10049000D831C2F2000108681044086070470000BB
:1004A00080B5042000F09AF80F2000F005F800F065
:1004B0003BF8002080BD000080B582B0009040F283
:1004C0000000C2F20000006840F20401C2F2000124
:1004D0000A784FF47A71B1FBF2F1B0FBF1F000F061
:1004E00013FE20B1FFE701208DF8070018E0009807
:1004F00007280DD8FFE700994FF0FF30002200F0E9
:1005000053F8009840F20801C2F20001086003E0CD
:1005100001208DF8070003E000208DF80700FFE7B9
:100520009DF8070002B080BD84B0FFE741F21800DB
:10053000C4F20200016841F001010160006800F0AE
:10054000010003900398FFE7FFE741F21C00C4F2AB
:100550000200016841F080510160006800F08050A5
:1005600002900298FFE7FFE741F23400C4F2020074
:10057000016841F004010160006800F0040001908E
:100580000198FFE7FFE741F23400C4F2020001687E
:1005900041F008010160006800F008000090009838
:1005A000FFE704B07047000080B586B08DF81700F3
:1005B000049103920020029000F08CFE02909DF9BD
:1005C0001700019002980499039A00F0AFFD0146CC
:1005D000019800F087FE06B080BD000080B582B0B3
:1005E0000190019800F0A0FE02B080BD80B584B0FB
:1005F00002900191029820B9FFE701208DF80F00C9
:1006000021E1019842F20001C4F20201096801F0FF
:100610000F01884216D9FFE742F20000C4F202003F
:10062000016821F00F01019A11430160006800F098
:100630000F000199884204D0FFE701208DF80F00D8
:1006400001E1FFE702980078800700282AD5FFE73C
:10065000029800784007002809D5FFE741F204011D
:10066000C4F20201086840F4E0600860FFE7029805
:1006700000780007002809D5FFE741F20401C4F221
:100680000201086840F460500860FFE741F204018D
:10069000C4F20201086820F0F000029A9268104348
:1006A0000860FFE702980078C007002866D0FFE7DF
:1006B00002984068012811D1FFE741F20000C4F21E
:1006C0000200006800F400310020B0EB514F04D16B
:1006D000FFE701208DF80F00B5E024E002984068A4
:1006E00002280ED1FFE741F20000C4F202000068C8
:1006F000C001002804D4FFE701208DF80F00A2E01C
:1007000010E041F20000C4F20200006800F00201B3
:100710000020B0EB510F04D1FFE701208DF80F004E
:1007200091E0FFE7FFE741F20401C4F2020108682B
:1007300020F00300029A526810430860FFF79CFE05
:100740000090FFE741F20400C4F20200006800F0EC
:100750000C0002994968B0EB810F0ED0FFE7FFF75C
:100760008BFE0099401A41F28931884204D3FFE799
:1007700003208DF80F0066E0E4E7FFE7019842F2FE
:100780000001C4F20201096801F00F01884216D28B
:10079000FFE742F20000C4F20200016821F00F01FD
:1007A000019A11430160006800F00F00019988422E
:1007B00004D0FFE701208DF80F0044E0FFE7029826
:1007C0000078400700280CD5FFE741F20401C4F28D
:1007D0000201086820F4E060029AD26810430860C1
:1007E000FFE702980078000700280DD5FFE741F2E7
:1007F0000401C4F20201086820F46050029A1269F0
:1008000040EAC2000860FFE700F022F841F204016C
:10081000C4F202010968C9B20A0941F66201C0F6D0
:100820000001895CC84040F20001C2F2000108608A
:1008300040F20800C2F200000068FFF73DFE002011
:100840008DF80F00FFE79DF80F0004B080BD000099
:1008500080B598B041F62201C0F6000108A84022F8
:10086000FFF782FC40F20120ADF81E000020069048
:10087000059004900390029041F20400C4F202003B
:1008800000680690069800F00C00014601910028CF
:100890004AD0FFE70198042804D0FFE70198082810
:1008A00006D042E042F20040C0F2F400029042E082
:1008B000069901F0C04001F47011400E40EA9141E8
:1008C00008A8405C0390069800F44030B0F5803FE3
:1008D00007D0FFE7069800F44030B0F5403F18D14C
:1008E000FFE741F20400C4F20200006800F40031A6
:1008F0000DF11E0040EA514000780590039842F245
:100900000041C0F2F40148430599B0FBF1F00490B6
:1009100007E0039841F20021C0F27A0148430490B5
:10092000FFE70498029006E0FFE741F20020C0F2E2
:100930007A000290FFE7029818B080BD80B586B0BB
:100940000490049820B9FFE701208DF81700D4E344
:1009500004980078C007002800F0D680FFE741F235
:100960000400C4F20200006800F00C00042820D04B
:10097000FFE741F20400C4F20200006800F00C003E
:1009800008282BD1FFE741F20400C4F202000068FE
:1009900000F48030B0F5803F0BD0FFE741F2040057
:1009A000C4F20200006800F48030B0F5403F15D179
:1009B000FFE741F20000C4F20200006800F40031D9
:1009C0000020B0EB514F08D0FFE70498406820B9F1
:1009D000FFE701208DF817008FE394E0049840684A
:1009E000B0F5803F0CD1FFE741F23801C4F20201BB
:1009F000086820F44070049A926810430860FFE78A
:100A0000FFE704984068B0F5803F09D1FFE741F265
:100A10000001C4F20201086840F48030086032E04E
:100A20000498406868B9FFE741F20001C4F202018E
:100A3000086820F480300860086820F4802008608E
:100A400020E004984068B0F5A02F0DD1FFE741F2F7
:100A50000001C4F20201086840F4802008600868C0
:100A600040F4803008600CE041F20001C4F2020161
:100A7000086820F480300860086820F4802008604E
:100A8000FFE7FFE7FFE7FFE704984068E8B1FFE70B
:100A9000FFF7F2FC0390FFE741F20000C4F202000E
:100AA000006800F400310020B0EB514F0CD1FFE79B
:100AB000FFF7E2FC0399401A652804D3FFE70320FF
:100AC0008DF8170019E3E7E71CE0FFF7D5FC03906A
:100AD000FFE741F20000C4F20200006800F40031B8
:100AE0000020B0EB514F0CD0FFE7FFF7C5FC039996
:100AF000401A652804D3FFE703208DF81700FCE2B5
:100B0000E7E7FFE7FFE7FFE70498007880070028A2
:100B100040F19080FFE741F20400C4F20200006857
:100B200010F00C0F20D0FFE741F20400C4F20200E5
:100B3000006800F00C0008282CD1FFE741F2040007
:100B4000C4F20200006800F48030B0F5803F21D08C
:100B5000FFE741F20400C4F20200006800F48030B4
:100B6000B0F5403F16D0FFE741F20000C4F20200AA
:100B7000006800F002010020B0EB510F09D0FFE740
:100B800004984069012804D0FFE701208DF8170080
:100B9000B3E24EE00498406928B3FFE741F2000158
:100BA000C4F20201086840F001000860FFF764FC2D
:100BB0000390FFE741F20000C4F20200006800F079
:100BC00002010020B0EB510F0CD1FFE7FFF754FCFE
:100BD0000399401A032804D3FFE703208DF8170078
:100BE0008BE2E7E724E041F20001C4F20201086869
:100BF00020F001000860FFF73FFC0390FFE741F29F
:100C00000000C4F20200006800F002010020B0EB16
:100C1000510F0CD0FFE7FFF72FFC0399401A032870
:100C200004D3FFE703208DF8170066E2E7E7FFE74C
:100C3000FFE7FFE704980078C00600284FD5FFE7DC
:100C40000498806928B3FFE741F22801C4F2020149
:100C5000086840F010000860FFF70EFC0390FFE703
:100C600041F22800C4F20200006800F020010020D8
:100C7000B0EB511F0CD1FFE7FFF7FEFB0399401AC1
:100C8000032804D3FFE703208DF8170035E2E7E7D8
:100C900024E041F22801C4F20201086820F01000AB
:100CA0000860FFF7E9FB0390FFE741F22800C4F278
:100CB0000200006800F020010020B0EB511F0CD0B2
:100CC000FFE7FFF7D9FB0399401A032804D3FFE796
:100CD00003208DF8170010E2E7E7FFE7FFE704982D
:100CE00000780007002852D5FFE70498C06940B398
:100CF000FFE741F22401C4F20201086840F001005C
:100D00000860FFF7B9FB0390FFE741F22400C4F24B
:100D10000200006800F002010020B0EB510F0CD17E
:100D2000FFE7FFF7A9FB0399401A032804D3FFE765
:100D300003208DF81700E0E1E7E7012000F02EFA2C
:100D400024E041F22401C4F20201086820F001000D
:100D50000860FFF791FB0390FFE741F22400C4F223
:100D60000200006800F002010020B0EB510F0CD02F
:100D7000FFE7FFF781FB0399401A032804D3FFE73D
:100D800003208DF81700B8E1E7E7FFE7FFE70498D5
:100D900000784007002840F1EF80FFE700208DF841
:100DA000070041F21C00C4F202000068C0000028E5
:100DB00013D4FFE7FFE741F21C00C4F20200016810
:100DC00041F080510160006800F080500090009870
:100DD000FFE701208DF80700FFE747F20000C4F2AB
:100DE00000000068C005002822D4FFE747F2000198
:100DF000C4F20001086840F480700860FFF73CFB13
:100E00000390FFE747F20000C4F200000068C0054D
:100E100000280CD4FFE7FFF72FFB0399401A652841
:100E200004D3FFE703208DF8170066E1EAE7FFE748
:100E30000498C06801280CD1FFE741F22001C4F2F8
:100E40000201086820F01800049A12691043086033
:100E5000FFE7FFE70498C068012809D1FFE741F2E6
:100E60002001C4F20201086840F00100086031E08E
:100E70000498C06868B9FFE741F22001C4F202019A
:100E8000086820F001000860086820F0040008608D
:100E90001FE00498C06805280DD1FFE741F220014A
:100EA000C4F20201086840F004000860086840F0DD
:100EB000010008600CE041F22001C4F20201086860
:100EC00020F001000860086820F004000860FFE7D7
:100ED000FFE7FFE7FFE70498C068F8B1FFE7FFF717
:100EE000CBFA0390FFE741F22000C4F20200006851
:100EF00000F002010020B0EB510F0ED1FFE7FFF729
:100F0000BBFA0399401A41F28931884204D3FFE7C2
:100F100003208DF81700F0E0E5E71EE0FFF7ACFADC
:100F20000390FFE741F22000C4F20200006800F0E5
:100F300002010020B0EB510F0ED0FFE7FFF79CFA43
:100F40000399401A41F28931884204D3FFE7032014
:100F50008DF81700D1E0E5E7FFE79DF807000128CD
:100F600009D1FFE741F21C01C4F20201086820F038
:100F700080500860FFE7FFE70498006A002800F04F
:100F8000B880FFE741F20400C4F20200006800F0FC
:100F90000C00082800F08580FFE70498006A02280A
:100FA00059D1FFE741F20001C4F20201086820F0C4
:100FB00080700860FFF760FA0390FFE741F20000DD
:100FC000C4F20200006800F000710020B0EB516F25
:100FD0000CD0FFE7FFF750FA0399401A032804D317
:100FE000FFE703208DF8170087E0E7E741F20401EF
:100FF000C4F2020108684FF6FF72C9F6C0721040D1
:10100000049B5A6A9B6A1A431043086041F200012C
:10101000C4F20201086840F080700860FFF72CFA03
:101020000390FFE741F20000C4F20200006800F004
:1010300000710020B0EB516F0CD1FFE7FFF71CFAF5
:101040000399401A032804D3FFE703208DF8170003
:1010500053E0E7E724E041F20001C4F2020108682E
:1010600020F080700860FFF707FA0390FFE741F275
:101070000000C4F20200006800F000710020B0EB34
:10108000516F0CD0FFE7FFF7F7F90399401A0328D7
:1010900004D3FFE703208DF817002EE0E7E7FFE712
:1010A00026E00498006A012804D1FFE701208DF8AA
:1010B000170022E041F20400C4F20200006802902E
:1010C000029800F480300499496A88420AD1FFE707
:1010D00002980021C6F23C0108400499896A8842BE
:1010E00004D0FFE701208DF8170006E0FFE7FFE7D7
:1010F000FFE700208DF81700FFE79DF8170006B006
:1011000080BD00007047000080B582B0019001985A
:1011100000F064F802B080BD80B5FFF7F3FF80BD3A
:10112000FFE7FEE7FFE7FEE77047000088B00790A3
:1011300006910592079800F0070004900498C0F10A
:101140000700042803D3FFE70320019004E004987C
:10115000C0F107000190FFE7019803900498033065
:10116000062803D8FFE70020009003E00498043825
:101170000090FFE70098029006980399012202FA76
:1011800001F101390840029B984005999A40013AC3
:101190001140084308B070477047000082B00190CA
:1011A000019840F20001C2F200010968C90844F642
:1011B000D352C1F26202A1FB022189094843009087
:1011C000FFE700BFFFE70098411E00910028F8D11B
:1011D000FFE702B0704700007047000080B584B0A0
:1011E000029002980138B0F1807F03D3FFE701201D
:1011F00003901AE0029801384EF21401CEF2000179
:1012000008604FF0FF300721019100F06BF8019961
:101210004EF21802CEF20002002010604EF21002D0
:10122000CEF2000211600390FFE7039804B080BD86
:1012300080B5FFF727F9FFF76FFF00F039F980BDA0
:1012400080B592B007A801902C21FEF7A6FF019867
:101250000023069305930493039302931F210791A0
:101260004FF4803108914FF44072099210220D9290
:1012700001220C920A930E9202220F9210914FF4C7
:10128000E0111191FFF75AFB18B1FFE7FEF7A2FF3B
:10129000FFE70F20029002200390002004900590A9
:1012A0004FF48060069002A80621FFF79FF918B15D
:1012B000FFE7FEF78FFFFFE712B080BD4EF6085143
:1012C000CEF200014FF000600860704770470000E8
:1012D000FFE7FEE74EF60C50CEF200000068C0F3C8
:1012E0000220704782B08DF8070000919DF9070039
:1012F00000280AD4FFE7009840019DF907104EF23C
:101300000042CEF2000288540BE0009840019DF8A4
:10131000071001F00F014EF61452CEF2000288546D
:10132000FFE702B07047000083B00290029800F01F
:10133000070000904EF60C51CEF2000108680190B3
:1013400001984FF6FF02104001900198009A40EA80
:1013500002200022C0F2FA52104301900198086066
:1013600003B0704781B0009001B0704781B0009029
:101370000098808A01B070474EF21000CEF2000053
:101380000068704780B582B08DF807009DF80700AF
:101390000F2817DCFFE79DF8071040F21C00C2F28F
:1013A000000000EB0110406860B1FFE79DF80710F6
:1013B00040F21C00C2F2000000EB0110416880689E
:1013C0008847FFE702B080BD80B5FFF769F8FFF7F7
:1013D00037FF002080BD000080B582B00020ADF84E
:1013E000040040F21802C2F20002116801311160DB
:1013F000ADF80600FFE7BDF806001F284ED8FFE74E
:10140000BDF8061040F21C10C2F2000000EB810093
:10141000D0F80001D8B3FFE7BDF804000130ADF803
:10142000040040F21C10C2F20000B0F80002BDF847
:101430000410884214DAFFE7BDF8041040F21C10D3
:10144000C2F20000A0F80012B0F800126420484375
:10145000420941F67200C0F60000FFF783FFFFE784
:10146000BDF8061040F21C10C2F2000050F8210036
:1014700060B1FFE7BDF8062040F21C11C2F2000186
:1014800051F82200013841F82200FFE7FFE7FFE7AB
:10149000BDF806000130ADF80600ACE702B080BD33
:1014A00040F21401C2F20001086801300860704780
:1014B00080B5FFF761FF40F2D432C2F2000210881B
:1014C000411C88B21180B0F57A7F24D3FFE740F247
:1014D000D431C2F200010020088040F21201C2F2B1
:1014E00000010120087040F2D631C2F200010888E4
:1014F0000130088080B23C280CDBFFE740F2D63098
:10150000C2F2000000230380F12118461A4600F0C1
:1015100091F8FFE7FFE700F00BF9FFF75DFFFFF73A
:10152000BFFF80BD80B586B003900291ADF8062064
:101530000020ADF80000039818B1FFE7029820B929
:10154000FFE700208DF8130070E0EFF3108072B613
:10155000059040F21001C2F20001088801300880B5
:101560000398FFF703FFADF80200BDF806000399EA
:10157000098ABDF80220891A884210DDFFE740F28F
:101580001001C2F20001088801380880000410B977
:10159000FFE762B6FFE700208DF8130046E0002069
:1015A000ADF80400FFE7BDF80400BDF8061088425E
:1015B00026DAFFE7039A50680299BDF80030194413
:1015C000528AFEF7D1FD0398418ABDF80000084415
:1015D000ADF80000039948684A8A801A4860039968
:1015E00048688968884204D2FFE70399C868486060
:1015F000FFE7FFE7BDF804000130ADF80400D2E7D3
:10160000BDF806200399888A1044888240F21001B0
:10161000C2F20001088801380880000410B9FFE711
:1016200062B6FFE701208DF81300FFE79DF8130075
:1016300006B080BD80B588B08DF81E008DF81D10F5
:101640000692ADF816309DF81E008DF80C009DF83E
:101650001D008DF80D0006980490BDF81600ADF839
:101660000E0040F25030C2F20000FFF77FFEADF8EE
:101670000A00BDF80A00212812D3FFE741F69500C1
:10168000C0F600002121FFF76DFE9DF80A0040F230
:101690002031C2F20001087000208DF81F0042E0E6
:1016A000BDF80A000130ADF80A0040F22030C2F265
:1016B00000000078BDF80A10884219DAFFE79DF8AB
:1016C0000A1040F22030C2F200000170017864205C
:1016D000484348F2E132C3F60F62A0FB0220C0F398
:1016E000C70241F6D500C0F60000FFF73BFEFFE75A
:1016F0009DF81E109DF81D20069BBDF81600EC46B7
:10170000CCF8000041F60210C0F60000FFF72AFEF8
:1017100040F25030C2F2000003A90122FFF702FF9D
:101720008DF81F00FFE79DF81F0008B080BD000086
:1017300080B582B00020ADF80400ADF80600FFE7E8
:10174000BDF8060007285BD8FFE7BDF8061040F299
:101750006830C2F2000000EB8100806C002848D0A5
:10176000FFE7BDF804000130ADF8040040F2683036
:10177000C2F20000B0F86800BDF80410884214DA24
:10178000FFE7BDF8041040F26830C2F20000A0F894
:101790006810B0F8681064204843C20841F6411050
:1017A000C0F60000FFF7DEFDFFE7BDF8062040F2BF
:1017B0006830C2F20000283050F82210013940F899
:1017C0002210BDF8061050F8210088B9FFE7BDF8D7
:1017D000061040F26830C2F2000000EB810291680E
:1017E0009162BDF8061000EB8100806C8047FFE736
:1017F000FFE7FFE7BDF806000130ADF806009FE700
:1018000002B080BD02E008C8121F08C1002AFAD148
:1018100070477047002001E001C1121F002AFBD170
:10182000704702030405060708090A0B0C0D0E0F8A
:10183000101112131415161718191A1B1C1D1E1F30
:10184000202122232425262728292A2B2C2D2E2F20
:10185000303132333435363738393A3B3C3D3E3F10
:101860003F3F0000000000000000010203040607E3
:1018700008094D61784576656E743D25642C557375
:101880006550657263656E746167653D25642525E5
:101890000D0A0D0A000D0A0D0A7461736B4D736712
:1018A00053656E6446616C73652C706C656173651D
:1018B00020636865636B20224D41585F5441534B50
:1018C0005F4D53475F4255465F4E554D223D25645F
:1018D0000D0A0D0A0067745461736B2E7461736B8B
:1018E0004D73674D61783D25642C557361676520A4
:1018F00070657263656E746167653D256425250DAD
:101900000A0053656E644D7367546F5461736B5373
:101910007563636573732C5461736B49643D25640F
:101920002C4D73673D25782C646174614164647249
:101930006573733D25782C73697A653D25640D0ABE
:10194000004D617854696D65723D25642C55736551
:1019500050657263656E746167653D256425250D6C
:101960000A0D0A008819000800000020100000007D
:10197000041800089819000810000020D007000083
:10198000141800080000000000127A000100000096
:08199000080000000000000047
:0400000508000131BD
:00000001FF
