:020000040800F2
:10000000501D002045010008A9140008A114000893
:10001000A5140008D90100086116000800000000BE
:10002000000000000000000000000000651500084E
:10003000E10100080000000025150008BD150008BA
:100040005F0100085F0100085F0100085F01000810
:100050005F0100085F010008E501000801030008D6
:100060002D03000859030008850300085F010008FC
:100070005F0100085F0100085F0100085F010008E0
:100080005F0100085F0100085F0100085F010008D0
:100090005F0100085F0100085F010008B10300086C
:1000A0005F0100085F0100085F0100085F010008B0
:1000B0005D1600085F0100085F0100085F0100088D
:1000C0005F0100085F0100085F0100085F01000890
:1000D0005F0100085F0100085F0100085F01000880
:1000E0000D0200085F0100085F0100085F010008C1
:1000F0005F0100085F0100085F0100085F01000860
:100100005F0100085F0100085F0100085F0100084F
:100110005F0100085F0100085F0100085F0100083F
:10012000DD0100085F0100085F0100085F010008B1
:10013000DFF80CD000F03CF800480047A119000897
:10014000501D00200648804706480047FEE7FEE7AE
:10015000FEE7FEE7FEE7FEE7FEE7FEE7FEE7FEE777
:100160004D1600083101000840EA01039B0703D047
:1001700009E008C9121F08C0042AFAD203E011F8E6
:10018000013B00F8013B521EF9D27047D2B201E0A8
:1001900000F8012B491EFBD270470022F6E710B58C
:1001A00013460A4604461946FFF7F0FF204610BDE5
:1001B000064C074D06E0E06840F0010394E80700B4
:1001C00098471034AC42F6D3FFF7B6FF5C2B00081B
:1001D0007C2B0008FFE7FEE7FFE7FEE77047000023
:1001E0007047000080B540F21440C4F2010000687E
:1001F000C00750B1FFE7002001F0ECFA40F21441D3
:10020000C4F2010101200860FFE780BD80B540F223
:100210001440C4F201000068400500280BD5FFE738
:100220000A2001F0D7FA40F21441C4F201014FF460
:1002300080600860FFE740F21440C4F201000068EB
:10024000000500280BD5FFE70B2001F0C3FA40F2B0
:100250001441C4F201014FF400600860FFE740F26E
:100260001440C4F201000068C00400280BD5FFE769
:100270000C2001F0AFFA40F21441C4F201014FF436
:1002800080500860FFE740F21440C4F201000068AB
:10029000800400280BD5FFE70D2001F09BFA40F207
:1002A0001441C4F201014FF400500860FFE740F22E
:1002B0001440C4F201000068400400280BD5FFE799
:1002C0000E2001F087FA40F21441C4F201014FF40C
:1002D00080400860FFE740F21440C4F2010000686B
:1002E000000400280BD5FFE70F2001F073FA40F25D
:1002F0001441C4F201014FF400400860FFE780BDE3
:1003000080B540F21440C4F2010000688007002864
:100310000AD5FFE7012001F05DFA40F21441C4F272
:10032000010102200860FFE780BD000080B540F2B7
:100330001440C4F201000068400700280AD5FFE716
:10034000022001F047FA40F21441C4F201010420F6
:100350000860FFE780BD000080B540F21440C4F2A1
:1003600001000068000700280AD5FFE7032001F01C
:1003700031FA40F21441C4F2010108200860FFE79D
:1003800080BD000080B540F21440C4F20100006856
:10039000C00600280AD5FFE7042001F01BFA40F24E
:1003A0001441C4F2010110200860FFE780BD000085
:1003B00080B540F21440C4F20100006880060028B5
:1003C0000AD5FFE7052001F005FA40F21441C4F216
:1003D000010120200860FFE740F21440C4F2010050
:1003E0000068400600280AD5FFE7062001F0F2F970
:1003F00040F21441C4F2010140200860FFE740F2DE
:100400001440C4F201000068000600280AD5FFE786
:10041000072001F0DFF940F21441C4F2010180200D
:100420000860FFE740F21440C4F201000068C00514
:1004300000280BD5FFE7082001F0CCF940F2144169
:10044000C4F201014FF480700860FFE740F21440ED
:10045000C4F201000068800500280BD5FFE70920E1
:1004600001F0B8F940F21441C4F201014FF40070F8
:100470000860FFE780BD00008AB009900891002065
:100480000790FFE7089800680799C840002800F027
:100490009881FFE708980068079A01219140084079
:1004A00006900698002800F08881FFE708984068C9
:1004B000022805D0FFE708984068122826D1FFE7F8
:1004C000099807996FF0030202EA51010844006A93
:1004D0000590079800F0070081000F2000FA01F155
:1004E00005988843059008980069079901F007016D
:1004F000890000FA01F105980843059005980999CB
:10050000079B02EA530211440862FFE7099800685A
:10051000059007984100032000FA01F105988843EF
:1005200005900898406800F003000799490000FA18
:1005300001F1059808430590059809990860089805
:10054000406801280FD0FFE70898406802280AD0C9
:10055000FFE708984068112805D0FFE70898406831
:1005600012282FD1FFE7099880680590079841006D
:10057000032000FA01F10598884305900898C068A7
:100580000799490000FA01F105980843059005987C
:10059000099988600998406805900799012000FA38
:1005A00001F105988843059008984068C0F3001051
:1005B000079900FA01F105980843059005980999F3
:1005C0004860FFE70998C06805900798410003203C
:1005D00000FA01F10598884305900898806807990A
:1005E000490000FA01F1059808430590059809991A
:1005F000C8600898C079C006002840F1DD80FFE798
:10060000FFE741F21800C4F20200016841F0010165
:100610000160006800F0010004900498FFE707986B
:1006200020F003001421C4F20101405805900798FE
:1006300000F0030081000F2000FA01F105988843C3
:1006400005900998B0F1904F03D1FFE70020039087
:1006500034E0099840F20041C4F60001884203D119
:10066000FFE70120029026E0099840F60001C4F659
:100670000001884203D1FFE70220019018E00998A9
:1006800040F60041C4F60001884203D1FFE7032091
:1006900000900AE0099941F20002C4F60002072026
:1006A000914208BF04200090FFE700980190FFE707
:1006B00001980290FFE702980390FFE703980799DB
:1006C00001F00301890000FA01F105980843059043
:1006D0000598079921F003011422C4F20102885001
:1006E00040F20040C4F201000068059006990598A8
:1006F0008843059008988079C00728B1FFE70699DC
:10070000059808430590FFE7059840F20041C4F2C0
:100710000101086040F20440C4F201000068059045
:1007200006990598884305900898807980070028E5
:1007300005D5FFE70699059808430590FFE705985A
:1007400040F20441C4F20101086040F20840C4F2E2
:10075000010000680590069905988843059008985F
:100760008079C006002805D5FFE70699059808435B
:100770000590FFE7059840F20841C4F201010860C6
:1007800040F20C40C4F201000068059006990598FB
:1007900088430590089880798006002805D5FFE7F2
:1007A0000699059808430590FFE7059840F20C412B
:1007B000C4F201010860FFE7FFE7079801300790E6
:1007C00060E60AB07047000082B00190ADF80210F8
:1007D00001984069BDF80210084205D0FFE7BDF856
:1007E00002000199886204E0BDF802000199886165
:1007F000FFE702B07047000041F64810C2F2000067
:100800000068704740F20800C2F20000027841F62A
:100810004811C2F2000108681044086070470000E7
:1008200080B5042000F09AF80F2000F005F800F0E1
:100830003BF8002080BD000080B582B0009040F2FF
:100840000000C2F20000006840F20801C2F200019C
:100850000A784FF47A71B1FBF2F1B0FBF1F000F0DD
:1008600013FE20B1FFE701208DF8070018E0009883
:1008700007280DD8FFE700994FF0FF30002200F065
:1008800053F8009840F20C01C2F20001086003E046
:1008900001208DF8070003E000208DF80700FFE736
:1008A0009DF8070002B080BD84B0FFE741F2180058
:1008B000C4F20200016841F001010160006800F02B
:1008C000010003900398FFE7FFE741F21C00C4F228
:1008D0000200016841F080510160006800F0805022
:1008E00002900298FFE7FFE741F23400C4F20200F1
:1008F000016841F004010160006800F0040001900B
:100900000198FFE7FFE741F23400C4F202000168FA
:1009100041F008010160006800F0080000900098B4
:10092000FFE704B07047000080B586B08DF817006F
:10093000049103920020029000F094FE02909DF931
:100940001700019002980499039A00F0AFFD014648
:10095000019800F08FFE06B080BD000080B582B027
:100960000190019800F0A8FE02B080BD80B584B06F
:1009700002900191029820B9FFE701208DF80F0045
:1009800021E1019842F20001C4F20201096801F07C
:100990000F01884216D9FFE742F20000C4F20200BC
:1009A000016821F00F01019A11430160006800F015
:1009B0000F000199884204D0FFE701208DF80F0055
:1009C00001E1FFE702980078800700282AD5FFE7B9
:1009D000029800784007002809D5FFE741F204019A
:1009E000C4F20201086840F4E0600860FFE7029882
:1009F00000780007002809D5FFE741F20401C4F29E
:100A00000201086840F460500860FFE741F2040109
:100A1000C4F20201086820F0F000029A92681043C4
:100A20000860FFE702980078C007002866D0FFE75B
:100A300002984068012811D1FFE741F20000C4F29A
:100A40000200006800F400310020B0EB514F04D1E7
:100A5000FFE701208DF80F00B5E024E00298406820
:100A600002280ED1FFE741F20000C4F20200006844
:100A7000C001002804D4FFE701208DF80F00A2E098
:100A800010E041F20000C4F20200006800F0020130
:100A90000020B0EB510F04D1FFE701208DF80F00CB
:100AA00091E0FFE7FFE741F20401C4F202010868A8
:100AB00020F00300029A526810430860FFF79CFE82
:100AC0000090FFE741F20400C4F20200006800F069
:100AD0000C0002994968B0EB810F0ED0FFE7FFF7D9
:100AE0008BFE0099401A41F28931884204D3FFE716
:100AF00003208DF80F0066E0E4E7FFE7019842F27B
:100B00000001C4F20201096801F00F01884216D207
:100B1000FFE742F20000C4F20200016821F00F0179
:100B2000019A11430160006800F00F0001998842AA
:100B300004D0FFE701208DF80F0044E0FFE70298A2
:100B40000078400700280CD5FFE741F20401C4F209
:100B50000201086820F4E060029AD268104308603D
:100B6000FFE702980078000700280DD5FFE741F263
:100B70000401C4F20201086820F46050029A12696C
:100B800040EAC2000860FFE700F022F841F20401E9
:100B9000C4F202010968C9B20A0942F2EA41C0F688
:100BA0000001895CC84040F20001C2F20001086007
:100BB00040F20C00C2F200000068FFF73DFE00208A
:100BC0008DF80F00FFE79DF80F0004B080BD000016
:100BD00080B598B042F2AA41C0F6000108A84022B0
:100BE000FFF7C2FA40F20120ADF81E000020069087
:100BF000059004900390029041F20400C4F20200B8
:100C000000680690069800F00C000146019100284B
:100C10004AD0FFE70198042804D0FFE7019808288C
:100C200006D042E042F20040C0F2F400029042E0FE
:100C3000069901F0C04001F47011400E40EA914164
:100C400008A8405C0390069800F44030B0F5803F5F
:100C500007D0FFE7069800F44030B0F5403F18D1C8
:100C6000FFE741F20400C4F20200006800F4003122
:100C70000DF11E0040EA514000780590039842F2C1
:100C80000041C0F2F40148430599B0FBF1F0049033
:100C900007E0039841F20021C0F27A014843049032
:100CA000FFE70498029006E0FFE741F20020C0F25F
:100CB0007A000290FFE7029818B080BD80B586B038
:100CC0000490049820B9FFE701208DF81700D4E3C1
:100CD00004980078C007002800F0D680FFE741F2B2
:100CE0000400C4F20200006800F00C00042820D0C8
:100CF000FFE741F20400C4F20200006800F00C00BB
:100D000008282BD1FFE741F20400C4F2020000687A
:100D100000F48030B0F5803F0BD0FFE741F20400D3
:100D2000C4F20200006800F48030B0F5403F15D1F5
:100D3000FFE741F20000C4F20200006800F4003155
:100D40000020B0EB514F08D0FFE70498406820B96D
:100D5000FFE701208DF817008FE394E004984068C6
:100D6000B0F5803F0CD1FFE741F23801C4F2020137
:100D7000086820F44070049A926810430860FFE706
:100D8000FFE704984068B0F5803F09D1FFE741F2E2
:100D90000001C4F20201086840F48030086032E0CB
:100DA0000498406868B9FFE741F20001C4F202010B
:100DB000086820F480300860086820F4802008600B
:100DC00020E004984068B0F5A02F0DD1FFE741F274
:100DD0000001C4F20201086840F48020086008683D
:100DE00040F4803008600CE041F20001C4F20201DE
:100DF000086820F480300860086820F480200860CB
:100E0000FFE7FFE7FFE7FFE704984068E8B1FFE787
:100E1000FFF7F2FC0390FFE741F20000C4F202008A
:100E2000006800F400310020B0EB514F0CD1FFE717
:100E3000FFF7E2FC0399401A652804D3FFE703207B
:100E40008DF8170019E3E7E71CE0FFF7D5FC0390E6
:100E5000FFE741F20000C4F20200006800F4003134
:100E60000020B0EB514F0CD0FFE7FFF7C5FC039912
:100E7000401A652804D3FFE703208DF81700FCE231
:100E8000E7E7FFE7FFE7FFE704980078800700281F
:100E900040F19080FFE741F20400C4F202000068D4
:100EA00010F00C0F20D0FFE741F20400C4F2020062
:100EB000006800F00C0008282CD1FFE741F2040084
:100EC000C4F20200006800F48030B0F5803F21D009
:100ED000FFE741F20400C4F20200006800F4803031
:100EE000B0F5403F16D0FFE741F20000C4F2020027
:100EF000006800F002010020B0EB510F09D0FFE7BD
:100F000004984069012804D0FFE701208DF81700FC
:100F1000B3E24EE00498406928B3FFE741F20001D4
:100F2000C4F20201086840F001000860FFF764FCA9
:100F30000390FFE741F20000C4F20200006800F0F5
:100F400002010020B0EB510F0CD1FFE7FFF754FC7A
:100F50000399401A032804D3FFE703208DF81700F4
:100F60008BE2E7E724E041F20001C4F202010868E5
:100F700020F001000860FFF73FFC0390FFE741F21B
:100F80000000C4F20200006800F002010020B0EB93
:100F9000510F0CD0FFE7FFF72FFC0399401A0328ED
:100FA00004D3FFE703208DF8170066E2E7E7FFE7C9
:100FB000FFE7FFE704980078C00600284FD5FFE759
:100FC0000498806928B3FFE741F22801C4F20201C6
:100FD000086840F010000860FFF70EFC0390FFE780
:100FE00041F22800C4F20200006800F02001002055
:100FF000B0EB511F0CD1FFE7FFF7FEFB0399401A3E
:10100000032804D3FFE703208DF8170035E2E7E754
:1010100024E041F22801C4F20201086820F0100027
:101020000860FFF7E9FB0390FFE741F22800C4F2F4
:101030000200006800F020010020B0EB511F0CD02E
:10104000FFE7FFF7D9FB0399401A032804D3FFE712
:1010500003208DF8170010E2E7E7FFE7FFE70498A9
:1010600000780007002852D5FFE70498C06940B314
:10107000FFE741F22401C4F20201086840F00100D8
:101080000860FFF7B9FB0390FFE741F22400C4F2C8
:101090000200006800F002010020B0EB510F0CD1FB
:1010A000FFE7FFF7A9FB0399401A032804D3FFE7E2
:1010B00003208DF81700E0E1E7E7012000F034FAA3
:1010C00024E041F22401C4F20201086820F001008A
:1010D0000860FFF791FB0390FFE741F22400C4F2A0
:1010E0000200006800F002010020B0EB510F0CD0AC
:1010F000FFE7FFF781FB0399401A032804D3FFE7BA
:1011000003208DF81700B8E1E7E7FFE7FFE7049851
:1011100000784007002840F1EF80FFE700208DF8BD
:10112000070041F21C00C4F202000068C000002861
:1011300013D4FFE7FFE741F21C00C4F2020001688C
:1011400041F080510160006800F0805000900098EC
:10115000FFE701208DF80700FFE747F20000C4F227
:1011600000000068C005002822D4FFE747F2000114
:10117000C4F20001086840F480700860FFF73CFB8F
:101180000390FFE747F20000C4F200000068C005CA
:1011900000280CD4FFE7FFF72FFB0399401A6528BE
:1011A00004D3FFE703208DF8170066E1EAE7FFE7C5
:1011B0000498C06801280CD1FFE741F22001C4F275
:1011C0000201086820F01800049A126910430860B0
:1011D000FFE7FFE70498C068012809D1FFE741F263
:1011E0002001C4F20201086840F00100086031E00B
:1011F0000498C06868B9FFE741F22001C4F2020117
:10120000086820F001000860086820F00400086009
:101210001FE00498C06805280DD1FFE741F22001C6
:10122000C4F20201086840F004000860086840F059
:10123000010008600CE041F22001C4F202010868DC
:1012400020F001000860086820F004000860FFE753
:10125000FFE7FFE7FFE70498C068F8B1FFE7FFF793
:10126000CBFA0390FFE741F22000C4F202000068CD
:1012700000F002010020B0EB510F0ED1FFE7FFF7A5
:10128000BBFA0399401A41F28931884204D3FFE73F
:1012900003208DF81700F0E0E5E71EE0FFF7ACFA59
:1012A0000390FFE741F22000C4F20200006800F062
:1012B00002010020B0EB510F0ED0FFE7FFF79CFAC0
:1012C0000399401A41F28931884204D3FFE7032091
:1012D0008DF81700D1E0E5E7FFE79DF8070001284A
:1012E00009D1FFE741F21C01C4F20201086820F0B5
:1012F00080500860FFE7FFE70498006A002800F0CC
:10130000B880FFE741F20400C4F20200006800F078
:101310000C00082800F08580FFE70498006A022886
:1013200059D1FFE741F20001C4F20201086820F040
:1013300080700860FFF760FA0390FFE741F2000059
:10134000C4F20200006800F000710020B0EB516FA1
:101350000CD0FFE7FFF750FA0399401A032804D393
:10136000FFE703208DF8170087E0E7E741F204016B
:10137000C4F2020108684FF6FF72C9F6C07210404D
:10138000049B5A6A9B6A1A431043086041F20001A9
:10139000C4F20201086840F080700860FFF72CFA80
:1013A0000390FFE741F20000C4F20200006800F081
:1013B00000710020B0EB516F0CD1FFE7FFF71CFA72
:1013C0000399401A032804D3FFE703208DF8170080
:1013D00053E0E7E724E041F20001C4F202010868AB
:1013E00020F080700860FFF707FA0390FFE741F2F2
:1013F0000000C4F20200006800F000710020B0EBB1
:10140000516F0CD0FFE7FFF7F7F90399401A032853
:1014100004D3FFE703208DF817002EE0E7E7FFE78E
:1014200026E00498006A012804D1FFE701208DF826
:10143000170022E041F20400C4F2020000680290AA
:10144000029800F480300499496A88420AD1FFE783
:1014500002980021C6F23C0108400499896A88423A
:1014600004D0FFE701208DF8170006E0FFE7FFE753
:10147000FFE700208DF81700FFE79DF8170006B082
:1014800080BD00007047000080B582B001900198D7
:1014900000F06AF802B080BD80B5FFF7F3FF80BDB1
:1014A000FFE7FEE7FFE7FEE77047000088B0079020
:1014B00006910592079800F0070004900498C0F187
:1014C0000700042803D3FFE70320019004E00498F9
:1014D000C0F107000190FFE70198039004980330E2
:1014E000062803D8FFE70020009003E004980438A2
:1014F0000090FFE70098029006980399012202FAF3
:1015000001F101390840029B984005999A40013A3F
:101510001140084308B07047704700007047000052
:10152000704700007047000082B00190019840F2BF
:101530000001C2F200010968C90844F6D352C1F2A1
:101540006202A1FB0221890948430090FFE700BF26
:10155000FFE70098411E00910028F8D1FFE702B094
:10156000704700007047000080B584B00290029878
:101570000138B0F1807F03D3FFE7012003901AE028
:10158000029801384EF21401CEF2000108604FF0CB
:10159000FF300721019100F06DF801994EF2180219
:1015A000CEF20002002010604EF21002CEF20002D5
:1015B00011600390FFE7039804B080BD80B5FFF78A
:1015C00021F9FFF769FF012000F0D0FA80BD00008B
:1015D00080B592B007A801902C21FEF7DEFD01989E
:1015E0000023069305930493039302931F2107910D
:1015F0004FF4803108914FF44072099210220D92FD
:1016000001220C920A930E9202220F9210914FF433
:10161000E0111191FFF752FB18B1FFE7FEF7DAFD79
:10162000FFE70F2002900220039000200490059015
:101630004FF48060069002A80621FFF797F918B1D1
:10164000FFE7FEF7C7FDFFE712B080BD4EF6085179
:10165000CEF200014FF00060086070477047000054
:10166000FFE7FEE74EF60C50CEF200000068C0F334
:101670000220704782B08DF8070000919DF90700A5
:1016800000280AD4FFE7009840019DF907104EF2A8
:101690000042CEF2000288540BE0009840019DF811
:1016A000071001F00F014EF61452CEF200028854DA
:1016B000FFE702B07047000083B00290029800F08C
:1016C000070000904EF60C51CEF200010868019020
:1016D00001984FF6FF02104001900198009A40EAED
:1016E00002200022C0F2FA521043019001980860D3
:1016F00003B0704783B0ADF80600BDF806004F2870
:1017000011D8FFE7BDF8061042F2FC40C0F6000019
:1017100000EB011000900098406818B1FFE70098B6
:10172000029003E0FFE700200290FFE7029803B079
:101730007047000085B0FFE741F23400C4F20200B8
:10174000016841F004010160006800F004000490A9
:101750000498FFE7FFE741F23400C4F20200016899
:1017600041F008010160006800F008000390039850
:10177000FFE7FFE741F23400C4F20200016841F0E4
:1017800010010160006800F0100002900298FFE76D
:10179000FFE741F23400C4F20200016841F0200189
:1017A0000160006800F0200001900198FFE7FFE76A
:1017B00041F23400C4F20200016841F040010160CE
:1017C000006800F0400000900098FFE7002005B09E
:1017D0007047000080B582B08DF807009DF80700C3
:1017E0000F2817DCFFE79DF8071041F62C00C2F226
:1017F000000000EB0110406860B1FFE79DF80710A2
:1018000041F62C00C2F2000000EB01104168806834
:101810008847FFE702B080BD80B58AB0ADF82200EE
:101820008DF82110002006900590049003900290FE
:10183000BDF82200FFF75EFF0790079820B9FFE789
:101840006FF00100099034E00798008902900220AF
:1018500005909DF821000146019104281DD80199A9
:10186000DFE801F008030C111600012003900020AE
:10187000049016E000200390049012E000200390F2
:10188000012004900DE0002003900220049008E065
:10189000112003900020049003E06FF001000990F4
:1018A00007E00798406802A9FEF7E6FD00200990CE
:1018B000FFE709980AB080BD80B584B0ADF80A0092
:1018C000BDF80A00FFF716FF0190019820B9FFE765
:1018D0006FF00100039007E0019948680989FEF75D
:1018E00073FF00200390FFE7039804B080BD000061
:1018F00080B584B08DF80D00ADF80A10BDF80A006F
:101900000004002819D5FFE79DF80D0000F0A6FCA3
:101910000190FFE7019848B1FFE7019800F056FCFD
:101920009DF80D0000F09AFC0190F3E7BDF80A0065
:1019300080F40040ADF80E0012E0BDF80A00C007C8
:1019400050B1FFE71220FFF7B7FFBDF80A0080F0A3
:101950000100ADF80E0003E00020ADF80E00FFE737
:10196000BDF80E0004B080BD80B584B08DF80F00C6
:101970009DF80F0041F62C11C2F20001029108708F
:10198000FFF7D8FE122001210191FFF745FF0199D1
:10199000029800784FF4FA7200F0D8FC04B080BDD1
:1019A00080B5FEF73DFFFFF713FE00F03DFA002083
:1019B00080BD000080B586B08DF81300ADF8101022
:1019C000ADF80E209DF81300BDF8101000F070F86F
:1019D0000290029838B1FFE7BDF80E0002998880A6
:1019E000029805903EE00C2000F03AFA029002982E
:1019F000A8B3FFE79DF8130002990872BDF8100024
:101A00000299C880BDF80E000299888002990020D2
:101A100008600299488141F64010C2F20000006857
:101A200038B9FFE7029841F64011C2F200010860A0
:101A300012E041F64010C2F2000000680190FFE79A
:101A40000198006820B1FFE7019800680190F7E76E
:101A5000029801990860FFE70298059002E00020D3
:101A60000590FFE7059806B080BD000083B08DF8B3
:101A7000070040F21400C2F2000000680090FFE787
:101A8000009870B1FFE70098007B9DF8071088422E
:101A900003D1FFE70098029006E0009800680090EC
:101AA000EEE700200290FFE7029803B070470000C5
:101AB00082B08DF80700ADF8041041F64010C2F274
:101AC000000000680090FFE7009898B1FFE70098D9
:101AD000C088BDF80410884208D1FFE70098007A5A
:101AE0009DF80710884201D1FFE703E000980068E5
:101AF0000090E9E7009802B07047000082B040F221
:101B00001400C2F2000000680090FFE7009858B18E
:101B1000FFE70098C08918B1FFE70098019006E040
:101B2000009800680090F1E700200190FFE701981D
:101B300002B0704780B582B0FFF7EEFC41F6441169
:101B4000C2F20001012008700020019000F07CFC2E
:101B5000019841F63E11C2F20001087041F63811B9
:101B6000C2F20001086002B080BD000080B586B0FE
:101B7000ADF80E00EFF3108072B60590BDF80E20A0
:101B800041F63811C2F2000108681044086062B6DC
:101B900041F64010C2F200000068002872D0FFE752
:101BA00041F64010C2F2000000680290002001904F
:101BB000FFE70298002864D0FFE700200090EFF3D1
:101BC000108072B6049002988088BDF80E1088428A
:101BD00004DCFFE702990020888006E002998888EB
:101BE000BDF80E20801A8880FFE70298808888B9A7
:101BF000FFE70298408968B1FFE70298C08848B1C2
:101C0000FFE70299087AC98800F07AFB02994889AF
:101C10008880FFE70298808820B1FFE70298C0889B
:101C2000B0B9FFE7019840B9FFE70298006841F6B4
:101C30004011C2F20001086004E0029800680199B6
:101C40000860FFE70298009002980068029005E0A3
:101C500002980190029800680290FFE762B600982F
:101C600070B1FFE70098808830B9FFE70099087AE3
:101C7000C98800F045FBFFE7009800F00DFAFFE788
:101C800097E7FFE706B080BD80B540F21400C2F2CE
:101C90000000006840F21001C2F200010860FFE796
:101CA00040F21000C2F200000068C8B1FFE740F245
:101CB0001000C2F200000068406848B1FFE740F23F
:101CC0001000C2F2000000684168007B8847FFE70F
:101CD00040F21001C2F20001086800680860DFE706
:101CE00040F21001C2F200010020086080BD000037
:101CF00080B586B0059004918DF80F20102000F07B
:101D0000AFF802900298002842D0FFE705980299A8
:101D1000486004980299886040F21802C2F20002FA
:101D20001078411C11700299087302990020C88133
:101D30009DF80F10029A51730299086040F2140046
:101D4000C2F2000000900068019041F63D11C2F21D
:101D50000001087801300870FFE70198A0B1FFE7A3
:101D60000298407B0199497B884207DDFFE7019893
:101D7000029908600298009908600AE001980090B2
:101D8000019800680190E8E7029800990860FFE771
:101D9000FFE706B080BD000080B584B08DF80A0072
:101DA000ADF808109DF80A00FFF760FE0190019859
:101DB00060B1FFE7EFF3108072B60390BDF8082022
:101DC0000199C8899043C88162B603E002208DF86A
:101DD0000B0003E001208DF80B00FFE79DF80B00DE
:101DE00004B080BD40F21401C2F20001002008607E
:101DF00040F21001C2F20001086040F21801C2F284
:101E0000000108707047000080B500F083F941F6CA
:101E10003411C2F2000100200860FFF78BFEFFF7CB
:101E2000E1FF012080BD000080B582B0EFF310809B
:101E300072B60190FFF7E8FF41F66910C0F60000A6
:101E400041F6F101C0F600010122FFF751FFFFF753
:101E50001BFF00F0A9F962B600F0ACFA02B080BD39
:101E600080B586B0ADF8120000208DF8050041F66F
:101E70003C10C2F200000078E22803D0FFE700F037
:101E800049F9FFE7BDF812000430ADF81200BDF8C3
:101E9000120000F003008DF804009DF8040048B122
:101EA000FFE79DF80410BDF81200401A0430ADF8A9
:101EB0001200FFE7EFF3108072B60590BDF8120034
:101EC000102807DCFFE741F62400C2F2000000689A
:101ED000029006E041F62800C2F20000006802907D
:101EE000FFE702980068ADF80600FFE7BDF80600BE
:101EF000000400280AD5FFE7BDF8060080F4004082
:101F0000ADF8060000208DF8050035E09DF80500CD
:101F100018B3FFE741F61C01C2F20001088801383E
:101F2000088041F61E01C2F20001088801380880CD
:101F300002980268039908681044086003980068D2
:101F4000BDF81210884207D3FFE703980290029869
:101F50000068ADF8060024E00DE0BDF80600BDF80D
:101F60001210884201DBFFE71BE001208DF805001D
:101F700002980390FFE7FFE70298BDF806100844B7
:101F8000029002980068ADF80600BDF8060018B986
:101F9000FFE70020029004E0FFE701200028A5D120
:101FA000FFE70298002872D0FFE7BDF81210BDF8D5
:101FB0000600401AADF80600BDF80600042834DB20
:101FC000FFE70298BDF8121008440090BDF8060023
:101FD00000990860BDF8120040F4004002990860C2
:101FE00041F61C01C2F2000108880130088041F668
:101FF0002000C2F200000088098888420BDAFFE75F
:1020000041F61C00C2F20000008841F62001C2F235
:1020100000010880FFE7BDF8122041F62E11C2F240
:10202000000108881044088015E00298026841F613
:102030002E11C2F2000108881044088041F61E01EA
:10204000C2F200010888013808800299086840F44B
:1020500000400860FFE741F63010C2F2000000883F
:1020600041F62E11C2F20001098888420BDAFFE71F
:1020700041F62E10C2F20000008841F63011C2F283
:1020800000010880FFE7029804300290FFE762B683
:10209000029806B080BD000080B584B0029041F681
:1020A0003C10C2F200000078E22803D0FFE700F005
:1020B00031F8FFE7EFF3108072B60390029804380E
:1020C00001900199086820F40040086041F624005E
:1020D000C2F2000000680199884207D9FFE7019821
:1020E00041F62401C2F200010860FFE7019802688E
:1020F00041F62E11C2F200010888801A088041F6CC
:102100001E01C2F2000108880130088062B604B0E6
:1021100080BD000080B584B040F20401C2F200012D
:102120000091086841F2FC7210440390039A002069
:10213000029010600A680392039BE8221A60096803
:10214000E8310391039A41F21471116041F63C1297
:10215000C2F20002E2211170039941F62402C2F298
:10216000000201921160FFF77BFE0099019A03467D
:10217000029841F6280CC2F2000CCCF80030096835
:10218000116041F61E02C2F200020221118041F6E6
:102190001C02C2F20002118041F62E11C2F20001AF
:1021A000088004B080BD000081B0EFF3108072B6EB
:1021B000009041F62800C2F20000006841F62401B8
:1021C000C2F20001086062B601B0704780B584B009
:1021D0000290029820B9FFE703208DF80F0013E06A
:1021E000029810F8020C062804D0FFE707208DF8AB
:1021F0000F0009E00298083801900198FFF74CFFA2
:1022000001208DF80F00FFE79DF80F0004B080BD9E
:1022100084B0029001910092EFF3108072B60390A7
:10222000019802990968884206D1FFE7019850F8A1
:10223000080C0299086006E0019850F8080C009913
:1022400041F8080CFFE70199002041F8080C0199BA
:10225000062001F8020C62B604B0704780B586B063
:102260008DF81300002002900190EFF3108072B6F9
:10227000059041F63410C2F2000000680390FFE7B9
:102280000398D8B1FFE7039810F8020C9DF81310DB
:10229000884208D1FFE7019818B9FFE70398019039
:1022A00000E00BE0FFE7019818B9FFE70398029000
:1022B000FFE7039850F8080C0390E1E7039838B162
:1022C000FFE79DF813004FF4004100F019F806E015
:1022D0009DF813004FF40041FFF75EFDFFE7019802
:1022E00048B1FFE70199029A41F63410C2F20000AA
:1022F000FFF78EFFFFE762B6019806B080BD0000D1
:1023000080B584B08DF80A00ADF808109DF80A0079
:10231000FFF7ACFB0190019860B1FFE7EFF310808D
:1023200072B60390BDF808200199C8891043C8818E
:1023300062B603E002208DF80B0003E001208DF867
:102340000B00FFE79DF80B0004B080BD80B584B0A2
:102350008DF80B00ADF80810ADF80620EFF31080F3
:1023600072B603909DF80B00BDF80810BDF806206A
:10237000FFF720FB0090009828B1FFE7BDF80600AA
:1023800000994881FFE7009860B1FFE741F63E10F1
:10239000C2F20000007820B9FFE7012000F054F8F5
:1023A000FFE7FFE762B600990520002918BF01206A
:1023B00004B080BD80B584B0FFE7FFF79FFB014606
:1023C00040F21000C2F2000001600068002839D01D
:1023D000FFE7EFF3108072B6039040F21000C2F2F4
:1023E00000000168C989ADF8061001680020C881A5
:1023F00062B6BDF8060020B3FFE740F21000C2F25B
:10240000000000688068D8B1FFE740F21000C2F217
:102410000000009000688268007BBDF806109047BD
:1024200001460098ADF80410EFF3108172B60291E6
:10243000BDF804200168C8891043C88162B6FFE76F
:10244000FFE7FFE7B9E7000080B582B08DF807002D
:102450009DF8070000F00AF89DF8070041F63E11CC
:10246000C2F20001087002B080BD000080B582B0E9
:102470008DF807009DF8070018B1FFE7FFF74EF849
:1024800002E0FFF74DF8FFE702B080BD02E008C8A8
:10249000121F08C1002AFAD170477047002001E0DE
:1024A00001C1121F002AFBD1704702030405060771
:1024B00008090A0B0C0D0E0F101112131415161724
:1024C00018191A1B1C1D1E1F202122232425262714
:1024D00028292A2B2C2D2E2F303132333435363704
:1024E00038393A3B3C3D3E3F3F3F00000000000092
:1024F00000000102030406070809000000000000B4
:102500000000004801000000152A0008010000003A
:102510000000004802000000422A000802000000FB
:1025200000000048040000006F2A000803000000BB
:1025300000000048080000009C2A00080400000079
:102540000000004810000000C92A00080500000033
:102550000000004820000000F62A000806000000E5
:1025600000000048400000000A2B0008070000009F
:1025700000000048800000001E2B0008080000003A
:102580000000004800010000322B00080900000094
:102590000000004800020000462B00080A0000006E
:1025A0000000004800040000FC2900080B000000A7
:1025B0000000004800080000292A00080C00000064
:1025C0000000004800100000562A00080D0000001E
:1025D0000000004800200000832A00080E000000D0
:1025E0000000004800400000B02A00080F00000072
:1025F0000000004800800000DD2A000810000000F4
:102600000004004801000000192A00081100000021
:102610000004004802000000462A000812000000E2
:102620000004004804000000732A000813000000A2
:102630000004004808000000A02A00081400000060
:102640000004004810000000CD2A0008150000001A
:102650000004004820000000FA2A000816000000CC
:1026600000040048400000000E2B00081700000086
:102670000004004880000000222B00081800000021
:102680000004004800010000362B0008190000007B
:1026900000040048000200004A2B00081A00000055
:1026A0000004004800040000012A00081B0000008C
:1026B00000040048000800002E2A00081C0000004A
:1026C00000040048001000005B2A00081D00000004
:1026D0000004004800200000882A00081E000000B6
:1026E0000004004800400000B52A00081F00000058
:1026F0000004004800800000E22A000820000000DA
:1027000000080048010000001D2A00082100000008
:1027100000080048020000004A2A000822000000C9
:102720000008004804000000772A00082300000089
:102730000008004808000000A42A00082400000047
:102740000008004810000000D12A00082500000001
:102750000008004820000000FE2A000826000000B3
:102760000008004840000000122B0008270000006D
:102770000008004880000000262B00082800000008
:1027800000080048000100003A2B00082900000062
:1027900000080048000200004E2B00082A0000003C
:1027A0000008004800040000062A00082B00000072
:1027B0000008004800080000332A00082C00000030
:1027C0000008004800100000602A00082D000000EA
:1027D00000080048002000008D2A00082E0000009C
:1027E0000008004800400000BA2A00082F0000003E
:1027F0000008004800800000E72A000830000000C0
:10280000000C004801000000212A000831000000EF
:10281000000C0048020000004E2A000832000000B0
:10282000000C0048040000007B2A00083300000070
:10283000000C004808000000A82A0008340000002E
:10284000000C004810000000D52A000835000000E8
:10285000000C004820000000022B00083600000099
:10286000000C004840000000162B00083700000054
:10287000000C0048800000002A2B000838000000EF
:10288000000C0048000100003E2B00083900000049
:10289000000C004800020000522B00083A00000023
:1028A000000C0048000400000B2A00083B00000058
:1028B000000C004800080000382A00083C00000016
:1028C000000C004800100000652A00083D000000D0
:1028D000000C004800200000922A00083E00000082
:1028E000000C004800400000BF2A00083F00000024
:1028F000000C004800800000EC2A000840000000A6
:102900000010004801000000252A000841000000D6
:102910000010004802000000522A00084200000097
:1029200000100048040000007F2A00084300000057
:102930000010004808000000AC2A00084400000015
:102940000010004810000000D92A000845000000CF
:102950000010004820000000062B00084600000080
:1029600000100048400000001A2B0008470000003B
:1029700000100048800000002E2B000848000000D6
:102980000010004800010000422B00084900000030
:102990000010004800020000562B00084A0000000A
:1029A0000010004800040000102A00084B0000003E
:1029B00000100048000800003D2A00084C000000FC
:1029C00000100048001000006A2A00084D000000B6
:1029D0000010004800200000972A00084E00000068
:1029E0000010004800400000C42A00084F0000000A
:1029F0000010004800800000F12A000850413130EA
:102A000000504231300050433130005044313000EA
:102A1000504531300050413000504230005043307A
:102A20000050443000504530005041313100504298
:102A30003131005043313100504431310050453183
:102A40003100504131005042310050433100504478
:102A50003100504531005041313200504231320096
:102A60005043313200504431320050453132005031
:102A70004132005042320050433200504432005044
:102A80004532005041313300504231330050433120
:102A9000330050443133005045313300504133004E
:102AA000504233005043330050443300504533000C
:102AB00050413134005042313400504331340050E1
:102AC00044313400504531340050413400504234D8
:102AD00000504334005044340050453400504131DC
:102AE00035005042313500504331350050443135C6
:102AF00000504531350050413500504235005043BB
:102B000035005044350050453500504136005042A4
:102B10003600504336005044360050453600504190
:102B2000370050423700504337005044370050457B
:102B3000370050413800504238005043380050446C
:102B40003800504538005041390050423900504358
:102B5000390050443900504539000000802B0008EE
:102B600000000020100000008C240008902B0008BA
:102B700010000020401D00009C2400080000000000
:102B800000127A001C000020010000000800000074
:0400000508000131BD
:00000001FF
