:020000040800F2
:10000000B01F0020450100089D1E0008951E000835
:10001000991E0008F50100084124000800000000B6
:100020000000000000000000000000004D1F00085C
:10003000FD010008000000000D1F0008A51F0008BA
:100040005F0100085F0100085F0100085F01000810
:100050005F0100085F010008010200081D0300089D
:100060004903000875030008A10300085F010008A8
:100070005F0100085F0100085F0100085F010008E0
:100080005F0100085F0100085F0100085F010008D0
:100090005F0100085F0100085F010008CD03000850
:1000A0005F0100085F0100085F0100085F010008B0
:1000B000452000085F0100085F0100085F0100089B
:1000C0005F0100085F0100085F0100085F01000890
:1000D0005F0100085F0100082D2400085F0100088F
:1000E000290200085F0100085F0100085F010008A5
:1000F0005F0100085F0100085F0100085F01000860
:100100005F0100085F0100085F0100085F0100084F
:100110005F0100085F0100085F0100085F0100083F
:10012000F90100085F0100085F0100085F01000895
:10013000DFF80CD000F044F800480047B125000873
:10014000B01F00200648804706480047FEE7FEE74C
:10015000FEE7FEE7FEE7FEE7FEE7FEE7FEE7FEE777
:10016000352000083101000840EA01039B0703D055
:1001700009E008C9121F08C0042AFAD203E011F8E6
:10018000013B00F8013B521EF9D27047D2B201E0A8
:1001900000F8012B491EFBD270470022F6E710B58C
:1001A00013460A4604461946FFF7F0FF204610BDE5
:1001B000421C10F8011B0029FBD1801A7047000077
:1001C0001CB509480090094801900546009C06E0CE
:1001D000E06840F0010394E8070098471034AC420F
:1001E000F6D3FFF7A9FF00008C2F0008AC2F000802
:1001F000FFE7FEE7FFE7FEE77047000070470000FB
:1002000080B540F21440C4F201000068C00750B14C
:10021000FFE7002002F090F940F21441C4F201011E
:1002200001200860FFE780BD80B540F21440C4F2B1
:1002300001000068400500280BD5FFE70A2002F006
:100240007BF940F21441C4F201014FF48060086070
:10025000FFE740F21440C4F20100006800050028E6
:100260000BD5FFE70B2002F067F940F21441C4F20E
:1002700001014FF400600860FFE740F21440C4F24F
:1002800001000068C00400280BD5FFE70C2002F035
:1002900053F940F21441C4F201014FF48050086058
:1002A000FFE740F21440C4F2010000688004002817
:1002B0000BD5FFE70D2002F03FF940F21441C4F2E4
:1002C00001014FF400500860FFE740F21440C4F20F
:1002D00001000068400400280BD5FFE70E2002F063
:1002E0002BF940F21441C4F201014FF48040086040
:1002F000FFE740F21440C4F2010000680004002847
:100300000BD5FFE70F2002F017F940F21441C4F2B9
:1003100001014FF400400860FFE780BD80B540F266
:100320001440C4F201000068800700280AD5FFE7E6
:10033000012002F001F940F21441C4F2010102204F
:100340000860FFE780BD000080B540F21440C4F2B1
:1003500001000068400700280AD5FFE7022002F0EC
:10036000EBF840F21441C4F2010104200860FFE7F9
:1003700080BD000080B540F21440C4F20100006866
:10038000000700280AD5FFE7032002F0D5F840F265
:100390001441C4F2010108200860FFE780BD00009D
:1003A00080B540F21440C4F201000068C006002885
:1003B0000AD5FFE7042002F0BFF840F21441C4F26E
:1003C000010110200860FFE780BD000080B540F209
:1003D0001440C4F201000068800600280AD5FFE737
:1003E000052002F0A9F840F21441C4F201012020D6
:1003F0000860FFE740F21440C4F2010000684006C4
:1004000000280AD5FFE7062002F096F840F21441D2
:10041000C4F2010140200860FFE740F21440C4F23A
:1004200001000068000600280AD5FFE7072002F057
:1004300083F840F21441C4F2010180200860FFE714
:1004400040F21440C4F201000068C00500280BD53A
:10045000FFE7082002F070F840F21441C4F20101F5
:100460004FF480700860FFE740F21440C4F20100CE
:100470000068800500280BD5FFE7092002F05CF832
:1004800040F21441C4F201014FF400700860FFE72C
:1004900080BD000080B596B0159000208DF8530007
:1004A000159890F82100022807D0FFE7159904203D
:1004B000886301208DF8530074E11598016808687D
:1004C00020F00E00086015980168086820F001000F
:1004D0000860159800688121C4F202018842C0F0CA
:1004E000A880FFE7159800680821C4F2020188423D
:1004F00003D1FFE70120139094E0159800681C21B8
:10050000C4F20201884203D1FFE71020129086E076
:10051000159800683021C4F20201884204D1FFE737
:100520004FF48070119077E0159800684421C4F270
:100530000201884204D1FFE74FF48050109068E038
:10054000159800685821C4F20201884204D1FFE7DF
:100550004FF480300F9059E0159800686C21C4F278
:100560000201884204D1FFE74FF480100E904AE068
:10057000159800688021C4F20201884204D1FFE787
:100580004FF080700D903BE01598006840F20841F4
:10059000C4F20201884203D1FFE701200C902CE055
:1005A0001598006840F21C41C4F20201884203D150
:1005B000FFE710200B901DE01598006840F23041D5
:1005C000C4F20201884204D1FFE74FF480700A9020
:1005D0000DE01598016840F24442C4F202024FF463
:1005E0008030914208BF4FF480500A90FFE70A988C
:1005F0000B90FFE70B980C90FFE70C980D90FFE72E
:100600000D980E90FFE70E980F90FFE70F9810904F
:10061000FFE710981190FFE711981290FFE71298EA
:100620001390FFE7139840F20441C4F202010860FE
:10063000A5E0159800680821C4F20201884203D1A0
:10064000FFE70120099094E0159800681C21C4F28E
:100650000201884203D1FFE71020089086E0159838
:1006600000683021C4F20201884204D1FFE74FF450
:100670008070079077E0159800684421C4F2020169
:10068000884204D1FFE74FF48050069068E0159847
:1006900000685821C4F20201884204D1FFE74FF4F8
:1006A0008030059059E0159800686C21C4F2020171
:1006B000884204D1FFE74FF4801004904AE0159877
:1006C00000688021C4F20201884204D1FFE74FF0A4
:1006D000807003903BE01598006840F20841C4F236
:1006E0000201884203D1FFE7012002902CE0159817
:1006F000006840F21C41C4F20201884203D1FFE7C6
:10070000102001901DE01598006840F23041C4F2BD
:100710000201884204D1FFE74FF4807000900DE0A1
:100720001598016840F24442C4F202024FF480304E
:10073000914208BF4FF480500090FFE7009801906D
:10074000FFE701980290FFE702980390FFE7039804
:100750000490FFE704980590FFE705980690FFE7EF
:1007600006980790FFE707980890FFE70898099018
:10077000FFE709980421C4F202010860FFE7159918
:10078000012081F82100FFE71599002081F8200061
:10079000FFE71598406B20B1FFE71598416B88473C
:1007A000FFE7FFE79DF8530016B080BD80B584B029
:1007B000039000F0C5F90290039801900198013070
:1007C00048B1FFE740F20C00C2F200000178019846
:1007D00008440190FFE7FFE700F0B2F90299401AE0
:1007E0000199884201D2FFE7F6E704B080BD00001E
:1007F0008AB00990089100200790FFE708980068E8
:100800000799C840002800F09881FFE70898006821
:10081000079A01219140084006900698002800F0B0
:100820008881FFE708984068022805D0FFE708980C
:100830004068122826D1FFE7099807996FF0030254
:1008400002EA51010844006A0590079800F0070089
:1008500081000F2000FA01F105988843059008985F
:100860000069079901F00701890000FA01F1059874
:100870000843059005980999079B02EA5302114421
:100880000862FFE709980068059007984100032077
:1008900000FA01F10598884305900898406800F037
:1008A00003000799490000FA01F1059808430590F3
:1008B0000598099908600898406801280FD0FFE75B
:1008C0000898406802280AD0FFE708984068112875
:1008D00005D0FFE70898406812282FD1FFE7099854
:1008E0008068059007984100032000FA01F10598FF
:1008F000884305900898C0680799490000FA01F1FB
:1009000005980843059005980999886009984068FA
:1009100005900799012000FA01F105988843059098
:1009200008984068C0F30010079900FA01F1059893
:1009300008430590059809994860FFE70998C06841
:10094000059007984100032000FA01F105988843BB
:100950000590089880680799490000FA01F1059808
:100960000843059005980999C8600898C079C006A1
:10097000002840F1DD80FFE7FFE741F21800C4F2F4
:100980000200016841F001010160006800F001000F
:1009900004900498FFE7079820F003001421C4F2A4
:1009A000010140580590079800F0030081000F20D6
:1009B00000FA01F10598884305900998B0F1904F2D
:1009C00003D1FFE70020039034E0099840F2004192
:1009D000C4F60001884203D1FFE70120029026E01F
:1009E000099840F60001C4F60001884203D1FFE7F0
:1009F0000220019018E0099840F60041C4F6000179
:100A0000884203D1FFE7032000900AE0099941F2F0
:100A10000002C4F600020720914208BF04200090A3
:100A2000FFE700980190FFE701980290FFE7029826
:100A30000390FFE70398079901F00301890000FA8A
:100A400001F10598084305900598079921F00301E5
:100A50001422C4F20102885040F20040C4F20100A6
:100A60000068059006990598884305900898807954
:100A7000C00728B1FFE70699059808430590FFE7EE
:100A8000059840F20041C4F20101086040F20440C0
:100A9000C4F2010000680590069905988843059006
:100AA000089880798007002805D5FFE70699059802
:100AB00008430590FFE7059840F20441C4F20101A4
:100AC000086040F20840C4F20100006805900699F1
:100AD00005988843059008988079C006002805D5B8
:100AE000FFE70699059808430590FFE7059840F24F
:100AF0000841C4F20101086040F20C40C4F2010058
:100B000000680590069905988843059008988079B3
:100B10008006002805D5FFE706990598084305904B
:100B2000FFE7059840F20C41C4F201010860FFE7BD
:100B3000FFE707980130079060E60AB070470000B1
:100B400041F6A830C2F200000068704740F20C0085
:100B5000C2F20000027841F6A831C2F20001086832
:100B6000104408607047000080B5042000F0A4F82D
:100B70000F2000F005F800F03BF8002080BD0000D9
:100B800080B582B0009040F20000C2F20000006820
:100B900040F20C01C2F200010A784FF47A71B1FB05
:100BA000F2F1B0FBF1F000F047FE20B1FFE70120C9
:100BB0008DF8070018E0009807280DD8FFE7009986
:100BC0004FF0FF30002200F05DF8009840F2100175
:100BD000C2F20001086003E001208DF8070003E085
:100BE00000208DF80700FFE79DF8070002B080BDE8
:100BF00084B0FFE741F21800C4F20200016841F03E
:100C000001010160006800F0010003900398FFE714
:100C1000FFE741F21C00C4F20200016841F080517C
:100C20000160006800F0805002900298FFE7FFE743
:100C300041F23400C4F20200016841F00401016095
:100C4000006800F0040001900198FFE7FFE741F21F
:100C50003400C4F20200016841F00801016000683C
:100C600000F0080000900098FFE704B07047000013
:100C700080B582B08DF807009DF9070001F0E2FB16
:100C800002B080BD80B586B08DF817000491039244
:100C90000020029001F0EEFB02909DF917000190F8
:100CA00002980499039A01F0FBF80146019801F0BB
:100CB000E9FB06B080BD000080B582B001900198CC
:100CC00001F002FC02B080BD80B584B002900191B9
:100CD000029820B9FFE701208DF80F0021E101986B
:100CE00042F20001C4F20201096801F00F018842DA
:100CF00016D9FFE742F20000C4F20200016821F0B9
:100D00000F01019A11430160006800F00F00019982
:100D1000884204D0FFE701208DF80F0001E1FFE7D2
:100D200002980078800700282AD5FFE7029800780B
:100D30004007002809D5FFE741F20401C4F202018F
:100D4000086840F4E0600860FFE702980078000758
:100D5000002809D5FFE741F20401C4F20201086846
:100D600040F460500860FFE741F20401C4F2020160
:100D7000086820F0F000029A926810430860FFE7CC
:100D800002980078C007002866D0FFE70298406804
:100D9000012811D1FFE741F20000C4F2020000680F
:100DA00000F400310020B0EB514F04D1FFE70120E7
:100DB0008DF80F00B5E024E00298406802280ED1BB
:100DC000FFE741F20000C4F202000068C001002801
:100DD00004D4FFE701208DF80F00A2E010E041F2FB
:100DE0000000C4F20200006800F002010020B0EB35
:100DF000510F04D1FFE701208DF80F0091E0FFE7CC
:100E0000FFE741F20401C4F20201086820F0030088
:100E1000029A526810430860FFF792FE0090FFE7C5
:100E200041F20400C4F20200006800F00C000299D4
:100E30004968B0EB810F0ED0FFE7FFF781FE009904
:100E4000401A41F28931884204D3FFE703208DF82C
:100E50000F0066E0E4E7FFE7019842F20001C4F208
:100E60000201096801F00F01884216D2FFE742F241
:100E70000000C4F20200016821F00F01019A114341
:100E80000160006800F00F000199884204D0FFE77C
:100E900001208DF80F0044E0FFE70298007840073A
:100EA00000280CD5FFE741F20401C4F202010868F2
:100EB00020F4E060029AD26810430860FFE70298CD
:100EC0000078000700280DD5FFE741F20401C4F2C5
:100ED0000201086820F46050029A126940EAC200D8
:100EE0000860FFE700F04CF841F20401C4F202018F
:100EF0000968C9B20A0942F6DA61C0F60001895CE4
:100F0000C84040F20001C2F20001086040F2100047
:100F1000C2F200000068FFF733FE00208DF80F00DA
:100F2000FFE79DF80F0004B080BD000040F2000014
:100F3000C2F200000068704780B5FFF7F7FF41F28A
:100F40000401C4F202010968C1F3022242F6EA6117
:100F5000C0F60001895CC84080BD000080B5FFF785
:100F6000E5FF41F20401C4F202010968C1F3C222A3
:100F700042F6EA61C0F60001895CC84080BD00000D
:100F800080B598B042F69A61C0F6000108A84022E8
:100F9000FFF7EAF840F20120ADF81E0000200690AD
:100FA000059004900390029041F20400C4F2020004
:100FB00000680690069800F00C0001460191002898
:100FC0004AD0FFE70198042804D0FFE701980828D9
:100FD00006D042E042F20040C0F2F400029042E04B
:100FE000069901F0C04001F47011400E40EA9141B1
:100FF00008A8405C0390069800F44030B0F5803FAC
:1010000007D0FFE7069800F44030B0F5403F18D114
:10101000FFE741F20400C4F20200006800F400316E
:101020000DF11E0040EA514000780590039842F20D
:101030000041C0F2F40148430599B0FBF1F004907F
:1010400007E0039841F20021C0F27A01484304907E
:10105000FFE70498029006E0FFE741F20020C0F2AB
:101060007A000290FFE7029818B080BD80B586B084
:101070000490049820B9FFE701208DF81700D4E30D
:1010800004980078C007002800F0D680FFE741F2FE
:101090000400C4F20200006800F00C00042820D014
:1010A000FFE741F20400C4F20200006800F00C0007
:1010B00008282BD1FFE741F20400C4F202000068C7
:1010C00000F48030B0F5803F0BD0FFE741F2040020
:1010D000C4F20200006800F48030B0F5403F15D142
:1010E000FFE741F20000C4F20200006800F40031A2
:1010F0000020B0EB514F08D0FFE70498406820B9BA
:10110000FFE701208DF817008FE394E00498406812
:10111000B0F5803F0CD1FFE741F23801C4F2020183
:10112000086820F44070049A926810430860FFE752
:10113000FFE704984068B0F5803F09D1FFE741F22E
:101140000001C4F20201086840F48030086032E017
:101150000498406868B9FFE741F20001C4F2020157
:10116000086820F480300860086820F48020086057
:1011700020E004984068B0F5A02F0DD1FFE741F2C0
:101180000001C4F20201086840F480200860086889
:1011900040F4803008600CE041F20001C4F202012A
:1011A000086820F480300860086820F48020086017
:1011B000FFE7FFE7FFE7FFE704984068E8B1FFE7D4
:1011C000FFF7BEFC0390FFE741F20000C4F202000B
:1011D000006800F400310020B0EB514F0CD1FFE764
:1011E000FFF7AEFC0399401A652804D3FFE70320FC
:1011F0008DF8170019E3E7E71CE0FFF7A1FC039067
:10120000FFE741F20000C4F20200006800F4003180
:101210000020B0EB514F0CD0FFE7FFF791FC039992
:10122000401A652804D3FFE703208DF81700FCE27D
:10123000E7E7FFE7FFE7FFE704980078800700286B
:1012400040F19080FFE741F20400C4F20200006820
:1012500010F00C0F20D0FFE741F20400C4F20200AE
:10126000006800F00C0008282CD1FFE741F20400D0
:10127000C4F20200006800F48030B0F5803F21D055
:10128000FFE741F20400C4F20200006800F480307D
:10129000B0F5403F16D0FFE741F20000C4F2020073
:1012A000006800F002010020B0EB510F09D0FFE709
:1012B00004984069012804D0FFE701208DF8170049
:1012C000B3E24EE00498406928B3FFE741F2000121
:1012D000C4F20201086840F001000860FFF730FC2A
:1012E0000390FFE741F20000C4F20200006800F042
:1012F00002010020B0EB510F0CD1FFE7FFF720FCFB
:101300000399401A032804D3FFE703208DF8170040
:101310008BE2E7E724E041F20001C4F20201086831
:1013200020F001000860FFF70BFC0390FFE741F29B
:101330000000C4F20200006800F002010020B0EBDF
:10134000510F0CD0FFE7FFF7FBFB0399401A03286E
:1013500004D3FFE703208DF8170066E2E7E7FFE715
:10136000FFE7FFE704980078C00600284FD5FFE7A5
:101370000498806928B3FFE741F22801C4F2020112
:10138000086840F010000860FFF7DAFB0390FFE701
:1013900041F22800C4F20200006800F020010020A1
:1013A000B0EB511F0CD1FFE7FFF7CAFB0399401ABE
:1013B000032804D3FFE703208DF8170035E2E7E7A1
:1013C00024E041F22801C4F20201086820F0100074
:1013D0000860FFF7B5FB0390FFE741F22800C4F275
:1013E0000200006800F020010020B0EB511F0CD07B
:1013F000FFE7FFF7A5FB0399401A032804D3FFE793
:1014000003208DF8170010E2E7E7FFE7FFE70498F5
:1014100000780007002852D5FFE70498C06940B360
:10142000FFE741F22401C4F20201086840F0010024
:101430000860FFF785FB0390FFE741F22400C4F248
:101440000200006800F002010020B0EB510F0CD147
:10145000FFE7FFF775FB0399401A032804D3FFE762
:1014600003208DF81700E0E1E7E7012000F050FDD0
:1014700024E041F22401C4F20201086820F00100D6
:101480000860FFF75DFB0390FFE741F22400C4F220
:101490000200006800F002010020B0EB510F0CD0F8
:1014A000FFE7FFF74DFB0399401A032804D3FFE73A
:1014B00003208DF81700B8E1E7E7FFE7FFE704989E
:1014C00000784007002840F1EF80FFE700208DF80A
:1014D000070041F21C00C4F202000068C0000028AE
:1014E00013D4FFE7FFE741F21C00C4F202000168D9
:1014F00041F080510160006800F080500090009839
:10150000FFE701208DF80700FFE747F20000C4F273
:1015100000000068C005002822D4FFE747F2000160
:10152000C4F20001086840F480700860FFF708FB0F
:101530000390FFE747F20000C4F200000068C00516
:1015400000280CD4FFE7FFF7FBFA0399401A65283F
:1015500004D3FFE703208DF8170066E1EAE7FFE711
:101560000498C06801280CD1FFE741F22001C4F2C1
:101570000201086820F01800049A126910430860FC
:10158000FFE7FFE70498C068012809D1FFE741F2AF
:101590002001C4F20201086840F00100086031E057
:1015A0000498C06868B9FFE741F22001C4F2020163
:1015B000086820F001000860086820F00400086056
:1015C0001FE00498C06805280DD1FFE741F2200113
:1015D000C4F20201086840F004000860086840F0A6
:1015E000010008600CE041F22001C4F20201086829
:1015F00020F001000860086820F004000860FFE7A0
:10160000FFE7FFE7FFE70498C068F8B1FFE7FFF7DF
:1016100097FA0390FFE741F22000C4F2020000684D
:1016200000F002010020B0EB510F0ED1FFE7FFF7F1
:1016300087FA0399401A41F28931884204D3FFE7BF
:1016400003208DF81700F0E0E5E71EE0FFF778FAD9
:101650000390FFE741F22000C4F20200006800F0AE
:1016600002010020B0EB510F0ED0FFE7FFF768FA40
:101670000399401A41F28931884204D3FFE70320DD
:101680008DF81700D1E0E5E7FFE79DF80700012896
:1016900009D1FFE741F21C01C4F20201086820F001
:1016A00080500860FFE7FFE70498006A002800F018
:1016B000B880FFE741F20400C4F20200006800F0C5
:1016C0000C00082800F08580FFE70498006A0228D3
:1016D00059D1FFE741F20001C4F20201086820F08D
:1016E00080700860FFF72CFA0390FFE741F20000DA
:1016F000C4F20200006800F000710020B0EB516FEE
:101700000CD0FFE7FFF71CFA0399401A032804D313
:10171000FFE703208DF8170087E0E7E741F20401B7
:10172000C4F2020108684FF6FF72C9F6C072104099
:10173000049B5A6A9B6A1A431043086041F20001F5
:10174000C4F20201086840F080700860FFF7F8F901
:101750000390FFE741F20000C4F20200006800F0CD
:1017600000710020B0EB516F0CD1FFE7FFF7E8F9F3
:101770000399401A032804D3FFE703208DF81700CC
:1017800053E0E7E724E041F20001C4F202010868F7
:1017900020F080700860FFF7D3F90390FFE741F273
:1017A0000000C4F20200006800F000710020B0EBFD
:1017B000516F0CD0FFE7FFF7C3F90399401A0328D4
:1017C00004D3FFE703208DF817002EE0E7E7FFE7DB
:1017D00026E00498006A012804D1FFE701208DF873
:1017E000170022E041F20400C4F2020000680290F7
:1017F000029800F480300499496A88420AD1FFE7D0
:1018000002980021C6F23C0108400499896A884286
:1018100004D0FFE701208DF8170006E0FFE7FFE79F
:10182000FFE700208DF81700FFE79DF8170006B0CE
:1018300080BD00007047000080B582B00190019823
:1018400000F086FB02B080BD80B5FFF7F3FF80BDDE
:1018500080B584B0039000200290FFE7029804282E
:1018600033DCFFE70298C0EB401141F63C10C2F2B6
:10187000000000EB81000399884221D1FFE7029824
:10188000C0EB401141F63C10C2F2000000EB8100B9
:1018900001900199886F013088670199002081F8D3
:1018A0006C00019981F86D000198406E38B1FFE736
:1018B00001999DF808004A6E896E9047FFE704E0A1
:1018C000FFE7029801300290C8E704B080BD000035
:1018D00080B588B007900798006800680690079860
:1018E0000068C0680590079800684069049000206F
:1018F00003900290069800F00F000390039888B9B7
:10190000FFE79DF81800800600280AD5FFE79DF83C
:1019100014008006002804D5FFE7079800F0F4FBC8
:10192000EFE0FFE70398002800F0AE80FFE79DF8A6
:101930001000C00738B9FFE7BDF8140010F4907F1D
:1019400000F0A280FFE79DF81800C00758B1FFE73C
:101950009DF81500C00730B1FFE70799886C40F08B
:1019600001008864FFE79DF81800400700280BD5A8
:10197000FFE79DF81000C00730B1FFE70799886CBA
:1019800040F002008864FFE79DF8180080070028F7
:101990000BD5FFE79DF81000C00730B1FFE70799AE
:1019A000886C40F004008864FFE79DF81800000789
:1019B00000280BD5FFE79DF81000C00730B1FFE706
:1019C0000799886C40F008008864FFE70798806CEE
:1019D000002858D0FFE79DF81800800600280AD597
:1019E000FFE79DF814008006002804D5FFE707985C
:1019F00000F08AFBFFE7079800684069C0F3801099
:101A000002900798806C0007002803D4FFE7029833
:101A100088B3FFE7079800F04FFB0798006840691C
:101A20004006002822D5FFE707980168486920F0A2
:101A3000400048610798006C98B1FFE70798016C77
:101A400042F29900C0F6000048630798006CFEF768
:101A500021FD28B1FFE70798006C416B8847FFE73D
:101A600003E00798FFF7F4FEFFE703E00798FFF7AE
:101A7000EFFEFFE706E00798FFF7EAFE0799002070
:101A80008864FFE7FFE73CE09DF81800C0060028E7
:101A900017D5FFE79DF81400C006002811D5FFE711
:101AA000FFE7002001900798006800680190079800
:101AB0000068406801900198FFE7079800F024F85B
:101AC000FFE79DF81800000600280AD5FFE79DF8FB
:101AD00014000006002804D5FFE7079800F058FC22
:101AE0000FE09DF81800400600280AD5FFE79DF892
:101AF00014004006002804D5FFE7079800F0F0FA2C
:101B0000FFE708B080BD000081B0009001B07047D1
:101B100080B582B00090009820B9FFE701208DF8D1
:101B2000070046E00098806908B1FFE700E0FFE7A2
:101B3000009890F8450040B9FFE70099002081F82F
:101B40004400009800F03AF8FFE70099242081F85B
:101B5000450000980168C86820F40050C8600098EB
:101B600000F02EFB0098006A20B1FFE7009800F01B
:101B70006BFAFFE700980168086920F4904008615B
:101B800000980168486920F02A00486100980168BF
:101B9000C86840F40050C860009900208864009A2A
:101BA000202182F84510009A82F846108DF807002F
:101BB000FFE79DF8070002B080BD000080B58CB043
:101BC0000B9000200A9009900890079006900B98BF
:101BD000006844F20041C4F20001884237D1FFE7B7
:101BE000FFE741F23400C4F20200016841F0040151
:101BF0000160006800F0040005900598FFE7FFE72A
:101C000041F21C00C4F20200016841F4003101609D
:101C1000006800F4003004900498FFE70420069068
:101C20000220019007900121089109900A904FF03D
:101C30009040029006A90391FEF7DAFD019A0298FE
:101C40000399082306930A92FEF7D2FDFFE70CB032
:101C500080BD000084B002900191ADF8022002988E
:101C600090F8460020284AD1FFE7019820B1FFE70D
:101C7000BDF8020020B9FFE701208DF80F0042E017
:101C8000FFE7029890F84400012804D1FFE7022002
:101C90008DF80F0037E00299012081F84400FFE73A
:101CA000FFE7019802994863BDF80200029908878E
:101CB000BDF80200029948870299002088640299C1
:101CC000222081F84600FFE70299002081F84400B5
:101CD000FFE702980168C86840F48070C860029805
:101CE0000168486940F00100486102980168C868CD
:101CF00040F02000C86000208DF80F0003E00220B3
:101D00008DF80F00FFE79DF80F0004B0704700004A
:101D100080B584B0039000200290FFE70298042869
:101D20002CDCFFE70298C0EB401141F63C10C2F2F8
:101D3000000000EB8100039988421AD1FFE7029866
:101D4000C0EB401141F63C10C2F2000000EB8100F4
:101D500001900199002081F86D000198406D38B123
:101D6000FFE701999DF808004A6D896D9047FFE7EC
:101D700004E0FFE7029801300290CFE704B080BD95
:101D800084B002900191ADF80220029890F84500CD
:101D900020283ED1FFE7019820B1FFE7BDF80200FF
:101DA00020B9FFE701208DF80F0036E0FFE7029829
:101DB00090F84400012804D1FFE702208DF80F00BD
:101DC0002BE00299012081F84400FFE7FFE701982A
:101DD0000299C862BDF8020002990886BDF80200A7
:101DE000029948860299002088640299212081F88E
:101DF0004500FFE70299002081F84400FFE70298C0
:101E00000168C86840F08000C86000208DF80F00AD
:101E100003E002208DF80F00FFE79DF80F0004B0EB
:101E20007047000080B584B0039000200290FFE767
:101E3000029804282CDCFFE70298C0EB401141F621
:101E40003C10C2F2000000EB8100039988421AD1D5
:101E5000FFE70298C0EB401141F63C10C2F20000CF
:101E600000EB810001900199002081F86C0001983D
:101E7000C06C38B1FFE701999DF80800CA6C096D84
:101E80009047FFE704E0FFE7029801300290CFE7B8
:101E900004B080BDFFE7FEE7FFE7FEE77047000004
:101EA00088B0079006910592079800F0070004900B
:101EB0000498C0F10700042803D3FFE70320019032
:101EC00004E00498C0F107000190FFE70198039037
:101ED00004980330062803D8FFE70020009003E0B1
:101EE000049804380090FFE7009802900698039940
:101EF000012202FA01F101390840029B984005993C
:101F00009A40013A1140084308B0704770470000FA
:101F100082B00190019840F20001C2F2000109680C
:101F2000C90844F6D352C1F26202A1FB0221890919
:101F300048430090FFE700BFFFE70098411E009173
:101F40000028F8D1FFE702B070470000704700009A
:101F500080B584B0029002980138B0F1807F03D33D
:101F6000FFE7012003901AE0029801384EF21401B5
:101F7000CEF2000108604FF0FF300721019100F020
:101F800081FA01994EF21802CEF200020020106090
:101F90004EF21002CEF2000211600390FFE70398A8
:101FA00004B080BD80B5FEF7D1FDFFF74DFC0120E8
:101FB00000F02AFB80BD000080B592B007A8019018
:101FC0002C21FEF7EAF80198002306930593049369
:101FD000039302931F2107914FF4803108914FF42E
:101FE0004072099210220D9201220C920A930E92D5
:101FF00002220F9210914FF4E0111191FFF736F881
:1020000018B1FFE7FEF7F4F8FFE70F200290022077
:1020100003900020049005904FF48060069002A881
:102020000621FEF751FE18B1FFE7FEF7E1F8FFE7E2
:1020300012B080BD4EF60851CEF200014FF00060A4
:10204000086070477047000081B00090009890F8D9
:102050002000400600281CD5FFE700980068406972
:1020600020F48050009A1168526A10434861009829
:10207000406AB0F5805F0BD1FFE7009800684069C7
:1020800020F4C040009A1168926A10434861FFE74B
:10209000FFE701B07047000080B582B00190019861
:1020A000406A00900099002048870099488600986F
:1020B000FFF7CEFB02B080BD81B0009000980168B0
:1020C000C86820F49070C86000980168486920F0E2
:1020D000010048610099202081F8460001B0704756
:1020E00080B582B0019001980168C86820F0400076
:1020F000C8600199202081F845000198FFF792FE01
:10210000002002B080BD000080B584B0029002982B
:1021100090F8460022284AD1FFE702988068B0F57F
:10212000805F13D1FFE70298006978B9FFE7029852
:10213000406B01900298006840686FF35F2001993E
:1021400008800299486B0230486308E002980068F2
:102150004068029B596B4A1C5A630870FFE702995A
:10216000488F013848870004E8B9FFE70298016802
:10217000C86820F02000C86002980168C86820F490
:102180008070C86002980168486920F001004861C9
:102190000299202081F846000298FFF7B9FD00203F
:1021A0008DF80F0007E000208DF80F0003E00220FB
:1021B0008DF80F00FFE79DF80F0004B080BD000010
:1021C00080B584B0039003980068006920F4405003
:1021D000039A1168D26810430861039988680A69F4
:1021E000496910430843029003980068C06841F2AF
:1021F0000C6188430299084303990968C8600398F1
:102200000068406920F44070039A11689269104395
:10221000486103980068406920F40060039A1168DF
:10222000D269104348610398C069B0F5006F58D176
:10223000FFE70398006843F60001C4F201018842F9
:1022400027D1FFE7FEF78AFE019001981921484344
:10225000039A116852685200B0FBF2FE48F21F5315
:10226000C5F2EB13AEFB0320420910014FF0640CE2
:1022700002FB1CEC322202EBCC02A2FB0332F8235D
:1022800003EA521300EB4300C2F342121044886089
:1022900026E0FEF751FE0190019819214843039A68
:1022A000116852685200B0FBF2FE48F21F53C5F2AB
:1022B000EB13AEFB0320420910014FF0640C02FB4C
:1022C0001CEC322202EBCC02A2FB0332F82303EA1D
:1022D000521300EB4300C2F3421210448860FFE740
:1022E00053E00398006843F60001C4F201018842FC
:1022F00025D1FFE7FEF732FE0190019819214843EE
:10230000039A116852689200B0FBF2FC48F21F5227
:10231000C5F2EB12ACFB02304309642003FB10CC86
:10232000322000EB0C10A0FB0202F02000EA521059
:1023300000EB0310C2F343121044886024E0FEF760
:10234000FBFD0190019819214843039A11685268D6
:102350009200B0FBF2FC48F21F52C5F2EB12ACFB4C
:1023600002304309642003FB10CC322000EB0C1038
:10237000A0FB0202F02000EA521000EB0310C2F3AF
:10238000431210448860FFE7FFE704B080BD0000FF
:1023900084B00290029890F8450021283ED1FFE7D2
:1023A00002988068B0F5805F13D1FFE7029800695A
:1023B00078B9FFE70298C06A0190019800886FF32E
:1023C0005F200299096848600299C86A0230C862B1
:1023D0000CE00298C06A00900098007802990968A1
:1023E00048600299C86A0130C862FFE70299488EC6
:1023F00001384886000468B9FFE702980168C86898
:1024000020F08000C86002980168C86840F0400071
:10241000C860FFE700208DF80F0003E002208DF870
:102420000F00FFE79DF80F0004B0704780B541F63C
:102430003C10C2F200007C30FFF74AFA80BD000079
:10244000FFE7FEE781B08DF803009DF90300002847
:102450000ED4FFE79DF9031001F01F020120904008
:102460004A094EF20011CEF2000141F82200FFE7C6
:1024700001B070474EF60C50CEF200000068C0F379
:102480000220704782B08DF8070000919DF9070087
:1024900000280AD4FFE7009840019DF907104EF28A
:1024A0000042CEF2000288540BE0009840019DF8F3
:1024B000071001F00F014EF61452CEF200028854BC
:1024C000FFE702B07047000083B00290029800F06E
:1024D000070000904EF60C51CEF200010868019002
:1024E00001984FF6FF02104001900198009A40EACF
:1024F00002200022C0F2FA521043019001980860B5
:1025000003B0704782B08DF803009DF803000528E2
:1025100003DBFFE7002001900BE09DF80300C0EB18
:10252000401141F63C10C2F2000000EB8100019026
:10253000FFE7019802B0704780B582B08DF80700C0
:102540009DF807000F2817DCFFE79DF8071041F6FC
:102550002C00C2F2000000EB0110406860B1FFE700
:102560009DF8071041F62C00C2F2000000EB0110AC
:10257000416880688847FFE702B080BD80B584B0BD
:102580008DF80F009DF80F00FFF7BCFF0290029935
:102590000020019039B1FFE702980068002818BFB9
:1025A00001200190FFE7019800F0010004B080BD18
:1025B00080B5FEF7D9FAFFF7FFFC00F033FB0020EF
:1025C00080BD000083B08DF8070040F21800C2F211
:1025D000000000680090FFE7009870B1FFE70098E6
:1025E000007B9DF80710884203D1FFE70098029016
:1025F00006E0009800680090EEE700200290FFE7F8
:10260000029803B07047000080B586B0ADF80E00A8
:10261000EFF3108072B60590BDF80E2041F6301130
:10262000C2F2000108681044086062B641F6381032
:10263000C2F200000068002872D0FFE741F63810AF
:10264000C2F200000068029000200190FFE70298AB
:10265000002864D0FFE700200090EFF3108072B6EE
:10266000049002988088BDF80E10884204DCFFE7D1
:1026700002990020888006E002998888BDF80E2023
:10268000801A8880FFE70298808888B9FFE702985F
:10269000408968B1FFE70298C08848B1FFE7029916
:1026A000087AC98800F0E2F9029948898880FFE732
:1026B0000298808820B1FFE70298C088B0B9FFE790
:1026C000019840B9FFE70298006841F63811C2F25C
:1026D0000001086004E00298006801990860FFE7C3
:1026E0000298009002980068029005E0029801901C
:1026F000029800680290FFE762B6009870B1FFE7A9
:102700000098808830B9FFE70099087AC98800F0FE
:10271000ADF9FFE7009800F021F9FFE797E7FFE741
:1027200006B080BD80B586B0ADF8120000208DF8EF
:10273000050041F63410C2F200000078E22803D010
:10274000FFE700F049F9FFE7BDF812000430ADF8EB
:102750001200BDF8120000F003008DF804009DF88F
:10276000040048B1FFE79DF80410BDF81200401ABC
:102770000430ADF81200FFE7EFF3108072B6059059
:10278000BDF81200102807DCFFE741F62400C2F272
:1027900000000068029006E041F62800C2F2000046
:1027A00000680290FFE702980068ADF80600FFE7B6
:1027B000BDF80600000400280AD5FFE7BDF80600B2
:1027C00080F40040ADF8060000208DF8050035E0EB
:1027D0009DF8050018B3FFE741F61C01C2F20001A5
:1027E00008880138088041F61E01C2F200010888FD
:1027F000013808800298026803990868104408604C
:1028000003980068BDF81210884207D3FFE70398C9
:10281000029002980068ADF8060024E00DE0BDF8D3
:102820000600BDF81210884201DBFFE71BE0012023
:102830008DF8050002980390FFE7FFE70298BDF8C6
:1028400006100844029002980068ADF80600BDF832
:10285000060018B9FFE70020029004E0FFE701201E
:102860000028A5D1FFE70298002872D0FFE7BDF845
:102870001210BDF80600401AADF80600BDF80600BB
:10288000042834DBFFE70298BDF8121008440090DA
:10289000BDF8060000990860BDF8120040F4004041
:1028A0000299086041F61C01C2F20001088801305B
:1028B000088041F62000C2F20000008809888842A2
:1028C0000BDAFFE741F61C00C2F20000008841F677
:1028D0002001C2F200010880FFE7BDF8122041F696
:1028E0002C11C2F2000108881044088015E00298FB
:1028F000026841F62C11C2F20001088810440880D9
:1029000041F61E01C2F200010888013808800299D0
:10291000086840F400400860FFE741F62E10C2F25C
:102920000000008841F62C11C2F20001098888429B
:102930000BDAFFE741F62C10C2F20000008841F6E6
:102940002E11C2F200010880FFE7029804300290C5
:10295000FFE762B6029806B080BD000080B584B083
:10296000029041F63410C2F200000078E22803D051
:10297000FFE700F031F8FFE7EFF3108072B6039045
:102980000298043801900199086820F4004008601A
:1029900041F62400C2F2000000680199884207D97C
:1029A000FFE7019841F62401C2F200010860FFE749
:1029B0000198026841F62C11C2F200010888801AC1
:1029C000088041F61E01C2F200010888013008802B
:1029D00062B604B080BD000080B584B040F208014A
:1029E000C2F200010091086841F2FC7210440390A9
:1029F000039A0020029010600A680392039BE82269
:102A00001A600968E8310391039A41F21471116068
:102A100041F63412C2F20002E2211170039941F62C
:102A20002402C2F2000201921160FFF77BFE0099BE
:102A3000019A0346029841F6280CC2F2000CCCF829
:102A400000300968116041F61E02C2F20002022144
:102A5000118041F61C02C2F20002118041F62C11D5
:102A6000C2F20001088004B080BD000080B584B0CF
:102A70008DF80A00ADF808109DF80A00FFF7A2FDD6
:102A80000190019860B1FFE7EFF3108072B60390F8
:102A9000BDF808200199C8891043C88162B603E0D7
:102AA00002208DF80B0003E001208DF80B00FFE7FA
:102AB0009DF80B0004B080BD80B582B08DF8060093
:102AC0009DF80600052804DBFFE7FE208DF80700CF
:102AD00017E09DF8061042F68470C0F60000405CD6
:102AE0008DF805009DF90500012100220092FEF7F6
:102AF000C9F89DF90500FEF7BBF800988DF80700AE
:102B0000FFE79DF9070002B080BD000080B582B0EC
:102B10000020ADF8000042F64170C0F6000000F061
:102B20008BF9FFE70DF1030006216A4600F000F97A
:102B3000C8B9FFE740F20400C2F2000000780DF1CE
:102B4000030106224FF47A7300F026F99DF8030082
:102B50000D2807D1FFE742F62970C0F6000000F00B
:102B60006BF904E0FFE70A20FDF720FEDAE702B088
:102B700080BD000080B584B08DF80E0002919DF8F4
:102B80000E00052804DBFFE7FE208DF80F0044E06F
:102B90009DF80E00C0EB401141F63C10C2F200005F
:102BA00000EB810001900198006820B1FFE7FD2053
:102BB0008DF80F0031E001987C21FDF7EEFA9DF8C9
:102BC0000E1042F67070C0F6000050F82100019916
:102BD0000860029801994860019900208860019975
:102BE000C86001990861019A0C21516101998861BD
:102BF0000199C861019908620198FEF789FF20B127
:102C0000FFE7FF208DF80F0007E09DF80E00FFF7AB
:102C100053FF00208DF80F00FFE79DF90F0004B06F
:102C200080BD000080B582B000F01AF818B1FFE74F
:102C3000FDF7DEFAFFE742F6F260C0F6000000F0B2
:102C4000FBF8FFF763FFFFE74FF47A70FDF7AEFD87
:102C500042F61570C0F6000000F0EEF8F4E7000050
:102C600080B582B040F20400C2F2000000784FF458
:102C7000E131FFF77FFF8DF806009DF9060028B1CE
:102C8000FFE79DF806008DF8070003E000208DF8AF
:102C90000700FFE79DF9070002B080BD80B586B050
:102CA0008DF816000491ADF80E2002939DF81600E1
:102CB000FFF764FC38B1FFE7049820B1FFE7BDF8E7
:102CC0000E0020B9FFE7FE208DF817002CE09DF8DC
:102CD0001600C0EB401141F63C10C2F2000000EBC0
:102CE00081000190019890F86D00C00720B1FFE7C6
:102CF000FD208DF8170017E001980499BDF80E200B
:102D0000FEF7A8FF8DF803009DF8030040B9FFE728
:102D10000199012081F86D0000208DF8170003E073
:102D2000FF208DF81700FFE79DF9170006B080BD62
:102D300080B586B00490ADF80E100292049820B1D0
:102D4000FFE7BDF80E0020B9FFE7FE208DF8170061
:102D50001EE040F20400C2F2000000780499BDF8C1
:102D60000E204FF0FF33FFF799FF8DF807009DF914
:102D7000070040B9FFE7029828B1FFE7BDF80E0051
:102D800002990880FFE79DF807008DF81700FFE71C
:102D90009DF9170006B080BD80B586B08DF816008D
:102DA0000491ADF80E2002939DF81600FFF7E6FBA4
:102DB00038B1FFE7049820B1FFE7BDF80E0020B955
:102DC000FFE7FE208DF8170032E09DF81600C0EBFB
:102DD000401141F63C10C2F2000000EB810001906E
:102DE000019890F86C00C00720B1FFE7FD208DF836
:102DF00017001DE001980499BDF80E20FEF7C0FFF2
:102E00008DF803009DF8030070B9FFE701990120D8
:102E100081F86C00BDF80E200199086F1044086716
:102E200000208DF8170003E0FF208DF81700FFE762
:102E30009DF9170006B080BD80B584B0029002985D
:102E400020B9FFE7FE208DF80F0013E00298FDF790
:102E5000AFF9ADF8060040F20400C2F200000078BD
:102E60000299BDF806204FF47A73FFF795FF8DF8AD
:102E70000F00FFE79DF90F0004B080BD02E008C815
:102E8000121F08C1002AFAD170477047002001E0E4
:102E900001C1121F002AFBD1704702030405060777
:102EA00008090A0B0C0D0E0F10111213141516172A
:102EB00018191A1B1C1D1E1F20212223242526271A
:102EC00028292A2B2C2D2E2F30313233343536370A
:102ED00038393A3B3C3D3E3F3F3F00000000000098
:102EE00000000102030406070809000000000102B7
:102EF000030448656C6C6F2066726F6D20554152FB
:102F0000543220496E74657272757074204D6F640E
:102F100065210D0A0053797374656D2072756E6EAC
:102F2000696E672E2E2E0D0A000D0A4563686F200C
:102F3000746573742066696E69736865642E0D0A22
:102F400000554152543220506F6C6C696E672045B9
:102F500063686F2054657374202D20547970652048
:102F6000736F6D657468696E673A0D0A0000000042
:102F7000003801400044004000480040004C004040
:102F8000005000402526273435000000B02F0008EF
:102F900000000020180000007C2E0008C82F000848
:102FA00018000020981F00008C2E00080000000070
:102FB00000127A00010000001C0000200100000047
:082FC000080000000000000001
:0400000508000131BD
:00000001FF
