:020000040800F2
:10000000507200204501000895620008B1460008C2
:1000100091620008B1080008496A00080000000069
:100020000000000000000000000000005163000814
:10003000310900080000000011630008A9630008EE
:1000400071010008710100087101000871010008C8
:10005000710100087101000835090008510A000803
:100060007D0A0008A90A0008D50A0008B50800089A
:10007000C908000871010008710100087101000839
:100080007101000871010008710100087101000888
:10009000710100087101000871010008010B0008DE
:1000A0007101000871010008710100087101000868
:1000B000496400087101000871010008C546000884
:1000C000B5460008E9460008D54600087101000859
:1000D0007101000871010008356A0008710100080B
:1000E0005D09000871010008710100087101000834
:1000F0007101000871010008710100087101000818
:100100007101000871010008710100087101000807
:1001100071010008710100087101000871010008F7
:10012000DD08000871010008710100087101000874
:10013000DFF80CD000F014FB0048004729780008D5
:10014000507200200B48016841F470010160BFF358
:100150004F8FBFF36F8F0848804708480047FEE77E
:10016000FEE7FEE7FEE7FEE7FEE7FEE7FEE7FEE767
:10017000FEE7000088ED00E0396400083101000866
:1001800010B5431A934209D28318881803E010F877
:10019000011D03F8011D521EF9D210BD40EA0103F2
:1001A0009B0703D009E008C9121F08C0042AFAD22D
:1001B00003E011F8013B00F8013B521EF9D210BDDB
:1001C000D2B201E000F8012B491EFBD27047002299
:1001D000F6E710B513460A4604461946FFF7F0FF46
:1001E000204610BD421C10F8011B0029FBD1801ACB
:1001F000704700F0004230F000400AD0C10D01F518
:100200006071C0F3160042EA0151C2084007114371
:10021000704700200146704701F0004330B421F0E0
:10022000004150EA010206D00A0DA2F56072C1F346
:100230001301002A02DC30BC00207047440F44EA5E
:10024000C104C100E01830BC00EBC25000F047B858
:1002500030B50B46014600202022012409E021FA96
:1002600002F59D4205D303FA02F5491B04FA02F593
:100270002844151EA2F10102F1DC30BD2DE9F05F2A
:100280000546002092469B46884606468146402405
:100290001BE0284641464746224600F088FA53466E
:1002A0005A46C01A914110D311461846224600F012
:1002B0006FFA2D1A67EB01084F46224601200021F4
:1002C00000F066FA17EB00094E41201EA4F101046C
:1002D000DFDC484631462A464346BDE8F09F002908
:1002E000A8BF7047401C490008BF20F001007047BC
:1002F00010B4B0FA80FC00FA0CF050EA010404BF1C
:1003000010BC704749B1CCF1200421FA04F411FA71
:100310000CF118BF012121430843A3EB0C01CB1DB5
:100320004FEA00614FEA102042BF002010BC704726
:1003300000EBC35010440029A4BF10BC7047401C00
:10034000490008BF20F0010010BC70472DE9FE4FA6
:10035000804681EA0300C00F0C46009021F0004166
:1003600023F00045B8EB0200A94105D240462146E2
:1003700090461C460B46024623F00040104347D0EF
:10038000270DC7F30A00C3F30A510290401A0190E7
:1003900040286BDAC3F3130040F4801B00989246A8
:1003A00020B10023D2EB030A63EB0B0B01985946F3
:1003B000C0F14002504600F0EBF906460D465046AB
:1003C0005946019A00F003FA10EB0800614100243D
:1003D00087EA115284EAE7731A4340D0009A62B365
:1003E000019A012A4FEA075215DC001B61EB02015A
:1003F0004FF0004202EA0752CDE90042001C41F5ED
:10040000801132462B4600F003FA03B0BDE8F08FAE
:1004100040462146F9E7001B61EB0201001C41F553
:10042000801300185B412018A2F5001747EB030169
:1004300040EAD570B6196D4111E06D084FEA3606F5
:1004400045EAC0754FEA0752001B61EB0201001C30
:1004500041F5801149084FEA3000001951413246F8
:100460002B4603B0BDE8F04F00F0C3B9009801225D
:1004700040000023D0EB020263EBE07300982146BA
:100480004FEAE074B8EB000061EB0401E9E783F0A8
:1004900000435BE781F0004158E72DE9FE4F81EA18
:1004A000030404F0004421F0004100944FF0000BDD
:1004B00023F0004350EA01045ED052EA03045BD00B
:1004C000C3F30A54C1F30A552C44A4F2F334019443
:1004D000A0FB0254C1F3130141F48011C3F31303D1
:1004E00043F4801301FB024400FB034E840A970A85
:1004F00044EA815447EA8357A4FB076802958D0AB2
:1005000005FB07854FEA932C04FB0C542705029D3D
:100510004FEA065847EA1637B5EB08056EEB070CAD
:10052000870E920E47EA811742EA8312A7FB020167
:10053000B6EB0B0164EB00042B0D43EA0C335E18A1
:1005400044EB1C50DA465146E7FB0201C5F31304A5
:100550004FEA0B3343EA14534FEA0432019C43EA57
:100560000603A4F10C040294009CCDE900B400F051
:100570004FF903B0BDE8F08F00200146F9E72DE9FF
:10058000F04D81EA030404F0004B21F000451446CD
:100590004FF0000A23F0004150EA050220D054EA4F
:1005A00001021DD0C5F30A570246C5F31303C1F378
:1005B0001300C1F30A5640F4801543F48013A7EBEF
:1005C0000608101BD64608F2FD3873EB050002D36F
:1005D00008F1010801E092185B41B8F1000F03DA5D
:1005E00000200146BDE8F08D00204FF48011064642
:1005F00084460EE0171B73EB050705D3121B63EB54
:10060000050306434CEA010C49084FEA30009218F2
:100610005B4150EA0107EDD152EA030012D082EAB1
:10062000040083EA0501084305D0101BAB4106D244
:100630000122002306E000224FF0004302E06FF0A9
:10064000010253101AEB06004CEB085110EB0A00A4
:1006500041EB0B01BDE8F04D00F0CBB82DE9F04DBA
:1006600000231A461B1A8A4103DB00200146BDE81D
:10067000F08DC1F30A52C1F3130141F480154FF01C
:10068000000BD10702D100186D41521E002704460D
:1006900040F2FF11384601EB620A3E4680460246B0
:1006A00000204FF4801100F082F8C2197141BB188C
:1006B00046EB0100B4EB030C75EB000C04D3E41A19
:1006C00065EB000517460E46241908F101006D413F
:1006D00080463428E3DDF91946EB0600091BA841E2
:1006E00003D24FF0FF32134601E0002213461BEB0A
:1006F000070046EB0A51BDE8F04D00F07AB8C1F3AF
:100700000A52C1F3130140F2FF3341F480119A42BF
:1007100002DA00200146704740F233439A42A2F2C7
:10072000334202DC524200F042B800F031B800001F
:1007300030B5041E71F1000404DB4FF00044404268
:1007400064EB0101141E73F1000405DB1C464FF03D
:100750000043524263EB0403994208BF904230BD0C
:100760001CB509480090094801900546009C06E028
:10077000E06840F0010394E8070098471034AC4269
:10078000F6D3FFF7D9FC0000F0B1000810B2000862
:10079000202A04DB203A00FA02F100207047914041
:1007A000C2F1200320FA03F3194390407047202A36
:1007B00004DB203A21FA02F00021704721FA02F30B
:1007C000D040C2F120029140084319467047202AC8
:1007D00006DBCB17203A41FA02F043EAE07306E069
:1007E00041FA02F3D040C2F1200291400843194679
:1007F000704710B5141E73F1000408DA401C41F173
:10080000000192185B411A4301D120F0010010BD94
:100810002DE9F04D92469B4611B1B1FA81F202E00A
:10082000B0FA80F220329046FFF7B2FF04460F463E
:1008300040EA0A0041EA0B0153465A46084313D0E6
:10084000114653EA010019D0C8F140025046FFF7A3
:10085000AEFF05460E46504659464246FFF798FF02
:10086000084305D0012004E020463946BDE8F08D5C
:100870000020054346EAE0762C4337430A98630597
:10088000E40AA0EB08000022FD0A44EA47540A30BB
:1008900002D500200146E9E7010510196941DDE9AB
:1008A000084500196941BDE8F04DA2E7FFE7FEE702
:1008B000FFE7FEE780B543F64800C2F20000D0F83B
:1008C000700500F021FC80BD80B543F64800C2F2FF
:1008D0000000D0F8740500F017FC80BD70470000E0
:1008E00084B003900291019200930398C16B026C53
:1008F0000120904048600098039909684860039877
:100900004068102809D1FFE70198039909688860B9
:10091000029803990968C86008E002980399096879
:100920008860019803990968C860FFE704B07047C0
:100930007047000080B540F21440C4F20100006826
:10094000C00750B1FFE7002006F0E2FD40F214417D
:10095000C4F2010101200860FFE780BD80B540F2CC
:100960001440C4F201000068400500280BD5FFE7E1
:100970000A2006F0CDFD40F21441C4F201014FF40B
:1009800080600860FFE740F21440C4F20100006894
:10099000000500280BD5FFE70B2006F0B9FD40F25B
:1009A0001441C4F201014FF400600860FFE740F217
:1009B0001440C4F201000068C00400280BD5FFE712
:1009C0000C2006F0A5FD40F21441C4F201014FF4E1
:1009D00080500860FFE740F21440C4F20100006854
:1009E000800400280BD5FFE70D2006F091FD40F2B2
:1009F0001441C4F201014FF400500860FFE740F2D7
:100A00001440C4F201000068400400280BD5FFE741
:100A10000E2006F07DFD40F21441C4F201014FF4B6
:100A200080400860FFE740F21440C4F20100006813
:100A3000000400280BD5FFE70F2006F069FD40F207
:100A40001441C4F201014FF400400860FFE780BD8B
:100A500080B540F21440C4F201000068800700280D
:100A60000AD5FFE7012006F053FD40F21441C4F21D
:100A7000010102200860FFE780BD000080B540F260
:100A80001440C4F201000068400700280AD5FFE7BF
:100A9000022006F03DFD40F21441C4F201010420A1
:100AA0000860FFE780BD000080B540F21440C4F24A
:100AB00001000068000700280AD5FFE7032006F0C0
:100AC00027FD40F21441C4F2010108200860FFE74D
:100AD00080BD000080B540F21440C4F201000068FF
:100AE000C00600280AD5FFE7042006F011FD40F2F9
:100AF0001441C4F2010110200860FFE780BD00002E
:100B000080B540F21440C4F201000068800600285D
:100B10000AD5FFE7052006F0FBFC40F21441C4F2C1
:100B2000010120200860FFE740F21440C4F20100F8
:100B30000068400600280AD5FFE7062006F0E8FC1A
:100B400040F21441C4F2010140200860FFE740F286
:100B50001440C4F201000068000600280AD5FFE72F
:100B6000072006F0D5FC40F21441C4F201018020B8
:100B70000860FFE740F21440C4F201000068C005BD
:100B800000280BD5FFE7082006F0C2FC40F2144114
:100B9000C4F201014FF480700860FFE740F2144096
:100BA000C4F201000068800500280BD5FFE709208A
:100BB00006F0AEFC40F21441C4F201014FF40070A3
:100BC0000860FFE780BD000083B0019000208DF831
:100BD0000300019890F8210002280DD0FFE7019949
:100BE00004208863FFE70199002081F82000FFE7D7
:100BF00001208DF80B0021E001980168086820F0C1
:100C00000E00086001980168086820F00100086083
:100C10000198C16B026C012090404860FFE7019988
:100C2000012081F82100FFE70199002081F82000D0
:100C3000FFE79DF803008DF80B00FFE79DF80B0020
:100C400003B0704780B596B0159000208DF8530022
:100C5000159890F82100022807D0FFE71599042085
:100C6000886301208DF8530074E1159801680868C5
:100C700020F00E00086015980168086820F0010057
:100C80000860159800688121C4F202018842C0F012
:100C9000A880FFE7159800680821C4F20201884285
:100CA00003D1FFE70120139094E0159800681C2100
:100CB000C4F20201884203D1FFE71020129086E0BF
:100CC000159800683021C4F20201884204D1FFE780
:100CD0004FF48070119077E0159800684421C4F2B9
:100CE0000201884204D1FFE74FF48050109068E081
:100CF000159800685821C4F20201884204D1FFE728
:100D00004FF480300F9059E0159800686C21C4F2C0
:100D10000201884204D1FFE74FF480100E904AE0B0
:100D2000159800688021C4F20201884204D1FFE7CF
:100D30004FF080700D903BE01598006840F208413C
:100D4000C4F20201884203D1FFE701200C902CE09D
:100D50001598006840F21C41C4F20201884203D198
:100D6000FFE710200B901DE01598006840F230411D
:100D7000C4F20201884204D1FFE74FF480700A9068
:100D80000DE01598016840F24442C4F202024FF4AB
:100D90008030914208BF4FF480500A90FFE70A98D4
:100DA0000B90FFE70B980C90FFE70C980D90FFE776
:100DB0000D980E90FFE70E980F90FFE70F98109098
:100DC000FFE710981190FFE711981290FFE7129833
:100DD0001390FFE7139840F20441C4F20201086047
:100DE000A5E0159800680821C4F20201884203D1E9
:100DF000FFE70120099094E0159800681C21C4F2D7
:100E00000201884203D1FFE71020089086E0159880
:100E100000683021C4F20201884204D1FFE74FF498
:100E20008070079077E0159800684421C4F20201B1
:100E3000884204D1FFE74FF48050069068E015988F
:100E400000685821C4F20201884204D1FFE74FF440
:100E50008030059059E0159800686C21C4F20201B9
:100E6000884204D1FFE74FF4801004904AE01598BF
:100E700000688021C4F20201884204D1FFE74FF0EC
:100E8000807003903BE01598006840F20841C4F27E
:100E90000201884203D1FFE7012002902CE015985F
:100EA000006840F21C41C4F20201884203D1FFE70E
:100EB000102001901DE01598006840F23041C4F206
:100EC0000201884204D1FFE74FF4807000900DE0EA
:100ED0001598016840F24442C4F202024FF4803097
:100EE000914208BF4FF480500090FFE700980190B6
:100EF000FFE701980290FFE702980390FFE703984D
:100F00000490FFE704980590FFE705980690FFE737
:100F100006980790FFE707980890FFE70898099060
:100F2000FFE709980421C4F202010860FFE7159960
:100F3000012081F82100FFE71599002081F82000A9
:100F4000FFE71598406B20B1FFE71598416B884784
:100F5000FFE7FFE79DF8530016B080BD84B0039013
:100F600002910398006840F20741C4F202018842EE
:100F700010D8FFE7039800684FF6F871CBF6FD71C3
:100F800008444CF6CD41CCF6CC41A0FB0110000941
:100F9000019011E0039800684FF6F831CBF6FD712F
:100FA00008444CF6CD41CCF6CC41A0FB0101072012
:100FB00000EB11100190FFE7FFE741F21800C4F2C7
:100FC0000200016841F001010160006800F00100C9
:100FD00000900098FFE7019820F003000822C4F277
:100FE00001028058019901F003034FEAC30C7F23EB
:100FF00003FA0CF39843029B03FA0CF3184321F015
:101000000301885004B0704782B00090009820B966
:10101000FFE701208DF807006AE000980168086882
:1010200020F0010008600098016800200860009925
:101030000968486000990968886000990968C86073
:101040000098006840F20741C4F20201884218D8B3
:10105000FFE7009908684FF6F872CBF6FD7210446E
:101060004CF6CD42CCF6CC42A0FB02026FF003005E
:1010700000EA9200086400990020C4F20200C863EC
:1010800018E0009908684FF6F832CBF6FD7210446C
:101090004CF6CD42CCF6CC42A0FB02026FF003002E
:1010A00000EA92000864009940F20040C4F2020095
:1010B000C863FFE70098C16B026C01209040486054
:1010C0000099002088620099C8620099086300991D
:1010D000486300998863009981F82100FFE700992F
:1010E000002081F82000FFE700208DF80700FFE7CF
:1010F0009DF8070002B0704781B00090009890F80A
:10110000210001B07047000080B5ACB02B902B9847
:10111000C06B00682A902B980068006829902A9874
:101120002B99096CC8404007002840F17581FFE702
:101130009DF8A4004007002840F16E81FFE72B983E
:10114000006800688006002807D4FFE72B98016834
:10115000086820F004000860FFE72B9800688121F0
:10116000C4F202018842C0F0A880FFE72B98006813
:101170000821C4F20201884203D1FFE7042028902D
:1011800094E02B9800681C21C4F20201884203D12C
:10119000FFE74020279086E02B9800683021C4F2BA
:1011A0000201884204D1FFE74FF48060269077E087
:1011B0002B9800684421C4F20201884204D1FFE761
:1011C0004FF48040259068E02B9800685821C4F2C5
:1011D0000201884204D1FFE74FF48020249059E0B7
:1011E0002B9800686C21C4F20201884204D1FFE709
:1011F0004FF4800023904AE02B9800688021C4F2CD
:101200000201884204D1FFE74FF0806022903BE06A
:101210002B98006840F20841C4F20201884203D1D1
:10122000FFE7042021902CE02B98006840F21C413D
:10123000C4F20201884203D1FFE7402020901DE064
:101240002B98006840F23041C4F20201884204D178
:10125000FFE74FF480601F900DE02B98016840F28B
:101260004442C4F202024FF48020914208BF4FF47E
:1012700080401F90FFE71F982090FFE72098219063
:10128000FFE721982290FFE722982390FFE7239819
:101290002490FFE724982590FFE725982690FFE704
:1012A00026982790FFE727982890FFE7289840F294
:1012B0000441C4F202010860A5E02B9800680821EF
:1012C000C4F20201884203D1FFE704201E9094E09B
:1012D0002B9800681C21C4F20201884203D1FFE769
:1012E00040201D9086E02B9800683021C4F2020156
:1012F000884204D1FFE74FF480601C9077E02B9880
:1013000000684421C4F20201884204D1FFE74FF48F
:1013100080401B9068E02B9800685821C4F20201BD
:10132000884204D1FFE74FF480201A9059E02B98AF
:1013300000686C21C4F20201884204D1FFE74FF437
:10134000800019904AE02B9800688021C4F20201C5
:10135000884204D1FFE74FF0806018903BE02B9863
:10136000006840F20841C4F20201884203D1FFE75D
:10137000042017902CE02B98006840F21C41C4F226
:101380000201884203D1FFE7402016901DE02B9810
:10139000006840F23041C4F20201884204D1FFE704
:1013A0004FF4806015900DE02B98016840F24442A4
:1013B000C4F202024FF48020914208BF4FF48040F3
:1013C0001590FFE715981690FFE716981790FFE71E
:1013D00017981890FFE718981990FFE719981A9036
:1013E000FFE71A981B90FFE71B981C90FFE71C98DB
:1013F0001D90FFE71D981E90FFE71E980421C4F280
:1014000002010860FFE72B98C06A20B1FFE72B9824
:10141000C16A8847FFE7B7E12A982B99096CC84051
:101420008007002840F17F81FFE79DF8A400800736
:10143000002840F17881FFE72B980068006880065B
:1014400000280BD4FFE72B980168086820F00A00F9
:1014500008602B99012081F82100FFE72B98006894
:101460008121C4F202018842C0F0A880FFE72B98D6
:1014700000680821C4F20201884203D1FFE702207C
:10148000149094E02B9800681C21C4F20201884259
:1014900003D1FFE72020139086E02B9800683021CD
:1014A000C4F20201884204D1FFE74FF400701290A9
:1014B00077E02B9800684421C4F20201884204D1ED
:1014C000FFE74FF40050119068E02B980068582116
:1014D000C4F20201884204D1FFE74FF400301090BB
:1014E00059E02B9800686C21C4F20201884204D1B3
:1014F000FFE74FF400100F904AE02B98006880211E
:10150000C4F20201884204D1FFE74FF000700E9050
:101510003BE02B98006840F20841C4F20201884287
:1015200003D1FFE702200D902CE02B98006840F2D9
:101530001C41C4F20201884203D1FFE720200C9035
:101540001DE02B98006840F23041C4F2020188424D
:1015500004D1FFE74FF400700B900DE02B98016869
:1015600040F24442C4F202024FF40030914208BFFC
:101570004FF400500B90FFE70B980C90FFE70C988E
:101580000D90FFE70D980E90FFE70E980F90FFE784
:101590000F981090FFE710981190FFE711981290A4
:1015A000FFE712981390FFE713981490FFE7149841
:1015B00040F20441C4F202010860A5E02B980068E3
:1015C0000821C4F20201884203D1FFE702200A90F9
:1015D00094E02B9800681C21C4F20201884203D1D8
:1015E000FFE72020099086E02B9800683021C4F2A4
:1015F0000201884204D1FFE74FF40070089077E0C1
:101600002B9800684421C4F20201884204D1FFE70C
:101610004FF40050079068E02B9800685821C4F2FE
:101620000201884204D1FFE74FF40030069059E0F0
:101630002B9800686C21C4F20201884204D1FFE7B4
:101640004FF4001005904AE02B9800688021C4F206
:101650000201884204D1FFE74FF0007004903BE0A4
:101660002B98006840F20841C4F20201884203D17D
:10167000FFE7022003902CE02B98006840F21C4109
:10168000C4F20201884203D1FFE7202002901DE04E
:101690002B98006840F23041C4F20201884204D124
:1016A000FFE74FF4007001900DE02B98016840F2C5
:1016B0004442C4F202024FF40030914208BF4FF49A
:1016C00000500190FFE701980290FFE70298039015
:1016D000FFE703980490FFE704980590FFE705985B
:1016E0000690FFE706980790FFE707980890FFE746
:1016F00008980990FFE709980A90FFE70A980421E3
:10170000C4F202010860FFE7FFE72B99002081F88F
:101710002000FFE72B98806A20B1FFE72B98816AB1
:101720008847FFE72FE02A982B99096CC8400007EB
:10173000002827D5FFE79DF8A4000007002821D541
:10174000FFE72B980168086820F00E0008602B98CE
:10175000C26B016C012000FA01F151602B99886382
:101760002B9981F82100FFE72B99002081F82000B8
:10177000FFE72B98006B20B1FFE72B98016B8847A0
:10178000FFE7FFE7FFE7FFE72CB080BD83B00190E4
:1017900000200090019820B9FFE701208DF80B0090
:1017A0006AE00198006840F20741C4F202018842F1
:1017B00018D8FFE7019908684FF6F872CBF6FD726A
:1017C00010444CF6CD42CCF6CC42A0FB02026FF0A6
:1017D000030000EA9200086401990020C4F20200AC
:1017E000C86318E0019908684FF6F832CBF6FD722D
:1017F00010444CF6CD42CCF6CC42A0FB02026FF076
:10180000030000EA92000864019940F20040C4F22B
:101810000200C863FFE70199022081F821000198C6
:10182000006800680090009843F6F07188430090CB
:1018300001994868D1F808C0CB680A6940EA0C00F1
:10184000184310434A6910438A691043C969014328
:101850000098084300900098019909680860019970
:1018600000208863019A012182F82110019981F8F2
:1018700020008DF80B00FFE79DF80B0003B07047C8
:1018800080B586B0049003910292019300208DF8F8
:101890000300FFE7049890F82000012804D1FFE737
:1018A00002208DF817004CE00499012081F82000F7
:1018B000FFE7FFE7049890F82100012832D1FFE705
:1018C0000499022081F8210004990020886304987B
:1018D0000168086820F00100086004980399029AE2
:1018E000019BFEF7FDFF0498C06A38B1FFE704983A
:1018F0000168086840F00E0008600CE00498016878
:10190000086820F00400086004980168086840F046
:101910000A000860FFE704980168086840F00100C9
:10192000086009E0FFE70499002081F82000FFE744
:1019300002208DF80300FFE79DF803008DF81700E3
:10194000FFE79DF8170006B080BD000080B584B0A9
:10195000039000F0DDF902900398019001980130A6
:1019600048B1FFE740F21C00C2F200000178019884
:1019700008440190FFE7FFE700F0CAF90299401A16
:101980000199884201D2FFE7F6E704B080BD00006C
:101990008AB00990089100200790FFE70898006836
:1019A0000799C840002800F09881FFE70898006870
:1019B000079A01219140084006900698002800F0FF
:1019C0008881FFE708984068022805D0FFE708985B
:1019D0004068122826D1FFE7099807996FF00302A3
:1019E00002EA51010844006A0590079800F00700D8
:1019F00081000F2000FA01F10598884305900898AE
:101A00000069079901F00701890000FA01F10598C2
:101A10000843059005980999079B02EA530211446F
:101A20000862FFE7099800680590079841000320C5
:101A300000FA01F10598884305900898406800F085
:101A400003000799490000FA01F105980843059041
:101A50000598099908600898406801280FD0FFE7A9
:101A60000898406802280AD0FFE7089840681128C3
:101A700005D0FFE70898406812282FD1FFE70998A2
:101A80008068059007984100032000FA01F105984D
:101A9000884305900898C0680799490000FA01F149
:101AA0000598084305900598099988600998406849
:101AB00005900799012000FA01F1059888430590E7
:101AC00008984068C0F30010079900FA01F10598E2
:101AD00008430590059809994860FFE70998C06890
:101AE000059007984100032000FA01F1059888430A
:101AF0000590089880680799490000FA01F1059857
:101B00000843059005980999C8600898C079C006EF
:101B1000002840F1DD80FFE7FFE741F21800C4F242
:101B20000200016841F001010160006800F001005D
:101B300004900498FFE7079820F003001421C4F2F2
:101B4000010140580590079800F0030081000F2024
:101B500000FA01F10598884305900998B0F1904F7B
:101B600003D1FFE70020039034E0099840F20041E0
:101B7000C4F60001884203D1FFE70120029026E06D
:101B8000099840F60001C4F60001884203D1FFE73E
:101B90000220019018E0099840F60041C4F60001C7
:101BA000884203D1FFE7032000900AE0099941F23F
:101BB0000002C4F600020720914208BF04200090F2
:101BC000FFE700980190FFE701980290FFE7029875
:101BD0000390FFE70398079901F00301890000FAD9
:101BE00001F10598084305900598079921F0030134
:101BF0001422C4F20102885040F20040C4F20100F5
:101C000000680590069905988843059008988079A2
:101C1000C00728B1FFE70699059808430590FFE73C
:101C2000059840F20041C4F20101086040F204400E
:101C3000C4F2010000680590069905988843059054
:101C4000089880798007002805D5FFE70699059850
:101C500008430590FFE7059840F20441C4F20101F2
:101C6000086040F20840C4F201000068059006993F
:101C700005988843059008988079C006002805D506
:101C8000FFE70699059808430590FFE7059840F29D
:101C90000841C4F20101086040F20C40C4F20100A6
:101CA0000068059006990598884305900898807902
:101CB0008006002805D5FFE706990598084305909A
:101CC000FFE7059840F20C41C4F201010860FFE70C
:101CD000FFE707980130079060E60AB07047000000
:101CE00082B00190ADF8021001984069BDF8021071
:101CF000084205D0FFE7BDF802000199886204E0C0
:101D0000BDF8020001998861FFE702B0704700004A
:101D100045F24C20C2F200000068704781B000908C
:101D200001B0704782B001908DF80310ADF800202B
:101D300002B0704780B588B0079007980068406986
:101D400002900798006840680190002000909DF87C
:101D50000900C007A8B1FFE79DF80500C00780B1E2
:101D6000FFE7009840F001000090079801686FF4C9
:101D70008070486107980168086840F40040086076
:101D8000FFE79DF8090000F002010020B0EB510FC1
:101D90000FD0FFE79DF80500C00750B1FFE700989E
:101DA00040F002000090079801686FF400704861ED
:101DB000FFE79DF8090000F004010020B0EB910F4F
:101DC0004DD0FFE79DF80500C007002847D0FFE78A
:101DD000079890F83E008DF81B000798408D0590FD
:101DE000079890F83D008DF813000798006B03905A
:101DF0009DF81B0020281AD1FFE70598B8B9FFE726
:101E00009DF8130021280ED0FFE79DF81300292824
:101E100009D0FFE79DF81300282808D1FFE70398B1
:101E2000212804D1FFE7079803F08EFE16E00798FB
:101E300001686FF480604861009840F004000090F1
:101E4000079890F83E00102807D1FFE7079801682F
:101E5000086840F400700860FFE7FFE7FFE79DF8BF
:101E6000090000F008010020B0EBD10F0FD0FFE710
:101E70009DF80500C00750B1FFE7009840F008004A
:101E80000090079801686FF400604861FFE70098D0
:101E900048B1FFE7009A0799086C10430864079857
:101EA00002F030FDFFE708B080BD000080B588B0CB
:101EB00007900020059007980068406804900798F4
:101EC000C06A0390079890F83E008DF80B000798C1
:101ED00090F83D008DF80A009DF80B00102806D000
:101EE000FFE79DF80B00402840F0F080FFE70798DF
:101EF0000068806905900798006840690690069818
:101F0000C007A0B9FFE703990120B1F52A0F01909E
:101F100008D0FFE7039800F1AC40B0FA80F0400928
:101F20000190FFE70198C00708B1FFE791E106982B
:101F3000C00780B1FFE79DF8110000F0020100200A
:101F4000B0EB510F07D0FFE7079802F05DFC079850
:101F500003F020FBB9E09DF8180000F00801002014
:101F6000B0EBD10F0DD0FFE79DF8110000F002019A
:101F70000020B0EB510F04D0FFE7079803F03AF9C7
:101F8000A2E09DF8180000F002010020B0EB510F14
:101F90000DD0FFE79DF8110000F002010020B0EB2A
:101FA000510F04D0FFE7079803F048F98BE09DF844
:101FB000140000F004010020B0EB910F40D0FFE7C7
:101FC00007980068406800F40060B0F5006F36D0F4
:101FD000FFE79DF818100020B0EBD11F16D0FFE7E7
:101FE0009DF8110000F004010020B0EB910F0DD01E
:101FF000FFE79DF8180000F004010020B0EB910FFE
:1020000004D1FFE7079802F0F9FF17E09DF81800E8
:1020100000F004010020B0EB910F0DD0FFE79DF818
:10202000110000F002010020B0EB510F04D0FFE7D7
:10203000079802F075FF00E0FFE7FFE7FFE741E0E8
:1020400007980068406800F40060B0F5006F38D071
:10205000FFE79DF8180000F040010020B0EB911F51
:1020600016D0FFE79DF8110000F004010020B0EB4E
:10207000910F0DD0FFE79DF8180000F0040100203B
:10208000B0EB910F04D1FFE7079802F055FE17E07F
:102090009DF8180000F004010020B0EB910F0DD066
:1020A000FFE79DF8110000F002010020B0EB510F96
:1020B00004D0FFE7079802F06FFD00E0FFE7FFE7BD
:1020C000FFE7FFE7FFE7FFE7FFE7C2E00798006CE5
:1020D00028B1FFE7079800684069069008E0079874
:1020E0000068806905900798006840690690FFE7DE
:1020F0009DF8180000F002010020B0EB510F17D03E
:10210000FFE79DF8110000F002010020B0EB510F35
:102110000ED0FFE70798006C28B1FFE7079800682A
:1021200080690590FFE70798059903F0B5FC8FE0FB
:102130009DF8180000F010010020B0EB111F0DD029
:10214000FFE79DF8110000F002010020B0EB510FF5
:1021500004D0FFE7079803F067FD78E09DF80A00D8
:10216000212805D0FFE79DF80A00292836D1FFE78E
:102170009DF818100020B0EBD11F16D0FFE79DF896
:10218000110000F004010020B0EB910F0DD0FFE72B
:102190009DF8180000F004010020B0EB910F04D16D
:1021A000FFE7079803F042FC17E09DF8180000F0E5
:1021B00004010020B0EB910F0DD0FFE79DF8110056
:1021C00000F002010020B0EB510F04D0FFE70798A8
:1021D00003F016FC00E0FFE7FFE737E09DF818008A
:1021E00000F040010020B0EB911F16D0FFE79DF8F2
:1021F000110000F004010020B0EB910F0DD0FFE7BB
:102200009DF8180000F004010020B0EB910F04D1FC
:10221000FFE7079803F0BCFB17E09DF8180000F0FB
:1022200004010020B0EB910F0DD0FFE79DF81100E5
:1022300000F002010020B0EB510F04D0FFE7079837
:1022400003F08EFB00E0FFE7FFE7FFE7FFE7FFE7B4
:10225000FFE708B080BD000081B0009001B070477A
:1022600080B58EB00C900C9820B9FFE701208DF856
:10227000370037E10C9890F83D0040B9FFE70C9922
:10228000002081F83C000C9800F086FDFFE70C99D7
:10229000242081F83D000C980168086820F00100B6
:1022A000086000F0BBFF0A900C98406848F2A061FB
:1022B000C0F2010188420BD8FFE70A9948F2804238
:1022C000C0F21E020020914238BF012009900AE0AE
:1022D0000A9940F60012C0F23D020020914238BF38
:1022E00001200990FFE70998012804D1FFE70120A8
:1022F0008DF83700F6E00A984DF68361C4F21B3181
:10230000A0FB0110800C0B900C980068406820F036
:102310003F000B9908430C99096848600C980068C5
:10232000006A20F03F0008900C98406848F2A061D5
:10233000C0F20101884204D8FFE70B9801300790F2
:102340000EE00B984FF49671484344F6D351C1F216
:102350006201A0FB0101012000EB91100790FFE753
:102360000898079908430C99096808620C98006856
:10237000C0694CF6FF71884306900C98406848F29B
:10238000A061C0F2010188421FD8FFE70A98013816
:102390000C9949684900B0FBF1F001306FF31F3030
:1023A000032803D8FFE7042005900BE00A980138C2
:1023B0000C9949684900B0FBF1F001306FF31F3010
:1023C0000590FFE7059804904CE00C98806868B988
:1023D000FFE70A9801380C99496801EB4101B0FB0D
:1023E000F1F001306FF31F3003900DE00A980138CF
:1023F0000C99496819225143B0FBF1F001300421D6
:1024000061F31F300390FFE70398000518B9FFE759
:102410000120029023E00C98806868B9FFE70A98D1
:1024200001380C99496801EB4101B0FBF1F0013032
:102430006FF31F3001900DE00A9801380C9949683C
:1024400019225143B0FBF1F00130042161F31F3038
:102450000190FFE7019840F400400290FFE70298E6
:102460000490FFE70698049908430C990968C8612D
:102470000C980068006820F0C0000C9B1968DA69AD
:102480001B6A1A43104308600C980068806848F281
:10249000FF3188430C9A1168D36812691A431043BC
:1024A00088600C980068C06820F0FF000C9B1968D9
:1024B0005A699B691A431043C8600C980168086800
:1024C00040F0010008600C99002008640C9A20215B
:1024D00082F83D100C9908630C9981F83E008DF844
:1024E0003700FFE79DF837000EB080BD81B0009047
:1024F00001B0704781B0009001B0704781B000908A
:1025000001B0704780B588B0DDF828C00690ADF8FE
:1025100016100492ADF80E30FFF7FAFB0290069801
:1025200090F83D00202840F0EB80FFE706980299E4
:102530006A4611600221C0F210010122192303F042
:10254000E5FC20B1FFE702208DF81F00DCE0FFE78B
:10255000069890F83C00012804D1FFE702208DF88E
:102560001F00D1E00699012081F83C00FFE7FFE75A
:1025700006980068006800F00100012807D0FFE716
:1025800006980168086840F001000860FFE70698B7
:102590000168086820F4006008600699212081F82D
:1025A0003D000699102081F83E000699002008643D
:1025B000049806994862BDF80E0006994885069869
:1025C000408D0699088506990020CFF6FF70C862F5
:1025D0000698BDF816100A9A029B02F023FC20B15F
:1025E000FFE701208DF81F008EE0FFE7002001903B
:1025F000069800684069019006980068806901901B
:102600000198FFE7FFE70698008D002860D0FFE7FC
:1026100006980A99029A03F0CFFD80B1FFE7069869
:10262000006C042807D1FFE706980168086840F4A9
:1026300000700860FFE701208DF81F0064E0069835
:102640000168406A007808610699486A013048626A
:102650000699488D013848850699088D0138088506
:1026600006980068406900F004010120B0EB910F6A
:1026700016D1FFE70698008D90B1FFE70698016834
:10268000406A007808610699486A013048620699F4
:10269000488D013848850699088D01380885FFE77F
:1026A00006980A99029A03F0E5FB80B1FFE70698C5
:1026B000006C042807D1FFE706980168086840F419
:1026C00000700860FFE701208DF81F001CE09AE70A
:1026D00006980168086840F4007008600699202098
:1026E00081F83D000699002081F83E00FFE7069939
:1026F000002081F83C00FFE700208DF81F0003E078
:1027000002208DF81F00FFE79DF81F0008B080BD74
:1027100081B0009001B0704781B0009001B0704767
:1027200010B590B0844614981398DDF848E0CDF8C1
:1027300028C0ADF82610ADF82420ADF82230ADF851
:102740002000FFF7E5FA07900A9890F83D0020284E
:1027500040F01082FFE70A9807996A46116002214B
:10276000C0F210010122192303F0D0FB20B1FFE7D2
:1027700002208DF82F0001E2FFE70A9890F83C0054
:10278000012804D1FFE702208DF82F00F6E10A9915
:10279000012081F83C00FFE7FFE70A980068006825
:1027A00000F00100012807D0FFE70A9801680868D7
:1027B00040F001000860FFE70A980168086820F40B
:1027C000006008600A99222081F83D000A994020A3
:1027D00081F83E000A990020086412980A9948621C
:1027E000BDF820000A9948850A98408D0A99088505
:1027F0000A990020CFF6FF70C8620A98BDF826102B
:10280000BDF82420BDF82230DDF850C0079CEE460C
:10281000CEF80440CEF800C002F036FF20B1FFE74A
:1028200001208DF82F00A9E10A98008DA0B9FFE7DB
:10283000FFE7002006900A980068406906900A9811
:102840000068806906900698FFE70A9801680868A2
:1028500040F4007008605DE00A98008D01281FD1E7
:10286000FFE70A980168086820F480600860EFF3C9
:10287000108072B60F90FFE7002005900A9800685C
:10288000406905900A980068806905900598FFE7FF
:102890000A980168086840F40070086062B638E081
:1028A0000A98008D02281FD1FFE70A98016808687E
:1028B00040F400600860EFF3108072B60E90FFE7FE
:1028C000002004900A980068406904900A98006803
:1028D000806904900498FFE70A980168086820F46A
:1028E0008060086062B613E00A980168086840F4E6
:1028F00080600860FFE7002003900A980068406944
:1029000003900A980068806903900398FFE7FFE747
:10291000FFE7FFE7FFE70A98008D002800F0188125
:10292000FFE70A98008D032800F2D680FFE70A9897
:10293000008D01281ED1FFE70A981499079A03F029
:10294000CDFB20B1FFE701208DF82F0016E10A989A
:10295000006800690A99496A08700A99486A013052
:1029600048620A99088D013808850A99488D01380E
:102970004885B0E00A98008D022841D1FFE70A9807
:10298000149B07996A4611600421C0F201010022DC
:1029900003F0BCFA20B1FFE701208DF82F00EDE035
:1029A000EFF3108072B60D900A980168086840F441
:1029B000007008600A98006800690A99496A0870FE
:1029C0000A99486A013048620A99088D01380885D9
:1029D0000A99488D0138488562B60A9800680069EE
:1029E0000A99496A08700A99486A013048620A9946
:1029F000088D013808850A99488D0138488569E0B5
:102A00000A98149B07996A4611600421C0F20101DB
:102A1000002203F07BFA20B1FFE701208DF82F00A0
:102A2000ACE00A980168086820F480600860EFF361
:102A3000108072B60C900A98006800690A99496A79
:102A400008700A99486A013048620A99088D01386D
:102A500008850A99488D013848850A98149B07997A
:102A60006A4611600421C0F20101002203F04EFA0F
:102A700020B1FFE701208DF82F007FE00A98016860
:102A8000086840F4007008600A98006800690A99B4
:102A9000496A08700A99486A013048620A99088DA3
:102AA000013808850A99488D0138488562B60A9828
:102AB000006800690A99496A08700A99486A0130F1
:102AC00048620A99088D013808850A99488D0138AD
:102AD0004885FFE7FFE73AE00A981499079A03F060
:102AE000FDFA20B1FFE701208DF82F0046E00A989B
:102AF000006800690A99496A08700A99486A0130B1
:102B000048620A99088D013808850A99488D01386C
:102B100048850A980068406900F004010120B0EB84
:102B2000910F13D1FFE70A98006800690A99496A72
:102B300008700A99486A013048620A99088D01387C
:102B400008850A99488D01384885FFE7FFE7E2E6E6
:102B50000A99202081F83D000A99002081F83E0062
:102B6000FFE70A99002081F83C00FFE700208DF87C
:102B70002F0003E002208DF82F00FFE79DF82F00C3
:102B800010B010BD10B588B084460C980B98DDF8D5
:102B900028E0CDF818C0ADF81610ADF81420ADF847
:102BA0001230ADF81000FFF7B3F80390069890F8D4
:102BB0003D00202840F0E880FFE7069803996A4628
:102BC00011600221C0F210010122192303F09EF9C5
:102BD00020B1FFE702208DF81F00D9E0FFE706983B
:102BE00090F83C00012804D1FFE702208DF81F0077
:102BF000CEE00699012081F83C00FFE7FFE7069848
:102C00000068006800F00100012807D0FFE706987F
:102C10000168086840F001000860FFE70698016855
:102C2000086820F4006008600699212081F83D00C2
:102C30000699402081F83E000699002008640A9811
:102C400006994862BDF81000069948850698408D9F
:102C50000699088506990020CFF6FF70C86206988D
:102C6000BDF81610BDF81420BDF81230DDF830C0E4
:102C7000039CEE46CEF80440CEF800C002F0DEFD24
:102C800020B1FFE701208DF81F0081E0FFE70698E3
:102C9000008D002849D0FFE706980C99039A03F0AD
:102CA0008BFA80B1FFE70698006C042807D1FFE794
:102CB00006980168086840F400700860FFE701208A
:102CC0008DF81F0064E006980168406A007808618A
:102CD0000699486A013048620699088D01380885CE
:102CE0000699488D0138488506980068406900F0CB
:102CF00004010120B0EB910F16D1FFE70698008D7B
:102D000090B1FFE706980168406A0078086106996B
:102D1000486A013048620699088D0138088506998D
:102D2000488D01384885FFE7B1E706980C99039A6A
:102D300003F0A0F880B1FFE70698006C042807D1E3
:102D4000FFE706980168086840F400700860FFE734
:102D500001208DF81F001BE006980168086840F408
:102D6000007008600699202081F83D000699002037
:102D700081F83E00FFE70699002081F83C00FFE75C
:102D800000208DF81F0003E002208DF81F00FFE7F0
:102D90009DF81F0008B010BD80B588B007900020D6
:102DA000069005900490039002900798006845F6FD
:102DB0000001C4F20001884230D1FFE7FFE741F291
:102DC0003400C4F20200016841F0080101600068AB
:102DD00000F0080001900198FFE74FF44060029076
:102DE000122003900120049003210591069040F2E7
:102DF0000040C4F6000002A9FEF7CAFDFFE741F259
:102E00001C00C4F20200016841F480010160006806
:102E100000F4800000900098FFE7FFE708B080BD55
:102E200081B0009001B0704781B0009001B0704750
:102E300040F21C00C2F20000027845F24C21C2F2BE
:102E400000010868104408607047000080B5042045
:102E500000F0A4F80F2000F005F800F03BF8002087
:102E600080BD000080B582B0009040F21000C2F238
:102E70000000006840F21C01C2F200010A784FF421
:102E80007A71B1FBF2F1B0FBF1F000F047FE20B136
:102E9000FFE701208DF8070018E0009807280DD8FB
:102EA000FFE700994FF0FF30002200F05DF8009836
:102EB00040F22001C2F20001086003E001208DF819
:102EC000070003E000208DF80700FFE79DF80700EA
:102ED00002B080BD84B0FFE741F21800C4F20200E6
:102EE000016841F001010160006800F001000390F9
:102EF0000398FFE7FFE741F21C00C4F202000168FB
:102F000041F080510160006800F08050029002980A
:102F1000FFE7FFE741F23400C4F20200016841F02C
:102F200004010160006800F0040001900198FFE7CF
:102F3000FFE741F23400C4F20200016841F00801E9
:102F40000160006800F0080000900098FFE704B0FE
:102F50007047000080B582B08DF807009DF907002A
:102F600003F074FD02B080BD80B586B08DF8170007
:102F7000049103920020029003F080FD02909DF9DD
:102F80001700019002980499039A03F085F901460D
:102F9000019803F07BFD06B080BD000080B582B0D3
:102FA0000190019803F094FD02B080BD80B584B01B
:102FB00002900191029820B9FFE701208DF80F00DF
:102FC00021E1019842F20001C4F20201096801F016
:102FD0000F01884216D9FFE742F20000C4F2020056
:102FE000016821F00F01019A11430160006800F0AF
:102FF0000F000199884204D0FFE701208DF80F00EF
:1030000001E1FFE702980078800700282AD5FFE752
:10301000029800784007002809D5FFE741F2040133
:10302000C4F20201086840F4E0600860FFE702981B
:1030300000780007002809D5FFE741F20401C4F237
:103040000201086840F460500860FFE741F20401A3
:10305000C4F20201086820F0F000029A926810435E
:103060000860FFE702980078C007002866D0FFE7F5
:1030700002984068012811D1FFE741F20000C4F234
:103080000200006800F400310020B0EB514F04D181
:10309000FFE701208DF80F00B5E024E002984068BA
:1030A00002280ED1FFE741F20000C4F202000068DE
:1030B000C001002804D4FFE701208DF80F00A2E032
:1030C00010E041F20000C4F20200006800F00201CA
:1030D0000020B0EB510F04D1FFE701208DF80F0065
:1030E00091E0FFE7FFE741F20401C4F20201086842
:1030F00020F00300029A526810430860FEF708FEB1
:103100000090FFE741F20400C4F20200006800F002
:103110000C0002994968B0EB810F0ED0FFE7FEF773
:10312000F7FD0099401A41F28931884204D3FFE744
:1031300003208DF80F0066E0E4E7FFE7019842F214
:103140000001C4F20201096801F00F01884216D2A1
:10315000FFE742F20000C4F20200016821F00F0113
:10316000019A11430160006800F00F000199884244
:1031700004D0FFE701208DF80F0044E0FFE702983C
:103180000078400700280CD5FFE741F20401C4F2A3
:103190000201086820F4E060029AD26810430860D7
:1031A000FFE702980078000700280DD5FFE741F2FD
:1031B0000401C4F20201086820F46050029A126906
:1031C00040EAC2000860FFE700F04CF841F2040159
:1031D000C4F202010968C9B20A094AF6E811C0F648
:1031E0000001895CC84040F21001C2F20001086091
:1031F00040F22000C2F200000068FFF733FE00201A
:103200008DF80F00FFE79DF80F0004B080BD0000AF
:1032100040F21000C2F200000068704780B5FFF76E
:10322000F7FF41F20401C4F202010968C1F302226E
:103230004AF6F811C0F60001895CC84080BD000064
:1032400080B5FFF7E5FF41F20401C4F2020109680D
:10325000C1F3C2224AF6F811C0F60001895CC840E9
:1032600080BD000080B598B04AF6A811C0F60001F4
:1032700008A84022FCF784FF40F20120ADF81E00B0
:1032800000200690059004900390029041F2040003
:10329000C4F2020000680690069800F00C00014697
:1032A000019100284AD0FFE70198042804D0FFE7E5
:1032B0000198082806D042E042F20040C0F2F40033
:1032C000029042E0069901F0C04001F47011400EF6
:1032D00040EA914108A8405C0390069800F4403011
:1032E000B0F5803F07D0FFE7069800F44030B0F516
:1032F000403F18D1FFE741F20400C4F20200006829
:1033000000F400310DF11E0040EA514000780590B4
:10331000039842F20041C0F2F40148430599B0FB22
:10332000F1F0049007E0039841F20021C0F27A0125
:1033300048430490FFE70498029006E0FFE741F25B
:103340000020C0F27A000290FFE7029818B080BD1A
:1033500080B586B00490049820B9FFE701208DF86D
:103360001700D4E304980078C007002800F0D68046
:10337000FFE741F20400C4F20200006800F00C0014
:10338000042820D0FFE741F20400C4F202000068E4
:1033900000F00C0008282BD1FFE741F20400C4F232
:1033A0000200006800F48030B0F5803F0BD0FFE7EA
:1033B00041F20400C4F20200006800F48030B0F56D
:1033C000403F15D1FFE741F20000C4F2020000685F
:1033D00000F400310020B0EB514F08D0FFE7049813
:1033E000406820B9FFE701208DF817008FE394E0D3
:1033F00004984068B0F5803F0CD1FFE741F23801F6
:10340000C4F20201086820F44070049A92681043E4
:103410000860FFE7FFE704984068B0F5803F09D1F6
:10342000FFE741F20001C4F20201086840F4803075
:10343000086032E00498406868B9FFE741F2000193
:10344000C4F20201086820F480300860086820F4A3
:103450008020086020E004984068B0F5A02F0DD1CE
:10346000FFE741F20001C4F20201086840F4802045
:103470000860086840F4803008600CE041F2000108
:10348000C4F20201086820F480300860086820F463
:1034900080200860FFE7FFE7FFE7FFE70498406848
:1034A000E8B1FFE7FEF734FC0390FFE741F20000CC
:1034B000C4F20200006800F400310020B0EB514F6C
:1034C0000CD1FFE7FEF724FC0399401A652804D3CA
:1034D000FFE703208DF8170019E3E7E71CE0FEF78C
:1034E00017FC0390FFE741F20000C4F202000068FD
:1034F00000F400310020B0EB514F0CD0FFE7FEF795
:1035000007FC0399401A652804D3FFE703208DF8D0
:103510001700FCE2E7E7FFE7FFE7FFE70498007822
:103520008007002840F19080FFE741F20400C4F2D8
:103530000200006810F00C0F20D0FFE741F20400F9
:10354000C4F20200006800F00C0008282CD1FFE74C
:1035500041F20400C4F20200006800F48030B0F5CB
:10356000803F21D0FFE741F20400C4F2020000686E
:1035700000F48030B0F5403F16D0FFE741F2000084
:10358000C4F20200006800F002010020B0EB510F0D
:1035900009D0FFE704984069012804D0FFE7012023
:1035A0008DF81700B3E24EE00498406928B3FFE7B6
:1035B00041F20001C4F20201086840F00100086015
:1035C000FEF7A6FB0390FFE741F20000C4F2020001
:1035D000006800F002010020B0EB510F0CD1FFE7B2
:1035E000FEF796FB0399401A032804D3FFE7032054
:1035F0008DF817008BE2E7E724E041F20001C4F206
:103600000201086820F001000860FEF781FB0390CA
:10361000FFE741F20000C4F20200006800F002017E
:103620000020B0EB510F0CD0FFE7FEF771FB0399C0
:10363000401A032804D3FFE703208DF8170066E241
:10364000E7E7FFE7FFE7FFE704980078C0060028F8
:103650004FD5FFE70498806928B3FFE741F22801BE
:10366000C4F20201086840F010000860FEF750FB49
:103670000390FFE741F22800C4F20200006800F066
:1036800020010020B0EB511F0CD1FFE7FEF740FBFB
:103690000399401A032804D3FFE703208DF817008D
:1036A00035E2E7E724E041F22801C4F202010868AC
:1036B00020F010000860FEF72BFB0390FFE741F2BB
:1036C0002800C4F20200006800F020010020B0EBE6
:1036D000511F0CD0FFE7FEF71BFB0399401A03288C
:1036E00004D3FFE703208DF8170010E2E7E7FFE7B8
:1036F000FFE7049800780007002852D5FFE70498F8
:10370000C06940B3FFE741F22401C4F20201086836
:1037100040F001000860FEF7FBFA0390FFE741F27A
:103720002400C4F20200006800F002010020B0EBA7
:10373000510F0CD1FFE7FEF7EBFA0399401A03286B
:1037400004D3FFE703208DF81700E0E1E7E701204D
:1037500002F0E0FD24E041F22401C4F20201086815
:1037600020F001000860FEF7D3FA0390FFE741F272
:103770002400C4F20200006800F002010020B0EB57
:10378000510F0CD0FFE7FEF7C3FA0399401A032844
:1037900004D3FFE703208DF81700B8E1E7E7FFE760
:1037A000FFE7049800784007002840F1EF80FFE72A
:1037B00000208DF8070041F21C00C4F202000068EE
:1037C000C000002813D4FFE7FFE741F21C00C4F259
:1037D0000200016841F080510160006800F08050F3
:1037E00000900098FFE701208DF80700FFE747F2FF
:1037F0000000C4F200000068C005002822D4FFE7E2
:1038000047F20001C4F20001086840F480700860CB
:10381000FEF77EFA0390FFE747F20000C4F20000D3
:103820000068C00500280CD4FFE7FEF771FA039981
:10383000401A652804D3FFE703208DF8170066E1DE
:10384000EAE7FFE70498C06801280CD1FFE741F2DE
:103850002001C4F20201086820F01800049A1269DD
:1038600010430860FFE7FFE70498C068012809D10A
:10387000FFE741F22001C4F20201086840F00100B4
:10388000086031E00498C06868B9FFE741F22001A0
:10389000C4F20201086820F001000860086820F006
:1038A000040008601FE00498C06805280DD1FFE7F8
:1038B00041F22001C4F20201086840F004000860EF
:1038C000086840F0010008600CE041F22001C4F2F9
:1038D0000201086820F001000860086820F0040078
:1038E0000860FFE7FFE7FFE7FFE70498C068F8B16B
:1038F000FFE7FEF70DFA0390FFE741F22000C4F264
:103900000200006800F002010020B0EB510F0ED160
:10391000FFE7FEF7FDF90399401A41F28931884229
:1039200004D3FFE703208DF81700F0E0E5E71EE081
:10393000FEF7EEF90390FFE741F22000C4F2020027
:10394000006800F002010020B0EB510F0ED0FFE73D
:10395000FEF7DEF90399401A41F28931884204D317
:10396000FFE703208DF81700D1E0E5E7FFE79DF8BA
:103970000700012809D1FFE741F21C01C4F202014E
:10398000086820F080500860FFE7FFE70498006AAD
:10399000002800F0B880FFE741F20400C4F2020002
:1039A000006800F00C00082800F08580FFE704980C
:1039B000006A022859D1FFE741F20001C4F2020176
:1039C000086820F080700860FEF7A2F90390FFE716
:1039D00041F20000C4F20200006800F00071002013
:1039E000B0EB516F0CD0FFE7FEF792F90399401A44
:1039F000032804D3FFE703208DF8170087E0E7E7EB
:103A000041F20401C4F2020108684FF6FF72C9F6E0
:103A1000C0721040049B5A6A9B6A1A4310430860A4
:103A200041F20001C4F20201086840F080700860B1
:103A3000FEF76EF90390FFE741F20000C4F20200C6
:103A4000006800F000710020B0EB516F0CD1FFE76F
:103A5000FEF75EF90399401A032804D3FFE7032019
:103A60008DF8170053E0E7E724E041F20001C4F2CB
:103A70000201086820F080700860FEF749F90390A1
:103A8000FFE741F20000C4F20200006800F000719C
:103A90000020B0EB516F0CD0FFE7FEF739F9039926
:103AA000401A032804D3FFE703208DF817002EE007
:103AB000E7E7FFE726E00498006A012804D1FFE762
:103AC00001208DF8170022E041F20400C4F2020048
:103AD00000680290029800F480300499496A884294
:103AE0000AD1FFE702980021C6F23C010840049980
:103AF000896A884204D0FFE701208DF8170006E0AC
:103B0000FFE7FFE7FFE700208DF81700FFE79DF8CC
:103B1000170006B080BD00007047000080B582B07D
:103B20000190019802F016FC02B080BD80B5FFF74D
:103B3000F3FF80BD80B582B0019000200090019815
:103B400000684069C0B2C0090090019890F8450033
:103B5000212816D1FFE7009898B1FFE70198016886
:103B6000486920F0800048610198C06B28B1FFE7E8
:103B70000198C06BFDF728F8FFE7019802F06CFD93
:103B8000FFE7019800684069C0F380100090019839
:103B900090F84600222816D1FFE7009898B1FFE779
:103BA00001980168486920F0400048610198006C64
:103BB00028B1FFE70198006CFDF706F8FFE70198D0
:103BC00002F022FDFFE7002002B080BD80B582B088
:103BD0000090009820B9FFE701208DF807001FE052
:103BE0000099242081F8450000980168C86820F4F5
:103BF0000050C860009800F013FA00990020886413
:103C0000009981F84500009981F84600FFE7009986
:103C1000002081F84400FFE700208DF80700FFE74F
:103C20009DF8070002B080BD80B584B003900020ED
:103C30000290FFE7029804283BDCFFE7029843F676
:103C40004802C2F2000240F2345100FB0120039905
:103C5000884229D1FFE7029843F64802C2F20002E7
:103C600040F2345100FB012001900199D1F8840009
:103C70000130C1F884000199002081F87800019991
:103C800081F87900019981F81703019981F81803E7
:103C90000198806E38B1FFE701999DF808008A6E9F
:103CA000C96E9047FFE704E0FFE7029801300290F9
:103CB000C0E704B080BD000080B588B007900798C9
:103CC00000680068069007980068C068059007982B
:103CD000006840690490002003900290069800F06C
:103CE0000F000390039888B9FFE79DF8180080063D
:103CF00000280AD5FFE79DF814008006002804D5A7
:103D0000FFE7079802F0B6FCEFE0FFE70398002812
:103D100000F0AE80FFE79DF81000C00738B9FFE75C
:103D2000BDF8140010F4907F00F0A280FFE79DF82A
:103D30001800C00758B1FFE79DF81500C00730B163
:103D4000FFE70799886C40F001008864FFE79DF861
:103D50001800400700280BD5FFE79DF81000C007AA
:103D600030B1FFE70799886C40F002008864FFE7F4
:103D70009DF81800800700280BD5FFE79DF810007C
:103D8000C00730B1FFE70799886C40F004008864F1
:103D9000FFE79DF81800000700280BD5FFE79DF806
:103DA0001000C00730B1FFE70799886C40F00800A9
:103DB0008864FFE70798806C002858D0FFE79DF8DB
:103DC0001800800600280AD5FFE79DF81400800639
:103DD000002804D5FFE7079802F04CFCFFE707989E
:103DE00000684069C0F3801002900798806C00075B
:103DF000002803D4FFE7029888B3FFE7079802F092
:103E000003FC0798006840694006002822D5FFE7B8
:103E100007980168486920F0400048610798006CE5
:103E200098B1FFE70798016C46F29D40C0F600008C
:103E300048630798006CFCF705FF28B1FFE7079877
:103E4000006C416B8847FFE703E00798FFF7ECFE43
:103E5000FFE703E00798FFF7E7FEFFE706E00798B4
:103E6000FFF7E2FE079900208864FFE7FFE73CE0E8
:103E70009DF81800C006002817D5FFE79DF814002C
:103E8000C006002811D5FFE7FFE700200190079842
:103E900000680068019007980068406801900198E8
:103EA000FFE7079800F024F8FFE79DF818000006E8
:103EB00000280AD5FFE79DF814000006002804D565
:103EC000FFE7079802F01AFD0FE09DF81800400682
:103ED00000280AD5FFE79DF814004006002804D505
:103EE000FFE7079802F0A4FBFFE708B080BD0000E1
:103EF00080B584B0039000200290FFE70298042868
:103F000035DCFFE7029843F64802C2F2000240F2B5
:103F1000345100FB01200399884223D1FFE7029826
:103F200043F64802C2F2000240F2345100FB012085
:103F300001909DF8080005F01BFCADF80200019807
:103F4000006F70B1FFE7BDF80200012809DBFFE751
:103F5000019A9DF80800BDF80210136F526F984740
:103F6000FFE704E0FFE7029801300290C6E704B0E3
:103F700080BD000080B582B00090009820B9FFE7B6
:103F800001208DF8070046E00098806908B1FFE73E
:103F900000E0FFE7009890F8450040B9FFE700997E
:103FA000002081F84400009800F03EF8FFE70099F7
:103FB000242081F8450000980168C86820F400506A
:103FC000C860009802F0B2FB0098006A20B1FFE7D9
:103FD000009802F03BFAFFE700980168086920F4B6
:103FE0009040086100980168486920F02A00486103
:103FF00000980168C86840F40050C860009900202B
:104000008864009A202182F84510009A82F84610B0
:104010008DF80700FFE79DF8070002B080BD0000A3
:1040200081B0009001B0704780B58CB00B9000203B
:104030000A9009900890079006900B98006844F247
:104040000041C4F20001884237D1FFE7FFE741F2A7
:104050003400C4F20200016841F00401016000680C
:1040600000F0040005900598FFE7FFE741F21C000F
:10407000C4F20200016841F400310160006800F4FC
:10408000003004900498FFE704200690022001907D
:1040900007900121089109900A904FF090400290FA
:1040A00006A90391FDF774FC019A0298039908236D
:1040B00006930A92FDF76CFCFFE70CB080BD000090
:1040C00080B586B004900391ADF80A20049890F86A
:1040D0004600202840F08980FFE7039820B1FFE7E1
:1040E000BDF80A0020B9FFE701208DF8170080E035
:1040F00004988068B0F5805F0ED1FFE704980069EE
:1041000050B9FFE79DF80C00C00720B1FFE7012080
:104110008DF817006DE0FFE7FFE7049890F8440082
:10412000012804D1FFE702208DF8170061E004990F
:10413000012081F84400FFE7FFE7039804994863F2
:10414000BDF80A0004990887049900208864049A3D
:10415000222182F8461004990A6C46F23951C0F6C1
:104160000001916204990A6C46F29151C0F6000177
:10417000D16204990A6C46F2BD41C0F60001116398
:104180000499096C486304980168426B006C04311F
:10419000BDF80A30FDF774FBFFE70020019004989A
:1041A00000680068019004980068406801900198D8
:1041B000FFE7FFE70499002081F84400FFE7049837
:1041C0000168C86840F48070C86004980168486954
:1041D00040F00100486104980168486940F04000DF
:1041E000486100208DF8170003E002208DF81700C9
:1041F000FFE79DF8170006B080BD000080B584B0D1
:10420000039000200290FFE70298042833DCFFE7C8
:10421000029843F64802C2F2000240F2345100FB19
:1042200001200399884221D1FFE7029843F6480212
:10423000C2F2000240F2345100FB012001900199CA
:10424000002081F87900019981F818039DF8080091
:1042500005F01EFA0198806D38B1FFE701999DF8CD
:1042600008008A6DC96D9047FFE704E0FFE70298F8
:1042700001300290C8E704B080BD000080B584B072
:10428000039000200290FFE7029804282CDCFFE74F
:10429000029843F64802C2F2000240F2345100FB99
:1042A0000120039988421AD1FFE7029843F6480299
:1042B000C2F2000240F2345100FB012001909DF84F
:1042C000080005F01DFA0198006E38B1FFE701996A
:1042D0009DF808000A6E496E9047FFE704E0FFE78B
:1042E000029801300290CFE704B080BD80B58AB05B
:1042F00008900791ADF81A200593002002900898C5
:1043000090F84500202840F0A480FFE7079820B1EE
:10431000FFE7BDF81A0020B9FFE701208DF827005C
:104320009BE008988068B0F5805F0ED1FFE70898A1
:10433000006950B9FFE79DF81C00C00720B1FFE7F6
:1043400001208DF8270088E0FFE7FFE7089890F844
:104350004400012804D1FFE702208DF827007CE00B
:104360000899012081F84400FFE7FFE70899002041
:1043700088640899212081F84500FDF7C9FC029066
:10438000BDF81A0008990886BDF81A0008994886F1
:1043900008988068B0F5805F09D1FFE70898006948
:1043A00028B9FFE7002004900798039004E00798DD
:1043B000049000200390FFE7FFE70898408E58B371
:1043C000FFE70898029B05996A4611608021002248
:1043D00002F0E2FA20B1FFE703208DF827003CE06D
:1043E000049858B9FFE7039800886FF35F20089995
:1043F0000968486003980230039008E00498007848
:10440000089909684860049801300490FFE708990A
:10441000488E01384886D0E70898029B05996A467D
:1044200011604021002202F0B7FA20B1FFE703201B
:104430008DF8270011E00899202081F84500FFE75A
:104440000899002081F84400FFE700208DF827003C
:1044500003E002208DF82700FFE79DF827000AB04F
:1044600080BD000080B586B004900391ADF80A20AD
:10447000049890F84500202867D1FFE7039820B101
:10448000FFE7BDF80A0020B9FFE701208DF817000B
:104490005FE0FFE7049890F84400012804D1FFE7AB
:1044A00002208DF8170054E00499012081F844009F
:1044B000FFE7FFE703980499C862BDF80A00049972
:1044C0000886BDF80A00049948860499002088648B
:1044D000049A212182F845100499CA6B46F2A95129
:1044E000C0F6000191620499CA6B46F2F151C0F620
:1044F0000001D1620499CA6B46F2BD41C0F60001C9
:1045000011630499C96B486303A801900498026879
:10451000C06B019909680432BDF80A30FDF7B0F9A3
:10452000049801686FF040000860FFE704990020DC
:1045300081F84400FFE704980168486940F0800072
:10454000486100208DF8170003E002208DF8170065
:10455000FFE79DF8170006B080BD000084B0029010
:104560000191ADF80220029890F8450020283ED134
:10457000FFE7019820B1FFE7BDF8020020B9FFE78F
:1045800001208DF80F0036E0FFE7029890F8440014
:10459000012804D1FFE702208DF80F002BE00299DB
:1045A000012081F84400FFE7FFE701980299C86203
:1045B000BDF8020002990886BDF8020002994886FB
:1045C0000299002088640299212081F84500FFE7C4
:1045D0000299002081F84400FFE702980168C8684A
:1045E00040F08000C86000208DF80F0003E002203A
:1045F0008DF80F00FFE79DF80F0004B07047000032
:1046000080B584B0039000200290FFE70298042850
:1046100047DCFFE7029843F64802C2F2000240F28C
:10462000345100FB01200399884235D1FFE70298FD
:1046300043F64802C2F2000240F2345100FB01206E
:1046400001900199002081F87800019981F8170301
:104650000398008EADF80200019800F54A70BDF88D
:10466000021004F081FD019800F54A7004F002FC8C
:10467000012805DBFFE79DF8080005F0B5FBFFE723
:104680000198006D38B1FFE701999DF808000A6DA7
:10469000496D9047FFE704E0FFE702980130029080
:1046A000B4E704B080BD000081B0009001B0704755
:1046B000FFE7FEE780B542F21C40C2F20000FDF7C2
:1046C00039FB80BD80B542F21C40C2F20000FDF70C
:1046D000EDFB80BD80B542F21C40C2F2000080308C
:1046E000FDF728FB80BD000080B542F21C40C2F2FD
:1046F00000008030FDF7DAFB80BD000080B582B09D
:1047000008208DF80600FFE79DF80600772837DCC3
:10471000FFE79DF8060040008DF805009DF80510A4
:104720006A464FF47A70106042F25430C2F20000D0
:1047300000231A46FDF7E6FE8DF807009DF80700F6
:10474000B8B9FFE79DF8060042F2A833C2F20003B1
:104750001A78511C197042F2A931C2F20001885432
:104760009DF806104BF24E10C0F6000005F002FC5A
:10477000FFE7FFE79DF8060001308DF80600C3E76C
:1047800042F2A830C2F20000007838B9FFE74BF2DD
:104790007B10C0F6000005F0EDFB33E042F2A830DC
:1047A000C2F2000001784BF26510C0F6000005F07F
:1047B000E1FB00208DF80400FFE79DF8040042F2C1
:1047C000A831C2F200010978884214DAFFE79DF8A7
:1047D000041042F2A930C2F20000415C4BF25D10BD
:1047E000C0F6000005F0C6FBFFE79DF804000130AD
:1047F0008DF80400E1E74AF6E670C0F6000005F027
:10480000B9FBFFE702B080BD81B000900098C06A9C
:10481000B0F52A0F04D1FFE700990120C8620BE030
:104820000098C06AB0F12A4F04D1FFE70099082030
:10483000C86200E0FFE7FFE701B0704780B584B0D1
:1048400003900398406A0290029890F83D008DF81A
:1048500007000298416B002088620299896B886288
:1048600002990A68116821F48061116002994885F3
:104870000299496B48630299896B48630298016801
:10488000086820F001000860029890F83D00602858
:104890000ED1FFE70299202081F83D000299002007
:1048A00081F83E00029908640298FDF737FA27E084
:1048B0009DF8070000F02800282814D1FFE702988F
:1048C0000168086840F00100086002980168086803
:1048D00040F4806008600299002008630299282053
:1048E00081F83D0008E00299202081F83D000299FE
:1048F000002081F83E00FFE70298FDF7ADFCFFE7DE
:1049000004B080BD80B582B00190019890F83D0060
:104910008DF80300019890F83E0010280CD1FFE7B5
:104920009DF80300222807D1FFE701980168086875
:1049300020F400600860FFE79DF8030000F0280005
:10494000282808D1FFE70199002008630199282051
:1049500081F83D0019E001980068406800F40060AB
:10496000B0F5006F0AD0FFE79DF80300602805D07E
:10497000FFE70199202081F83D00FFE70199002021
:104980000863019981F83E00FFE7019800684068DC
:10499000000500285DD5FFE701980168486820F40C
:1049A000006048600198406B90F8210001281DD0FC
:1049B000FFE70198416B44F63D00C0F600004863F4
:1049C0000198406BFCF73EF978B1FFE70198016868
:1049D000086820F0010008600199202081F83D005E
:1049E0000198406B416B8847FFE731E00198816B8C
:1049F00044F63D00C0F6000048630198806BFCF768
:104A000021F920B3FFE701980068406900F04001F8
:104A10000120B0EB911F0BD1FFE7019800680069FE
:104A20000199496A08700199486A01304862FFE7B4
:104A300001980168086820F00100086001992020B1
:104A400081F83D000198806B416B8847FFE7FFE7E5
:104A500045E0019890F83D00602826D1FFE70199D4
:104A6000202081F83D000199002008640198006829
:104A7000406900F040010120B0EB911F0BD1FFE72E
:104A80000198006800690199496A08700199486AAB
:104A900001304862FFE701980168086820F00100D2
:104AA00008600198FDF73AF918E00198006840693C
:104AB00000F040010120B0EB911F0BD1FFE70198FE
:104AC000006800690199496A08700199486A0130D3
:104AD0004862FFE70198FDF7BFFBFFE7FFE701989A
:104AE00090F83D008DF803000198006C4007002805
:104AF0001ED5FFE79DF80300282819D1FFE701988C
:104B00000168486820F4E060486001990020CFF611
:104B1000FF70C862019900200863019A202182F881
:104B20003D10019981F83E000198FDF7DFFCFFE799
:104B300002B080BD82B0009000980068406900F427
:104B400080610120B0EB912F1ED1FFE70098016832
:104B50006FF480604861009900200863009A20216A
:104B600082F83D10009981F83E000099086C40F0F1
:104B700004000864FFE70099002081F83C00FFE78B
:104B800001208DF8070003E000208DF80700FFE703
:104B90009DF8070002B0704780B582B0019001987F
:104BA000C06A00900198408D042815D1FFE7019854
:104BB0000168486820F480604860019800680069D6
:104BC0000199496A08700199486A0130486201995F
:104BD000488D01384885ACE00198408D032824D1E8
:104BE000FFE701980168486820F4806048600098F9
:104BF00004280BD0FFE70098022807D0FFE70198B0
:104C00000168086820F480600860FFE70198006888
:104C100000690199496A08700199486A013048623F
:104C20000199488D0138488582E00198408D02281D
:104C30006ED1FFE70098012804D0FFE70098102804
:104C400007D1FFE701980168086820F480600860D8
:104C50001CE00098042804D0FFE70098022807D140
:104C6000FFE701980168086840F4806008600CE084
:104C70000098102807D0FFE701980168086840F401
:104C80000070086000E0FFE7FFE7FFE701980068B9
:104C900000690199496A08700199486A01304862BF
:104CA0000199488D0138488501980068006901998B
:104CB000496A08700199486A013048620199488D33
:104CC0000138488501980168486820F440704860C0
:104CD0000199202081F83D00019890F83E0040287D
:104CE0000AD1FFE70199002081F83E00019908638D
:104CF0000198FDF70DFD0AE00199002081F83E00C2
:104D00000199122008630198FDF7F4FBFFE70EE01C
:104D10000198006800690199496A08700199486A18
:104D2000013048620199488D01384885FFE7FFE767
:104D3000FFE702B080BD000080B582B0019001980D
:104D400090F83D0022286BD1FFE70198408D00903C
:104D5000009804281BD3FFE70198006800690199B7
:104D6000496A08700199486A013048620199488D82
:104D7000013848850198408D032807D1FFE7019845
:104D80000168486820F480604860FFE747E00198C8
:104D9000C06A022841D0FFE70098012803D0FFE74E
:104DA0000098D0BBFFE701980168086820F4806094
:104DB000086001980168486820F4E0604860019844
:104DC000006800690199496A08700199486A0130D0
:104DD00048620199488D013848850199202081F861
:104DE0003D00019890F83E0040280AD1FFE7019964
:104DF000002081F83E00019908630198FDF788FCC6
:104E00000AE00199002081F83E0001991220086310
:104E10000198FDF76FFBFFE700E0FFE7FFE7FFE723
:104E200002B080BD80B588B00690ADF8161004922F
:104E300003930698C06A02900298082809D0FFE7F9
:104E40000298012805D0FFE7029810F5803F07D1AE
:104E5000FFE706980168086840F4807008600DE07C
:104E60000698006B122807D1FFE7069801680868CA
:104E700040F48070086000E0FFE7FFE70698049BBD
:104E800003996A4611604FF00111002201F03EF8CB
:104E900020B1FFE701208DF81F003CE00698006973
:104EA000B0F5804F08D1FFE7BDF8160000F0FE0016
:104EB0000699096808611CE0BDF8160000F440700E
:104EC000C009F0300699096808610698049A039BA6
:104ED0000821C0F2010101F079F820B1FFE70120BB
:104EE0008DF81F0017E09DF8160006990968086103
:104EF000FFE70698049A039B0221C0F2010101F02A
:104F000065F820B1FFE701208DF81F0003E00020C5
:104F10008DF81F00FFE79DF81F0008B080BD00005E
:104F200080B582B001900198C06A0090019890F815
:104F30003D00212860D1FFE70198408D70B1FFE767
:104F400001980168406A007808610199486A013057
:104F500048620199488D013848854CE0009808283E
:104F60001ED0FFE7009820281AD0FFE7009810F520
:104F7000803F15D0FFE701980168486820F4E060A1
:104F800048600199112008630199002081F83E00D2
:104F90000199202081F83D000198FDF7AFFA29E042
:104FA00001980168486820F4E06048600198016851
:104FB000086840F4007008600199002008630199B6
:104FC000202081F83D00019890F83E00402808D14B
:104FD000FFE70199002081F83E000198FDF79CFB56
:104FE00007E00199002081F83E000198FDF786FA5C
:104FF000FFE7FFE7FFE7FFE702B080BD80B584B0C1
:105000000390039890F83D008DF80B00039890F8FA
:105010003E008DF80A000398C06A01900398008D45
:10502000002852D1FFE79DF80B0021284DD1FFE762
:10503000019808281ED0FFE7019820281AD0FFE722
:10504000019810F5803F15D0FFE703980168486884
:1050500020F4E06048600399112008630399002060
:1050600081F83E000399202081F83D000398FDF768
:1050700045FA29E003980168486820F4E060486038
:1050800003980168086840F40070086003990020E4
:1050900008630399202081F83D00039890F83E00B2
:1050A000402808D1FFE70399002081F83E000398CB
:1050B000FDF732FB07E00399002081F83E000398DA
:1050C000FDF71CFAFFE7FFE791E09DF80B002128B0
:1050D0000CD0FFE79DF80A00402840F08680FFE7EB
:1050E0009DF80B00222840F08080FFE70398408D58
:1050F00038B9FFE703980168486820F48060486089
:1051000072E0039890F83E0040285ED1FFE70398D4
:10511000006DE8B9FFE70398C06C01280BD1FFE7E9
:105120000398806CC0B20399096808610399086DFF
:10513000023008650BE00398806C80B2000A039986
:10514000096808610399086D01300865FFE73BE0D5
:105150000398006D01280BD1FFE70398806CC0B263
:105160000399096808610399086D013008652AE010
:105170000398006D022824D1FFE7039890F83D00C2
:10518000222807D1FFE703980168086840F480707F
:10519000086015E0039890F83D0021280ED1FFE744
:1051A00003980168406A007808610399486A0130F1
:1051B00048620399488D0138488500E0FFE7FFE722
:1051C00000E0FFE7FFE7FFE70DE003980168406AB2
:1051D000007808610399486A013048620399488D54
:1051E00001384885FFE7FFE700E0FFE7FFE704B08D
:1051F00080BD000081B000900098406CC0B2009962
:10520000096808610098406B20B9FFE70098806B3F
:1052100090B1FFE70098406B806A28B9FFE70098DB
:10522000806B806A38B1FFE700980168486840F4F5
:1052300000604860FFE7FFE701B070478FB00E9055
:105240000E9890F83E008DF837000E98C06A0C90CA
:105250000E98006B0B900E9890F83D00222840F0BD
:105260008981FFE70E98006D98B9FFE79DF8370038
:1052700040280ED1FFE7FFE700200A900E98006853
:1052800040690A900E98006880690A900A98FFE7C2
:105290006FE10E98006DF0B9FFE70E980069B0F568
:1052A000404F18D1FFE7FFE7002009900E980068F3
:1052B000406909900E980068806909900998FFE795
:1052C0000E980168086840F4807008600E99086DB7
:1052D000013008654CE10E98408DA0B9FFE7FFE76B
:1052E000002008900E980068406908900E980068A9
:1052F000806908900898FFE70E980168086840F4F4
:105300000070086030E10E98408D012840F09080D8
:10531000FFE70C9810F5803F36D1FFE70E98016843
:10532000086820F4806008600E98006840680005F6
:10533000002814D5FFE70E980168086820F4806003
:105340000860FFE7002007900E980068406907900A
:105350000E980068806907900798FFE713E0FFE761
:10536000002006900E980068406906900E9800682C
:10537000806906900698FFE70E980168086840F477
:1053800000700860FFE752E00C98082834D0FFE76F
:105390000C98202830D0FFE70B98122804D1FFE7A3
:1053A0000C98012828D1FFE70C9804280FD0FFE7BC
:1053B0000C9802280BD0FFE70C98102807D0FFE7C5
:1053C0000E980168086820F48060086006E00E9876
:1053D0000168086840F480600860FFE7FFE700208C
:1053E00005900E980068406905900E9800688069E5
:1053F00005900598FFE719E00E980168086820F409
:1054000080600860FFE7002004900E980068406903
:1054100004900E980068806904900498FFE70E9845
:105420000168086840F400700860FFE7FFE79AE051
:105430000E98408D02285ED1FFE70C98042822D0F8
:10544000FFE70C9802281ED0FFE70C9810281AD00E
:10545000FFE70E980168086840F400600860FFE705
:10546000002003900E980068406903900E98006831
:10547000806903900398FFE70E980168086820F49C
:105480008060086013E00E980168086840F480604E
:105490000860FFE7002002900E98006840690290C3
:1054A0000E980068806902900298FFE7FFE70E9867
:1054B00000684068000500281CD5FFE70C9810F52F
:1054C000803F10D0FFE70C9801280CD0FFE70C9824
:1054D000082808D0FFE70C98102804D0FFE70C98A4
:1054E000202807D1FFE70E980168486840F48050F3
:1054F0004860FFE736E00E980168086840F4806075
:1055000008600E9800684068000500281CD5FFE779
:105510000C9810F5803F10D0FFE70C9801280CD0B4
:10552000FFE70C98082808D0FFE70C98102804D053
:10553000FFE70C98202807D1FFE70E98016848681C
:1055400040F480504860FFE7FFE7002001900E988C
:105550000068406901900E98006880690190019888
:10556000FFE7FFE7FFE7FFE70E9900200865FFE789
:10557000FFE70DE0FFE7002000900E98006840690B
:1055800000900E980068806900900098FFE7FFE7A0
:105590000FB0704781B00090009890F83E0040280E
:1055A00016D1FFE70098006D40B9FFE70098406C06
:1055B00000F0FE0000990968086108E00098406C5E
:1055C00040F00100C0B2009909680861FFE758E0A7
:1055D00000980069B0F5804F32D1FFE7009890F84D
:1055E0003D00212808D1FFE70098406C00F0FE0044
:1055F00000990968086108E00098406C40F00100DB
:10560000C0B2009909680861FFE70098406B20B9B3
:10561000FFE70098806B90B1FFE70098406B806ACD
:1056200028B9FFE70098806B806A38B1FFE70098DF
:105630000168486840F400604860FFE7FFE71FE04A
:105640000098006D50B9FFE70098406C00F440707E
:10565000C009F03000990968086110E00098006DF9
:1056600001280AD1FFE70098406C00F44070C0099F
:10567000F13000990968086100E0FFE7FFE7FFE704
:10568000FFE701B07047000080B586B0DDF824C0A8
:10569000DDF820C00490ADF80E10ADF80C20ADF888
:1056A0000A3004980168086840F480600860049833
:1056B0000168086840F4807008600498089B0999A4
:1056C0006A4611604FF00111002200F01FFC20B16A
:1056D000FFE701208DF81700ABE0BDF80E0000F0E9
:1056E000FE000499096808610498089A099B022140
:1056F000C0F2010100F06AFC20B1FFE701208DF843
:10570000170096E0FFE700200190049800684069C8
:10571000019004980068806901900198FFE704985F
:105720000899099A00F048FD80B1FFE70498006CE1
:10573000042807D1FFE704980168086840F4007066
:105740000860FFE701208DF8170072E0BDF80A003D
:10575000012806D1FFE79DF80C000499096808614B
:1057600021E09DF80D0004990968086104980899E2
:10577000099A00F021FD80B1FFE70498006C04282D
:1057800007D1FFE704980168086840F400700860DA
:10579000FFE701208DF817004BE09DF80C000499FD
:1057A00009680861FFE704980899099A00F004FD68
:1057B00080B1FFE70498006C042807D1FFE7049844
:1057C0000168086840F400700860FFE701208DF868
:1057D00017002EE004980168086840F480700860A3
:1057E0000498089B09996A4611604FF00111002244
:1057F00000F08CFB20B1FFE701208DF8170018E0C6
:105800009DF80E0040F001000499096808610498B1
:10581000089A099B0221C0F2010100F0D7FB20B1D8
:10582000FFE701208DF8170003E000208DF8170036
:10583000FFE79DF8170006B080BD000080B586B078
:10584000DDF824C0DDF820C00490ADF80E10ADF8EE
:105850000C20ADF80A3004980168086840F48070A4
:1058600008600498089B09996A4611604FF001117D
:10587000002200F04BFB20B1FFE701208DF817005C
:1058800069E0BDF80E0000F0FE00049909680861A7
:105890000498089A099B0221C0F2010100F096FBCE
:1058A00020B1FFE701208DF8170054E0FFE700204A
:1058B000019004980068406901900498006880692C
:1058C00001900198FFE704980899099A00F074FC88
:1058D00080B1FFE70498006C042807D1FFE7049823
:1058E0000168086840F400700860FFE701208DF847
:1058F000170030E0BDF80A00012806D1FFE79DF847
:105900000C0004990968086121E09DF80D000499D4
:105910000968086104980899099A00F04DFC80B163
:10592000FFE70498006C042807D1FFE7049801689A
:10593000086840F400700860FFE701208DF8170048
:1059400009E09DF80C00049909680861FFE7002050
:105950008DF81700FFE79DF8170006B080BD000026
:1059600081B000900098408D78B1FFE70098006802
:1059700000690099496A08700099486A01304862D4
:105980000099488D01384885FFE701B07047000055
:1059900080B582B00190019890F83D008DF8030029
:1059A0000198408D48B3FFE70198006800690199AC
:1059B000496A08700199486A013048620199488D26
:1059C000013848850198408DB0B9FFE79DF8030084
:1059D0002A2811D1FFE701980168486820F4806007
:1059E00048600199222008630199282081F83D0030
:1059F0000198FDF715FAFFE7FFE702B080BD000050
:105A000081B000900098408D70B1FFE70098016868
:105A1000406A007808610099486A0130486200993C
:105A2000488D01384885FFE701B0704780B582B0E6
:105A30000190019890F83D008DF803000198408D89
:105A400040B3FFE701980168406A00780861019956
:105A5000486A013048620199488D013848850198AB
:105A6000408DB0B9FFE79DF80300292811D1FFE769
:105A700001980168486820F48060486001992120FD
:105A800008630199282081F83D000198FDF7CCF9C1
:105A9000FFE7FFE702B080BD80B584B003900291BC
:105AA00000208DF80700039890F83D0000F02800D2
:105AB000282832D1FFE703980168486820F4806005
:105AC00048609DF8080000F004010020B0EB910F41
:105AD00004D1FFE701208DF80700FFE79DF80810CB
