:020000040800F2
:10000000940C00209D110008011200085D020008F8
:10001000011200080112000801120008000000008F
:1000200000000000000000000000000001120008B5
:1000300001120008000000009F010008B11C000828
:100040000112000801120008011200080112000844
:10005000011200080112000835210008492100089A
:100060005D21000871210008852100085D3100082C
:10007000753100086D36000885360008992800089B
:10008000B12800080112000801120008011200083E
:100090000112000800000000000000009921000883
:1000A00001120008011200080112000801120008E4
:1000B00001120008011200080112000801120008D4
:1000C000011200083D360008553600084531000889
:1000D0000112000801120008BD27000801120008E3
:1000E000C9210008011200080000000001120008E8
:1000F0000112000801120008011200080112000894
:100100000112000801120008011200088D310008D8
:100110000112000801120008011200080112000873
:10012000BD310008A5310008011200082D19000892
:1001300010B5054C237833B9044B13B10448AFF321
:1001400000800123237010BD980C002000000000E7
:100150003026010808B5034B1BB103490348AFF330
:10016000008008BD000000009C0C00203026010823
:10017000EFF3108072B6704780F310887047464ADC
:100180001368012B04D04FF001031360434A106041
:10019000434A116043484FF0805101607047EFF3CC
:1001A000108272B63C48016851B34FF00001016003
:1001B0003A48016891B1EFF309811EF0100F08BFB2
:1001C00021ED108B21E9F00F4FF000041EF0100F0D
:1001D00008BF012441F8044D0068016030490968F6
:1001E000096808C9B1E8F00F002B18BFB1EC108BFB
:1001F00081F309884EF0100E002B18BF2EF0100E60
:1002000082F310884EF0040E704725490860EFF322
:10021000148222F0040282F3148820494FF0000077
:1002200008601D494FF0010008601F481F49D0F8C1
:10023000002041EA020101601A484FF0805101603C
:100240001B480068006800BF80F3088861B662B68A
:10025000BFF34F8FBFF36F8F704700BFEFF308807E
:100260001EF0040F01D0EFF3098020E9F00F40F8F1
:1002700004ED40F804ED1EF0040F02D080F309886D
:1002800001E080F3088800B50AF0B4FC5DF804EBE7
:100290004EF0040E704700000819002000190020DD
:1002A0000419002004ED00E020ED00E00000FFFF55
:1002B00008ED00E081F0004102E000BF83F0004360
:1002C00030B54FEA41044FEA430594EA050F08BFF1
:1002D00090EA020F1FBF54EA000C55EA020C7FEAB5
:1002E000645C7FEA655C00F0E2804FEA5454D4EB32
:1002F0005555B8BF6D420CDD2C4480EA020281EAFC
:10030000030382EA000083EA010180EA020281EA33
:100310000303362D88BF30BD11F0004F4FEA013185
:100320004FF4801C4CEA113102D0404261EB410194
:1003300013F0004F4FEA03334CEA133302D052421A
:1003400063EB430394EA050F00F0A780A4F10104D6
:10035000D5F1200E0DDB02FA0EFC22FA05F2801810
:1003600041F1000103FA0EF2801843FA05F35941F6
:100370000EE0A5F120050EF1200E012A03FA0EFC75
:1003800028BF4CF0020C43FA05F3C01851EBE3719F
:1003900001F0004507D54FF0000EDCF1000C7EEBBC
:1003A00000006EEB0101B1F5801F1BD3B1F5001FFA
:1003B0000CD349085FEA30004FEA3C0C04F1010419
:1003C0004FEA445212F5800F80F09A80BCF1004F42
:1003D00008BF5FEA500C50F1000041EB045141EAC4
:1003E000050130BD5FEA4C0C404141EB0101013C8D
:1003F00028BFB1F5801FE9D291F0000F04BF01467C
:100400000020B1FA81F308BF2033A3F10B03B3F14D
:1004100020020CDA0C3208DD02F1140CC2F10C02DD
:1004200001FA0CF021FA02F10CE002F11402D8BF3B
:10043000C2F1200C01FA02F120FA0CFCDCBF41EA07
:100440000C019040E41AA2BF01EB0451294330BDD6
:100450006FEA04041F3C1CDA0C340EDC04F11404B3
:10046000C4F1200220FA04F001FA02F340EA03008A
:1004700021FA04F345EA030130BDC4F10C04C4F1D0
:10048000200220FA02F001FA04F340EA03002946B0
:1004900030BD21FA04F0294630BD94F0000F83F4FA
:1004A000801306BF81F480110134013D4EE77FEADD
:1004B000645C18BF7FEA655C29D094EA050F08BF29
:1004C00090EA020F05D054EA000C04BF194610460A
:1004D00030BD91EA030F1EBF0021002030BD5FEA4E
:1004E000545C05D14000494128BF41F0004130BD76
:1004F00014F580043CBF01F5801130BD01F00045CA
:1005000045F0FE4141F470014FF0000030BD7FEA3C
:10051000645C1ABF194610467FEA655C1CBF0B4637
:10052000024650EA013406BF52EA033591EA030F4E
:1005300041F4002130BD00BF90F0000F04BF002146
:10054000704730B54FF4806404F132044FF0000579
:100550004FF0000150E700BF90F0000F04BF0021F2
:10056000704730B54FF4806404F1320410F0004558
:1005700048BF40424FF000013EE700BF42004FEA53
:10058000E2014FEA31014FEA02701FBF12F07F43D0
:1005900093F07F4F81F06051704732F07F4208BF87
:1005A000704793F07F4F04BF41F40021704730B58E
:1005B0004FF4607401F0004521F000411CE700BFDA
:1005C00050EA010208BF704730B54FF000050AE05D
:1005D00050EA010208BF704730B511F0004502D55E
:1005E000404261EB41014FF4806404F132045FEA60
:1005F000915C3FF4D8AE4FF003025FEADC0C18BF09
:1006000003325FEADC0C18BF033202EBDC02C2F1FA
:10061000200300FA03FC20FA02F001FA03FE40EA8C
:100620000E0021FA02F11444BDE600BF70B54FF090
:10063000FF0C4CF4E06C1CEA11541DBF1CEA13556E
:1006400094EA0C0F95EA0C0F00F0DEF82C4481EAD6
:10065000030621EA4C5123EA4C5350EA013518BFF6
:1006600052EA033541F4801143F4801338D0A0FBE3
:1006700002CE4FF00005E1FB02E506F00042E0FB90
:1006800003E54FF00006E1FB03569CF0000F18BF96
:100690004EF0010EA4F1FF04B6F5007F64F540743E
:1006A00004D25FEA4E0E6D4146EB060642EAC621D1
:1006B00041EA55514FEAC52040EA5E504FEACE2E3E
:1006C000B4F1FD0C88BFBCF5E06F1ED8BEF1004F41
:1006D00008BF5FEA500E50F1000041EB045170BDBD
:1006E00006F0004646EA010140EA020081EA030101
:1006F000B4EB5C04C2BFD4EB0C0541EA045170BDFD
:1007000041F480114FF0000E013C00F3AB8014F176
:10071000360FDEBF002001F0004170BDC4F10004BF
:10072000203C35DA0C341BDC04F11404C4F1200540
:1007300000FA05F320FA04F001FA05F240EA02009B
:1007400001F0004221F0004110EBD37021FA04F6D1
:1007500042EB06015EEA430E08BF20EAD37070BD8B
:10076000C4F10C04C4F1200500FA04F320FA05F0EA
:1007700001FA04F240EA020001F0004110EBD370EC
:1007800041F100015EEA430E08BF20EAD37070BD5C
:10079000C4F1200500FA05F24EEA020E20FA04F335
:1007A00001FA05F243EA020321FA04F001F00041E4
:1007B00021FA04F220EA020000EBD3705EEA430E55
:1007C00008BF20EAD37070BD94F0000F0FD101F084
:1007D0000046400041EB010111F4801F08BF013CBD
:1007E000F7D041EA060195F0000F18BF704703F0FB
:1007F0000046520043EB030313F4801F08BF013D82
:10080000F7D043EA0603704794EA0C0F0CEA13553D
:1008100018BF95EA0C0F0CD050EA410618BF52EAF7
:100820004306D1D181EA030101F000414FF00000FD
:1008300070BD50EA410606BF1046194652EA43060B
:1008400019D094EA0C0F02D150EA013613D195EA7F
:100850000C0F05D152EA03361CBF104619460AD1C7
:1008600081EA030101F0004141F0FE4141F47001D1
:100870004FF0000070BD41F0FE4141F4780170BDC1
:1008800070B54FF0FF0C4CF4E06C1CEA11541DBF26
:100890001CEA135594EA0C0F95EA0C0F00F0A7F828
:1008A000A4EB050481EA030E52EA03354FEA013155
:1008B00000F088804FEA03334FF0805545EA131368
:1008C00043EA12634FEA022245EA111545EA106530
:1008D0004FEA00260EF000419D4208BF964244F1C7
:1008E000FD0404F5407402D25B084FEA3202B61AE6
:1008F00065EB03055B084FEA32024FF480104FF4BA
:10090000002CB6EB020E75EB030E22BFB61A75462D
:1009100040EA0C005B084FEA3202B6EB020E75EBC0
:10092000030E22BFB61A754640EA5C005B084FEA28
:100930003202B6EB020E75EB030E22BFB61A7546F5
:1009400040EA9C005B084FEA3202B6EB020E75EB00
:10095000030E22BFB61A754640EADC0055EA060EC1
:1009600018D04FEA051545EA16754FEA06164FEA04
:10097000C30343EA52734FEAC2025FEA1C1CC0D1B0
:1009800011F4801F0BD141EA00014FF000004FF03D
:10099000004CB6E711F4801F04BF01430020B4F1FE
:1009A000FD0C88BFBCF5E06F3FF6AFAEB5EB030CB6
:1009B00004BFB6EB020C5FEA500C50F1000041EBB3
:1009C000045170BD0EF0004E4EEA113114EB5C0480
:1009D000C2BFD4EB0C0541EA045170BD41F4801153
:1009E0004FF0000E013C90E645EA060E8DE60CEA5B
:1009F000135594EA0C0F08BF95EA0C0F3FF43BAF78
:100A000094EA0C0F0AD150EA01347FF434AF95EA2E
:100A10000C0F7FF425AF104619462CE795EA0C0F12
:100A200006D152EA03353FF4FDAE1046194622E7DF
:100A300050EA410618BF52EA43067FF4C5AE50EAB9
:100A400041047FF40DAF52EA43057FF4EBAE12E7A9
:100A50004FEA410212F5001215D211D56FF47873E6
:100A6000B3EB625212D94FEAC12343F0004343EA89
:100A7000505311F0004F23FA02F018BF4042704764
:100A80004FF00000704750EA013005D111F00040EE
:100A900008BF6FF0004070474FF00000704700BF84
:100AA00053B94AB9002908BF00281CBF4FF0FF31D5
:100AB0004FF0FF3000F074B9ADF1080C6DE904CED1
:100AC00000F006F8DDF804E0DDE9022304B0704729
:100AD0002DE9F047089D04468E46002B4DD18A42F1
:100AE000944669D9B2FA82F252B101FA02F3C2F124
:100AF000200120FA01F10CFA02FC41EA030E9440B5
:100B00004FEA1C48210CBEFBF8F61FFA8CF708FBD5
:100B100016E341EA034306FB07F199420AD91CEBAD
:100B2000030306F1FF3080F01F81994240F21C81DF
:100B3000023E63445B1AA4B2B3FBF8F008FB103327
:100B400044EA034400FB07F7A7420AD91CEB04045C
:100B500000F1FF3380F00A81A74240F2078164442C
:100B6000023840EA0640E41B00261DB1D4400023B1
:100B7000C5E900433146BDE8F0878B4209D9002D15
:100B800000F0EF800026C5E9000130463146BDE89F
:100B9000F087B3FA83F6002E4AD18B4202D3824209
:100BA00000F2F980841A61EB030301209E46002DB8
:100BB000E0D0C5E9004EDDE702B9FFDEB2FA82F20D
:100BC000002A40F09280A1EB0C014FEA1C471FFA6B
:100BD0008CFE0126200CB1FBF7F307FB131140EA52
:100BE00001410EFB03F0884208D91CEB010103F11F
:100BF000FF3802D2884200F2CB804346091AA4B2E1
:100C0000B1FBF7F007FB101144EA01440EFB00FEB4
:100C1000A64508D91CEB040400F1FF3102D2A64519
:100C200000F2BB800846A4EB0E0440EA03409CE7B8
:100C3000C6F12007B34022FA07FC4CEA030C20FA65
:100C400007F401FA06F31C43F9404FEA1C4900FA85
:100C500006F3B1FBF9F8200C1FFA8CFE09FB181102
:100C600040EA014108FB0EF0884202FA06F20BD975
:100C70001CEB010108F1FF3A80F08880884240F2C5
:100C80008580A8F102086144091AA4B2B1FBF9F009
:100C900009FB101144EA014100FB0EFE8E4508D904
:100CA0001CEB010100F1FF346CD28E456AD9023889
:100CB000614440EA0840A0FB0294A1EB0E01A1426E
:100CC000C846A64656D353D05DB1B3EB080261EBDC
:100CD0000E0101FA07F722FA06F3F1401F43C5E9B6
:100CE000007100263146BDE8F087C2F12003D840EC
:100CF0000CFA02FC21FA03F3914001434FEA1C472E
:100D00001FFA8CFEB3FBF7F007FB10360B0C43EA1F
:100D1000064300FB0EF69E4204FA02F408D91CEBCF
:100D2000030300F1FF382FD29E422DD902386344CD
:100D30009B1B89B2B3FBF7F607FB163341EA03416D
:100D400006FB0EF38B4208D91CEB010106F1FF38BC
:100D500016D28B4214D9023E6144C91A46EA0046B3
:100D600038E72E46284605E70646E3E61846F8E645
:100D70004B45A9D2B9EB020864EB0C0E0138A3E78E
:100D80004646EAE7204694E74046D1E7D0467BE76F
:100D9000023B614432E7304609E76444023842E7E7
:100DA000704700BF000000000000000000000000CD
:100DB0000000000000000000000000000000000033
:100DC000A2EB0300704700BF02780B78012A28BF0E
:100DD0009A42F5D16DE9044540EA0104CDE9026784
:100DE0006FF0000C4FEA447212B380EA010414F071
:100DF000070F6AD100F0070420F0070004F0030594
:100E000021F007014FEAC505F0E8042314F0040FB0
:100E1000F1E804670CFA05F462EA040266EA0406E3
:100E20000AD063EA0403624667EA0407664603E001
:100E3000F0E80423F1E8046782FA4CF582EA06043C
:100E4000A4FA8CF46CBB83FA4CF583EA0705A5FA87
:100E50008CF595B950E9022351E9026782FA4CF505
:100E600082EA0604A4FA8CF483FA4CF583EA0705B7
:100E7000A5FA8CF52543DBD09CB92DBAB5FA85F4DB
:100E800024F0070427FA04F1DDE9026723FA04F3EA
:100E900003F0FF0001F0FF01FDE80445A0EB0100B5
:100EA000704724BAB4FA84F424F0070426FA04F153
:100EB000DDE9026722FA04F202F0FF0001F0FF010F
:100EC000FDE80445A0EB0100704714F0030F3CD18E
:100ED00010F0030428D150F8082B51F8083B82FA8F
:100EE0004CF582EA0305A5FA8CF55DB950F8042C9F
:100EF00051F8043C82FA4CF582EA0305A5FA8CF518
:100F0000002DE8D02DBAB5FA85F424F0070423FAB1
:100F100004F122FA04F202F0FF0001F0FF01FDE803
:100F20000445A0EB010070474FEAC40420F0030021
:100F300050F8082B21F0030151F8083B0CFA04F497
:100F400062EA040263EA0403C9E710F003041AD05A
:100F5000A1EB040120F00300E40750F8042B06D0B5
:100F60000FD28B785FFAA2F4E41A06D12BB1CB78BA
:100F70005FFAB2F4E41A00D11BB920465DF8104BB9
:100F8000704701F1040150F8042BCC0721F0030154
:100F900051F8043B48D824D222F07F4482FA4CF521
:100FA00094EA1325A5FA8CF50AD165B951F8043BEA
:100FB00084EA0204B4EB036F0ED150F8042BEBE784
:100FC0004FEA132355E035F07F454DD10878FDE811
:100FD0000445C0F1000070474FEA126203F0FF03BE
:100FE00047E002EA1C4482FA4CF594EA1345A5FA5C
:100FF0008CF50AD165B951F8043B84EA0204B4EBDC
:10100000034F0CD150F8042BEBE74FEA134330E0C9
:1010100015EA1C4528D10B884FEA124229E04FEA15
:10102000124203EA1C4324E002F0FF0482FA4CF56A
:1010300094EA1365A5FA8CF50AD165B951F8043B19
:1010400084EA0204B4EB032F09D150F8042BEBE738
:101050004FEA13630DE015F0FF0F05D10B684FEA5F
:10106000122223F07F4304E04FF00000FDE8044526
:10107000704712BA1BBA82FA4CF482EA0304A4FA4B
:101080008CF5B5FA85F402FA04F203FA04F34FEA98
:101090001260FDE80445A0EB1360704700000000FB
:1010A0000000000000000000000000000000000040
:1010B0000000000000000000000000000000000030
:1010C00090F800F06DE9024520F007016FF0000C88
:1010D00010F0070491F820F040F049804FF0000430
:1010E0006FF00700D1E9002391F840F000F108000B
:1010F00082FA4CF2A4FA8CF283FA4CF3A2FA8CF343
:101100004BBBD1E9022382FA4CF200F10800A4FAA9
:101110008CF283FA4CF3A2FA8CF3E3B9D1E90423FD
:1011200082FA4CF200F10800A4FA8CF283FA4CF334
:10113000A2FA8CF37BB9D1E9062301F1200182FAEE
:101140004CF200F10800A4FA8CF283FA4CF3A2FAF4
:101150008CF3002BC6D0002A04BF04301A4612BA02
:10116000B2FA82F2FDE8024500EBD2007047D1E905
:10117000002304F00305C4F100004FEAC50514F094
:10118000040F91F840F00CFA05F562EA05021CBF65
:1011900063EA050362464FF00004A9E7114885465B
:1011A0001148016841F470010160BFF34F8FBFF334
:1011B0006F8F0E480E490F4A002302E0D458C450E6
:1011C0000433C4188C42F9D30B4A0C4C002301E0C1
:1011D00013600432A242FBD302F0CAFD07F069F8A3
:1011E000FEE70000940C002088ED00E000000020E5
:1011F0009408002038260108980C0020F8190020D7
:10120000FEE700002DE9F041114DDFF85080114F4D
:10121000114E0FCD88B002AC0FC495E8030002ADAB
:1012200084E80300002455F8041B0191084609F0E6
:101230007DFE0134002814BF42463A4601993046EB
:1012400007F05EFD062CEED1002008B0BDE8F0816D
:1012500018F000085FF0000867F000085CF0000874
:10126000F0B585B00746084601920D461E4609F0C6
:101270005DFE019A044648B92946384601F016FF3A
:1012800070B9284609F052FE044648B140F60403FE
:1012900002A92046ADF8083003960BF00FFC00B110
:1012A0000024204605B0F0BD1FB59F238DF80B30FC
:1012B000154B16491B8BADF80C3000238DF80E3002
:1012C0001348144B0422FFF7CBFF38B9124807F03C
:1012D00017FD4FF0FF34204604B010BD03230093E8
:1012E000012203AB0DF10B010BF020FC044608B109
:1012F0000A48ECE79DF80E309DF80D209DF80C1083
:10130000074807F0FDFCE6E718F0000872F0000857
:1013100046F0000880A8120178F0000893F0000859
:10132000A9F000082DE9FF4118480BF01BFA06460A
:1013300038B9174807F0E4FC4FF0FF3004B0BDE8BF
:10134000F0811448DFF8548007F0DAFC002501240E
:101350002F46012201A93046ADF80440ADF80670D1
:101360000397ADF808700BF019FA012804D1214653
:10137000404607F0C5FC013501347F2CE9D1064811
:10138000294607F0BDFC0020D8E700BF50F0000858
:10139000C8F00008DAF00008F0F00008E6F00008F5
:1013A00037B51E4D2A680B4692B192F8342002F0F0
:1013B0000702012A0CD01A4B012232201A600024A5
:1013C00008F0C8FD17482C6007F09AFC00201BE0CD
:1013D00001281BDD5868102200210DF099FD20F036
:1013E0007F40114A16230A211060CDE900310F48D1
:1013F0000F494FF4806308F071FC286048B90D482C
:1014000007F07EFC6FF0040003B030BD4FF47F4066
:10141000E7E708F0DBFD0848D6E700BFB80C00207E
:10142000B40C002004F10008400D00201BF100085E
:101430001D16000821F1000829F100082DE9F043EC
:10144000142091B006F0C0FE012838BF01201C22F4
:101450000021DFF8C491074609A80DF08DFA142287
:10146000002104A80DF088FAD9F80060002E7BD185
:10147000604C614DE36943F00103E361E36903F00C
:1014800001030193019B636B43F004036363636B8C
:1014900003F004030293029B4FF0904006234FF0A9
:1014A000020804A90893CDE9048802F0EBFF4FF08D
:1014B0008043C5E900362846B423C5E90336AE604B
:1014C00003F080FD002840F091806023CDE90930D1
:1014D0000B90042209A928460D9203F0C3FD06468D
:1014E000002840F08380454A136923F0FE4343F00F
:1014F00004531361636943EA080363616369404C01
:1015000003EA08030146039344222046039B09F0A3
:101510009AFA3C4AA6601023C4E9002380214FF4C4
:101520008073C4E903134FF48063C4E90536204691
:101530004FF40053E36102F02DFD002856D1204600
:1015400002F0E8FC0246002850D141463B20AC6244
:10155000656202F08BFC3B2002F0BAFC2A4809F0DD
:101560007FFE0123C9F80030284C2948002154F897
:10157000042B42EA022303F47F03D2B2134305464D
:10158000002213F4000F02F1010214BF78263C265A
:10159000182A25F8026B4FEA4303F2D11831C0290B
:1015A00000F13000E3D1802200211A480DF0E4F967
:1015B000154809F055FE164A0F484FF48073042170
:1015C00003F006FF90B939460F4809F059FE04466A
:1015D000042109483CB103F055FF6FF00104204697
:1015E00011B0BDE8F08303F04DFFF8E74FF0FF3492
:1015F000F5E700BF00100240000D00200000014090
:10160000BC0C002058040240640F0020440F00204E
:10161000440D0020C40E0020680F00202DE9F74F74
:101620000568284F2848DFF8A8A0294607F068FB7E
:101630000024C5F30743C5F307293C6001934FF02D
:101640000108FF26EDB23B682BB1204803B0BDE88E
:10165000F04F07F055BB06F091FD019B6343B3FBD0
:10166000F6F109FB04F3B3FBF6F31B0243EA014373
:1016700004FB05F1B1FBF6F10B43CAE90033CAE9FB
:101680000233CAE90433CAE906338346FFF7D6FEBC
:1016900006F074FDA0EB0B03092B05D80BF10A0B28
:1016A000ABEB000008F056FC04EB4804FE2C05DC14
:1016B000002CC8DC00244FF00108C4E74FF0FF38CD
:1016C000FF24C0E7B40C00204EF1000871F10008BF
:1016D000440F0020022870B50C4603DC134807F0C5
:1016E0000FFB09E048680DF011F90728054607D9F6
:1016F00001460F4807F004FB4FF0FF34204670BD51
:10170000A068102200210DF003FC0A4B20F07F4658
:1017100043F82560FFF792FE044608B10648DEE76D
:1017200032462946054807F0EBFAE7E788F100085A
:10173000AAF10008440F0020BDF10008D7F100080D
:10174000F0B5A9B008AA05460C468023174602F852
:10175000013B0133DBB2C02BF9D118AE9F234022ED
:10176000002130468DF8203009F06DF91422002157
:1017700003A809F068F900234022CDE905239DF86C
:101780001C3023F0030343F0030303A92846CDE9EB
:1017900003768DF81C300BF0C5FA28B10A482146B3
:1017A00007F0AEFA29B0F0BD9DF8633001939DF8C3
:1017B000623000939DF860209DF861300348214617
:1017C00007F09EFAEEE700BFECF1000800F2000817
:1017D0002DE9F04F91B000238DF80330ADF80430BF
:1017E0004149424B42480422FFF73AFD30B3404999
:1017F000FFF7A6FF3F4B404940481122FFF730FD5D
:1018000000B33E49FFF79CFF3D493E48272201F0C7
:10181000BBF83D4A3D49002808BF11463C4807F047
:101820006FFA3C480AF09EFF054678B93A4807F03F
:1018300067FA4FF0FF3011B0BDE8F08F374807F07E
:101840005FFAD7E7364807F05BFADDE700240126A8
:101850002746012202A92846CDE902770497ADF870
:1018600008600AF09BFF012807D1072CDFBF10ABEF
:1018700003EB8403013443F8206C01367F2EE8D15A
:10188000002608AFB2460DF1030B4FF00108A64247
:1018900003D1244807F034FA22E057F8049BADF84E
:1018A0000AA01FFA89F3ADF80830ADF8143002220F
:1018B00001AB02A92846CDF810B0ADF80C80ADF808
:1018C00016800793ADF818200AF068FF022809D1A6
:1018D0009DF805309DF804201348494607F010FA9A
:1018E0000020A8E70136D2E772F0000880A81201B4
:1018F00046F0000800093D0037F200084BF00008F0
:101900004BF200083CF000085CF000089CF900086D
:1019100073F2000850F0000885F2000829F2000870
:101920003DF20008C0F2000895F2000808B507F083
:1019300051F9034802F062FCBDE8084007F05AB9CB
:10194000BC0C002030B10368B3F1804F02D10248D3
:1019500009F022BD704700BF640F002010B50C488D
:1019600007F0CEF90B4807F0CBF90B4807F0C8F9A0
:10197000002112200AF046F8002484F001042146D8
:1019800012200AF059F84FF4FA7008F0E3FAF4E77D
:10199000F1F200081CF3000835F3000830B500240C
:1019A00091B0214614226846CDE908440CF0E4FFCA
:1019B0004FF480331F22CDE905234FF44072079284
:1019C000022501221020CDE90A20CDE90D5305A8FA
:1019D0004FF4E0130C920F9302F0AAFE0F23CDE90F
:1019E000003506214FF480636846CDE90244049334
:1019F00003F0B8F811B030BD134B9A6942F0010200
:101A00009A619A6984B002F001020092009ADA6940
:101A100042F08052DA61DA6902F080520192019A52
:101A20005A6B42F004025A635A6B02F004020292AB
:101A3000029A5A6B42F008025A635B6B03F0080388
:101A40000393039B04B070470010024010B5044696
:101A500088B01422002103A80CF08EFF2268174BD7
:101A60009A4228D103F5E63302245A6B42F004026D
:101A70005A635A6B02F004020192019ADA6942F445
:101A80000032DA61DB69079403F400330293029BAE
:101A90000423CDE9033403A901234FF09040CDE99D
:101AA000053402F0EFFC082303A94FF090400393A4
:101AB000079402F0E7FC08B010BD00BF00440040EE
:101AC0000268074B9A4209D1064AD36923F40033CE
:101AD000D3610C214FF0904002F098BD704700BFD9
:101AE000004400400010024010B5044688B01422A3
:101AF000002103A80CF040FF2268134B9A4220D12A
:101B0000124C1348636B43F008036363636B03F089
:101B100008030193019B4FF440621223CDE9032394
:101B200003A901230222CDE90532079302F0AAFCA2
:101B3000E36943F48003E361E36903F48003029300
:101B4000029B08B010BD00BF0058004000100240CA
:101B50000004004810B514228AB0044600210DEBA1
:101B600002000CF009FF2368214A934220D1214B47
:101B70005A6B42F004025A635A6B02F0040201925B
:101B8000019A9A6942F480529A619B6903F48053E6
:101B90000293E021029B0223CDE90513089303235E
:101BA000099305A94FF0904002F06CFC0AB010BDFB
:101BB000114A9342FAD10F4B10485A6B42F0080277
:101BC0005A635A6B02F008020392039ADA6942F4EC
:101BD0000042DA61DB6903F400430493049B38227A
:101BE0000223CDE90523CDE9083305A9DCE700BFD1
:101BF0000030014000100240003C0040000400485A
:101C000010B5044686B01422002101A80CF0B4FEE1
:101C10002368B3F1804F15D103F5043301A95A6B42
:101C200042F004025A635B6B03F004030093009BD1
:101C30000223CDE9013304934FF09040062305932E
:101C400002F020FC06B010BD09F05EB908B502F044
:101C50009DF80B4B4FF47A721B68B3FBF2F34FF015
:101C6000E022013B5361074BE02183F8231000235E
:101C7000936107231361044B01221A6008BD00BF62
:101C80007002002000ED00E00000002008B5FFF722
:101C9000DDFF002008BD0000034A044913680968FD
:101CA0000B441360704700BF241500200000002083
:101CB00008B506F08FFF4FF0E0231B69DB0301D569
:101CC000FFF7EAFF06F060FABDE8084006F092BFB1
:101CD00008B54FF0E0231B69DB0301D5FFF7DCFFFC
:101CE000014B186808BD00BF2415002008B5FFF798
:101CF000ADFF002008BD000007B502F099F8174AB3
:101D0000D36823F4E0631B041B0C43F0052343F466
:101D10007A03D360FFF742FE02F038F8104B114906
:101D20009A69114842F001029A619A6902F001022F
:101D30000092009ADA6942F08052DA61DB6903F0BE
:101D400080530193019B07F081F806F057FA07488A
:101D500003B05DF804EB06F0A7BF00BF00ED00E0A4
:101D60000010024000000120F81900203CF000089B
:101D700003460122002002FA00F1994204D001300A
:101D80002028F8D14FF0FF30704700001A4B1B4954
:101D90005A6B1B4842F004025A635A6B86B002F039
:101DA00004020192019A5A6B42F008025A635A6B7C
:101DB00002F008020292029A5A6B42F010025A6331
:101DC0005A6B02F010020392039A5A6B42F02002FF
:101DD0005A635A6B02F020020492049A5A6B42F042
:101DE00040025A635B6B03F040030593059B00229E
:101DF00006B009F0E5BD00BF00100240A8F40008DD
:101E000042F0000838B50446FFF75AF9031F012BCA
:101E10001CD82378502B19D1A3782E2B16D1637898
:101E2000413BDAB2192A11D8E11C002204440A25E8
:101E3000A14205D11801C0B202F00F02104338BD13
:101E400011F8010B303805FB0202F1E7024806F0F9
:101E500057FF6FF00900F2E788F4000838B5C1F3C6
:101E60000313042B1ED801F00F0101208840FFF757
:101E70007FFF0F28044615D8FEF77AF90B4A210197
:101E800002EB04135458013418BF4FF0FF354FF0E4
:101E900000041FBF55509C601C71DC60FEF76CF99C
:101EA000204638BD6FF00500FBE700BF04000020AE
:101EB0002DE9F0411F46C1F30313042BDDF8188010
:101EC0000D46164635D801F00F0301209840FFF764
:101ED0004FFF0F2804462CD8FEF74AF9164A4FEA5E
:101EE000041C014652F80CE0AE4502EB04140CD180
:101EF000A368BB4209D12379B34206D1E3684345C5
:101F000003D1FEF739F9002007E0BEF1FF3F06D00C
:101F10000846FEF731F96FF00600BDE8F08102EBEC
:101F20000C0342F80C509F601E71C3F80C800846E9
:101F3000E7E76FF00500F0E7040000207FB5C1F38C
:101F40000310042810D8012301F00F0103FA01F156
:101F5000CDE90113022104914AB9039200F59010D2
:101F600001A9800202F08EFA07B05DF804FB012A95
:101F700003D1002302930393F0E7022A02D1002247
:101F80000292F8E7032A03D10023CDE90231E5E705
:101F9000042AE3D1112302930023ECE7F0B5C1F347
:101FA0000315042D89B017D8012A4AD101F00F0179
:101FB00002FA01F42046FFF7DBFE0F2806460BD895
:101FC000FEF7D6F8394B320103EB06119B5801336B
:101FD000074604D1FEF7D0F86FF0050028E00B7932
:101FE00003940222012B069224D0934225D013B9E8
:101FF0002F4B059204932F4C05F5901003A98002F6
:1020000002F040FA04EB8603002293F902000190EB
:10201000052101F02BFF019801F05AFF264A34F800
:10202000263011680B4313603846FEF7A5F80020F0
:1020300009B0F0BD0593214BDCE700230593204B4D
:10204000D8E7002AC8D101F00F0101278F40384698
:10205000FFF78EFE0F280446BED8FEF789F8064625
:1020600005F590103946800202F0D0FA1248114B63
:10207000026833F8241022EA01020260A1F1200074
:10208000B0F5F07F0AD812F4787F05D103EB840312
:1020900093F9020001F02AFF3046C6E7A1F58061FE
:1020A000B1F5F84FF2D812F47C4FEEE704000020AF
:1020B00000001110C4F400086C0F00200000211073
:1020C00000003110C1F30310042808B50ED8012315
:1020D00001F00F0103FA01F100F5901089B28002BE
:1020E00002F00EFB003818BF012008BD6FF0090098
:1020F000FBE7C1F3031004280AD801F00F01012304
:1021000003FA01F100F5901089B2800202F0FEBAE4
:102110007047000010B5FFF72BFE054B03EB0010D6
:1021200083681BB1BDE81040C068184710BD00BFF0
:102130000400002008B506F04DFD012002F0ECFA85
:10214000BDE8084006F056BD08B506F043FD022084
:1021500002F0E2FABDE8084006F04CBD08B506F012
:1021600039FD042002F0D8FABDE8084006F042BD6F
:1021700008B506F02FFD082002F0CEFABDE80840B1
:1021800006F038BD08B506F025FD102002F0C4FAAF
:10219000BDE8084006F02EBD08B506F01BFD202066
:1021A00002F0BAFA402002F0B7FA802002F0B4FA46
:1021B0004FF4807002F0B0FA4FF4007002F0ACFA05
:1021C000BDE8084006F016BD08B506F003FD4FF463
:1021D000806002F0A1FA4FF4006002F09DFA4FF423
:1021E000805002F099FA4FF4005002F095FA4FF443
:1021F000804002F091FA4FF4004002F08DFABDE801
:10220000084006F0F7BC000010B5044628B909499B
:1022100009484FF4817206F0FBFD54F8E83C1A6857
:10222000920645BF586854F8983C4FF0FF3018406C
:1022300010BD00BF1BF6000804F5000838B50D46B8
:10224000044620B907490848F52206F0E1FD54F894
:10225000E83C6FF040021A605D601A685206FCD5D7
:10226000012038BD11F6000804F5000870B50446D9
:102270000E46FDF77DFF54F8943C012E5A6854F841
:10228000503C05460AD0022E14D0934214D39B1A18
:102290003BB92846BDE87040FDF76EBF9342F8D9C0
:1022A0009B1A1B0244F8502C43F0030120460AF00D
:1022B0003DF9EEE79342ECD8E16CC1F38F210B447A
:1022C000E5E70000F8B50D46044628B979497A4893
:1022D00040F2F71206F09CFDB5F5006F09D0B5F598
:1022E000007F00F0E080734974484FF4FC7206F000
:1022F0008FFD54F89C3C1E69A4F14C07704B71682B
:102300005A690A435A61B5F5007F5B694ED1A4F161
:10231000E803A4F1940244F8A82C44F8703C326815
:102320003A6000238021B5F5007FC7E90231C7E993
:10233000043347D17B602023BB614FF48053FB61A2
:10234000002A65D0F168002962D05E4B9A425FD9BD
:1023500079339A423CD85C4B13441422B3FBF2F31A
:102360005A4A0133981E0628594828BF0123824241
:102370003ED1063303F00302D2007F209040072BAA
:102380006FEA000001FA02F22CD1DFF84CC103F031
:102390000303DCF80C20DB007F20984022EA0002D7
:1023A00001FA03F31343CCF80C3031E0B5F5006FBC
:1023B00001BFA4F1E803A4F14C0244F8AC2C44F8AA
:1023C000283CACE7B5F5006FB7D110217960B3E7D1
:1023D000404B1344502B1BD81422B3FBF2F33C4A5E
:1023E0000133BFE73C490B6903401A430A610FE020
:1023F000013B032BC9D8DFF8E0C0DB00DCF8082084
:102400007F20984022EA000299401143CCF808103E
:10241000384601F0BFFD28B1264930484FF40B7211
:1024200006F0F6FC384601F075FD28B121492B482D
:1024300040F2312206F0ECFCB5F5007F19D1D4E969
:102440001323A4F1E8001968C2F38F2203F0C6F940
:1024500028B11849214840F2392206F0D9FC54F835
:10246000E83C5A6922F001025A61DA6842F010022F
:10247000DA600022114696F9080001F0F7FC96F99F
:10248000080001F025FD54F89C3C002293F9080057
:10249000012101F0EBFC54F89C3C93F90800BDE8E5
:1024A000F84001F015BD54F89C3CA4F19407DE6897
:1024B00024E700BF48F6000804F5000816F50008F8
:1024C0000010024007000240F8FFFDBF000002407C
:1024D00000040240F8FBFDBF000001406006010857
:1024E00037B5154A154D164C92E80300154AEA60B7
:1024F0004FF42062A4F8E620134A2A61134AC4F874
:102500002C216B4604F5987283E8030082E80300EF
:10251000E56404F1E8002968002340F6037209F03D
:10252000D1FF044628B10A490A4840F2EA2206F0DF
:102530006FFC204603B030BD34F0000824010020B9
:10254000700F0020040100201401002058F600083C
:1025500037F6000855F5000870B50D4616460446D6
:1025600020B93C493C48BC2206F052FCEB1E042B2F
:1025700061D8DFE803F06267604C030054F89C3CCC
:1025800093F90830002B0DDB5A09012103F01F03DA
:1025900001FA03F32032314941F82230BFF34F8F63
:1025A000BFF36F8F54F8E82CD368B6F5007F23F0A3
:1025B0002003D3601AD154F89C3CDB68943C93F917
:1025C000080001F093FC204601F05CFD20B1214998
:1025D0002348CA2206F01CFC204601F0DBFC50B365
:1025E000CE221C491E4806F013FC24E0B6F5006F0D
:1025F00021D154F89C3C1B6993F9080001F076FC4A
:10260000A4F14C0001F0C6FCA8B1D622E9E754F8C9
:102610009C3C002293F90800012101F027FC54F8AA
:102620009C3C93F9080001F053FC54F8E82CD36863
:1026300043F02003D360002070BD31462046FFF7F1
:1026400041FEF8E7A4F1E80003F076F80028F2D0A4
:10265000EB22C6E704F6000804F5000800E100E0FC
:1026600060060108F8B50E4614461F46054628B90F
:102670000D490E484FF4887206F0CAFB2EB90A497C
:102680000B4840F2111206F0C3FB0CB90020F8BD54
:10269000022FFBD1A2B23146A5F1E80003F064F8A5
:1026A0000028F3D12046F2E725F6000804F50008DB
:1026B00066F5000820B900290CBFFF207F20704775
:1026C000B0F5805F05D1002940F2FF1018BFFF2050
:1026D0007047FF207047000038B50D46044620B90A
:1026E00033493448632206F093FB25B93049324818
:1026F000642206F08DFB54F89C3CEA795B6844F850
:10270000E83C2B6844F8E43C0C23510744F8D43CE3
:102710004FF0000344F8CC3C48BF4FF4407344F8FA
:10272000D03C2B7903F00F02082A2FD0092A33D18D
:102730004FF4805244F8E02CC3F30112012A4FEA0F
:10274000931314BF00224FF40052012B44F8DC2CE9
:1027500024D0022B25D0002344F8D83C238B1B0720
:102760005EBF6B68C3F38F2344F8503CA4F1E800CC
:1027700002F0A0FF0346B8B954F8D81C54F8E00C96
:10278000FFF798FF44F8980C184638BD03F0C002D4
:10279000402ACDD0802ACAE70022CBE74FF4C0639D
:1027A000DAE74FF48063D7E74FF0FF30EDE700BF83
:1027B000F5F5000804F5000875F5000810B5344C6F
:1027C00086B006F007FA23681A6890060CD5DA6816
:1027D000910609D5012104F1E80009F0A7FE06B031
:1027E000BDE8104006F006BAB4F8E62092B11A68C7
:1027F000D2060FD5DA68D0060CD526480021FFF79F
:1028000035FD0023019323681A6801925B680193E8
:10281000019BE4E71A68510611D5DA6852060ED515
:10282000B4F800311B0502D494F8E43013B1184811
:1028300003F0E4F823686FF040021A60CFE71A68EB
:10284000140706D5002202921A6802925A68029270
:10285000029A1A68500706D5002203921A6803925A
:102860005A680392039A1A68910706D500220492C7
:102870001A6804925A680492049A1A68D207AED56C
:10288000002205921A6805925B680593059BA6E7EE
:10289000700F00205810002008B506F09BF903487F
:1028A00001F0ACFCBDE8084006F0A4B9C40F00205C
:1028B00008B506F08FF9034801F0A0FCBDE8084018
:1028C00006F098B90C10002028B90349034840F2DB
:1028D0004A2206F09DBA7047DEF5000884F500082C
:1028E00010B5044628B90649064840F2532206F0BE
:1028F0008FFA04F1E8000221BDE81040FFF7B6BCF2
:10290000C6F5000884F5000810B5044628B9064944
:10291000064840F25B2206F07BFA04F1E800012150
:10292000BDE81040FFF7A2BCAAF5000884F5000836
:1029300038B5044628B91249124840F2762206F00A
:1029400067FAB4F800311B050CD5FDF711FCD4F87B
:102950009C305D68FDF710FC25B9042104F1E80006
:1029600009F0E4FD94F8E43043B1002384F8E43046
:1029700004F1E000BDE8384008F00EBD38BD00BFEE
:1029800092F5000884F50008F8B516460D460029B2
:102990003DD0002A3BD038B1274CE36C23B101462F
:1029A0001868FEF711FAA8B36FF0050042E00123A2
:1029B00084F8E430FDF7E0FB4FF4006104F1E80037
:1029C000FFF780FC04F1E00008F04AFC2946B2B2AF
:1029D000204602F0C9FE054620B184F8E4704FF0AD
:1029E000FF3027E04FF47A7005F0EEFB0128014636
:1029F00038BF012104F1E00008F042FCD0B12046CC
:102A000084F8E45002F03AFF6FF0010012E06FF03A
:102A100009000FE0B4F8E6301B05C5D5FDF7A8FBAB
:102A200094F8E43003F0FF07002BC0D0FDF7A4FBBF
:102A30006FF00600F8BD00BF700F002010B5002831
:102A400051D00268002A4ED0C06800284BD0264BD7
:102A50009A4248D979339A4227D8244B13441422F6
:102A6000B3FBF2F3224A0133991E0629214928BFFC
:102A700001238A4229D1063303F00302D2007F21C9
:102A80009140072B6FEA010100FA02F217D11A4CAC
:102A900003F00303E268DB007F21994022EA010290
:102AA00000FA03F31343E3601DE0144B1344502B6F
:102AB00019D81422B3FBF2F30E4A0133D4E70E48BF
:102AC00003690B401A4302610DE0013B032BDED882
:102AD000094CDB00A2687F21994022EA010200FA3A
:102AE00003F31343A36010BD07000240F8FFFDBFCE
:102AF000000002400004024000000140F8FBFDBF5E
:102B00002DE9F047304C314D94F8EC30304AEA6012
:102B100043F0030384F8EC302E4B2B6194F86432BD
:102B20002D4A2E4FDFF8BC80DFF8BC902A6243F0BC
:102B3000030384F864322A4B6B62F034002614F8E5
:102B4000042C2B6844F8945CD007256444F8F03CCE
:102B50000FD5EB681B6844F88C3C8021002344E9C6
:102B6000223344E9201344E91E334FF4005344F860
:102B7000703C91070ED52B691B6844F8483C102225
:102B8000002344E91123802244E90F2344E90D3353
:102B900044F82C3C04F1840008F062FB69683A4672
:102BA000204609F01DFF824628B14FF41C724146B1
:102BB000484606F02DF9143504F5BC7416B150469C
:102BC000BDE8F0870126BAE7C01000207801002098
:102BD00038010020480100205801002054F8000866
:102BE0006801002029F8000855F500082DE9F04F8C
:102BF0002DED028B0D4687B0814628B9A849A9481A
:102C000040F2271206F004F9D9F844302BB9A44950
:102C1000A5484FF4947206F0FBF82DB9A049A348DB
:102C200040F2291206F0F4F82B7CD9F84480DF0733
:102C3000A8F1F00A0DD599F848108E0609D4D9F8F4
:102C40005000441C05D011F0100118BF012108F0FC
:102C5000F3FED5E9013708EE103A2B6802930FB95D
:102C6000BB4660E0B7F5803F28BFA7F57F47AB685C
:102C70002A6835BFBCB2FF3F00274FF6FF74DB1B4D
:102C80001B1B0AB11A4402926A6812B1D31808EEEB
:102C9000103A18F8046C16F0020627D0092C24D933
:102CA000029B13F0030000D113BB204606F00CF981
:102CB00002990390224607F0FDFE039ED5E900230A
:102CC000002A00F0978018F8040C002B51D000F077
:102CD0000303032B0FD1092C0DD92346324631466D
:102CE000504603F081FC83465AE000260396E5E750
:102CF000029E0390E2E7820707D5092C05D92246F8
:102D00003146504603F0E0FBEDE710F0010B25D013
:102D1000092C23D9664805F0F3FF664805F0F0FF5B
:102D2000654805F0EDFF2A7C96070DD599F84820F7
:102D300012F0200108D1D9F85000441C04D0D30669
:102D400058BF012108F078FEBBF1000F40F0A480CD
:102D5000A86807B0BDEC028BBDE8F08F4FF47A7322
:102D6000009318EE102A02992346504603F050F9BA
:102D7000B9E7830736D5092C34D922463146504667
:102D800003F0A2FB2A7C8346900709D599F84820D6
:102D9000510605D558F8F01C0A6822F040020A6076
:102DA000BBF1000F56D118F8043C9B076ED0092CDC
:102DB0006CD94FF47A7108F1840008F061FA0028A8
:102DC00058D1039B002B3FF44AAF18EE103A2BB1B9
:102DD00018EE100A2246314607F06CFE039806F002
:102DE0009FF83CE702994FF47A732246504603F06D
:102DF00049F8C7E71BB3224618EE100AFF2107F077
:102E000022FE18F8043CDA0707D5092C05D922461A
:102E10003146504603F0C6FC65E70023059358F899
:102E2000F03CDA6805929B680593059B18EE101A32
:102E30004FF47A732246504603F040FA53E71C4899
:102E400005F05EFF1D4805F05BFF1B4805F058FFCD
:102E50004FF0010B164805F053FF5946184805F08E
:102E60004FFF154805F04CFF0022AA60012208F828
:102E70009B2C58E70E4805F043FF124805F040FF31
:102E80000D4805F03DFF4FF0010B4CE7504603F0B5
:102E9000E3FE0128FAD194E74FF0FF3059E700BF75
:102EA00021F80008D8F700086CF6000883F600083F
:102EB00096F60008A8F600081BF7000821F700089E
:102EC00058F700086FF70008F8B50D46044628B912
:102ED0007049714840F2FB1205F09AFF2DB96D4917
:102EE0006E484FF4FE7205F093FF646C44F8905CFA
:102EF00025B96B496B48562205F08AFF2B7813F0F1
:102F0000080F0CBF4FF48272002213F0400F44F8F8
:102F1000EC2C0CBF00224FF4004244F8E82C6A78F5
:102F2000082AA4F1F00640F08B804FF4E06244F8E8
:102F3000E42C03F0010203F0020344F8E03C4FF4F8
:102F4000007344F8D83C54F8943C44F8DC2C1A68DC
:102F5000554B9A427CD901F0B1FE6B68B3EB500F30
:102F600079D3002344F8D43C2A78002312F0040FCC
:102F700014BF1A46802244F8D02C44F8C83C04F808
:102F80009B3C304602F016FF054600285AD114F843
:102F9000043CDA071DD554F8943CA4F18C07D8689A
:102FA000FFF74CFD384600F0B5FF54F8943C44F868
:102FB000A07CDB6844F8686C93F908002A4629462F
:102FC00000F054FF54F8943CDB6893F9080000F0DB
:102FD0007FFF14F8043C9B071DD554F8943CA4F1E2
:102FE00048051869FFF72AFD284600F093FF54F8BA
:102FF000943C44F8A45C1B6944F8246C93F90800E1
:103000000022012100F032FF54F8943C1B6993F92F
:10301000080000F05DFF14F8040C10F0030013D05A
:1030200054F8943C002293F90800022100F01EFF9E
:1030300054F8943C93F9080000F04AFF002003E0A4
:10304000102A02D06FF00700F8BD4FF470626EE7EF
:1030500001F024FE81E7B3EB900F01D3082381E751
:10306000B3EBD00F01D310237CE7B3EB101F01D3D8
:10307000182377E7B3EB501F01D3202372E7B3EB9C
:10308000901F01D328236DE7B3EBD01F2CBF302353
:10309000382367E713F80008D8F7000890F700080E
:1030A00005F8000875F50008FFFF0040F7B50D466C
:1030B0001746064628B91B491B4840F27D2205F0F9
:1030C000A7FE2DB91749194840F27E2205F0A0FE4F
:1030D000582005F0F9FE044628B91249144840F278
:1030E000852205F095FE0023009320463B4632469C
:1030F000294609F08BFC044688B10E4805F000FE15
:103100003246294623460C4805F0FAFD0B4805F0E7
:10311000F7FD04490A4840F28D2205F079FE204669
:1031200003B0F0BD3CF80008A9F70008BDF700089F
:10313000D4F7000896F60008EAF700081BF7000825
:1031400055F5000808B505F045FD034803F004FDFA
:10315000BDE8084005F04EBDC010002008B505F0E0
:1031600039FD034801F04AF8BDE8084005F042BDCA
:103170002411002008B505F02DFD034801F03EF8AC
:10318000BDE8084005F036BD6811002008B505F01F
:1031900021FD034803F0E0FCBDE8084005F02ABD2E
:1031A0003812002008B505F015FD034801F026F897
:1031B000BDE8084005F01EBD9C12002008B505F0D2
:1031C00009FD034801F01AF8BDE8084005F012BDFA
:1031D000E012002000F5BA7008F0DEB800F5BA7011
:1031E00008F0DAB800F5BA7008F0D6B810B50028C3
:1031F00051D00268002A4ED0C06800284BD0264B20
:103200009A4248D979339A4227D8244B134414223E
:10321000B3FBF2F3224A0133991E0629214928BF44
:1032200001238A4229D1063303F00302D2007F2111
:103230009140072B6FEA010100FA02F217D11A4CF4
:1032400003F00303E268DB007F21994022EA0102D8
:1032500000FA03F31343E3601DE0144B1344502BB7
:1032600019D81422B3FBF2F30E4A0133D4E70E4807
:1032700003690B401A4302610DE0013B032BDED8CA
:10328000094CDB00A2687F21994022EA010200FA82
:1032900003F31343A36010BD07000240F8FFFDBF16
:1032A000000002400004024000000140F8FBFDBFA6
:1032B0002DE9F04F0D4687B014468046002800F0F7
:1032C0008D80002900F08C80002A00F08580A0F11C
:1032D000E009D0F88000002808BF642004F074FFE3
:1032E000012838BF0120631E82460026039308F19F
:1032F000900B2F88AB887F00BFB293B9D8F880308D
:10330000002B08BF642302223946484603F094FD8F
:1033100000285CD00EB94FF0FF36304607B0BDE84C
:10332000F08F039A6B88B24203F0010129D113F0A8
:10333000800F14BF1022202298F88C3069B313F04C
:10334000020FCDE9041258462FD007F089FFDDE9BE
:103350000412AB880092AA6811B33946484603F0BC
:10336000BFFF0028D6D15146584607F089FF70B3F9
:103370003946484604F018FA002ECED16FF0010607
:10338000CBE7EA89D30606D502F0010291420CBFD1
:1033900002221022D0E71022CEE713F0010FD0E76F
:1033A0003946484603F05AFEDBE707F059FFDDE9EE
:1033B0000412AB880092AA6821B13946484603F04E
:1033C00009FFCEE73946484603F0E0FDC9E701367C
:1033D000B44205F10C058CD126469EE706469CE7D3
:1033E0000E469AE7F8B57C4C7C4D94F86C317C4ADB
:1033F0006A6143F0030384F86C317A4BAB617A4B1A
:10340000C4F82431EB68C4F860315422C4F8DC50AD
:103410000021204607F017FBD4F8DC30734E5B68C0
:1034200023604FF480420023C4E90163C4E904230C
:10343000C4E90633E3602362204603F0E4FC78B974
:10344000204603F03FFC70B1694805F059FCD4F800
:10345000DC306848196805F053FC674805F050FCFB
:103460004FF0FF34A7E004F5B87007F0F9FE94F8C8
:103470006C31980773D0D90737D5D4F8DC309E6902
:103480002EB15E4B71685A690A435A615B695C4FA1
:103490003046FFF7ABFE44220021384607F0D3FA4E
:1034A0003368C4F8983010220023C4E9272380220F
:1034B000C4E92923C4E92B33C4F8B430384600F0FA
:1034C00069FD002879D1384600F024FD0246002825
:1034D00073D16763C4F8BC4096F90800012100F07D
:1034E000C5FC96F9080000F0F3FC94F86C319B07DA
:1034F00035D5D4F8DC305E692EB1404B71685A691D
:103500000A435A615B693F4F3046FFF76FFE442222
:103510000021384607F097FA33686365802200235C
:10352000C4E91633C4E91823C4E91A334FF400532D
:103530002367384600F02EFD00283ED1384600F0C3
:10354000E9FC0246002838D1A763A467014696F932
:10355000080000F08BFC96F9080000F0B9FCD4F8E4
:10356000DC30002293F91000022100F07FFCD4F837
:10357000DC3093F9100000F0ABFCD4F8DC30012211
:1035800093F91100022100F071FCD4F8DC3093F9BA
:10359000110000F09DFC29681B4809F0BBF80446A7
:1035A00098B1134805F0ACFB2968184805F0A8FB52
:1035B000114805F0A5FB2046F8BD0D4805F0A0FB1D
:1035C000D4F8DC301248196845E7124805F098FB3A
:1035D00029681148EAE700BFB0130020C0010020AD
:1035E000A0010020B0010020CCF80008A086010056
:1035F0005CF8000871F800081BF700080010024092
:1036000048140020041400209014002093F80008AF
:1036100080F80008A6F80008BBF8000800F5B870AC
:1036200007F0BABE00F5B87007F0B6BE00F5B87086
:1036300007F0B2BE00F5B87007F0AEBE08B505F0F1
:10364000C9FA034804F0D6F8BDE8084005F0D2BA3C
:10365000B013002008B505F0BDFA034804F0F2FCF1
:10366000BDE8084005F0C6BAB013002008B505F063
:10367000B1FA034800F0C2FDBDE8084005F0BABA4F
:103680000414002008B505F0A5FA034800F0B6FDC3
:10369000BDE8084005F0AEBA4814002030B587B048
:1036A00005460C461422002101A800910BF064F994
:1036B0004DB90F490F48582205F0AAFB0C490D4897
:1036C000592205F0A5FB694601A801F007FB01237B
:1036D0002360049B002B14BF022301232B60059B56
:1036E0001BB92368236007B030BD0223FAE700BF8F
:1036F0001CF90008D8F8000810B504468EB020B9AF
:10370000664967486C2205F083FB2368654A93424B
:103710000BD1654B9A6942F400629A619B6903F48C
:1037200000630093009B0EB010BDB3F1804F0BD12E
:1037300003F50433DA6942F00102DA61DB6903F070
:1037400001030193019BEEE7584A93420AD1564B7D
:10375000DA6942F00202DA61DB6903F002030293E4
:10376000029BE0E7524A93420AD14F4BDA6942F09A
:103770000402DA61DB6903F004030393039BD2E7DD
:103780004C4A93420AD1484BDA6942F00802DA61A6
:10379000DB6903F008030493049BC4E7464A9342A1
:1037A0000AD1414BDA6942F01002DA61DB6903F0B9
:1037B00010030593059BB6E7404A93420AD13A4B62
:1037C000DA6942F02002DA61DB6903F02003069334
:1037D000069BA8E73A4A93420AD1334B9A6942F4CE
:1037E00000529A619B6903F400530793079B9AE781
:1037F000344A93420AD12C4B9A6942F400229A61CE
:103800009B6903F400230893089B8CE72E4A93429C
:103810000AD1254B9A6942F480129A619B6903F49C
:1038200080130993099B7EE7284A93420AD11E4BD5
:103830009A6942F400129A619B6903F400130A9397
:103840000A9B70E7224A93420AD1174BDA6942F089
:103850004002DA61DB6903F040030B930B9B62E7E4
:103860001C4A93420AD1104BDA6942F08002DA61B5
:10387000DB6903F080030C930C9B54E7164A9342D8
:103880007FF451AF084BDA6942F48072DA61DB6988
:1038900003F480730D930D9B45E700BF06F9000804
:1038A000F1F80008002C0140001002400004004024
:1038B00000080040000C00400010004000140040D0
:1038C00000340140004C01400050014000540140D0
:1038D00000180040001C00400020004013B50446C2
:1038E00001A96846FFF7DAFE2268074B9A4206D91B
:1038F00001F0E4F9019B5843002102B010BD01F032
:10390000CDF9009BF7E700BFFFFF004030B5724CD8
:1039100094F888308FB01C2243F002030025002168
:103920000DEB020084F888300BF026F810222946AF
:1039300003A8CDE901550BF01FF804F14800C4E9D4
:103940001355C4E91555FFF7D7FE04F1480001F0FF
:103950001FFB30B1614805F0D3F9D4F88C106048F2
:103960000EE04FF4805303A904F14800039301F0E3
:10397000E3FBC0B1594805F0C3F9D4F88C1059489D
:1039800005F0BEF9584805F0BBF9544805F0B8F900
:10399000D4F88C10554805F0B3F9534805F0B0F948
:1039A0004FF0FF308FE004F1480001F00BFB0028DE
:1039B000D0D1A36C4E4A93421AD0B3F1804F17D0A6
:1039C000A2F59432934213D002F5806293420FD055
:1039D00002F5806293420BD002F58062934207D0D9
:1039E00002F58062934203D002F5903293420ED1E9
:1039F0000023404801A9CDE9013301F0C4FD30B1F5
:103A0000364805F07DF9D4F88C103B48B8E7002221
:103A10006023CDE9073294F888300992D807CDE9C0
:103A20000C220B920BD5334807A901F01BFB30B1D8
:103A30002A4805F065F9D4F88C103048A0E794F8CE
:103A4000883099070CD52B48042207A901F00AFBFE
:103A500030B1224805F054F9D4F88C1028488FE78B
:103A600094F888305A070CD52248082207A901F09B
:103A7000F9FA30B1194805F043F9D4F88C1021480F
:103A80007EE794F888301B070CD51A480C2207A94A
:103A900001F0E8FA30B1114805F032F9D4F88C1091
:103AA00019486DE71348FEF7ABF8A26CD4F88C10F8
:103AB000136843F0040313600E4B144AA3F148004B
:103AC00009F094FA08B90FB030BD044805F018F9B0
:103AD000D4F88C100E485EE7E001002037F90008AA
:103AE00049F900085CF900081BF7000871F80008A4
:103AF000002C01402802002071F9000889F9000813
:103B0000A3F90008BDF90008D7F90008DC0100207E
:103B1000F1F900082DE9F74FA1F5F051066C1546B3
:103B2000072900F22081DFE811F0080018002400C6
:103B3000D4001E011E0179009C00116854690139EE
:103B4000890030462CB901F0B9FB204603B0BDE82E
:103B5000F08F01F014FD0024F7E711685469013972
:103B60008900304614B901F08FFCEEE701F009FD41
:103B7000F1E730461468FFF7B1FE7C4A0023FCF7FA
:103B80008FFF8A4669680746A1FB070C01FB0AC143
:103B90004FF47A720023FCF783FF002319464FF697
:103BA000FF7BB0FBFBFB0BF101020092FCF778FFFF
:103BB000AD68D6F80080009AC8F828B0032838BF4E
:103BC0000320431E8146A5FB0701C8F82C3005FBE6
:103BD0000A11F3600023FCF763FF4FF47A720023AD
:103BE000FCF75EFF013C01284FEA840408D98145B7
:103BF00001D809F10100013824B9C8F83400A4E75C
:103C00000220F8E7042C02D1C8F83800A3E7082CFA
:103C10000CBFC8F83C00C8F840009CE73046FFF7EE
:103C20005DFE524A0023FCF73BFF6C68A0FB0405D5
:103C30004FF47A72002304FB0151FCF731FF00239B
:103C400019464FF6FF74B0FBF4F4621CFCF728FF32
:103C50000328336838BF032001389C62D862F060C3
:103C600079E730461468FFF739FE36683F4AF76A4D
:103C7000B36A013307FB03334FF47A775F430023C2
:103C8000FCF70EFF02460B4638460021FCF708FF02
:103C9000F76A8046A86801370B464246A7FB000139
:103CA000FCF7FEFE013C01284FEA840406D940459A
:103CB00028BF404601381CB9706346E70220F9E787
:103CC000042C01D1B06346E7082C0CBFF0633064CC
:103CD00041E730461468FFF701FE3668336803F4A5
:103CE0004073013CB3F5807F4FEA840427D140083C
:103CF00040EAC17049081D4A0023FCF7D1FE024684
:103D00000B46F16AB06A013001FB00004FF47A7192
:103D100048430021CDE90032FCF7C2FE6860B06A7A
:103D2000DDE900320130ACB9746B013444434FF427
:103D30007A7060430021FCF7B3FEA8600BE733689C
:103D400003F44073B3F5007F02BF800840EA81703E
:103D50008908D0E7042C01D1B46BE6E7082C0CBF2E
:103D6000F46B346CE1E76FF00904EEE640420F00BB
:103D7000054BD3F8882042F47002C3F888204FF036
:103D800000629A60704700BF00ED00E030B5224B42
:103D900093B002AC03F1400518685968224603C28B
:103DA0000833AB421446F7D140F201231B48ADF86B
:103DB000043041681A4A01F00C03042B0ED0082B82
:103DC0000ED00BB9174B136043681749C3F30313A5
:103DD000C95C1368CB40136013B030BD134BF2E7DE
:103DE000CB0901F4701403F44003234312AC04EB39
:103DF0009343C90313F8403C0BD541680B4CC1F306
:103E0000404148316944634311F8441CB3FBF1F36A
:103E1000D9E704494B43D6E704FA000800100240F2
:103E20007002002000127A0045FA00080024F40015
:103E300008B5042000F008F80F20FDF757FFFDF744
:103E4000DBFD002008BD00000749CA6822F4E062DB
:103E50000302120403F4E063120C134343F0BF6344
:103E600043F40033CB60704700ED00E0164B30B5F3
:103E7000DC68C4F30224C4F10705E31C032D28BF4A
:103E80000325062B4FF0FF338CBF043C002403FABC
:103E900005F521EA0501A34022EA0302A14000281A
:103EA00041EA0203ACBF00F16040084A4FEA431305
:103EB000B8BF00F00F00DBB2AABF00F56140135499
:103EC00080F8003330BD00BF00ED00E014ED00E0ED
:103ED000002808DB0123420900F01F0003FA00F06C
:103EE000014B43F82200704700E100E000280DDBA1
:103EF0004309012200F01F0002FA00F02033044AB7
:103F000042F82300BFF34F8FBFF36F8F704700BF9E
:103F100000E100E010B5002831D00168194B99424A
:103F20004FF0140423D8184A0A44B2FBF4F292006A
:103F30000264A3F20743C363D0E901342343C46896
:103F40000A68234304692343446923438469234360
:103F5000C46922F47F5222F03002234313430B60E2
:103F60004FF48072002383630284184610BD074B10
:103F70000B44B3FBF4F39B000364054BDBE7012028
:103F8000F4E700BF07040240F8FFFDBFF8FBFDBFE8
:103F90000004024010B560B303681A6822F0010201
:103FA0001A6000221A605A609A60DA60124A9342DC
:103FB0004FF0140415D811491944114BB1FBF4F119
:103FC00089000164C363D0E90F2101238B40536052
:103FD0000023C0E90A33C0E90C3383630384184625
:103FE00010BD084A1A44B2FBF4F29200064B026478
:103FF000E8E70120F4E700BF07040240F8FFFDBF37
:1040000000000240F8FBFDBF00040240F0B590F84C
:104010002040012C34D090F821500124A54280F892
:1040200020404FF000064FF0020427D180F82140D5
:1040300004688663266826F001062660D0E90F67CB
:10404000BD40756063604368102BC36A0BBFA260FC
:10405000A160E160E2604BB1236843F00E0323608E
:10406000236843F0010323600020F0BD236823F0A0
:1040700004032360236843F00A03F0E780F820601C
:104080000220F2E790F82130022B06D0042383634C
:10409000002380F820300120704703681A6822F05E
:1040A0000E021A601A6822F001021A60D0E90F218C
:1040B00001238B4053604FF48073038400207047CA
:1040C00008B590F82130022B03D00423836301202C
:1040D00008BD036843491A6822F00E021A601A6884
:1040E00022F001021A60404A934241D98B4238D0F3
:1040F00014318B4237D014318B4236D014318B427D
:1041000023D014318B4223D014318B4223D09342DD
:1041100024D002F56272934223D01432934222D00B
:104120001432934221D01432934214BF4FF480339F
:104130004FF480532D4A53604FF480730384436BD4
:10414000002B4DD098470020C2E74FF48053F1E791
:104150004FF48033EEE74FF48013EBE74FF08073BA
:10416000E8E70123E6E71023E4E74FF48073E1E793
:104170008B422ED01E498B422DD014318B422CD035
:1041800014318B4219D014318B4219D014318B4227
:1041900019D093421AD0174A93421AD0143293423C
:1041A00019D01432934218D01432934214BF4FF4F2
:1041B00080334FF48053104ABDE74FF48053FAE741
:1041C0004FF48033F7E74FF48013F4E74FF0807338
:1041D000F1E70123EFE71023EDE74FF48073EAE7FF
:1041E000184675E7080002408000024000040240C3
:1041F0001C000240080402400000024070B4C66B7C
:10420000026C34680368042595402542196800F063
:1042100085804D0740F182801A68914996065EBFFD
:104220001A6822F004021A608E4A93423ED98B42E9
:1042300035D014318B4234D014318B4233D0143109
:104240008B4220D014318B4220D014318B4220D0AD
:10425000934221D002F56272934220D014329342ED
:104260001FD0143293421ED01432934214BF4FF425
:1042700080234FF480437C4A5360C36A002B00F0D4
:10428000ED8070BC18474FF48043F4E74FF480236F
:10429000F1E74FF48003EEE74FF08063EBE7042390
:1042A000E9E74023E7E74FF48063E4E78B422ED051
:1042B0006E498B422DD014318B422CD014318B425D
:1042C00019D014318B4219D014318B4219D093423A
:1042D0001AD0674A93421AD01432934219D014323A
:1042E000934218D01432934214BF4FF480234FF4FA
:1042F0008043604AC0E74FF48043FAE74FF48023DD
:10430000F7E74FF48003F4E74FF08063F1E704230D
:10431000EFE74023EDE74FF48063EAE7022595409D
:10432000254200F087808D0740F184801A6894064A
:1043300006D41A6822F00A021A60012280F82120AD
:10434000484A474993423DD98B4234D014318B427D
:1043500033D014318B4232D014318B421FD0143100
:104360008B421FD014318B421FD0934220D002F5D4
:10437000627293421FD0143293421ED01432934281
:104380001DD01432934214BF4FF400334FF4005346
:10439000354A5360002380F82030836A6EE74FF47B
:1043A0000053F5E74FF40033F2E74FF40013EFE763
:1043B0004FF00073ECE70223EAE72023E8E74FF42D
:1043C0000073E5E78B422ED028498B422DD0143163
:1043D0008B422CD014318B4219D014318B4219D01E
:1043E00014318B4219D093421AD0214A93421AD0E9
:1043F0001432934219D01432934218D0143293429B
:1044000014BF4FF400334FF400531A4AC1E74FF47E
:104410000053FAE74FF40033F7E74FF40013F4E7E3
:104420004FF00073F1E70223EFE72023EDE74FF4AD
:104430000073EAE70825954025420FD009070DD5FE
:10444000196821F00E011960012303FA02F272606B
:1044500083634FF480730384036B0FE770BC704772
:104460000800024080000240000402401C0002409C
:10447000080402400000024090F821007047806B61
:10448000704700002DE9F74FDFF87C815C4C00237A
:104490004FF001090A6832FA03F502D103B0BDE812
:1044A000F08F09FA03FA1AEA020200F09E804D68C2
:1044B00025F0100EBEF1020F14D14FEAD30C00EB21
:1044C0008C0C03F0070BDCF820604FEA8B0B0F27F6
:1044D00007FA0BF726EA07070E6906FA0BF63E43C2
:1044E000CCF82060D0F800B04FEA430C032606FA5F
:1044F0000CF72BEA070BFE4305F0030707FA0CF74E
:104500000EF1FF3E47EA0B07BEF1010F076011D81D
:10451000876806EA070ECF6807FA0CF747EA0E0726
:104520008760476827EA0A0AC5F300179F4047EAF1
:104530000A074760C76837408E6806FA0CF63E43A4
:10454000C660EE0051D5D8F8186046F00106C8F8EC
:104550001860D8F8186023F0030707F1804706F0C9
:10456000010607F58037019603F0030E019E7E6970
:104570004FEA8E0E4FF00F0C0CFA0EFCB0F1904F7C
:1045800026EA0C0C33D01F4EB04232D006F58066BE
:10459000B04230D006F58066B0422ED006F5806677
:1045A000B0420CBF0426072606FA0EF646EA0C06B1
:1045B0007E612668D74315F4803F0CBF3E4016430A
:1045C0002660666815F4003F0CBF3E4016436660E7
:1045D000A66815F4801F0CBF3E401643A660E6682F
:1045E000AD0254BF3E401643E660013352E7002659
:1045F000DAE70126D8E70226D6E70326D4E700BF8C
:104600000004014000040048001002403A4A2DE92D
:10461000F04F00234FF0010A4FF00F084FF0030B4B
:1046200031FA03F401D1BDE8F08F0AFA03FC1CEA69
:10463000010656D023F0030404F1804404F58034CD
:1046400003F003076569BF0008FA07F9B0F1904F5E
:1046500009EA050E47D0294DA84246D005F58065E8
:10466000A84244D005F58065A84242D005F5806592
:10467000A8420CBF04250725BD40754513D1156818
:1046800025EA06051560556825EA06055560956812
:1046900025EA06059560D56825EA0605D5606569B1
:1046A00025EA0905656105685C000BFA04F4DE087B
:1046B000254300EB8606056003F00705376AAD0069
:1046C00008FA05F527EA05053562856825EA040537
:1046D0008560456825EA0C054560C56825EA04043F
:1046E000C46001339CE70025C6E70125C4E7022525
:1046F000C2E70325C0E700BF0004014000040048F2
:104700000369194214BF0120002070470AB181617A
:104710007047816270470000044A5169014208B540
:1047200002D05061FDF7F6FC08BD00BF0004014057
:104730002DE9F341054600284AD00368DC0714D46C
:104740002B68980761D42B68D80600F197802B68F6
:104750001C0700F1B8802B685A0700F1E680286A30
:10476000002840F04E81002029E09C4C636803F053
:104770000C03042B26D0636803F00C03082B03D131
:104780006368D9031ED463686B68B3F5803F40F05B
:104790009681A36BAA6823F440731343A363236831
:1047A00043F480332360FDF793FA064623689B03A6
:1047B000C6D4FDF78DFA801B6428F7D9032002B018
:1047C000BDE8F08123689A03BAD56B68002BB7D196
:1047D0000120F4E7236823F480332360236823F463
:1047E00080232360FDF774FA064623689F03A7D54C
:1047F000FDF76EFA801B6428F7D9DFE723F48033D6
:104800002360236823F48023CCE7744C636813F09F
:104810000C0F08D0636803F00C03082B0AD16368FF
:10482000D90307D4636823689A078CD56B69012B79
:10483000CED188E76B6983B1236843F0010323601D
:10484000FDF746FA064623689B073FF57CAFFDF768
:104850003FFA801B0228F6D9B0E7236823F0010352
:104860002360FDF735FA064623689F077FF56BAF97
:10487000FDF72EFA801B0228F6D99FE7AB69574C4B
:1048800083B1A36A43F01003A362FDF721FA064641
:10489000A36A98063FF55BAFFDF71AFA801B022862
:1048A000F6D98BE7A36A23F01003A362FDF710FA91
:1048B0000646A36A99067FF54AAFFDF709FA801B01
:1048C0000228F6D97AE7EB69444CEBB1636A43F00E
:1048D00001036362FDF7FCF90646636A9B070DD589
:1048E0003F4B4FF4FA521B68B3FBF2F3019300BF46
:1048F000019B5A1E0192002BF9D12CE7FDF7E8F934
:10490000801B0228E9D959E7636A23F00103636237
:10491000FDF7DEF90646636A9F077FF51CAFFDF7DA
:10492000D7F9801B0228F6D948E72C4CE369D80058
:104930002BD4E36943F08053E361E36903F08053D0
:104940000093009B0127274E3368D9051FD5EB68DC
:10495000012B40F0AB80236A2A6923F0180313432C
:104960002362236A43F001032362FDF7B1F941F2A8
:1049700088380646236A9B073DD5002F3FF4EFAEEB
:10498000E36923F08053E361E9E60027DBE733685E
:1049900043F480733360FDF79BF980463368DA0592
:1049A000D5D4FDF795F9A0EB08006428F6D905E702
:1049B000236A23F001032362236A23F004032362A2
:1049C000FDF786F941F288380646236A9807D4D560
:1049D000FDF77EF9801B4045F7D9EFE60010024055
:1049E000700200200070004023F001032362236A5C
:1049F00023F00403B8E7FDF76BF9801B4045B9D9F4
:104A0000DCE6354C636803F00C03082B39D02368CF
:104A1000022823F08073236026D1FDF759F906465A
:104A2000236899011AD4D5E90931626822F0C0429D
:104A30000B4322F47C1213436360236843F08073BA
:104A40002360FDF745F9054623689A013FF58BAED3
:104A5000FDF73EF9401B0228F6D9AFE6FDF738F91D
:104A6000801B0228DCD9A9E6FDF732F90546236848
:104A70009B017FF578AEFDF72BF9401B0228F6D994
:104A80009CE601283FF49BAE63686A6A03F48031B8
:104A900091427FF49DAE23F01F4323F44003AA6AA2
:104AA0009B0C9B0493423FF45EAE91E6002B3FF4D7
:104AB0007FAF052B236A97D143F0040350E7002B07
:104AC0003FF488AEB3F5A02F23687FF497AE43F48C
:104AD0008023236063E600BF0010024030B51D4B09
:104AE00093B002AC03F1400518685968224603C22E
:104AF0000833AB421446F7D140F201231649ADF812
:104B000004304A6802F00C03042B1ED0082B1ED17F
:104B1000D30902F4701003F44003034312A800EB1E
:104B2000934313F8400CD3030CD54B680B4AC3F3E3
:104B3000404348336B44504313F8443CB0FBF3F01C
:104B400013B030BD064B5843FAE70448F8E7044871
:104B5000F6E700BF04FA0008001002400024F40049
:104B600000127A002DE9F0410D46044610B90120EB
:104B7000BDE8F081444A136803F00F038B4228D349
:104B800021688E0730D4CA0743D43F4A136803F024
:104B90000F03AB4265D822683C4D12F0040F6CD174
:104BA000130706D56B68226923F4605343EAC203F6
:104BB0006B60FFF793FF6B68354AC3F30313D35C55
:104BC000D840344B1860344B1868FDF78FF800203C
:104BD000CEE7136823F00F030B431360136803F051
:104BE0000F038B42C3D1CBE7284B11F0040F1EBF3C
:104BF0005A6842F4E0625A60080742BF5A6842F4B9
:104C000060525A605A68A06822F0F00202435A606B
:104C1000B9E762681D4E012A33681AD113F4003FC8
:104C2000A5D0736823F0030313437360FDF750F8B6
:104C300041F2883807467368626803F00C03B3EBEF
:104C4000820FA2D0FDF744F8C01B4045F3D90320E2
:104C50008EE7022A02D113F0807FE1E713F0020F02
:104C6000DEE7136823F00F032B431360136803F090
:104C70000F03AB427FF47BAF8DE76B68E16823F4F1
:104C8000E0630B436B608BE70020024000100240A2
:104C900045FA00087002002074020020044B054A07
:104CA0005B68C3F30223D35C034A1068D8407047A3
:104CB0000010024055FA000870020020044B054A1B
:104CC0005B68C3F3C223D35C034A1068D8407047C3
:104CD0000010024055FA0008700200200F23036004
:104CE0000B4B5A6802F0030242605A6802F0F0026D
:104CF00082605A6802F4E062C2605B68DB0803F419
:104D0000E0630361034B1B6803F00F030B60704704
:104D10000010024000200240036A23F001030362F6
:104D2000036A70B5446882690D6822F073022A43F1
:104D30008D6823F002032B430E4DA84202D00E4E85
:104D4000B04210D1CE6823F008033343A84223F0C9
:104D5000040302D0084DA84205D1D1E9055624F438
:104D6000407435432C43446082614A684263036265
:104D700070BD00BF002C014000340140036A23F4E1
:104D800080730362036A70B54468C2690D6822F0DB
:104D900073022A438D6823F4007343EA0523114DFF
:104DA000A84203D005F50065A84214D1CD6823F4CC
:104DB000006343EA05230B4DA84223F4806303D02C
:104DC00005F50065A84206D1D1E9055624F4405402
:104DD000354344EA05144460C2614A68C263036211
:104DE00070BD00BF002C0140036A23F480530362AE
:104DF000036A30B54468C2690D6822F4E64242EAAB
:104E000005228D6823F4005343EA0533084DA84278
:104E100003D005F50065A84204D14D6924F480440F
:104E200044EA85144460C2614A680264036230BD8A
:104E3000002C01407047704710B5446A626A012334
:104E4000824284F83D3006D123772046FCF77AFD74
:104E50000023237710BDA36A834201D10223F3E725
:104E6000E36A834201D10423EEE7236B8342ECD152
:104E70000823E9E7704710B5446A626A0123824259
:104E800084F83D3006D123772046FFF7F3FF002357
:104E9000237710BDA36A834201D10223F3E7E36ABB
:104EA000834201D10423EEE7236B8342ECD1082334
:104EB000E9E7704708B5406A012380F83D30FFF705
:104EC000F8FF08BD304A0368904212D0B0F1804F1D
:104ED0000FD0A2F5943290420BD002F5806290423E
:104EE00007D002F58062904203D002F594329042DE
:104EF00019D14A6823F070031343234A904229D002
:104F0000B0F1804F26D0A2F59432904222D002F523
:104F1000806290421ED002F5806290421AD002F563
:104F20009432904216D0194A904213D002F5806212
:104F300090420FD002F5806290420BD0A2F59E32D3
:104F4000904207D002F58062904203D002F5806261
:104F5000904203D1CA6823F4407313434A6923F093
:104F60008003134303608B68C3620B688362064B44
:104F7000984203D003F50063984201D10B690363A3
:104F800001234361704700BF002C0140004C0140E9
:104F900010B50446A0B190F83D3003F0FF021BB9F4
:104FA00080F83C20FFF746FF0223206884F83D305C
:104FB000211DFFF787FF012384F83D30002010BD3D
:104FC0000120FCE710B50446A0B190F83D3003F095
:104FD000FF021BB980F83C20FFF72DFF0223206859
:104FE00084F83D30211DFFF76DFF012384F83D302B
:104FF000002010BD0120FCE7036A23F010030362C8
:10500000036A70B5446882690D6822F4E64242EA98
:1050100005228D6823F0200343EA0513104DA842B2
:1050200003D005F50065A84214D1CD6823F08003B4
:1050300043EA05130A4DA84223F0400303D005F5C7
:105040000065A84206D1D1E9055624F440643543F1
:1050500044EA8504446082614A688263036270BDE9
:10506000002C014038B590F83C30012B04464FF03D
:10507000020010D00123082A84F83C3084F83D0057
:105080003FD009D8DAB1042A2AD00123002084F8BD
:105090003D3084F83C0038BD0C2AF6D12068FFF77B
:1050A000A3FE23680969DA6942F40062DA61DA6909
:1050B00022F48062DA61DA6942EA012230E0206893
:1050C000FFF72AFE236809699A6942F008029A618B
:1050D0009A6922F004029A619A690A439A61D4E7B4
:1050E0002068FFF789FF236809699A6942F4006222
:1050F0009A619A6922F480629A619A6942EA01226D
:10510000ECE72068FFF73AFE23680969DA6942F0A4
:105110000802DA61DA6922F00402DA61DA690A4324
:10512000DA61B2E710B58468114324F47F4441EAA0
:1051300003232343836010BD70B590F83C30012BEE
:1051400004464FF0020027D084F83D000123206878
:1051500084F83C30836823F47F4323F07703836033
:105160000B68602B4DD032D8402B62D015D8202B45
:1051700003D009D833F0100208D1826822F07002FF
:10518000134343F0070320E0302BF6D00123002027
:1051900084F83D3084F83C0070BD502BF6D14A684D
:1051A000CE68016A056A25F001050562836921F070
:1051B0000A0123F0F00343EA06130A438361026203
:1051C000836823F0700343F057038360DEE7702B9E
:1051D0000CD0B3F5005FD9D1CB68D1E90121FFF73D
:1051E000A1FF2268936843F4804308E0CB68D1E9CB
:1051F0000121FFF797FF2268936843F077039360DC
:10520000C4E74D68CE68016A21F01001016282692D
:10521000036A22F4704223F0A00343EA051342EA32
:10522000063282610362836823F0700343F06703F0
:10523000CBE74A68CE68016A056A25F00105056278
:10524000836921F00A0123F0F00343EA06130A43BD
:1052500083610262836823F0700343F04703B4E77D
:10526000036A01F01F0110B501248C4023EA0403F6
:105270000362036A8A401A43026210BD10B50446F5
:1052800001220068FFF7ECFF23680B4A934203D02A
:1052900002F50062934203D15A6C42F400425A6410
:1052A0009A6802F00702062A1EBF1A6842F001023D
:1052B0001A60002010BD00BF002C0140FFF7DEBFC8
:1052C00070B50D46114690F83D20022A0446D0B232
:1052D00006D094F83D20012A06D111B90BB1012066
:1052E00070BD022284F83D20082D226856D01FD8B8
:1052F000002D30D0042D40D0012220682946FFF730
:10530000AFFF23682E4A934203D002F50062934216
:1053100003D15A6C42F400425A649A6802F00702C0
:10532000062A1EBF1A6842F001021A600020D7E761
:105330000C2DE1D1206B234E8662234EC662234E94
:1053400006634032FEF762FE0028C8D12268D368A7
:1053500043F480530FE0606A1A4E86621A4EC662AA
:105360001A4E06633432FEF751FE0028B7D1226888
:10537000D36843F40073D360BEE7A06A114E86621F
:10538000114EC662114E06633832FEF73FFE00280A
:10539000A5D12268D36843F48063ECE7E06A094E44
:1053A0008662094EC662094E06633C32FEF72EFE47
:1053B000002894D12268D36843F40063DBE700BF80
:1053C000002C0140394E0008774E0008B54E000809
:1053D000FFF776BF082938B5036804460D4648D064
:1053E00031D8002937D004293DD000222068294631
:1053F000FFF736FF2368224A934203D002F500628A
:1054000093420DD1196A41F21112114208D1196A61
:1054100040F24442114202BF5A6C22F400425A64E4
:10542000196A41F21112114208D1196A40F244423C
:10543000114202BF1A6822F001021A60012384F8A7
:105440003D30002038BD0C29CFD1DA68006B22F442
:105450008052DA6004E0DA68406A22F40072DA60AE
:10546000FEF72EFEC1E7DA68806A22F48062DA6015
:10547000F6E7DA68C06A22F40062DA60F0E700BF9B
:10548000002C0140FFF7A6BF10B5044600220068BB
:10549000FFF7E6FE2368144A934203D002F5006248
:1054A00093420DD1196A41F21112114208D1196AC1
:1054B00040F24442114202BF5A6C22F400425A6444
:1054C000196A41F21112114208D1196A40F244429C
:1054D000114202BF1A6822F001021A60012384F807
:1054E0003D30002010BD00BF002C0140036A01F0D8
:1054F0001F0110B504248C4023EA04030362036AED
:105500008A401A43026210BD10B5044604220068A6
:10551000FFF7ECFF23685A6C42F400425A649A6821
:1055200002F00702062A1EBF1A6842F001021A6042
:10553000002010BD10B5044600220068FFF7D6FF1A
:105540002368196A41F21112114208D1196A40F216
:105550004442114202BF5A6C22F400425A64196A52
:1055600041F21112114208D1196A40F2444211422B
:1055700002BF1A6822F001021A60002010BDFFF776
:10558000C3BFFFF7D7BF30B590F83C30012B4FF0C9
:10559000020314D0046880F83D306268A3680D6887
:1055A000496822F0700223F080030B432A436260B3
:1055B000A360012380F83D30002380F83C3018467A
:1055C00030BD0368DA6822F49072DA605A6922F01A
:1055D00001025A61202380F84630704738B50368CD
:1055E000C1681A6922F440520A431A61044682686B
:1055F0000069D9680243606921F4B05121F00C01BF
:1056000002430A43DA605A69A16922F440720A43EC
:105610005A615A69E16922F400620A43B1F5006FE8
:105620005A61234A27D193424FF019051AD1FFF747
:1056300045FB626868435200B0FBF2F26421B2FBA2
:10564000F1F001FB1023DB003233B3FBF1F303F085
:1056500007025B00216802EB001203F4F8731344A5
:105660008B6038BDFFF71AFB636805FB00F25B0037
:10567000B2FBF3F2E2E793424FF0190514D1FFF7C2
:105680001DFB6368246864229B006843B0FBF3F051
:10569000B0FBF2F102FB11031B013233B3FBF2F357
:1056A00003EB0113A360DCE7FFF7F8FAE9E700BFBB
:1056B0000038014010B5044600283BD090F8453032
:1056C00003F0FF021BB980F84420FCF7BFF9226801
:1056D000242384F84530D36823F40053D360204654
:1056E000FFF77CFF226A236882B152060ED55A6901
:1056F000616A22F480520A43B1F5805F5A6105D194
:105700005A69A16A22F4C0420A435A611A6922F412
:1057100090421A615A6922F02A025A61DA6842F408
:105720000052DA6000202023A06484F8453084F819
:10573000463010BD0120FCE710B5044690B1026868
:10574000242380F84530D36823F40053D360FCF75A
:10575000B7F90020A06484F8440084F8450084F878
:10576000460010BD0120FCE738B50446134694F806
:105770004520202A2AD139B333B394F84420012A92
:1057800024D0012284F84420E06B63860025212286
:10579000A56484F845200E4A2386E16282620D4AA0
:1057A000C2620D4AC0E90C2522680432FEF72EFCC5
:1057B00023686FF040021A6084F844505A6942F03E
:1057C00080025A61284638BD0120FCE70220FAE732
:1057D000C5580008F35800089F59000873B590F8A1
:1057E0004630202B044641D100293DD0002A3BD031
:1057F0008368B3F5805F03D103690BB9CB0733D45A
:1058000094F84430012B31D0012384F84430002532
:10581000206CA564222384F84630154B61632287EF
:105820008362144B2668C362134BC0E90C351346E0
:105830000A46311DFEF7EAFB236801951A680192BA
:105840005A68019284F84450019ADA6842F48072EE
:10585000DA605A6942F001025A615A6942F0400224
:105860005A61284602B070BD0120FBE70220F9E72B
:10587000FD580008955900089F5900080368DA6828
:1058800022F0C00210B5DA605A691206044613D538
:105890005A69C06B22F080025A6168B100234363E9
:1058A000FEF7F0FB40B1E06BFEF7E9FD202803D1E5
:1058B0001023A364032010BD00202023608684F8F9
:1058C0004530F8E708B50368426A1B6813F0200307
:1058D0000AD1538613685A6922F080025A61DA6845
:1058E00042F04002DA6008BD1046FDF721F8FAE701
:1058F000704708B5406AFFF7FBFF08BD08B50346CF
:10590000406A1B681B6813F0200310D143870368AB
:10591000DA6822F48072DA605A6922F001025A6170
:105920005A6922F040025A61202380F84630FCF781
:10593000D7FF08BD08B590F84630222B24D18168E6
:105940000268436BB1F5805F1FD10169E9B9526804
:10595000C2F3080223F8022B4363438F013B9BB23F
:1059600043878BB90368DA6822F02002DA60DA68CC
:1059700022F48072DA605A6922F001025A6120230F
:1059800080F84630FCF7ACFF08BD5268591C4163F3
:105990001A70E2E708B5406AFCF7B6FF08BD08B523
:1059A000406A03685A6990F8451021290AD1120605
:1059B00008D500224286DA6822F0C002DA6020228E
:1059C00080F845205B6990F84620222A05D15B06C5
:1059D00003D500234387FFF7F4FD836C43F01003E6
:1059E0008364FCF771FF08BD08B5406A0023438754
:1059F0004386FCF769FF08BD70470000026873B575
:105A00001568D66853692907044608D1A9065CD5EC
:105A1000B3065AD502B0BDE87040FFF78BBF03F064
:105A2000010306F4907119434FD0E90705D5F2053B
:105A300042BF826C42F001028264680704D51BB148
:105A4000A26C42F00202A264A90704D51BB1A26CA9
:105A500042F00402A2642A0704D51BB1A36C43F0F0
:105A60000803A364A36C53B3AB0604D5B50602D5F3
:105A70002046FFF75FFF23685B69A56C03F04003D6
:105A800005F008051D4320461BD0FFF79AFD23684B
:105A90005A69500610D55A69206C22F040025A61AA
:105AA00050B12D4B4363FEF70BFB40B1206C436BB1
:105AB00002B0BDE8704018472046FCF705FF02B071
:105AC00070BDFCF701FFA564F9E7E9060BD5F30605
:105AD00009D500230193136801935368019320466D
