:020000040800F2
:10000000E007002045010008751100086D11000887
:1000100071110008E50100081D1300080000000030
:100020000000000000000000000000002512000891
:10003000ED01000800000000E51100087D12000835
:100040005F0100085F0100085F0100085F01000810
:100050005F0100085F010008F10100080D030008BE
:100060003903000865030008910300085F010008D8
:100070005F0100085F0100085F0100085F010008E0
:100080005F0100085F0100085F0100085F010008D0
:100090005F0100085F0100085F010008BD03000860
:1000A0005F0100085F0100085F0100085F010008B0
:1000B000191300085F0100085F0100085F010008D4
:1000C0005F0100085F0100085F0100085F01000890
:1000D0005F0100085F0100085F0100085F01000880
:1000E000190200085F0100085F0100085F010008B5
:1000F0005F0100085F0100085F0100085F01000860
:100100005F0100085F0100085F0100085F0100084F
:100110005F0100085F0100085F0100085F0100083F
:10012000E90100085F0100085F0100085F010008A5
:10013000DFF80CD000F03CF800480047D914000864
:10014000E00700200648804706480047FEE7FEE734
:10015000FEE7FEE7FEE7FEE7FEE7FEE7FEE7FEE777
:10016000091300083101000840EA01039B0703D08E
:1001700009E008C9121F08C0042AFAD203E011F8E6
:10018000013B00F8013B521EF9D27047D2B201E0A8
:1001900000F8012B491EFBD270470022F6E710B58C
:1001A00013460A4604461946FFF7F0FF204610BDE5
:1001B0001CB509480090094801900546009C06E0DE
:1001C000E06840F0010394E8070098471034AC421F
:1001D000F6D3FFF7B1FF0000B01F0008D01F0008E2
:1001E000FFE7FEE7FFE7FEE770470000704700000B
:1001F00080B540F21440C4F201000068C00750B15D
:10020000FFE7002001F046F940F21441C4F2010179
:1002100001200860FFE780BD80B540F21440C4F2C1
:1002200001000068400500280BD5FFE70A2001F017
:1002300031F940F21441C4F201014FF480600860CA
:10024000FFE740F21440C4F20100006800050028F6
:100250000BD5FFE70B2001F01DF940F21441C4F269
:1002600001014FF400600860FFE740F21440C4F25F
:1002700001000068C00400280BD5FFE70C2001F046
:1002800009F940F21441C4F201014FF480500860B2
:10029000FFE740F21440C4F2010000688004002827
:1002A0000BD5FFE70D2001F0F5F840F21441C4F240
:1002B00001014FF400500860FFE740F21440C4F21F
:1002C00001000068400400280BD5FFE70E2001F074
:1002D000E1F840F21441C4F201014FF4804008609B
:1002E000FFE740F21440C4F2010000680004002857
:1002F0000BD5FFE70F2001F0CDF840F21441C4F216
:1003000001014FF400400860FFE780BD80B540F276
:100310001440C4F201000068800700280AD5FFE7F6
:10032000012001F0B7F840F21441C4F201010220AB
:100330000860FFE780BD000080B540F21440C4F2C1
:1003400001000068400700280AD5FFE7022001F0FD
:10035000A1F840F21441C4F2010104200860FFE753
:1003600080BD000080B540F21440C4F20100006876
:10037000000700280AD5FFE7032001F08BF840F2C0
:100380001441C4F2010108200860FFE780BD0000AD
:1003900080B540F21440C4F201000068C006002895
:1003A0000AD5FFE7042001F075F840F21441C4F2C9
:1003B000010110200860FFE780BD000080B540F219
:1003C0001440C4F201000068800600280AD5FFE747
:1003D000052001F05FF840F21441C4F20101202031
:1003E0000860FFE740F21440C4F2010000684006D4
:1003F00000280AD5FFE7062001F04CF840F214412E
:10040000C4F2010140200860FFE740F21440C4F24A
:1004100001000068000600280AD5FFE7072001F068
:1004200039F840F21441C4F2010180200860FFE76E
:1004300040F21440C4F201000068C00500280BD54A
:10044000FFE7082001F026F840F21441C4F2010150
:100450004FF480700860FFE740F21440C4F20100DE
:100460000068800500280BD5FFE7092001F012F88D
:1004700040F21441C4F201014FF400700860FFE73C
:1004800080BD000040F2DC30C2F20000006870471E
:1004900040F20400C2F20000027840F2DC31C2F205
:1004A00000010868104408607047000080B504200F
:1004B00000F09AF80F2000F005F800F03BF800205B
:1004C00080BD000080B582B0009040F20000C2F212
:1004D0000000006840F20401C2F200010A784FF403
:1004E0007A71B1FBF2F1B0FBF1F000F033FE20B114
:1004F000FFE701208DF8070018E0009807280DD8C5
:10050000FFE700994FF0FF30002200F053F8009809
:1005100040F20801C2F20001086003E001208DF8FA
:10052000070003E000208DF80700FFE79DF80700B3
:1005300002B080BD84B0FFE741F21800C4F20200AF
:10054000016841F001010160006800F001000390C2
:100550000398FFE7FFE741F21C00C4F202000168C4
:1005600041F080510160006800F0805002900298D4
:10057000FFE7FFE741F23400C4F20200016841F0F6
:1005800004010160006800F0040001900198FFE799
:10059000FFE741F23400C4F20200016841F00801B3
:1005A0000160006800F0080000900098FFE704B0C8
:1005B0007047000080B586B08DF817000491039253
:1005C0000020029000F0ACFE02909DF9170001900F
:1005D00002980499039A00F0CFFD0146019800F0BB
:1005E000A7FE06B080BD000080B582B001900198E2
:1005F00000F0C0FE02B080BD80B584B002900191D1
:10060000029820B9FFE701208DF80F0021E1019841
:1006100042F20001C4F20201096801F00F018842B0
:1006200016D9FFE742F20000C4F20200016821F08F
:100630000F01019A11430160006800F00F00019959
:10064000884204D0FFE701208DF80F0001E1FFE7A9
:1006500002980078800700282AD5FFE702980078E2
:100660004007002809D5FFE741F20401C4F2020166
:10067000086840F4E0600860FFE70298007800072F
:10068000002809D5FFE741F20401C4F2020108681D
:1006900040F460500860FFE741F20401C4F2020137
:1006A000086820F0F000029A926810430860FFE7A3
:1006B00002980078C007002866D0FFE702984068DB
:1006C000012811D1FFE741F20000C4F202000068E6
:1006D00000F400310020B0EB514F04D1FFE70120BE
:1006E0008DF80F00B5E024E00298406802280ED192
:1006F000FFE741F20000C4F202000068C0010028D8
:1007000004D4FFE701208DF80F00A2E010E041F2D1
:100710000000C4F20200006800F002010020B0EB0B
:10072000510F04D1FFE701208DF80F0091E0FFE7A2
:10073000FFE741F20401C4F20201086820F003005F
:10074000029A526810430860FFF79CFE0090FFE792
:1007500041F20400C4F20200006800F00C000299AB
:100760004968B0EB810F0ED0FFE7FFF78BFE0099D1
:10077000401A41F28931884204D3FFE703208DF803
:100780000F0066E0E4E7FFE7019842F20001C4F2DF
:100790000201096801F00F01884216D2FFE742F218
:1007A0000000C4F20200016821F00F01019A114318
:1007B0000160006800F00F000199884204D0FFE753
:1007C00001208DF80F0044E0FFE702980078400711
:1007D00000280CD5FFE741F20401C4F202010868C9
:1007E00020F4E060029AD26810430860FFE70298A4
:1007F0000078000700280DD5FFE741F20401C4F29C
:100800000201086820F46050029A126940EAC200AE
:100810000860FFE700F028F841F20401C4F2020189
:100820000968C9B20A0941F61C41C0F60001895C99
:10083000C84040F20001C2F20001086040F2080026
:10084000C2F200000068FFF73DFE00208DF80F00A7
:10085000FFE79DF80F0004B080BD000040F20000EB
:10086000C2F200000068704780B598B041F6DC31F4
:10087000C0F6000108A84022FFF776FC40F20120F4
:10088000ADF81E00002006900590049003900290A1
:1008900041F20400C4F2020000680690069800F0DD
:1008A0000C000146019100284AD0FFE70198042876
:1008B00004D0FFE70198082806D042E042F2004049
:1008C000C0F2F400029042E0069901F0C04001F449
:1008D0007011400E40EA914108A8405C03900698D0
:1008E00000F44030B0F5803F07D0FFE7069800F4F1
:1008F0004030B0F5403F18D1FFE741F20400C4F2A8
:100900000200006800F400310DF11E0040EA514081
:1009100000780590039842F20041C0F2F401484388
:100920000599B0FBF1F0049007E0039841F2002133
:10093000C0F27A0148430490FFE70498029006E071
:10094000FFE741F20020C0F27A000290FFE7029830
:1009500018B080BD80B586B00490049820B9FFE738
:1009600001208DF81700D4E304980078C007002810
:1009700000F0D680FFE741F20400C4F202000068F4
:1009800000F00C00042820D0FFE741F20400C4F27C
:100990000200006800F00C0008282BD1FFE741F2AC
:1009A0000400C4F20200006800F48030B0F5803F1B
:1009B0000BD0FFE741F20400C4F20200006800F42B
:1009C0008030B0F5403F15D1FFE741F20000C4F29E
:1009D0000200006800F400310020B0EB514F08D055
:1009E000FFE70498406820B9FFE701208DF8170061
:1009F0008FE394E004984068B0F5803F0CD1FFE7A6
:100A000041F23801C4F20201086820F44070049AEF
:100A1000926810430860FFE7FFE704984068B0F56C
:100A2000803F09D1FFE741F20001C4F202010868EA
:100A300040F48030086032E00498406868B9FFE70D
:100A400041F20001C4F20201086820F4803008601D
:100A5000086820F48020086020E004984068B0F521
:100A6000A02F0DD1FFE741F20001C4F20201086896
:100A700040F480200860086840F4803008600CE092
:100A800041F20001C4F20201086820F480300860DD
:100A9000086820F480200860FFE7FFE7FFE7FFE732
:100AA00004984068E8B1FFE7FFF7ECFC0390FFE72C
:100AB00041F20000C4F20200006800F4003100209E
:100AC000B0EB514F0CD1FFE7FFF7DCFC0399401A64
:100AD000652804D3FFE703208DF8170019E3E7E743
:100AE0001CE0FFF7CFFC0390FFE741F20000C4F2E7
:100AF0000200006800F400310020B0EB514F0CD030
:100B0000FFE7FFF7BFFC0399401A652804D3FFE70E
:100B100003208DF81700FCE2E7E7FFE7FFE7FFE7B8
:100B2000049800788007002840F19080FFE741F2A8
:100B30000400C4F20200006810F00C0F20D0FFE7A0
:100B400041F20400C4F20200006800F00C00082822
:100B50002CD1FFE741F20400C4F20200006800F467
:100B60008030B0F5803F21D0FFE741F20400C4F2AD
:100B70000200006800F48030B0F5403F16D0FFE777
:100B800041F20000C4F20200006800F002010020FF
:100B9000B0EB510F09D0FFE704984069012804D059
:100BA000FFE701208DF81700B3E24EE0049840699A
:100BB00028B3FFE741F20001C4F20201086840F0E7
:100BC00001000860FFF75EFC0390FFE741F20000C0
:100BD000C4F20200006800F002010020B0EB510FE7
:100BE0000CD1FFE7FFF74EFC0399401A032804D30A
:100BF000FFE703208DF817008BE2E7E724E041F2DE
:100C00000001C4F20201086820F001000860FFF74B
:100C100039FC0390FFE741F20000C4F202000068D3
:100C200000F002010020B0EB510F0CD0FFE7FFF7FE
:100C300029FC0399401A032804D3FFE703208DF809
:100C4000170066E2E7E7FFE7FFE7FFE704980078B1
:100C5000C00600284FD5FFE70498806928B3FFE756
:100C600041F22801C4F20201086840F01000086057
:100C7000FFF708FC0390FFE741F22800C4F20200EE
:100C8000006800F020010020B0EB511F0CD1FFE7FD
:100C9000FFF7F8FB0399401A032804D3FFE703206A
:100CA0008DF8170035E2E7E724E041F22801C4F2AD
:100CB0000201086820F010000860FFF7E3FB0390D2
:100CC000FFE741F22800C4F20200006800F02001B2
:100CD0000020B0EB511F0CD0FFE7FFF7D3FB0399C7
:100CE000401A032804D3FFE703208DF8170010E211
:100CF000E7E7FFE7FFE7049800780007002852D5F0
:100D0000FFE70498C06940B3FFE741F22401C4F251
:100D10000201086840F001000860FFF7B3FB039090
:100D2000FFE741F22400C4F20200006800F0020173
:100D30000020B0EB510F0CD1FFE7FFF7A3FB0399A5
:100D4000401A032804D3FFE703208DF81700E0E1E1
:100D5000E7E7012000F048FA24E041F22401C4F260
:100D60000201086820F001000860FFF78BFB039088
:100D7000FFE741F22400C4F20200006800F0020123
:100D80000020B0EB510F0CD0FFE7FFF77BFB03997E
:100D9000401A032804D3FFE703208DF81700B8E1B9
:100DA000E7E7FFE7FFE7049800784007002840F1F5
:100DB000EF80FFE700208DF8070041F21C00C4F22D
:100DC00002000068C000002813D4FFE7FFE741F2EB
:100DD0001C00C4F20200016841F08051016000680B
:100DE00000F0805000900098FFE701208DF8070088
:100DF000FFE747F20000C4F200000068C0050028C9
:100E000022D4FFE747F20001C4F20001086840F471
:100E100080700860FFF736FB0390FFE747F20000A1
:100E2000C4F200000068C00500280CD4FFE7FFF7FB
:100E300029FB0399401A652804D3FFE703208DF8A6
:100E4000170066E1EAE7FFE70498C06801280CD1C3
:100E5000FFE741F22001C4F20201086820F0180007
:100E6000049A126910430860FFE7FFE70498C0681E
:100E7000012809D1FFE741F22001C4F2020108680C
:100E800040F00100086031E00498C06868B9FFE7ED
:100E900041F22001C4F20201086820F0010008605C
:100EA000086820F0040008601FE00498C068052866
:100EB0000DD1FFE741F22001C4F20201086840F0C1
:100EC00004000860086840F0010008600CE041F28E
:100ED0002001C4F20201086820F0010008600868DF
:100EE00020F004000860FFE7FFE7FFE7FFE7049852
:100EF000C068F8B1FFE7FFF7C5FA0390FFE741F2DA
:100F00002000C4F20200006800F002010020B0EBF3
:100F1000510F0ED1FFE7FFF7B5FA0399401A41F2DE
:100F20008931884204D3FFE703208DF81700F0E0F1
:100F3000E5E71EE0FFF7A6FA0390FFE741F2200085
:100F4000C4F20200006800F002010020B0EB510F73
:100F50000ED0FFE7FFF796FA0399401A41F2893164
:100F6000884204D3FFE703208DF81700D1E0E5E7BE
:100F7000FFE79DF80700012809D1FFE741F21C01B6
:100F8000C4F20201086820F080500860FFE7FFE724
:100F90000498006A002800F0B880FFE741F20400DE
:100FA000C4F20200006800F00C00082800F0858000
:100FB000FFE70498006A022859D1FFE741F20001D7
:100FC000C4F20201086820F080700860FFF75AFA46
:100FD0000390FFE741F20000C4F20200006800F055
:100FE00000710020B0EB516F0CD0FFE7FFF74AFA19
:100FF0000399401A032804D3FFE703208DF8170054
:1010000087E0E7E741F20401C4F2020108684FF605
:10101000FF72C9F6C0721040049B5A6A9B6A1A4359
:101020001043086041F20001C4F20201086840F078
:1010300080700860FFF726FA0390FFE741F2000096
:10104000C4F20200006800F000710020B0EB516FA4
:101050000CD1FFE7FFF716FA0399401A032804D3CF
:10106000FFE703208DF8170053E0E7E724E041F2A3
:101070000001C4F20201086820F080700860FFF7E8
:1010800001FA0390FFE741F20000C4F20200006899
:1010900000F000710020B0EB516F0CD0FFE7FFF7BC
:1010A000F1F90399401A032804D3FFE703208DF8D0
:1010B00017002EE0E7E7FFE726E00498006A012822
:1010C00004D1FFE701208DF8170022E041F204006F
:1010D000C4F2020000680290029800F48030049983
:1010E000496A88420AD1FFE702980021C6F23C0112
:1010F00008400499896A884204D0FFE701208DF8EE
:10110000170006E0FFE7FFE7FFE700208DF8170074
:10111000FFE79DF8170006B080BD000081B0009089
:101120000098042809D1FFE74EF21001CEF2000129
:10113000086840F00400086008E04EF21001CEF2AA
:101140000001086820F004000860FFE701B0704764
:101150007047000080B582B00190019800F064F8FB
:1011600002B080BD80B5FFF7F3FF80BDFFE7FEE76B
:10117000FFE7FEE77047000088B0079006910592F0
:10118000079800F0070004900498C0F107000428B5
:1011900003D3FFE70320019004E00498C0F10700A7
:1011A0000190FFE70198039004980330062803D8C4
:1011B000FFE70020009003E0049804380090FFE768
:1011C0000098029006980399012202FA01F1013970
:1011D0000840029B984005999A40013A1140084303
:1011E00008B070477047000082B00190019840F24B
:1011F0000001C2F200010968C90844F6D352C1F2E5
:101200006202A1FB0221890948430090FFE700BF69
:10121000FFE70098411E00910028F8D1FFE702B0D7
:10122000704700007047000080B584B002900298BB
:101230000138B0F1807F03D3FFE7012003901AE06B
:10124000029801384EF21401CEF2000108604FF00E
:10125000FF300721019100F06BF801994EF218025E
:10126000CEF20002002010604EF21002CEF2000218
:1012700011600390FFE7039804B080BD80B5FFF7CD
:1012800007F9FFF76FFF00F0DDF980BD80B592B080
:1012900007A801902C21FEF780FF019800230693F8
:1012A00005930493039302931F2107914FF4803118
:1012B00008914FF44072099210220D9201220C9273
:1012C0000A930E9202220F9210914FF4E0111191A5
:1012D000FFF740FB18B1FFE7FEF782FFFFE70F20A3
:1012E0000290022003900020049005904FF480604B
:1012F000069002A80621FFF77FF918B1FFE7FEF775
:101300006FFFFFE712B080BD4EF60851CEF200012C
:101310004FF000600860704770470000FFE7FEE78D
:101320004EF60C50CEF200000068C0F30220704769
:1013300082B08DF8070000919DF9070000280AD4BB
:10134000FFE7009840019DF907104EF20042CEF2EF
:10135000000288540BE0009840019DF8071001F04E
:101360000F014EF61452CEF200028854FFE702B08D
:101370007047000083B00290029800F007000090D0
:101380004EF60C51CEF200010868019001984FF61C
:10139000FF02104001900198009A40EA02200022CA
:1013A000C0F2FA52104301900198086003B07047F0
:1013B00081B0009001B0704780B584B00020ADF8D6
:1013C0000E00FFE7BDF80E001F285AD8FFE7BDF852
:1013D0000E1040F22010C2F2000000EB8100D0F8A5
:1013E0000001002846D0FFE7BDF80E1040F22010A3
:1013F000C2F2000050F82100D8BBFFE7BDF80E0094
:1014000040F22011C2F2000101F5807353F8200070
:101410000290BDF80E0001F1800252F82000019008
:10142000BDF80E0001F5C07151F820000090BDF824
:101430000EC0002043F82C00BDF80E3042F8230007
:10144000BDF80E2041F82200029A019800999047B9
:1014500040F21400C2F200000068013040B1FFE722
:1014600040F21401C2F20001086801300860FFE791
:10147000FFE7FFE7FFE7BDF80E000130ADF80E0013
:10148000A0E704B080BD000081B000900098808A81
:1014900001B0704780B582B08DF807009DF8070055
:1014A0000F2817DCFFE79DF8071040F22000C2F27A
:1014B000000000EB0110406860B1FFE79DF80710E5
:1014C00040F22000C2F2000000EB01104168806889
:1014D0008847FFE702B080BD80B5FEF7E7FFFFF762
:1014E000D5FE00F067F8002080BD000080B582B016
:1014F0000020ADF8040040F21C02C2F200021168A4
:1015000001311160ADF80600FFE7BDF806001F28A5
:101510004ED8FFE7BDF8061040F22010C2F20000DE
:1015200000EB8100D0F80001D8B3FFE7BDF804005C
:101530000130ADF8040040F22010C2F20000B0F813
:101540000002BDF80410884214DAFFE7BDF8041069
:1015500040F22010C2F20000A0F80012B0F8001211
:1015600064204843420941F62C40C0F60000FFF7D2
:101570001FFFFFE7BDF8061040F22010C2F2000086
:1015800050F8210060B1FFE7BDF8062040F22011BD
:10159000C2F2000151F82200013841F82200FFE7B1
:1015A000FFE7FFE7BDF806000130ADF80600ACE745
:1015B00002B080BD80B500F02FFA00F0FFFAFFE71F
:1015C000FFF7FAFEFFE700F03DFAA8B1FFE7FFE7FB
:1015D000FFE740F21400C2F200000068013040B1A1
:1015E000FFE740F21401C2F2000108680130086010
:1015F000FFE7FFF7E1FEE6E740F21400C2F2000069
:101600000068013040B1FFE740F21401C2F200016E
:10161000086801300860FFE740F22430C2F20000A1
:10162000D0F804C00023184619461A46E047FFE7E1
:10163000FFE7C5E740F21801C2F200010868013077
:101640000860704780B5FEF723FF40F2DA30C2F23F
:1016500000000188013101800088B0F57A7F24DB29
:10166000FFE740F2DA31C2F200010020088040F2C8
:101670001201C2F200010120087040F2D831C2F21A
:10168000000108880130088080B23C280CDBFFE7AD
:1016900040F2D830C2F2000000230380F121184646
:1016A0001A4600F03DF9FFE7FFE700F01DFAFFF7EB
:1016B0001DFFFFF7BFFF80BD80B58AB00690059182
:1016C000ADF812200020ADF80A00069818B1FFE727
:1016D000059820B9FFE70020ADF81E0088E0FFE77D
:1016E000EFF31080089008980190EFF3108072B625
:1016F000099040F21001C2F2000108880130088010
:10170000FFE70698FFF7C0FEADF80E00BDF80E002B
:1017100090B9FFE7FFE740F21001C2F2000108882C
:1017200001380880000410B9FFE762B6FFE7FFE761
:101730000020ADF81E005BE0BDF80E00BDF81210F1
:10174000884205DBFFE7BDF81200ADF80C0004E0AD
:10175000BDF80E00ADF80C00FFE7FFE70020ADF884
:101760001000FFE7BDF81000BDF80C10884226DA23
:10177000FFE70598BDF80A100844069A1168528AD6
:10178000FEF7F2FC0698418ABDF80A000844ADF85D
:101790000A00069908684A8A801A0860069908684B
:1017A0008968884204D2FFE70699C8680860FFE7A5
:1017B000FFE7BDF810000130ADF81000D2E7BDF82A
:1017C0000C200699888A801A8882FFE740F210016F
:1017D000C2F20001088801380880000410B9FFE750
:1017E00062B6FFE7FFE7BDF80C00ADF81E00FFE7AB
:1017F000BDF81E000AB080BD80B588B0049003918A
:10180000ADF80A200020ADF80400049818B1FFE7F5
:10181000039820B9FFE700208DF817007BE0FFE771
:10182000EFF31080069006980090EFF3108072B6E8
:10183000079040F21001C2F20001088801300880D0
:10184000FFE70498FFF720FEADF80600BDF80A0098
:101850000499098ABDF80620891A884212DDFFE73B
:10186000FFE740F21001C2F2000108880138088049
:10187000000410B9FFE762B6FFE7FFE700208DF82C
:10188000170048E00020ADF80800FFE7BDF80800A9
:10189000BDF80A10884226DAFFE7049A50680399D7
:1018A000BDF804301944528AFEF75EFC0498418A60
:1018B000BDF804000844ADF80400049948684A8A59
:1018C000801A4860049948688968884204D2FFE712
:1018D0000499C8684860FFE7FFE7BDF808000130D9
:1018E000ADF80800D2E7BDF80A200499888A1044B0
:1018F0008882FFE740F21001C2F200010888013837
:101900000880000410B9FFE762B6FFE7FFE7012097
:101910008DF81700FFE79DF8170008B080BD0000A4
:1019200080B588B08DF81E008DF81D100692ADF8B8
:1019300016309DF81E008DF80C009DF81D008DF8E6
:101940000D0006980490BDF81600ADF80E0040F2A8
:101950005430C2F20000FFF797FDADF80A00BDF861
:101960000A00212812D3FFE741F61250C0F600000A
:101970002121FFF71DFD9DF80A0040F22431C2F23B
:101980000001087000208DF81F0041E0BDF80A003A
:101990000130ADF80A0040F22430C2F200000078B5
:1019A000BDF80A10884218DAFFE79DF80A1040F2E5
:1019B0002430C2F2000001700178642048434FF2E5
:1019C0007D02C0F2C172A0FB0220C2B241F60A60E1
:1019D000C0F60000FFF7ECFCFFE79DF81E109DF835
:1019E0001D20069BBDF81600EC46CCF8000041F621
:1019F0007060C0F60000FFF7DBFC40F25430C2F22A
:101A0000000003A90122FFF7F7FE8DF81F00FFE792
:101A10009DF81F0008B080BD80B5FEF71FFF44F69B
:101A2000D351C1F26201A0FB01108009FFF792FBC4
:101A30000420FFF773FB4FF0FF3000221146FEF742
:101A4000B9FD80BD80B584B040F25430C2F20000D0
:101A5000FFF71AFD20B9FFE700208DF80F003FE0E7
:101A600040F25430C2F2000001A90122FFF724FE27
:101A70009DF8040040F22431C2F200014978884206
:101A800009DDFFE740F25430C2F20000FFF7FCFC32
:101A90008DF80F0024E09DF8041040F22430C2F2CB
:101AA000000000EB8100406888B1FFE740F224327B
:101AB000C2F200029DF804009DF8051002EB8002BE
:101AC000D2F804C0029ABDF80630E047FFE740F2C2
:101AD0005430C2F20000FFF7D7FC8DF80F00FFE78B
:101AE0009DF80F0004B080BD80B582B00020ADF835
:101AF0000400ADF80600FFE7BDF8060007285BD834
:101B0000FFE7BDF8061040F26C30C2F2000000EBB7
:101B10008100806C002848D0FFE7BDF80400013048
:101B2000ADF8040040F26C30C2F20000B0F868007A
:101B3000BDF80410884214DAFFE7BDF8041040F243
:101B40006C30C2F20000A0F86810B0F86810642091
:101B50004843C20841F60370C0F60000FFF728FCB6
:101B6000FFE7BDF8062040F26C30C2F200002830DA
:101B700050F82210013940F82210BDF8061050F834
:101B8000210088B9FFE7BDF8061040F26C30C2F2C0
:101B9000000000EB810291689162BDF8061000EB35
:101BA0008100806C8047FFE7FFE7FFE7BDF8060094
:101BB0000130ADF806009FE702B080BD704702E03B
:101BC00008C8121F08C1002AFAD1704770470020C8
:101BD00001E001C1121F002AFBD170470203040576
:101BE000060708090A0B0C0D0E0F1011121314151D
:101BF000161718191A1B1C1D1E1F2021222324250D
:101C0000262728292A2B2C2D2E2F303132333435FC
:101C1000363738393A3B3C3D3E3F3F3F00000000FD
:101C20000000000001020304060708094D61784521
:101C300076656E743D25642C5573655065726365D9
:101C40006E746167653D256425250D0A0D0A000D3A
:101C50000A0D0A6372656174654576656E74466146
:101C60006C73652C706C65617365436865636B208C
:101C70002245564E545F434F4E43555252454E54A3
:101C8000223D25640D0A0D0A004576656E74497380
:101C90004E6F74437265617465640D0A000D0A63CA
:101CA00072656174654576656E74537563636573BB
:101CB000732C49643D25642C7046756E6374696F9E
:101CC0006E3D25780D0A00436C65616E4576656E44
:101CD00074537563636573732C49643D25642C707C
:101CE00046756E6374696F6E3D25780D0A007265E6
:101CF00073657474696E674576656E742C49643DCE
:101D000025642C7046756E6374696F6E3D25780D81
:101D10000A000D0A0D0A7461736B4D736753656E8B
:101D20006446616C73652C706C65617365206368D3
:101D300065636B20224D41585F5441534B5F4D53B7
:101D4000475F4255465F4E554D223D25640D0A0DB5
:101D50000A000D0A0D0A7461736B43726561746544
:101D600046616C73652C706C656173652063686592
:101D7000636B20224D41585F5441534B5F4E554D8C
:101D8000223D25640D0A0D0A004D617854696D6588
:101D9000723D25642C55736550657263656E746180
:101DA00067653D256425250D0A004D6178457665FA
:101DB0006E743D25642C55736550657263656E7451
:101DC0006167653D256425250D0A004D73674D61EA
:101DD000783D25642C55736550657263656E74613A
:101DE00067653D256425250D0A005461736B4D61BF
:101DF000783D25642C55736550657263656E74611A
:101E000067653D256425250D0A0067745461736B71
:101E10002E7461736B4D73674D61783D25642C554D
:101E2000736167652070657263656E746167653D97
:101E3000256425250D0A007461736B437265617416
:101E400065537563636573732C5461736B49643DAB
:101E500025640D0A007461736B44656C537563638C
:101E60006573732C5461736B49643D25640D0A00DE
:101E700053656E644D7367546F5461736B53756330
:101E8000636573732C5461736B49643D25642C4DF9
:101E900073673D25782C6461746141646472657375
:101EA000733D25782C73697A653D25640D0A000D14
:101EB0000A7461736B4973437265617465640D0ADA
:101EC000007461736B44656C4661696C0D0A00694E
:101ED000646C6520496E69740D0A006370755573F2
:101EE0006550657263656E746167653D256425257F
:101EF0002C69646C653D25782C626173653D25789D
:101F00000D0A004D617854696D65723D25642C554C
:101F1000736550657263656E746167653D25642500
:101F2000250D0A0D0A0063726561746554696D655B
:101F30007246616C73652C706C656173654368658E
:101F4000636B20224D41585F54494D45525F4E55B9
:101F50004D223D25640D0A0054696D657254696D0A
:101F6000654861734265656E4D6F64696669656455
:101F70000D0A0054696D657249734E6F7443726542
:101F8000617465640D0A0063726561746554696DFE
:101F90006572537563636573732C49443D25642CE6
:101FA00046756E6374696F6E3D25780D0A000000FA
:101FB000D01F00080000002010000000BE1B000819
:101FC000E01F000810000020D0070000CE1B000812
:101FD00000127A000100000008000000000000006C
:0400000508000131BD
:00000001FF
