:020000040800F2
:10000000483F002045010008812D0008792D000897
:100010007D2D0008F5010008B9340008000000003B
:10002000000000000000000000000000312E000869
:100030007502000800000000F12D0008892E00085C
:100040005F0100085F0100085F0100085F01000810
:100050005F0100085F0100087902000895030008AD
:10006000C1030008ED03000819040008F9010008A5
:100070000D0200085F0100085F0100085F01000831
:100080005F0100085F0100085F0100085F010008D0
:100090005F0100085F0100085F01000845040008D7
:1000A0005F0100085F0100085F0100085F010008B0
:1000B000292F00085F0100085F0100085F010008A8
:1000C0005F0100085F0100085F0100085F01000890
:1000D0005F0100085F010008A53400085F01000807
:1000E000A10200085F0100085F0100085F0100082D
:1000F0005F0100085F0100085F0100085F01000860
:100100005F0100085F0100085F0100085F0100084F
:100110005F0100085F0100085F0100085F0100083F
:10012000210200085F0100085F0100085F0100086C
:10013000DFF80CD000F044F80048004729360008EA
:10014000483F00200648804706480047FEE7FEE794
:10015000FEE7FEE7FEE7FEE7FEE7FEE7FEE7FEE777
:10016000192F00083101000840EA01039B0703D062
:1001700009E008C9121F08C0042AFAD203E011F8E6
:10018000013B00F8013B521EF9D27047D2B201E0A8
:1001900000F8012B491EFBD270470022F6E710B58C
:1001A00013460A4604461946FFF7F0FF204610BDE5
:1001B000421C10F8011B0029FBD1801A7047000077
:1001C0001CB509480090094801900546009C06E0CE
:1001D000E06840F0010394E8070098471034AC420F
:1001E000F6D3FFF7A9FF0000944A0008B44A0008BC
:1001F000FFE7FEE7FFE7FEE780B542F23C10C2F200
:100200000000D0F8700500F0DBFB80BD80B542F245
:100210003C10C2F20000D0F8740500F0D1FB80BDA4
:100220007047000084B003900291019200930398FC
:10023000C16B026C012090404860009803990968E6
:10024000486003984068102809D1FFE70198039996
:1002500009688860029803990968C86008E00298F4
:10026000039909688860019803990968C860FFE7E5
:1002700004B070477047000080B540F21440C4F2EB
:1002800001000068C00750B1FFE7002003F090F9BB
:1002900040F21441C4F2010101200860FFE780BD73
:1002A00080B540F21440C4F2010000684005002807
:1002B0000BD5FFE70A2003F07BF940F21441C4F2AA
:1002C00001014FF480600860FFE740F21440C4F27F
:1002D00001000068000500280BD5FFE70B2003F0A4
:1002E00067F940F21441C4F201014FF40060086064
:1002F000FFE740F21440C4F201000068C004002887
:100300000BD5FFE70C2003F053F940F21441C4F27F
:1003100001014FF480500860FFE740F21440C4F23E
:1003200001000068800400280BD5FFE70D2003F0D2
:100330003FF940F21441C4F201014FF4005008604B
:10034000FFE740F21440C4F20100006840040028B6
:100350000BD5FFE70E2003F02BF940F21441C4F255
:1003600001014FF480400860FFE740F21440C4F2FE
:1003700001000068000400280BD5FFE70F2003F000
:1003800017F940F21441C4F201014FF40040086033
:10039000FFE780BD80B540F21440C4F20100006860
:1003A000800700280AD5FFE7012003F001F940F299
:1003B0001441C4F2010102200860FFE780BD000083
:1003C00080B540F21440C4F20100006840070028E4
:1003D0000AD5FFE7022003F0EBF840F21441C4F223
:1003E000010104200860FFE780BD000080B540F2F5
:1003F0001440C4F201000068000700280AD5FFE796
:10040000032003F0D5F840F21441C4F201010820A2
:100410000860FFE780BD000080B540F21440C4F2E0
:1004200001000068C00600280AD5FFE7042003F099
:10043000BFF840F21441C4F2010110200860FFE748
:1004400080BD000080B540F21440C4F20100006895
:10045000800600280AD5FFE7052003F0A9F840F23E
:100460001441C4F2010120200860FFE740F214406B
:10047000C4F201000068400600280AD5FFE7062004
:1004800003F096F840F21441C4F2010140200860E4
:10049000FFE740F21440C4F20100006800060028A3
:1004A0000AD5FFE7072003F083F840F21441C4F2B5
:1004B000010180200860FFE740F21440C4F201000F
:1004C0000068C00500280BD5FFE7082003F070F88E
:1004D00040F21441C4F201014FF480700860FFE75C
:1004E00040F21440C4F201000068800500280BD5DA
:1004F000FFE7092003F05CF840F21441C4F2010167
:100500004FF400700860FFE780BD000080B596B032
:10051000159000208DF85300159890F821000228BE
:1005200007D0FFE715990420886301208DF8530058
:1005300074E115980168086820F00E0008601598AD
:100540000168086820F001000860159800688121A2
:10055000C4F202018842C0F0A880FFE71598006845
:100560000821C4F20201884203D1FFE70120139061
:1005700094E0159800681C21C4F20201884203D15E
:10058000FFE71020129086E0159800683021C4F231
:100590000201884204D1FFE74FF48070119077E0A8
:1005A000159800684421C4F20201884204D1FFE793
:1005B0004FF48050109068E0159800685821C4F2FC
:1005C0000201884204D1FFE74FF480300F9059E0D8
:1005D000159800686C21C4F20201884204D1FFE73B
:1005E0004FF480100E904AE0159800688021C4F204
:1005F0000201884204D1FFE74FF080700D903BE08C
:100600001598006840F20841C4F20201884203D103
:10061000FFE701200C902CE01598006840F21C4187
:10062000C4F20201884203D1FFE710200B901DE0C5
:100630001598006840F23041C4F20201884204D1AA
:10064000FFE74FF480700A900DE01598016840F2C2
:100650004442C4F202024FF48030914208BF4FF48A
:1006600080500A90FFE70A980B90FFE70B980C90D8
:10067000FFE70C980D90FFE70D980E90FFE70E989E
:100680000F90FFE70F981090FFE710981190FFE789
:1006900011981290FFE712981390FFE7139840F219
:1006A0000441C4F202010860A5E015980068082121
:1006B000C4F20201884203D1FFE70120099094E0CF
:1006C000159800681C21C4F20201884203D1FFE79B
:1006D0001020089086E0159800683021C4F20201CD
:1006E000884204D1FFE74FF48070079077E01598B7
:1006F00000684421C4F20201884204D1FFE74FF4AC
:100700008050069068E0159800685821C4F20201F4
:10071000884204D1FFE74FF48030059059E01598E6
:1007200000686C21C4F20201884204D1FFE74FF453
:10073000801004904AE0159800688021C4F20201FC
:10074000884204D1FFE74FF0807003903BE015989A
:10075000006840F20841C4F20201884203D1FFE779
:10076000012002902CE01598006840F21C41C4F270
:100770000201884203D1FFE7102001901DE0159887
:10078000006840F23041C4F20201884204D1FFE720
:100790004FF4807000900DE01598016840F24442DB
:1007A000C4F202024FF48030914208BF4FF48050EF
:1007B0000090FFE700980190FFE701980290FFE7A3
:1007C00002980390FFE703980490FFE704980590D0
:1007D000FFE705980690FFE706980790FFE7079860
:1007E0000890FFE708980990FFE709980421C4F2F0
:1007F00002010860FFE71599012081F82100FFE759
:100800001599002081F82000FFE71598406B20B172
:10081000FFE71598416B8847FFE7FFE79DF8530016
:1008200016B080BD84B0039002910398006840F236
:100830000741C4F20201884210D8FFE7039800681C
:100840004FF6F871CBF6FD7108444CF6CD41CCF66D
:10085000CC41A0FB01100009019011E00398006851
:100860004FF6F831CBF6FD7108444CF6CD41CCF68D
:10087000CC41A0FB0101072000EB11100190FFE724
:10088000FFE741F21800C4F20200016841F00101E3
:100890000160006800F0010000900098FFE70198F7
:1008A00020F003000822C4F201028058019901F0EF
:1008B00003034FEAC30C7F2303FA0CF39843029B14
:1008C00003FA0CF3184321F00301885004B0704779
:1008D00082B00090009820B9FFE701208DF8070052
:1008E0006AE000980168086820F00100086000983C
:1008F000016800200860009909684860009909684B
:10090000886000990968C8600098006840F2074153
:10091000C4F20201884218D8FFE7009908684FF630
:10092000F872CBF6FD7210444CF6CD42CCF6CC42B8
:10093000A0FB02026FF0030000EA92000864009935
:100940000020C4F20200C86318E0009908684FF65E
:10095000F832CBF6FD7210444CF6CD42CCF6CC42C8
:10096000A0FB02026FF0030000EA92000864009905
:1009700040F20040C4F20200C863FFE70098C16B78
:10098000026C012090404860009900208862009924
:10099000C8620099086300994863009988630099C8
:1009A00081F82100FFE70099002081F82000FFE78F
:1009B00000208DF80700FFE79DF8070002B07047A0
:1009C00080B5ACB02B902B98C06B00682A902B9808
:1009D0000068006829902A982B99096CC840400744
:1009E000002840F17581FFE79DF8A400400700282A
:1009F00040F16E81FFE72B980068006880060028B0
:100A000007D4FFE72B980168086820F0040008600D
:100A1000FFE72B9800688121C4F202018842C0F0F0
:100A2000A880FFE72B9800680821C4F202018842E1
:100A300003D1FFE70420289094E02B9800681C2144
:100A4000C4F20201884203D1FFE74020279086E0EC
:100A50002B9800683021C4F20201884204D1FFE7DC
:100A60004FF48060269077E02B9800684421C4F210
:100A70000201884204D1FFE74FF48040259068E0EE
:100A80002B9800685821C4F20201884204D1FFE784
:100A90004FF48020249059E02B9800686C21C4F218
:100AA0000201884204D1FFE74FF4800023904AE01E
:100AB0002B9800688021C4F20201884204D1FFE72C
:100AC0004FF0806022903BE02B98006840F2084194
:100AD000C4F20201884203D1FFE7042021902CE0F8
:100AE0002B98006840F21C41C4F20201884203D1F5
:100AF000FFE7402020901DE02B98006840F2304135
:100B0000C4F20201884204D1FFE74FF480601F90D5
:100B10000DE02B98016840F24442C4F202024FF407
:100B20008020914208BF4FF480401F90FFE71F983C
:100B30002090FFE720982190FFE721982290FFE77F
:100B400022982390FFE723982490FFE7249825908C
:100B5000FFE725982690FFE726982790FFE727983C
:100B60002890FFE7289840F20441C4F2020108608F
:100B7000A5E02B9800680821C4F20201884203D145
:100B8000FFE704201E9094E02B9800681C21C4F21B
:100B90000201884203D1FFE740201D9086E02B9898
:100BA00000683021C4F20201884204D1FFE74FF40B
:100BB00080601C9077E02B9800684421C4F2020109
:100BC000884204D1FFE74FF480401B9068E02B98E7
:100BD00000685821C4F20201884204D1FFE74FF4B3
:100BE00080201A9059E02B9800686C21C4F2020111
:100BF000884204D1FFE74FF4800019904AE02B9817
:100C000000688021C4F20201884204D1FFE74FF05E
:100C1000806018903BE02B98006840F20841C4F2D5
:100C20000201884203D1FFE7042017902CE02B98A3
:100C3000006840F21C41C4F20201884203D1FFE780
:100C4000402016901DE02B98006840F23041C4F21D
:100C50000201884204D1FFE74FF4806015900DE057
:100C60002B98016840F24442C4F202024FF4802003
:100C7000914208BF4FF480401590FFE715981690F9
:100C8000FFE716981790FFE717981890FFE7189856
:100C90001990FFE719981A90FFE71A981B90FFE741
:100CA0001B981C90FFE71C981D90FFE71D981E9055
:100CB000FFE71E980421C4F202010860FFE72B98A9
:100CC000C06A20B1FFE72B98C16A8847FFE7B7E108
:100CD0002A982B99096CC8408007002840F17F8131
:100CE000FFE79DF8A4008007002840F17881FFE726
:100CF0002B9800680068800600280BD4FFE72B982B
:100D00000168086820F00A0008602B99012081F82A
:100D10002100FFE72B9800688121C4F2020188427C
:100D2000C0F0A880FFE72B9800680821C4F20201F8
:100D3000884203D1FFE70220149094E02B980068CA
:100D40001C21C4F20201884203D1FFE72020139046
:100D500086E02B9800683021C4F20201884204D159
:100D6000FFE74FF40070129077E02B980068442161
:100D7000C4F20201884204D1FFE74FF40050119001
:100D800068E02B9800685821C4F20201884204D11F
:100D9000FFE74FF40030109059E02B9800686C2169
:100DA000C4F20201884204D1FFE74FF400100F9013
:100DB0004AE02B9800688021C4F20201884204D1E5
:100DC000FFE74FF000700E903BE02B98006840F278
:100DD0000841C4F20201884203D1FFE702200D90CE
:100DE0002CE02B98006840F21C41C4F202018842BA
:100DF00003D1FFE720200C901DE02B98006840F203
:100E00003041C4F20201884204D1FFE74FF4007080
:100E10000B900DE02B98016840F24442C4F20202AC
:100E20004FF40030914208BF4FF400500B90FFE7A1
:100E30000B980C90FFE70C980D90FFE70D980E9023
:100E4000FFE70E980F90FFE70F981090FFE71098BC
:100E50001190FFE711981290FFE712981390FFE7A7
:100E600013981490FFE7149840F20441C4F2020171
:100E70000860A5E02B9800680821C4F202018842AE
:100E800003D1FFE702200A9094E02B9800681C2110
:100E9000C4F20201884203D1FFE72020099086E0D6
:100EA0002B9800683021C4F20201884204D1FFE788
:100EB0004FF40070089077E02B9800684421C4F24A
:100EC0000201884204D1FFE74FF40050079068E028
:100ED0002B9800685821C4F20201884204D1FFE730
:100EE0004FF40030069059E02B9800686C21C4F252
:100EF0000201884204D1FFE74FF4001005904AE058
:100F00002B9800688021C4F20201884204D1FFE7D7
:100F10004FF0007004903BE02B98006840F20841CD
:100F2000C4F20201884203D1FFE7022003902CE0C3
:100F30002B98006840F21C41C4F20201884203D1A0
:100F4000FFE7202002901DE02B98006840F230411E
:100F5000C4F20201884204D1FFE74FF4007001900F
:100F60000DE02B98016840F24442C4F202024FF4B3
:100F70000030914208BF4FF400500190FFE7019804
:100F80000290FFE702980390FFE703980490FFE7C1
:100F900004980590FFE705980690FFE706980790EC
:100FA000FFE707980890FFE708980990FFE709987E
:100FB0000A90FFE70A980421C4F202010860FFE7E3
:100FC000FFE72B99002081F82000FFE72B98806A2B
:100FD00020B1FFE72B98816A8847FFE72FE02A9826
:100FE0002B99096CC8400007002827D5FFE79DF81A
:100FF000A4000007002821D5FFE72B9801680868A6
:1010000020F00E0008602B98C26B016C012000FAE2
:1010100001F151602B9988632B9981F82100FFE73A
:101020002B99002081F82000FFE72B98006B20B15E
:10103000FFE72B98016B8847FFE7FFE7FFE7FFE734
:101040002CB080BD83B0019000200090019820B9A1
:10105000FFE701208DF80B006AE00198006840F27C
:101060000741C4F20201884218D8FFE701990868D5
:101070004FF6F872CBF6FD7210444CF6CD42CCF62A
:10108000CC42A0FB02026FF0030000EA9200086469
:1010900001990020C4F20200C86318E001990868B1
:1010A0004FF6F832CBF6FD7210444CF6CD42CCF63A
:1010B000CC42A0FB02026FF0030000EA9200086439
:1010C000019940F20040C4F20200C863FFE70199B1
:1010D000022081F8210001980068006800900098C3
:1010E00043F6F0718843009001994868D1F808C030
:1010F000CB680A6940EA0C00184310434A69104360
:101100008A691043C9690143009808430090009818
:10111000019909680860019900208863019A0121FA
:1011200082F82110019981F820008DF80B00FFE76B
:101130009DF80B0003B0704780B586B00490039112
:101140000292019300208DF80300FFE7049890F8C5
:101150002000012804D1FFE702208DF817004CE0A1
:101160000499012081F82000FFE7FFE7049890F838
:101170002100012832D1FFE70499022081F82100E3
:1011800004990020886304980168086820F0010031
:10119000086004980399029A019BFFF743F80498AA
:1011A000C06A38B1FFE704980168086840F00E0093
:1011B00008600CE004980168086820F004000860EA
:1011C00004980168086840F00A000860FFE7049886
:1011D0000168086840F00100086009E0FFE7049931
:1011E000002081F82000FFE702208DF80300FFE7D0
:1011F0009DF803008DF81700FFE79DF8170006B073
:1012000080BD000080B584B0039000F0C5F9029065
:10121000039801900198013048B1FFE740F20C00BB
:10122000C2F200000178019808440190FFE7FFE74F
:1012300000F0B2F90299401A0199884201D2FFE701
:10124000F6E704B080BD00008AB009900891002044
:101250000790FFE7089800680799C840002800F049
:101260009881FFE708980068079A0121914008409B
:1012700006900698002800F08881FFE708984068EB
:10128000022805D0FFE708984068122826D1FFE71A
:10129000099807996FF0030202EA51010844006AB5
:1012A0000590079800F0070081000F2000FA01F177
:1012B00005988843059008980069079901F007018F
:1012C000890000FA01F105980843059005980999ED
:1012D000079B02EA530211440862FFE7099800687D
:1012E000059007984100032000FA01F10598884312
:1012F00005900898406800F003000799490000FA3B
:1013000001F1059808430590059809990860089827
:10131000406801280FD0FFE70898406802280AD0EB
:10132000FFE708984068112805D0FFE70898406853
:1013300012282FD1FFE7099880680590079841008F
:10134000032000FA01F10598884305900898C068C9
:101350000799490000FA01F105980843059005989E
:10136000099988600998406805900799012000FA5A
:1013700001F105988843059008984068C0F3001073
:10138000079900FA01F10598084305900598099915
:101390004860FFE70998C06805900798410003205E
:1013A00000FA01F10598884305900898806807992C
:1013B000490000FA01F1059808430590059809993C
:1013C000C8600898C079C006002840F1DD80FFE7BA
:1013D000FFE741F21800C4F20200016841F0010188
:1013E0000160006800F0010004900498FFE707988E
:1013F00020F003001421C4F2010140580590079821
:1014000000F0030081000F2000FA01F105988843E5
:1014100005900998B0F1904F03D1FFE700200390A9
:1014200034E0099840F20041C4F60001884203D13B
:10143000FFE70120029026E0099840F60001C4F67B
:101440000001884203D1FFE70220019018E00998CB
:1014500040F60041C4F60001884203D1FFE70320B3
:1014600000900AE0099941F20002C4F60002072048
:10147000914208BF04200090FFE700980190FFE729
:1014800001980290FFE702980390FFE703980799FD
:1014900001F00301890000FA01F105980843059065
:1014A0000598079921F003011422C4F20102885023
:1014B00040F20040C4F201000068059006990598CA
:1014C0008843059008988079C00728B1FFE70699FE
:1014D000059808430590FFE7059840F20041C4F2E3
:1014E0000101086040F20440C4F201000068059068
:1014F0000699059888430590089880798007002808
:1015000005D5FFE70699059808430590FFE705987C
:1015100040F20441C4F20101086040F20840C4F204
:101520000100006805900699059888430590089881
:101530008079C006002805D5FFE70699059808437D
:101540000590FFE7059840F20841C4F201010860E8
:1015500040F20C40C4F2010000680590069905981D
:1015600088430590089880798006002805D5FFE714
:101570000699059808430590FFE7059840F20C414D
:10158000C4F201010860FFE7FFE707980130079008
:1015900060E60AB07047000043F64030C2F2000037
:1015A0000068704740F20C00C2F20000027843F677
:1015B0004031C2F200010868104408607047000022
:1015C00080B5042000F0A4F80F2000F005F800F02A
:1015D0003BF8002080BD000080B582B0009040F252
:1015E0000000C2F20000006840F20C01C2F20001EB
:1015F0000A784FF47A71B1FBF2F1B0FBF1F000F030
:1016000047FE20B1FFE701208DF8070018E00098A1
:1016100007280DD8FFE700994FF0FF30002200F0B7
:101620005DF8009840F21001C2F20001086003E08A
:1016300001208DF8070003E000208DF80700FFE788
:101640009DF8070002B080BD84B0FFE741F21800AA
:10165000C4F20200016841F001010160006800F07D
:10166000010003900398FFE7FFE741F21C00C4F27A
:101670000200016841F080510160006800F0805074
:1016800002900298FFE7FFE741F23400C4F2020043
:10169000016841F004010160006800F0040001905D
:1016A0000198FFE7FFE741F23400C4F2020001684D
:1016B00041F008010160006800F008000090009807
:1016C000FFE704B07047000080B582B08DF80700D6
:1016D0009DF9070001F0F2FE02B080BD80B586B032
:1016E0008DF81700049103920020029001F0FEFE95
:1016F00002909DF91700019002980499039A01F055
:1017000041FB0146019801F0F9FE06B080BD0000E2
:1017100080B582B00190019801F012FF02B080BD47
:1017200080B584B002900191029820B9FFE70120B2
:101730008DF80F0021E1019842F20001C4F202018C
:10174000096801F00F01884216D9FFE742F2000054
:10175000C4F20200016821F00F01019A11430160F7
:10176000006800F00F000199884204D0FFE70120D3
:101770008DF80F0001E1FFE702980078800700284C
:101780002AD5FFE7029800784007002809D5FFE72F
:1017900041F20401C4F20201086840F4E06008600C
:1017A000FFE7029800780007002809D5FFE741F21B
:1017B0000401C4F20201086840F460500860FFE7C9
:1017C00041F20401C4F20201086820F0F000029A1C
:1017D000926810430860FFE702980078C00700286D
:1017E00066D0FFE702984068012811D1FFE741F277
:1017F0000000C4F20200006800F400310020B0EBE9
:10180000514F04D1FFE701208DF80F00B5E024E02F
:101810000298406802280ED1FFE741F20000C4F2AE
:1018200002000068C001002804D4FFE701208DF801
:101830000F00A2E010E041F20000C4F202000068D4
:1018400000F002010020B0EB510F04D1FFE70120AE
:101850008DF80F0091E0FFE7FFE741F20401C4F2C9
:101860000201086820F00300029A526810430860E1
:10187000FFF792FE0090FFE741F20400C4F202007D
:10188000006800F00C0002994968B0EB810F0ED09F
:10189000FFE7FFF781FE0099401A41F28931884243
:1018A00004D3FFE703208DF80F0066E0E4E7FFE7CD
:1018B000019842F20001C4F20201096801F00F012F
:1018C000884216D2FFE742F20000C4F2020001682B
:1018D00021F00F01019A11430160006800F00F0030
:1018E0000199884204D0FFE701208DF80F0044E001
:1018F000FFE702980078400700280CD5FFE741F287
:101900000401C4F20201086820F4E060029AD2687F
:1019100010430860FFE702980078000700280DD503
:10192000FFE741F20401C4F20201086820F46050AC
:10193000029A126940EAC2000860FFE700F04CF822
:1019400041F20401C4F202010968C9B20A0944F66D
:101950009411C0F60001895CC84040F20001C2F257
:101960000001086040F21000C2F200000068FFF7BA
:1019700033FE00208DF80F00FFE79DF80F0004B044
:1019800080BD000040F20000C2F200000068704715
:1019900080B5FFF7F7FF41F20401C4F202010968C4
:1019A000C1F3022244F6A411C0F60001895CC840CC
:1019B00080BD000080B5FFF7E5FF41F20401C4F2ED
:1019C00002010968C1F3C22244F6A411C0F6000165
:1019D000895CC84080BD000080B598B044F65411C1
:1019E000C0F6000108A84022FEF7BEFB40F201202D
:1019F000ADF81E0000200690059004900390029020
:101A000041F20400C4F2020000680690069800F05B
:101A10000C000146019100284AD0FFE701980428F4
:101A200004D0FFE70198082806D042E042F20040C7
:101A3000C0F2F400029042E0069901F0C04001F4C7
:101A40007011400E40EA914108A8405C039006984E
:101A500000F44030B0F5803F07D0FFE7069800F46F
:101A60004030B0F5403F18D1FFE741F20400C4F226
:101A70000200006800F400310DF11E0040EA514000
:101A800000780590039842F20041C0F2F401484307
:101A90000599B0FBF1F0049007E0039841F20021B2
:101AA000C0F27A0148430490FFE70498029006E0F0
:101AB000FFE741F20020C0F27A000290FFE70298AF
:101AC00018B080BD80B586B00490049820B9FFE7B7
:101AD00001208DF81700D4E304980078C00700288F
:101AE00000F0D680FFE741F20400C4F20200006873
:101AF00000F00C00042820D0FFE741F20400C4F2FB
:101B00000200006800F00C0008282BD1FFE741F22A
:101B10000400C4F20200006800F48030B0F5803F99
:101B20000BD0FFE741F20400C4F20200006800F4A9
:101B30008030B0F5403F15D1FFE741F20000C4F21C
:101B40000200006800F400310020B0EB514F08D0D3
:101B5000FFE70498406820B9FFE701208DF81700DF
:101B60008FE394E004984068B0F5803F0CD1FFE724
:101B700041F23801C4F20201086820F44070049A6E
:101B8000926810430860FFE7FFE704984068B0F5EB
:101B9000803F09D1FFE741F20001C4F20201086869
:101BA00040F48030086032E00498406868B9FFE78C
:101BB00041F20001C4F20201086820F4803008609C
:101BC000086820F48020086020E004984068B0F5A0
:101BD000A02F0DD1FFE741F20001C4F20201086815
:101BE00040F480200860086840F4803008600CE011
:101BF00041F20001C4F20201086820F4803008605C
:101C0000086820F480200860FFE7FFE7FFE7FFE7B0
:101C100004984068E8B1FFE7FFF7BEFC0390FFE7D8
:101C200041F20000C4F20200006800F4003100201C
:101C3000B0EB514F0CD1FFE7FFF7AEFC0399401A10
:101C4000652804D3FFE703208DF8170019E3E7E7C1
:101C50001CE0FFF7A1FC0390FFE741F20000C4F293
:101C60000200006800F400310020B0EB514F0CD0AE
:101C7000FFE7FFF791FC0399401A652804D3FFE7BB
:101C800003208DF81700FCE2E7E7FFE7FFE7FFE737
:101C9000049800788007002840F19080FFE741F227
:101CA0000400C4F20200006810F00C0F20D0FFE71F
:101CB00041F20400C4F20200006800F00C000828A1
:101CC0002CD1FFE741F20400C4F20200006800F4E6
:101CD0008030B0F5803F21D0FFE741F20400C4F22C
:101CE0000200006800F48030B0F5403F16D0FFE7F6
:101CF00041F20000C4F20200006800F0020100207E
:101D0000B0EB510F09D0FFE704984069012804D0D7
:101D1000FFE701208DF81700B3E24EE00498406918
:101D200028B3FFE741F20001C4F20201086840F065
:101D300001000860FFF730FC0390FFE741F200006C
:101D4000C4F20200006800F002010020B0EB510F65
:101D50000CD1FFE7FFF720FC0399401A032804D3B6
:101D6000FFE703208DF817008BE2E7E724E041F25C
:101D70000001C4F20201086820F001000860FFF7CA
:101D80000BFC0390FFE741F20000C4F20200006880
:101D900000F002010020B0EB510F0CD0FFE7FFF77D
:101DA000FBFB0399401A032804D3FFE703208DF8B7
:101DB000170066E2E7E7FFE7FFE7FFE70498007830
:101DC000C00600284FD5FFE70498806928B3FFE7D5
:101DD00041F22801C4F20201086840F010000860D6
:101DE000FFF7DAFB0390FFE741F22800C4F202009C
:101DF000006800F020010020B0EB511F0CD1FFE77C
:101E0000FFF7CAFB0399401A032804D3FFE7032016
:101E10008DF8170035E2E7E724E041F22801C4F22B
:101E20000201086820F010000860FFF7B5FB03907E
:101E3000FFE741F22800C4F20200006800F0200130
:101E40000020B0EB511F0CD0FFE7FFF7A5FB039973
:101E5000401A032804D3FFE703208DF8170010E28F
:101E6000E7E7FFE7FFE7049800780007002852D56E
:101E7000FFE70498C06940B3FFE741F22401C4F2D0
:101E80000201086840F001000860FFF785FB03903D
:101E9000FFE741F22400C4F20200006800F00201F2
:101EA0000020B0EB510F0CD1FFE7FFF775FB039952
:101EB000401A032804D3FFE703208DF81700E0E160
:101EC000E7E7012000F096FF24E041F22401C4F28C
:101ED0000201086820F001000860FFF75DFB039035
:101EE000FFE741F22400C4F20200006800F00201A2
:101EF0000020B0EB510F0CD0FFE7FFF74DFB03992B
:101F0000401A032804D3FFE703208DF81700B8E137
:101F1000E7E7FFE7FFE7049800784007002840F173
:101F2000EF80FFE700208DF8070041F21C00C4F2AB
:101F300002000068C000002813D4FFE7FFE741F269
:101F40001C00C4F20200016841F080510160006889
:101F500000F0805000900098FFE701208DF8070006
:101F6000FFE747F20000C4F200000068C005002847
:101F700022D4FFE747F20001C4F20001086840F4F0
:101F800080700860FFF708FB0390FFE747F200004E
:101F9000C4F200000068C00500280CD4FFE7FFF77A
:101FA000FBFA0399401A652804D3FFE703208DF854
:101FB000170066E1EAE7FFE70498C06801280CD142
:101FC000FFE741F22001C4F20201086820F0180086
:101FD000049A126910430860FFE7FFE70498C0689D
:101FE000012809D1FFE741F22001C4F2020108688B
:101FF00040F00100086031E00498C06868B9FFE76C
:1020000041F22001C4F20201086820F001000860DA
:10201000086820F0040008601FE00498C0680528E4
:102020000DD1FFE741F22001C4F20201086840F03F
:1020300004000860086840F0010008600CE041F20C
:102040002001C4F20201086820F00100086008685D
:1020500020F004000860FFE7FFE7FFE7FFE70498D0
:10206000C068F8B1FFE7FFF797FA0390FFE741F286
:102070002000C4F20200006800F002010020B0EB72
:10208000510F0ED1FFE7FFF787FA0399401A41F28B
:102090008931884204D3FFE703208DF81700F0E070
:1020A000E5E71EE0FFF778FA0390FFE741F2200032
:1020B000C4F20200006800F002010020B0EB510FF2
:1020C0000ED0FFE7FFF768FA0399401A41F2893111
:1020D000884204D3FFE703208DF81700D1E0E5E73D
:1020E000FFE79DF80700012809D1FFE741F21C0135
:1020F000C4F20201086820F080500860FFE7FFE7A3
:102100000498006A002800F0B880FFE741F204005C
:10211000C4F20200006800F00C00082800F085807E
:10212000FFE70498006A022859D1FFE741F2000155
:10213000C4F20201086820F080700860FFF72CFAF2
:102140000390FFE741F20000C4F20200006800F0D3
:1021500000710020B0EB516F0CD0FFE7FFF71CFAC5
:102160000399401A032804D3FFE703208DF81700D2
:1021700087E0E7E741F20401C4F2020108684FF684
:10218000FF72C9F6C0721040049B5A6A9B6A1A43D8
:102190001043086041F20001C4F20201086840F0F7
:1021A00080700860FFF7F8F90390FFE741F2000044
:1021B000C4F20200006800F000710020B0EB516F23
:1021C0000CD1FFE7FFF7E8F90399401A032804D37D
:1021D000FFE703208DF8170053E0E7E724E041F222
:1021E0000001C4F20201086820F080700860FFF767
:1021F000D3F90390FFE741F20000C4F20200006847
:1022000000F000710020B0EB516F0CD0FFE7FFF73A
:10221000C3F90399401A032804D3FFE703208DF87C
:1022200017002EE0E7E7FFE726E00498006A0128A0
:1022300004D1FFE701208DF8170022E041F20400ED
:10224000C4F2020000680290029800F48030049901
:10225000496A88420AD1FFE702980021C6F23C0190
:1022600008400499896A884204D0FFE701208DF86C
:10227000170006E0FFE7FFE7FFE700208DF81700F3
:10228000FFE79DF8170006B080BD00007047000012
:1022900080B582B00190019800F0CCFD02B080BD05
:1022A00080B5FFF7F3FF80BD80B582B00090009845
:1022B00020B9FFE701208DF807001FE000992420D6
:1022C00081F8450000980168C86820F40050C86093
:1022D000009800F0D5F9009900208864009981F8F1
:1022E0004500009981F84600FFE70099002081F839
:1022F0004400FFE700208DF80700FFE79DF8070086
:1023000002B080BD80B584B0039000200290FFE74A
:10231000029804283BDCFFE7029842F23C12C2F22A
:10232000000240F2345100FB01200399884229D178
:10233000FFE7029842F23C12C2F2000240F234512E
:1023400000FB012001900199D1F884000130C1F80F
:1023500084000199002081F87800019981F87900C2
:10236000019981F81703019981F818030198806E8B
:1023700038B1FFE701999DF808008A6EC96E904751
:10238000FFE704E0FFE7029801300290C0E704B0E5
:1023900080BD000080B588B007900798006800688D
:1023A000069007980068C068059007980068406923
:1023B0000490002003900290069800F00F00039014
:1023C000039888B9FFE79DF81800800600280AD511
:1023D000FFE79DF814008006002804D5FFE7079862
:1023E00000F080FEEFE0FFE70398002800F0AE80E9
:1023F000FFE79DF81000C00738B9FFE7BDF81400EB
:1024000010F4907F00F0A280FFE79DF81800C0074D
:1024100058B1FFE79DF81500C00730B1FFE70799F5
:10242000886C40F001008864FFE79DF818004007C1
:1024300000280BD5FFE79DF81000C00730B1FFE77B
:102440000799886C40F002008864FFE79DF8180047
:10245000800700280BD5FFE79DF81000C00730B1BA
:10246000FFE70799886C40F004008864FFE79DF857
:102470001800000700280BD5FFE79DF81000C007E3
:1024800030B1FFE70799886C40F008008864FFE7E7
:102490000798806C002858D0FFE79DF81800800648
:1024A00000280AD5FFE79DF814008006002804D50F
:1024B000FFE7079800F016FEFFE7079800684069FD
:1024C000C0F3801002900798806C0007002803D4A6
:1024D000FFE7029888B3FFE7079800F0CDFD079863
:1024E000006840694006002822D5FFE70798016888
:1024F000486920F0400048610798006C98B1FFE7F8
:102500000798016C42F67D70C0F60000486307989A
:10251000006CFDF7FBFF28B1FFE70798006C416BEB
:102520008847FFE703E00798FFF7ECFEFFE703E0CB
:102530000798FFF7E7FEFFE706E00798FFF7E2FEE0
:10254000079900208864FFE7FFE73CE09DF818004A
:10255000C006002817D5FFE79DF81400C006002824
:1025600011D5FFE7FFE70020019007980068006899
:10257000019007980068406801900198FFE707986C
:1025800000F024F8FFE79DF81800000600280AD59F
:10259000FFE79DF814000006002804D5FFE7079820
:1025A00000F0E4FE0FE09DF81800400600280AD570
:1025B000FFE79DF814004006002804D5FFE70798C0
:1025C00000F06EFDFFE708B080BD000081B0009014
:1025D00001B0704780B582B00090009820B9FFE745
:1025E00001208DF8070046E00098806908B1FFE7F8
:1025F00000E0FFE7009890F8450040B9FFE7009938
:10260000002081F84400009800F03EF8FFE70099B0
:10261000242081F8450000980168C86820F4005023
:10262000C860009800F0BAFD0098006A20B1FFE78A
:10263000009800F07BFCFFE700980168086920F42F
:102640009040086100980168486920F02A004861BC
:1026500000980168C86840F40050C86000990020E4
:102660008864009A202182F84510009A82F846106A
:102670008DF80700FFE79DF8070002B080BD00005D
:1026800081B0009001B0704780B58CB00B900020F5
:102690000A9009900890079006900B98006844F201
:1026A0000041C4F20001884237D1FFE7FFE741F261
:1026B0003400C4F20200016841F0040101600068C6
:1026C00000F0040005900598FFE7FFE741F21C00C9
:1026D000C4F20200016841F400310160006800F4B6
:1026E000003004900498FFE7042006900220019037
:1026F00007900121089109900A904FF090400290B4
:1027000006A90391FEF7A0FD019A029803990823F8
:1027100006930A92FEF798FDFFE70CB080BD00001B
:1027200080B58AB008900791ADF81A200593002073
:102730000290089890F84600202840F09580FFE726
:10274000079820B1FFE7BDF81A0020B9FFE7012084
:102750008DF827008CE008988068B0F5805F0ED176
:10276000FFE70898006950B9FFE79DF81C00C00713
:1027700020B1FFE701208DF8270079E0FFE7FFE7B0
:10278000089890F84400012804D1FFE702208DF852
:1027900027006DE00899012081F84400FFE7FFE77A
:1027A0000899002088640899222081F84600FEF7E5
:1027B000F3FE0290BDF81A0008990887BDF81A00C8
:1027C0000899488708988068B0F5805F09D1FFE7CD
:1027D0000898006928B9FFE7002004900798039043
:1027E00004E00798049000200390FFE7FFE70898B3
:1027F000408F58B3FFE70898029B05996A4611601D
:102800002021002200F000FE20B1FFE703208DF818
:1028100027002DE0049858B9FFE708980068406841
:102820006FF35F200399088003980230039008E05B
:102830000898006840680499087004980130049072
:10284000FFE70899488F01384887D0E7089920208A
:1028500081F84600FFE70899002081F84400FFE76F
:1028600000208DF8270003E002208DF82700FFE705
:102870009DF827000AB080BD84B002900191ADF8A8
:102880000220029890F8460020284AD1FFE70198DC
:1028900020B1FFE7BDF8020020B9FFE701208DF865
:1028A0000F0042E0FFE7029890F84400012804D1AD
:1028B000FFE702208DF80F0037E00299012081F830
:1028C0004400FFE7FFE7019802994863BDF8020062
:1028D00002990887BDF802000299488702990020F2
:1028E00088640299222081F84600FFE702990020BF
:1028F00081F84400FFE702980168C86840F48070DE
:10290000C86002980168486940F001004861029877
:102910000168C86840F02000C86000208DF80F00F2
:1029200003E002208DF80F00FFE79DF80F0004B0D0
:102930007047000080B584B0039000200290FFE74C
:102940000298042833DCFFE7029842F23C12C2F2FC
:10295000000240F2345100FB01200399884221D14A
:10296000FFE7029842F23C12C2F2000240F23451F8
:1029700000FB012001900199002081F87900019964
:1029800081F818039DF8080001F0CCFB0198806DD8
:1029900038B1FFE701999DF808008A6DC96D90472D
:1029A000FFE704E0FFE7029801300290C8E704B0B7
:1029B00080BD000080B58AB008900791ADF81A205C
:1029C000059300200290089890F84500202840F0D8
:1029D000A480FFE7079820B1FFE7BDF81A0020B9EF
:1029E000FFE701208DF827009BE008988068B0F58C
:1029F000805F0ED1FFE70898006950B9FFE79DF8A6
:102A00001C00C00720B1FFE701208DF8270088E0F7
:102A1000FFE7FFE7089890F84400012804D1FFE79A
:102A200002208DF827007CE00899012081F84400FD
:102A3000FFE7FFE70899002088640899212081F8C2
:102A40004500FEF7A9FD0290BDF81A000899088616
:102A5000BDF81A000899488608988068B0F5805F2C
:102A600009D1FFE70898006928B9FFE70020049022
:102A70000798039004E00798049000200390FFE774
:102A8000FFE70898408E58B3FFE70898029B059926
:102A90006A4611608021002200F0B6FC20B1FFE7F9
:102AA00003208DF827003CE0049858B9FFE703980D
:102AB00000886FF35F200899096848600398023026
:102AC000039008E004980078089909684860049821
:102AD00001300490FFE70899488E01384886D0E716
:102AE0000898029B05996A4611604021002200F077
:102AF0008BFC20B1FFE703208DF8270011E0089937
:102B0000202081F84500FFE70899002081F8440063
:102B1000FFE700208DF8270003E002208DF8270052
:102B2000FFE79DF827000AB080BD000080B586B0A1
:102B300004900391ADF80A20049890F845002028ED
:102B400067D1FFE7039820B1FFE7BDF80A0020B97D
:102B5000FFE701208DF817005FE0FFE7049890F889
:102B60004400012804D1FFE702208DF8170054E04B
:102B70000499012081F84400FFE7FFE703980499D6
:102B8000C862BDF80A0004990886BDF80A000499D5
:102B90004886049900208864049A212182F845100F
:102BA0000499CA6B43F21901C0F6000191620499BD
:102BB000CA6B43F26101C0F60001D1620499CA6B8D
:102BC00042F69D71C0F6000111630499C96B486318
:102BD00003A8019004980268C06B01990968043247
:102BE000BDF80A30FEF7A8FA049801686FF04000BB
:102BF0000860FFE70499002081F84400FFE704988B
:102C00000168486940F08000486100208DF8170095
:102C100003E002208DF81700FFE79DF8170006B0CB
:102C200080BD000084B002900191ADF802200298AE
:102C300090F8450020283ED1FFE7019820B1FFE73A
:102C4000BDF8020020B9FFE701208DF80F0036E043
:102C5000FFE7029890F84400012804D1FFE7022022
:102C60008DF80F002BE00299012081F84400FFE766
:102C7000FFE701980299C862BDF802000299088630
:102C8000BDF80200029948860299002088640299E2
:102C9000212081F84500FFE70299002081F84400D7
:102CA000FFE702980168C86840F08000C860002013
:102CB0008DF80F0003E002208DF80F00FFE79DF86C
:102CC0000F0004B07047000080B584B0039000206E
:102CD0000290FFE70298042847DCFFE7029842F2DF
:102CE0003C12C2F2000240F2345100FB0120039971
:102CF000884235D1FFE7029842F23C12C2F200024C
:102D000040F2345100FB012001900199002081F82C
:102D10007800019981F817030398008EADF802003E
:102D2000019800F54A70BDF8021001F07BF8019897
:102D300000F54A7000F0FCFE012805DBFFE79DF876
:102D4000080001F033FDFFE70198006D38B1FFE79F
:102D500001999DF808000A6D496D9047FFE704E06E
:102D6000FFE7029801300290B4E704B080BD000094
:102D700081B0009001B07047FFE7FEE7FFE7FEE794
:102D80007047000088B0079006910592079800F000
:102D9000070004900498C0F10700042803D3FFE75C
:102DA0000320019004E00498C0F107000190FFE7C0
:102DB0000198039004980330062803D8FFE7002009
:102DC000009003E0049804380090FFE70098029018
:102DD00006980399012202FA01F101390840029B89
:102DE000984005999A40013A1140084308B070474D
:102DF0007047000082B00190019840F20001C2F2D9
:102E000000010968C90844F6D352C1F26202A1FB6D
:102E10000221890948430090FFE700BFFFE70098BF
:102E2000411E00910028F8D1FFE702B07047000072
:102E30007047000080B584B0029002980138B0F16C
:102E4000807F03D3FFE7012003901AE00298013846
:102E50004EF21401CEF2000108604FF0FF3007215E
:102E6000019100F04BFB01994EF21802CEF20002E4
:102E7000002010604EF21002CEF2000211600390AA
:102E8000FFE7039804B080BD80B5FEF78BFBFFF72A
:102E900007FA012000F0F4FB80BD000080B592B07D
:102EA00007A801902C21FDF778F9019800230693DB
:102EB00005930493039302931F2107914FF48031EC
:102EC00008914FF44072099210220D9201220C9247
:102ED0000A930E9202220F9210914FF4E011119179
:102EE000FEF7F0FD18B1FFE7FDF782F9FFE70F20CD
:102EF0000290022003900020049005904FF480601F
:102F0000069002A80621FEF70BFC18B1FFE7FDF7BB
:102F10006FF9FFE712B080BD4EF60851CEF2000106
:102F20004FF00060086070477047000081B000906B
:102F3000009890F82000400600281CD5FFE7009874
:102F40000068406920F48050009A1168526A10436A
:102F500048610098406AB0F5805F0BD1FFE70098A8
:102F60000068406920F4C040009A1168926A1043DA
:102F70004861FFE7FFE701B07047000080B582B00D
:102F800001900198406A00900099002048870099BC
:102F900048860098FFF7B6F902B080BD80B584B0CE
:102FA0000390002002900398406A01900198006805
:102FB0004069C0B2C0090290019890F845002128EC
:102FC0000AD1FFE7029838B1FFE70199002048864F
:102FD000019800F079F8FFE7019800684069C0F3B4
:102FE00080100290019890F8460022280AD1FFE74D
:102FF000029838B1FFE7019900204887019800F056
:103000003BF8FFE70199886C40F010008864019854
:10301000FFF778F904B080BD80B582B001900198C7
:10302000406A00900198006800688006002810D46B
:10303000FFE700990020488600980168486920F061
:103040008000486100980168C86840F04000C8608E
:1030500003E00098FFF738FEFFE702B080BD0000F4
:1030600080B582B001900198406A00900098FFF707
:103070007FFE02B080BD000081B000900098016822
:10308000C86820F49070C86000980168486920F012
:10309000010048610099202081F8460001B0704786
:1030A00080B582B0019001980168C86820F04000A6
:1030B000C8600199202081F845000198FFF704FEBF
:1030C000002002B080BD000081B00090009801682F
:1030D000C86820F0C000C8600099202081F8450031
:1030E00001B0704780B584B00290029890F8460015
:1030F00022284AD1FFE702988068B0F5805F13D19B
:10310000FFE70298006978B9FFE70298406B0190E9
:103110000298006840686FF35F2001990880029967
:10312000486B0230486308E0029800684068029BE0
:10313000596B4A1C5A630870FFE70299488F01389F
:1031400048870004E8B9FFE702980168C86820F0E2
:103150002000C86002980168C86820F48070C860C8
:1031600002980168486920F0010048610299202016
:1031700081F846000298FFF7DDFB00208DF80F0074
:1031800007E000208DF80F0003E002208DF80F000B
:10319000FFE79DF80F0004B080BD000080B584B04B
:1031A000039003980068006920F44050039A116866
:1031B000D26810430861039988680A694969104315
:1031C0000843029003980068C06841F20C6188438C
:1031D0000299084303990968C86003980068406928
:1031E00020F44070039A1168926910434861039873
:1031F0000068406920F40060039A1168D2691043A6
:1032000048610398C069B0F5006F58D1FFE7039893
:10321000006843F60001C4F20101884227D1FFE7AC
:10322000FEF7C8FB0190019819214843039A1168E1
:1032300052685200B0FBF2FE48F21F53C5F2EB1386
:10324000AEFB0320420910014FF0640C02FB1CECA2
:10325000322202EBCC02A2FB0332F82303EA521320
:1032600000EB4300C2F342121044886026E0FEF7F0
:103270008FFB0190019819214843039A1168526805
:103280005200B0FBF2FE48F21F53C5F2EB13AEFB47
:103290000320420910014FF0640C02FB1CEC3222A7
:1032A00002EBCC02A2FB0332F82303EA521300EB39
:1032B0004300C2F3421210448860FFE753E00398D2
:1032C000006843F60001C4F20101884225D1FFE7FE
:1032D000FEF770FB0190019819214843039A116889
:1032E00052689200B0FBF2FC48F21F52C5F2EB129A
:1032F000ACFB02304309642003FB10CC322000EB0E
:103300000C10A0FB0202F02000EA521000EB0310A8
:10331000C2F343121044886024E0FEF739FB0190A9
:10332000019819214843039A116852689200B0FB32
:10333000F2FC48F21F52C5F2EB12ACFB023043091B
:10334000642003FB10CC322000EB0C10A0FB020227
:10335000F02000EA521000EB0310C2F343121044B5
:103360008860FFE7FFE704B080BD000084B00290F2
:10337000029890F8450021283ED1FFE70298806826
:10338000B0F5805F13D1FFE70298006978B9FFE7D5
:103390000298C06A0190019800886FF35F2002993B
:1033A000096848600299C86A0230C8620CE0029855
:1033B000C06A0090009800780299096848600299F4
:1033C000C86A0130C862FFE70299488E0138488612
:1033D000000468B9FFE702980168C86820F080001F
:1033E000C86002980168C86840F04000C860FFE704
:1033F00000208DF80F0003E002208DF80F00FFE79A
:103400009DF80F0004B0704780B586B0DDF820C08D
:10341000049003918DF80B200193FFE70498006856
:10342000006803990840401AB0FA80F040099DF8FE
:103430000B1088422ED1FFE70898013048B3FFE710
:10344000089840B1FFE7FEF7A7F80199401A0899DC
:1034500088421DD9FFE704980168C86820F4D0703D
:10346000C86004980168486920F001004861049927
:10347000202081F84500049981F84600FFE704996F
:10348000002081F84400FFE703208DF8170005E0D5
:10349000FFE7C3E700208DF81700FFE79DF817004E
:1034A00006B080BD80B542F23C10C2F2000000F2CE
:1034B0003450FEF76FFF80BDFFE7FEE781B08DF867
:1034C00003009DF9030000280ED4FFE79DF90310C7
:1034D00001F01F02012090404A094EF20011CEF285
:1034E000000141F82200FFE701B070474EF60C5092
:1034F000CEF200000068C0F30220704782B08DF861
:10350000070000919DF9070000280AD4FFE7009802
:1035100040019DF907104EF20042CEF2000288549D
:103520000BE0009840019DF8071001F00F014EF6E6
:103530001452CEF200028854FFE702B07047000038
:1035400083B00290029800F0070000904EF60C51F4
:10355000CEF200010868019001984FF6FF0210407A
:1035600001900198009A40EA02200022C0F2FA522B
:10357000104301900198086003B0704782B08DF845
:1035800003009DF80300052803DBFFE700200190FE
:103590000BE09DF8030042F23C12C2F2000240F23E
:1035A000345110FB01200190FFE7019802B07047F1
:1035B00080B582B08DF807009DF807000F2817DC52
:1035C000FFE79DF8071042F22C00C2F2000000EB6A
:1035D0000110406860B1FFE79DF8071042F22C002F
:1035E000C2F2000000EB0110416880688847FFE7E5
:1035F00002B080BD80B584B08DF80F009DF80F003B
:10360000FFF7BCFF029002990020019039B1FFE75B
:1036100002980068002818BF01200190FFE7019878
:1036200000F0010004B080BD80B5FDF7C9FFFFF7D1
:1036300035FC00F061FE002080BD000083B08DF8F5
:10364000070040F21800C2F2000000680090FFE797
:10365000009870B1FFE70098007B9DF80710884242
:1036600003D1FFE70098029006E000980068009000
:10367000EEE700200290FFE7029803B070470000D9
:1036800080B586B0ADF80E00EFF3108072B60590ED
:10369000BDF80E2042F23011C2F200010868104459
:1036A000086062B642F23810C2F2000000680028DA
:1036B00072D0FFE742F23810C2F2000000680290B8
:1036C00000200190FFE70298002864D0FFE7002067
:1036D0000090EFF3108072B6049002988088BDF8D5
:1036E0000E10884204DCFFE702990020888006E083
:1036F00002998888BDF80E20801A8880FFE702981A
:10370000808888B9FFE70298408968B1FFE702988E
:10371000C08848B1FFE70299087AC98800F0E2F949
:10372000029948898880FFE70298808820B1FFE7E6
:103730000298C088B0B9FFE7019840B9FFE7029846
:10374000006842F23811C2F20001086004E00298F9
:10375000006801990860FFE70298009002980068ED
:10376000029005E002980190029800680290FFE73D
:1037700062B6009870B1FFE70098808830B9FFE723
:103780000099087AC98800F0ADF9FFE7009800F0C9
:1037900021F9FFE797E7FFE706B080BD80B586B067
:1037A000ADF8120000208DF8050042F23410C2F28C
:1037B00000000078E22803D0FFE700F049F9FFE7B6
:1037C000BDF812000430ADF81200BDF8120000F090
:1037D00003008DF804009DF8040048B1FFE79DF850
:1037E0000410BDF81200401A0430ADF81200FFE7D3
:1037F000EFF3108072B60590BDF81200102807DCB8
:10380000FFE742F22400C2F200000068029006E0E6
:1038100042F22800C2F2000000680290FFE702981E
:103820000068ADF80600FFE7BDF8060000040028B8
:103830000AD5FFE7BDF8060080F40040ADF80600A9
:1038400000208DF8050035E09DF8050018B3FFE76E
:1038500042F21C01C2F2000108880138088042F2DD
:103860001E01C2F20001088801380880029802682F
:10387000039908681044086003980068BDF81210A6
:10388000884207D3FFE70398029002980068ADF8DA
:10389000060024E00DE0BDF80600BDF812108842D5
:1038A00001DBFFE71BE001208DF805000298039083
:1038B000FFE7FFE70298BDF806100844029002985F
:1038C0000068ADF80600BDF8060018B9FFE7002053
:1038D000029004E0FFE701200028A5D1FFE702984D
:1038E000002872D0FFE7BDF81210BDF80600401A9C
:1038F000ADF80600BDF80600042834DBFFE70298A7
:10390000BDF8121008440090BDF806000099086048
:10391000BDF8120040F400400299086042F21C0118
:10392000C2F2000108880130088042F22000C2F291
:1039300000000088098888420BDAFFE742F21C0089
:10394000C2F20000008842F22001C2F200010880A9
:10395000FFE7BDF8122042F22C11C2F200010888E4
:103960001044088015E00298026842F22C11C2F25D
:10397000000108881044088042F21E01C2F20001D2
:103980000888013808800299086840F400400860FF
:10399000FFE742F22E10C2F20000008842F22C1122
:1039A000C2F20001098888420BDAFFE742F22C10CC
:1039B000C2F20000008842F22E11C2F2000108801B
:1039C000FFE7029804300290FFE762B6029806B063
:1039D00080BD000080B584B0029042F23410C2F283
:1039E00000000078E22803D0FFE700F031F8FFE79D
:1039F000EFF3108072B60390029804380190019999
:103A0000086820F40040086042F22400C2F200007E
:103A100000680199884207D9FFE7019842F2240122
:103A2000C2F200010860FFE70198026842F22C111F
:103A3000C2F200010888801A088042F21E01C2F218
:103A4000000108880130088062B604B080BD000023
:103A500080B584B040F20801C2F20001009108680C
:103A600041F6FC7210440390039A0020029010600B
:103A70000A680392039BE8221A600968E8310391FF
:103A8000039A41F61471116042F23412C2F200023C
:103A9000E2211170039942F22402C2F20002019263
:103AA0001160FFF77BFE0099019A0346029842F2EB
:103AB000280CC2F2000CCCF800300968116042F208
:103AC0001E02C2F200020221118042F21C02C2F266
:103AD0000002118042F22C11C2F20001088004B0F1
:103AE00080BD000080B584B08DF80A00ADF80810E4
:103AF0009DF80A00FFF7A2FD0190019860B1FFE771
:103B0000EFF3108072B60390BDF808200199C889C0
:103B10001043C88162B603E002208DF80B0003E079
:103B200001208DF80B00FFE79DF80B0004B080BD6D
:103B300082B00190019820B1FFE701984089009080
:103B400002E000200090FFE7009880B202B07047CA
:103B500082B00190019830B1FFE7019988884989C6
:103B6000401A009002E000200090FFE7009880B229
:103B700002B0704780B586B004900391ADF80A207A
:103B8000049838B1FFE7039820B1FFE7BDF80A00B9
:103B900020B9FFE70020ADF8160045E00498FFF7D4
:103BA000C7FFADF80800BDF80A00BDF8081088424C
:103BB00004DDFFE7BDF80800009003E0BDF80A004F
:103BC0000090FFE70098ADF806000020ADF8040073
:103BD000FFE7BDF80400BDF80610884219DAFFE7D8
:103BE000049908680989405C0399BDF80420885449
:103BF00004980089431C04998A88B3FBF2F000FB07
:103C000012300881FFE7BDF804000130ADF8040070
:103C1000DFE7BDF8062004994889801A4881BDF87D
:103C20000600ADF81600FFE7BDF8160006B080BD2F
:103C300084B002900191ADF80220029838B1FFE7FC
:103C4000019820B1FFE7BDF8020020B9FFE700208E
:103C50008DF80F0011E0019802990860BDF802008C
:103C60000299888002990020C880029908810299EF
:103C7000488101208DF80F00FFE79DF80F0004B088
:103C80007047000080B588B006900591ADF812200D
:103C9000ADF81030069838B1FFE7059820B1FFE77E
:103CA000BDF8120020B9FFE70020ADF81E0057E074
:103CB0000698FFF73DFFADF80E00BDF81000BDF807
:103CC0000E10884204DBFFE70020ADF81E0047E03D
:103CD000BDF81200BDF80E10BDF81020891A8842F8
:103CE00007DDFFE7BDF80E00BDF81010401A019087
:103CF00003E0BDF812000190FFE70198ADF80C0059
:103D00000020ADF80A00FFE7BDF80A00BDF80C106E
:103D1000884220DAFFE706980089BDF810100844B1
:103D2000BDF80A10421806988188B2FBF1F000FB3A
:103D30001120ADF8080006980068BDF80810405C36
:103D40000599BDF80A208854FFE7BDF80A00013044
:103D5000ADF80A00D8E7BDF80C00ADF81E00FFE78B
:103D6000BDF81E0008B080BD80B586B004900391F8
:103D7000ADF80A20049838B1FFE7039820B1FFE7B7
:103D8000BDF80A0020B9FFE70020ADF8160045E0B5
:103D90000498FFF7DDFEADF80800BDF80A00BDF895
:103DA0000810884204DDFFE7BDF80800009003E03A
:103DB000BDF80A000090FFE70098ADF8060000206B
:103DC000ADF80400FFE7BDF80400BDF80610884216
:103DD00019DAFFE70398BDF80410405C049A1168F3
:103DE000D28888540498C088431C04998A88B3FBFD
:103DF000F2F000FB1230C880FFE7BDF8040001308C
:103E0000ADF80400DFE7BDF80620049948891044A6
:103E10004881BDF80600ADF81600FFE7BDF81600B2
:103E200006B080BD80B584B00390ADF80A10039849
:103E300020B1FFE7BDF80A0008B9FFE729E00398C1
:103E4000FFF776FEADF80800BDF80A00BDF80810CF
:103E5000884204DDFFE7BDF80800009003E0BDF8EC
:103E60000A000090FFE70098ADF80600039800896B
:103E7000BDF80610431803998A88B3FBF2F000FBE3
:103E800012300881BDF8062003994889801A4881BC
:103E9000FFE704B080BD000080B586B08DF8160045
:103EA0009DF81600052804DBFFE7FE208DF81700BB
:103EB0003CE09DF8161044F68C20C0F60000405CF3
:103EC0008DF815009DF9150001210022FDF706FC73
:103ED0009DF91500FDF7F8FB9DF8160042F23C1223
:103EE000C2F2000240F2345110FB01200490049809
:103EF00090F84C00022815D1FFE70B200290042116
:103F0000009100220192FDF7E9FB0099019A0C2033
:103F10000390FDF7E3FB0298FDF7D6FB0398FDF74E
:103F2000D3FBFFE700208DF81700FFE79DF917008E
:103F300006B080BD80B584B08DF80E009DF80E00EF
:103F4000FFF71CFB0290029820B9FFE7FE208DF8D6
:103F50000F00E2E0FFE741F21400C4F20200016842
:103F600041F001010160006800F00100019001983A
:103F7000FFE7029888304421FCF70FF99DF80E10F6
:103F800044F67820C0F6000050F821000299C1F8EC
:103F9000880002991020C1F88C0002990020C1F815
:103FA0009000029A8021C2F894100299C1F89800FA
:103FB0000299C1F89C000299C1F8A00002994FF43F
:103FC0008050C1F8A40002988830FDF73BF820B17A
:103FD000FFE7FA208DF80F009FE0FFE7029901F15B
:103FE0008800C8630298C0F8AC00FFE70298CC30A4
:103FF0004421FCF7D2F89DF80E1044F65020C0F68C
:10400000000050F821000299C1F8CC00029900206C
:10401000C1F8D0000299C1F8D400029A8021C2F8F8
:10402000D8100299C1F8DC000299C1F8E0000299A9
:104030002020C1F8E40002994FF40050C1F8E800D4
:104040000298CC30FCF7FEFF40B1FFE702988830C1
:10405000FCF73EFCFA208DF80F005EE0FFE70299C6
:1040600001F1CC0008640298C0F8F000FFE79DF869
:104070000E00042819DCFFE7029888309DF80E2016
:1040800044F66421C0F6000151F82210FCF7CAFB87
:104090000298CC309DF80E2044F63C21C0F6000179
:1040A00051F82210FCF7BEFBFFE7029901F54770BB
:1040B00001F54D714FF480720092FFF7B9FD009A3F
:1040C000029901F54A7001F23441FFF7B1FD009900
:1040D000029800F58870FCF760F80099029800F5E6
:1040E0000470FCF75AF802990020A1F81003029915
:1040F000A1F81203029981F81403029981F81503BB
:10410000029A012182F81613029981F81703029985
:1041100081F818038DF80F00FFE79DF90F0004B038
:1041200080BD000080B584B08DF80F009DF80F00B1
:1041300042F23C12C2F2000240F2345110FB012064
:104140000290029890F81503C00708B1FFE71FE03E
:104150008020ADF80600029901F54770BDF80620F1
:10416000114401F58871FFF7FFFDADF804000299D5
:10417000012081F815030299002081F81403BDF88D
:1041800004200299D1F880001044C1F88000FFE7B4
:1041900004B080BD80B582B00020ADF8000044F6C8
:1041A000F910C0F6000000F0DFFAFFE70DF10300A0
:1041B00006216A4600F0BAF9C8B9FFE740F20400E8
:1041C000C2F2000000780DF1030106224FF47A7369
:1041D00000F0E0F99DF803000D2807D1FFE744F651
:1041E000E110C0F6000000F0BFFA04E0FFE70A208B
:1041F000FDF708F8DAE702B080BD000080B586B0B0
:104200008DF8160004918DF80F209DF816000528F2
:1042100004DBFFE7FE208DF8170068E09DF80F0033
:10422000022801D1FFE7FFE79DF8160042F23C1299
:10423000C2F2000240F2345110FB012002900298B9
:10424000006820B1FFE7FD208DF817004FE00298CD
:1042500040F23451FBF7A1FF9DF8161044F62820D8
:10426000C0F6000050F821000299086004980299F5
:1042700048600299002088600299C860029908612C
:10428000029A0C215161029988610299C8610299D0
:1042900008620298FEF79EF920B1FFE7FF208DF833
:1042A000170024E09DF80F00022813D1FFE79DF8C6
:1042B0001600FFF73FFE8DF807009DF9070040B19B
:1042C000FFE70298FDF7F0FF9DF807008DF8170053
:1042D0000DE0FFE79DF80F0028B1FFE79DF81600FD
:1042E000FFF7DAFDFFE700208DF81700FFE79DF9E3
:1042F000170006B080BD000080B582B000F01AF84B
:1043000018B1FFE7FBF774FFFFE744F6AC10C0F607
:10431000000000F029FAFFF73DFFFFE74FF47A7045
:10432000FCF770FF44F6CD10C0F6000000F01CFA58
:10433000F4E7000080B582B040F20400C2F2000051
:1043400000784FF4E1310022FFF758FF8DF80600A6
:104350009DF9060028B1FFE79DF806008DF80700DB
:1043600003E000208DF80700FFE79DF9070002B089
:1043700080BD000080B584B08DF80D000291ADF8CD
:1043800006209DF80D00FFF735F938B1FFE70298D8
:1043900020B1FFE7BDF8060020B9FFE70020ADF827
:1043A0000E0020E09DF80D0042F23C12C2F2000225
:1043B00040F2345110FB01200090009890F84C001E
:1043C000022805D0FFE74FF6FB70ADF80E000AE0BB
:1043D000009800F547700299BDF80620FFF7CAFB68
:1043E000ADF80E00FFE7BDF80E0004B080BD000080
:1043F00080B588B08DF81E000691ADF816200493A4
:104400009DF81E00FFF7F6F838B1FFE7069820B1D7
:10441000FFE7BDF8160020B9FFE7FE208DF81F006A
:1044200080E09DF81E0042F23C12C2F2000240F20F
:10443000345110FB01200390039890F84C00014682
:10444000019140B1FFE70198012828D0FFE70198CA
:10445000022843D062E003980699BDF81620049B19
:10446000FEF75EF98DF80B009DF80B0060B9FFE7D1
:10447000BDF816200399D1F880001044C1F88000DF
:1044800000208DF81F004DE09DF80B00032804D19B
:10449000FFE7FC208DF81F0044E0FFE73EE00398B3
:1044A00090F87900C00720B1FFE7FD208DF81F00CC
:1044B00038E003980699BDF81620FEF7DDF98DF86F
:1044C0000A009DF80A0040B9FFE70399012081F82E
:1044D000790000208DF81F0024E01FE09DF81E00E9
:1044E0000699BDF81620FFF745FFADF80800BDF8A6
:1044F0000800BDF8161088420CD1FFE7BDF8162061
:104500000399D1F880001044C1F8800000208DF894
:104510001F0007E0F9208DF81F0003E0FF208DF851
:104520001F00FFE79DF91F0008B080BD80B586B071
:104530000490ADF80E100292049820B1FFE7BDF888
:104540000E0020B9FFE7FE208DF817001EE040F2B4
:104550000400C2F2000000780499BDF80E204FF06C
:10456000FF33FFF745FF8DF807009DF9070040B9BD
:10457000FFE7029828B1FFE7BDF80E000299088016
:10458000FFE79DF807008DF81700FFE79DF917007A
:1045900006B080BD80B58AB08DF826000891ADF8D0
:1045A0001E2006939DF82600FFF724F838B1FFE798
:1045B000089820B1FFE7BDF81E0020B9FFE7FE20F4
:1045C0008DF82700CCE09DF8260042F23C12C2F2A2
:1045D000000240F2345110FB01200590059890F83C
:1045E0004C000146029140B1FFE70298012826D015
:1045F000FFE70298022847D0AEE005980899BDF879
:104600001E20069BFEF7D6F98DF813009DF81300C7
:1046100050B9FFE7BDF81E200599C86F1044C86760
:1046200000208DF827009BE09DF81300032804D19B
:10463000FFE7FC208DF8270092E0FFE78CE005986B
:1046400090F87800C00720B1FFE7FD208DF8270023
:1046500086E005980899BDF81E20FEF7E3FA8DF86C
:1046600012009DF8120070B9FFE70599012081F84A
:104670007800BDF81E200599C86F1044C867002057
:104680008DF827006CE067E0059890F81703C007E5
:10469000A0B1FFE79DF826000899BDF81E2000F0A4
:1046A000F9F8ADF81000BDF81000BDF81E10401A62
:1046B00018BF6FF006008DF8270051E0BDF81E000E
:1046C000B0F5807F04DDFFE74FF48070019003E0D8
:1046D000BDF81E000190FFE70198ADF80E000598A7
:1046E00000F504700899BDF80E20FBF73DFD059814
:1046F00000F50471BDF80E20FEF718FA8DF80D00D4
:104700009DF80D0030BBFFE70599012081F8780086
:10471000059981F81703BDF80E200599C86F10445C
:10472000C867BDF81E00BDF80E1088420EDDFFE719
:10473000059800F54A700899BDF80E301944BDF887
:104740001E20D21A92B2FFF70FFBFFE700208DF870
:10475000270005E0FFE7FFE7FF208DF82700FFE7D0
:104760009DF927000AB080BD80B584B00290029800
:1047700020B9FFE7FE208DF80F0013E00298FBF749
:1047800017FDADF8060040F20400C2F20000007808
:104790000299BDF806204FF47A73FFF7FBFE8DF8FF
:1047A0000F00FFE79DF90F0004B080BD80B584B015
:1047B0008DF80E009DF80E00FEF71CFF20B9FFE7F4
:1047C000FE208DF80F0060E09DF80E0042F23C12D2
:1047D000C2F2000240F2345110FB01200290029814
:1047E00090F84C00022804D0FFE7FB208DF80F0062
:1047F0004BE0029890F81703C00720B1FFE7FD20B7
:104800008DF80F0041E0029800F54A70FFF790F92B
:10481000ADF80600BDF8060020B9FFE700208DF8CE
:104820000F0032E0BDF80600B0F5807F04DDFFE741
:104830004FF48070009003E0BDF806000090FFE7A1
:104840000098ADF80400029901F54A7001F5047171
:10485000BDF804200023FFF715FA029800F5047153
:10486000BDF80420FEF762F920B1FFE7FF208DF8C4
:104870000F000AE00299012081F81703029981F8DC
:10488000780000208DF80F00FFE79DF90F0004B0BD
:1048900080BD000080B586B08DF815000491ADF89C
:1048A0000E209DF81500FEF7A5FE38B1FFE704982D
:1048B00020B1FFE7BDF80E0020B9FFE70020ADF8FA
:1048C000160034E09DF8150042F23C12C2F20002DC
:1048D00040F2345110FB01200290029890F84C00F5
:1048E000022805D0FFE74FF6FB70ADF816001EE07A
:1048F000029800F54A700499BDF80E20FFF734FACB
:10490000ADF80600029890F81703C00750B9FFE70A
:10491000BDF80600012805DBFFE79DF81500FFF74D
:1049200045FFFFE7BDF80600ADF81600FFE7BDF84C
:10493000160006B080BD02E008C8121F08C1002A98
:10494000FAD170477047002001E001C1121F002A10
:10495000FBD1704702030405060708090A0B0C0D7A
:104960000E0F101112131415161718191A1B1C1DEF
:104970001E1F202122232425262728292A2B2C2DDF
:104980002E2F303132333435363738393A3B3C3DCF
:104990003E3F3F3F00000000000000000102030412
:1049A00006070809000000000102030448656C6C5A
:1049B0006F2066726F6D20554152543220506F6CDB
:1049C0006C696E67204D6F6465210D0A0053797321
:1049D00074656D2072756E6E696E672E2E2E0D0ACF
:1049E000000D0A4563686F20746573742066696EF4
:1049F00069736865642E0D0A005541525432205087
:104A00006F6C6C696E67204563686F2054657374C2
:104A1000202D205479706520736F6D657468696E00
:104A2000673A0D0A000000000038014000440040D1
:104A300000480040004C0040005000400B000000C7
:104A40000D0000000F000000110000001300000026
:104A5000000000001C0002400000000000000000F8
:104A6000000000000C0000000E000000100000001C
:104A700012000000140000000000000008000240C6
:104A80000000000000000000000000002526273480
:104A900035000000B84A000800000020180000009F
:104AA00036490008D04A000818000020303F0000B6
:104AB000464900080000000000127A0001000000D2
:104AC0001C000020010000000800000000000000A1
:0400000508000131BD
:00000001FF
