:020000040800F2
:100000001804002045010008B10A0008A90A0008E8
:10001000AD0A00088D010008D10A000800000000A8
:10002000000000000000000000000000B90A000805
:100030009101000800000000B50A0008BD0A000890
:100040005F0100085F0100085F0100085F01000810
:100050005F0100085F0100085F0100085F01000800
:100060005F0100085F0100085F0100085F010008F0
:100070005F0100085F0100085F0100085F010008E0
:100080005F0100085F0100085F0100085F010008D0
:100090005F0100085F0100085F0100085F010008C0
:1000A0005F0100085F0100085F0100085F010008B0
:1000B0005F0100085F0100085F0100085F010008A0
:1000C0005F0100085F0100085F0100085F01000890
:1000D0005F0100085F0100085F0100085F01000880
:1000E0005F0100085F0100085F0100085F01000870
:1000F0005F0100085F0100085F0100085F01000860
:100100005F0100085F0100085F0100085F0100084F
:100110005F0100085F0100085F0100085F0100083F
:100120005F0100085F0100085F0100085F0100082F
:10013000DFF80CD000F018F800480047D50A000896
:10014000180400200648804706480047FEE7FEE7FF
:10015000FEE7FEE7FEE7FEE7FEE7FEE7FEE7FEE777
:10016000C10A000831010008064C074D06E0E068AE
:1001700040F0010394E8070098471034AC42F6D3EE
:10018000FFF7DAFF040C0008240C0008FEE700006B
:1001900070470000B0B5044600F0DEF8054640F2B6
:1001A0000400C2F200000078611C18BF044400BFC4
:1001B00000F0D2F8401BA042FAD3B0BD2DE9F04FB9
:1001C00082B00E68002E00F0BE8041F2000500F102
:1001D0003842C4F60005072340F2004C4FEAB2242F
:1001E000A84208BF0423C4F2010C042C38BF4FEA14
:1001F000B22300224FF0010B00270025009309E0F5
:100200000E68013536FA05F307F1020702F1040220
:1002100000F099800BFA05F816EA080EF0D0D1F834
:10022000049049F01004122C14D16FF0030303EA78
:100230005504044402F01C060F23D4F8209003FA5E
:1002400006FA0B6929EA0A09B34043EA0903236263
:10025000D1F8049003680324BC406FEA040AA34366
:1002600009F00304BC402343B9F1120F036013D813
:100270000BFA09F313F0061F0ED08368CC6803EA6B
:100280000A03BC402343836043684FEA191423EAFE
:100290000803AC4023434360C3688C6803EA0A0345
:1002A000BC4023435FEAC904C360A9D541F21804E6
:1002B000C4F2020423684FF6144943F0010323609B
:1002C0002368CFF6FF7903F001030193019B25F02A
:1002D0000303634453F8098002F00C060F24B44072
:1002E00028EA0408009C04FA06F646EA080443F8E3
:1002F0000940DCF800804C6848EA0E06E30358BF6A
:1003000028EA0E06CCF80060DCF80480A30348EA73
:100310000E0658BF28EA0E06CCF80460DCF8088008
:10032000E30248EA0E0658BF28EA0E06CCF8086039
:10033000DCF80C30A40243EA0E0658BF23EA0E068E
:10034000CCF80C605CE702B0BDE8F08F1823002AFF
:1003500008BF2823C150704740F21000C2F20000CD
:100360000068704740F2040040F21001C2F2000041
:10037000C2F2000100780A6810440860704700006B
:1003800080B5042000F07EF80F2000F005F800F0A2
:100390002BF8002080BD0000B0B540F20402C2F28C
:1003A000000240F200011278C2F200014FF47A73A9
:1003B0000968B3FBF2F20446B1FBF2F1084600F023
:1003C0005DFB072C4FF001050CD858B94FF0FF30FA
:1003D00021460022002500F029F840F20800C2F270
:1003E000000004602846B0BD83B041F21800C4F29A
:1003F0000200016841F001010160016801F00101A2
:1004000002910299416841F080514160416801F0D8
:10041000805101910199C16941F00801C161C06930
:1004200000F008000090009803B0704710B54EF639
:100430000C5CCEF2000CDCF80030C3F3022E8EF020
:100440000704032C28BF0324BEF104034FF0FF3E32
:100450000EFA04F438BF0023A14399400EFA03F3C7
:100460009A43114300F00F0200F160434901043A3E
:1004700003F564436244002848BF02F10C0319707D
:1004800010BD00004EF60C51CEF200010A684FF686
:10049000FF031A4060F30A2242F0806040F0FD70D2
:1004A000086070472DE9F04381B0002800F09A8081
:1004B00042F20008C4F202080446D8F800000D46D3
:1004C00000F00F0088420DD2D8F8000020F00F0095
:1004D0002843C8F80000D8F8000000F00F00A84238
:1004E00040F08080206841F204098107C4F20209CB
:1004F00017D5410705D5D9F8001041F4E061C9F8D6
:100500000010010705D5D9F8001041F46051C9F871
:100510000010D9F80010A26821F0F0011143C9F8C9
:100520000010C00755D1D8F8000000F00F00A84215
:100530000CD9D8F8000020F00F002843C8F80000BC
:10054000D8F8000000F00F00A8424BD12068410706
:1005500007D5D9F80010E26821F4E0611143C9F829
:100560000010000708D5D9F80000216920F4605078
:1005700040EAC100C9F80000D9F8001042F200407A
:1005800001F00C02042AC0F2F40060D0082A54D111
:100590004FF4400202EAD11201F470131A4440F6FB
:1005A000B033920CC0F6000341F400319A5C01F4C0
:1005B0004031B1F5403F45D1D9F8001040F6F03355
:1005C000C1F34041C0F60003595C5043B0FBF1F069
:1005D0003DE06068022809D0012829D159F8041C9F
:1005E000890307D4012001B0BDE8F08359F8041C49
:1005F000C901F7D5D9F8001021F003010843C9F863
:100600000000FFF7A9FE064641F28837D9F800003E
:10061000616800F00C00B0EB810F3FF484AFFFF78E
:100620009BFE801BB842F1D9032001B0BDE8F083E6
:1006300059F8041C8907D5D5DCE741F20020C0F247
:100640007A0004E041F20020C0F27A005043D9F869
:10065000001040F6F232C1F30311C0F60002515C03
:1006600040F2000220FA01F140F20800C2F200005C
:100670000068C2F200021160FFF78EFE002001B098
:10068000BDE8F0832DE9F04182B0002865D0044632
:10069000007841F20006C007C4F2020625D0706857
:1006A00000F00C0004281BD0706800F00C00082833
:1006B00003D17068C00313D470686068002800F02C
:1006C0004381B0F5A02F00F05781B0F5803F40F096
:1006D0005B81B06BA16820F440700843B0634FE1C8
:1006E0003068800301D56068B8B32078800712D5E0
:1006F000706810F00C0F08D0706800F00C0008282B
:1007000058D17068C00355D470683068800702D52E
:100710006069012821D12078C00622D42078000702
:1007200033D4207840075AD4256AA5B1706800F008
:100730000C00082840F0AA80012D0ED07068616A74
:1007400000F480328A4208D10021C6F23C01A26A3C
:100750000840904201D100208DE1012002B0BDE8A7
:10076000F081A169B06A00296DD040F01000B0623C
:10077000FFF7F2FD054600BFB06A8006CED4FFF752
:10078000EBFD401B0228F7D94AE1E169706A0029B4
:100790006AD040F001007062FFF7DEFD054600BF41
:1007A000706A800700F19480FFF7D6FD401B022895
:1007B000F6D935E161693068002900F0B38040F076
:1007C00001003060FFF7C8FD054600BF30688007B4
:1007D000A1D4FFF7C1FD401B0228F7D920E1F06941
:1007E00010F0805808D1F06940F08050F061F06955
:1007F00000F080500090009847F20007C4F2000714
:100800003868C0050FD4386840F480703860FFF74E
:10081000A3FD05463868C00505D4FFF79DFD401BC4
:100820006428F7D9FCE0E068002800F0C3800528C0
:1008300000F0D980012840F0DE80306A216920F084
:1008400018000843D2E020F01000B062FFF784FDEA
:10085000054600BFB06A80067FF560AFFFF77CFDFC
:10086000401B0228F6D9DBE020F001007062FFF7A0
:1008700073FD0546706A80077FF553AFFFF76CFD87
:10088000401B02284FF00300F4D9F4E0306820F058
:1008900080703060FFF760FD022D05460CD100BF6F
:1008A0003068800140F1C980FFF756FD401B0228E7
:1008B0004FF00300F4D9DEE0306880017FF54BAFE4
:1008C000FFF74AFD401B02284FF00300F4D9D2E0A5
:1008D00040F20000C2F20000006844F6D351C1F2B9
:1008E0006201A0FB0101480A019000BF00BF01980E
:1008F000411E002801913FF414AF00BF0198411E32
:10090000002801913FF40DAF00BF0198411E00285F
:1009100001913FF406AF00BF0198411E00280191EC
:10092000E4D1FEE620F001003060FFF715FD05463A
:10093000306880077FF5EFAEFFF70EFD401B022801
:100940004FF00300F4D996E0306820F48030306036
:10095000306820F480203060FFF7FEFC054600BFC1
:10096000306880037FF5C1AEFFF7F6FC401B6428BA
:100970004FF00300F4D97EE0306840F4802030600E
:10098000306840F4803006E0306820F48030306019
:10099000306820F480203060FFF7DEFC054600BFA1
:1009A000306880033FF5A1AEFFF7D6FC401B6428FA
:1009B000F6D935E0306A20F001003062306A20F06C
:1009C00004003062FFF7C8FC054641F2883700BFDB
:1009D000306A800728D5FFF7BFFC401BB8424FF0B4
:1009E0000300F5D947E0306A40F004003062306A15
:1009F00040F0010006E0306A20F001003062306A09
:100A000020F004003062FFF7A7FC054641F288376A
:100A1000306A800708D4FFF79FFC401BB842F7D923
:100A2000032002B0BDE8F081B8F1000F7FF47CAE86
:100A3000F06920F08050F06176E670684FF6FF7143
:100A4000C9F6C0710840D4E9091208431043706028
:100A5000306840F080703060FFF77EFC044600BFD5
:100A6000306880013FF577AEFFF776FC001B022867
:100A70004FF00300F4D902B0BDE8F081411E002020
:100A8000B0EB116F1CBF012070474EF21002CEF286
:100A9000000251604EF62351CEF20001E0230B70AC
:100AA0000721906011607047FEE70000FEE700003C
:100AB000704700007047000070470000FFF752BC0D
:100AC0004EF60850CEF200004FF000610160704712
:100AD000FEE7000090B0FFF753FC1F2005904FF495
:100AE00080304FF440710225069007911021CDE926
:100AF0000D504FF4E01000240B9101210F9005A838
:100B000009940A9108940C94FFF7BCFD08B100BF4A
:100B1000FEE70F20CDE900054FF4806004906846A1
:100B20000621CDE90244FFF7BDFC00B1FEE700203D
:100B3000099041F23400C4F20200016840F200441E
:100B400041F0080101600068C4F6000400F00800EC
:100B500000900098042005900120CDE906000220B5
:100B6000089005A92046FFF729FB00BF2046042175
:100B70000122FFF7EBFB4FF47A70FFF70BFB2046E7
:100B800004210022FFF7E2FB4FF47A70FFF702FB2B
:100B9000ECE702E008C8121F08C1002AFAD170472A
:100BA0007047002001E001C1121F002AFBD17047ED
:100BB00002030405060708090A0B0C0D0E0F10119D
:100BC00012131415161718191A1B1C1D1E1F20218D
:100BD00022232425262728292A2B2C2D2E2F30317D
:100BE00032333435363738393A3B3C3D3E3F3F3F70
:100BF00001020000000000000000010203040607DB
:100C000008090000280C0008000000201000000067
:100C1000920B0008380C00081000002008040000A7
:100C2000A20B00080000000000127A000100000082
:080C30000800000000000000B4
:0400000508000131BD
:00000001FF
