:020000040800F2
:10000000C808002045010008212D0008992B000890
:100010001D2D0008D9010008493600080000000025
:10002000000000000000000000000000D12D0008CA
:10003000AD02000800000000912D0008292E0008E4
:100040005F0100085F0100085F0100085F01000810
:100050005F0100085F0100085F0100085F01000800
:100060005F0100085F0100085F0100085F010008F0
:100070005F0100085F0100085F0100085F010008E0
:100080005F0100085F0100085F0100085F010008D0
:100090005F0100085F0100085F0100085F010008C0
:1000A0005F0100085F0100085F0100085F010008B0
:1000B000BD2E00085F0100085F0100085F01000815
:1000C0005F0100085F0100085F0100085F01000890
:1000D0005F0100085F0100085F0100085F01000880
:1000E0005F0100085F0100085F0100085F01000870
:1000F0005F0100085F0100085F0100085F01000860
:100100005F0100085F0100085F0100085F0100084F
:100110005F0100085F0100085F0100085F0100083F
:10012000DD0100085F0100085F0100085F010008B1
:10013000DFF80CD000F03CF800480047493F0008C9
:10014000C80800200648804706480047FEE7FEE74B
:10015000FEE7FEE7FEE7FEE7FEE7FEE7FEE7FEE777
:10016000AD2E00083101000840EA01039B0703D0CF
:1001700009E008C9121F08C0042AFAD203E011F8E6
:10018000013B00F8013B521EF9D27047D2B201E0A8
:1001900000F8012B491EFBD270470022F6E710B58C
:1001A00013460A4604461946FFF7F0FF204610BDE5
:1001B000064C074D06E0E06840F0010394E80700B4
:1001C00098471034AC42F6D3FFF7B6FF6C420008F4
:1001D0008C420008FFE7FEE7FFE7FEE780B582B04C
:1001E00040F22000C2F20000019000F043FA0198B2
:1001F00000688121C4F20201884209D3FFE740F27E
:100200000040C4F2020000688007002808D422E001
:100210000020C4F202000068800700281BD5FFE719
:1002200040F22000C2F2000000688121C4F2020105
:10023000884207D3FFE740F20441C4F202010220E2
:10024000086005E00421C4F2020102200860FFE713
:1002500003F04CFAFFE702B080BD000084B00390C9
:100260000291019200930398C16B026C01209040AF
:10027000486000980399096848600398406810280E
:1002800009D1FFE7019803990968886002980399EA
:100290000968C86008E002980399096888600198B5
:1002A00003990968C860FFE704B070477047000011
:1002B00080B596B0159000208DF85300159890F8F1
:1002C0002100022807D0FFE7159904208863012048
:1002D0008DF8530074E115980168086820F00E004D
:1002E000086015980168086820F0010008601598FA
:1002F00000688121C4F202018842C0F0A880FFE7B3
:10030000159800680821C4F20201884203D1FFE772
:100310000120139094E0159800681C21C4F202019A
:10032000884203D1FFE71020129086E015980068FC
:100330003021C4F20201884204D1FFE74FF48070FB
:10034000119077E0159800684421C4F202018842B8
:1003500004D1FFE74FF48050109068E015980068D2
:100360005821C4F20201884204D1FFE74FF48030E3
:100370000F9059E0159800686C21C4F20201884280
:1003800004D1FFE74FF480100E904AE01598006802
:100390008021C4F20201884204D1FFE74FF080704F
:1003A0000D903BE01598006840F20841C4F202014C
:1003B000884203D1FFE701200C902CE015980068DB
:1003C00040F21C41C4F20201884203D1FFE7102031
:1003D0000B901DE01598006840F23041C4F2020114
:1003E000884204D1FFE74FF480700A900DE0159821
:1003F000016840F24442C4F202024FF4803091425C
:1004000008BF4FF480500A90FFE70A980B90FFE76F
:100410000B980C90FFE70C980D90FFE70D980E904D
:10042000FFE70E980F90FFE70F981090FFE71098E6
:100430001190FFE711981290FFE712981390FFE7D1
:10044000139840F20441C4F202010860A5E0159837
:1004500000680821C4F20201884203D1FFE70120AD
:10046000099094E0159800681C21C4F202018842AA
:1004700003D1FFE71020089086E01598006830212E
:10048000C4F20201884204D1FFE74FF48070079064
:1004900077E0159800684421C4F20201884204D133
:1004A000FFE74FF48050069068E0159800685821E7
:1004B000C4F20201884204D1FFE74FF48030059076
:1004C00059E0159800686C21C4F20201884204D1F9
:1004D000FFE74FF4801004904AE0159800688021EF
:1004E000C4F20201884204D1FFE74FF0807003900C
:1004F0003BE01598006840F20841C4F202018842CE
:1005000003D1FFE7012002902CE01598006840F22B
:100510001C41C4F20201884203D1FFE71020019080
:100520001DE01598006840F23041C4F20201884293
:1005300004D1FFE74FF4807000900DE0159801683A
:1005400040F24442C4F202024FF48030914208BFAC
:100550004FF480500090FFE700980190FFE701986A
:100560000290FFE702980390FFE703980490FFE7EB
:1005700004980590FFE705980690FFE70698079016
:10058000FFE707980890FFE708980990FFE70998A8
:100590000421C4F202010860FFE71599012081F8E7
:1005A0002100FFE71599002081F82000FFE715984A
:1005B000406B20B1FFE71598416B8847FFE7FFE7E5
:1005C0009DF8530016B080BD84B00390029103984B
:1005D000006840F20741C4F20201884210D8FFE7E8
:1005E000039800684FF6F871CBF6FD7108444CF69D
:1005F000CD41CCF6CC41A0FB01100009019011E0E7
:10060000039800684FF6F831CBF6FD7108444CF6BC
:10061000CD41CCF6CC41A0FB0101072000EB11102D
:100620000190FFE7FFE741F21800C4F20200016801
:1006300041F001010160006800F0010000900098A5
:10064000FFE7019820F003000822C4F2010280585D
:10065000019901F003034FEAC30C7F2303FA0CF363
:100660009843029B03FA0CF3184321F003018850CE
:1006700004B0704780B5ACB02B902B98C06B00686D
:100680002A902B980068006829902A982B99096C69
:10069000C8404007002840F17581FFE79DF8A4009D
:1006A0004007002840F16E81FFE72B980068006842
:1006B0008006002807D4FFE72B980168086820F01F
:1006C00004000860FFE72B9800688121C4F2020152
:1006D0008842C0F0A880FFE72B9800680821C4F288
:1006E0000201884203D1FFE70420289094E02B9870
:1006F00000681C21C4F20201884203D1FFE74020B8
:10070000279086E02B9800683021C4F202018842CD
:1007100004D1FFE74FF48060269077E02B980068C3
:100720004421C4F20201884204D1FFE74FF4804023
:10073000259068E02B9800685821C4F20201884295
:1007400004D1FFE74FF48020249059E02B980068F3
:100750006C21C4F20201884204D1FFE74FF480000B
:1007600023904AE02B9800688021C4F2020188425D
:1007700004D1FFE74FF0806022903BE02B980068A7
:1007800040F20841C4F20201884203D1FFE704208D
:1007900021902CE02B98006840F21C41C4F2020129
:1007A000884203D1FFE7402020901DE02B9800688D
:1007B00040F23041C4F20201884204D1FFE74FF415
:1007C00080601F900DE02B98016840F24442C4F213
:1007D00002024FF48020914208BF4FF480401F90E6
:1007E000FFE71F982090FFE720982190FFE72198CE
:1007F0002290FFE722982390FFE723982490FFE7B9
:1008000024982590FFE725982690FFE726982790C3
:10081000FFE727982890FFE7289840F20441C4F2A8
:1008200002010860A5E02B9800680821C4F20201CB
:10083000884203D1FFE704201E9094E02B980068C3
:100840001C21C4F20201884203D1FFE740201D9021
:1008500086E02B9800683021C4F20201884204D15E
:10086000FFE74FF480601C9077E02B9800684421EC
:10087000C4F20201884204D1FFE74FF480401B908C
:1008800068E02B9800685821C4F20201884204D124
:10089000FFE74FF480201A9059E02B9800686C21F4
:1008A000C4F20201884204D1FFE74FF4800019909E
:1008B0004AE02B9800688021C4F20201884204D1EA
:1008C000FFE74FF0806018903BE02B98006840F203
:1008D0000841C4F20201884203D1FFE704201790C7
:1008E0002CE02B98006840F21C41C4F202018842BF
:1008F00003D1FFE7402016901DE02B98006840F2DE
:100900003041C4F20201884204D1FFE74FF4806015
:1009100015900DE02B98016840F24442C4F20202A7
:100920004FF48020914208BF4FF480401590FFE7BC
:1009300015981690FFE716981790FFE717981890EC
:10094000FFE718981990FFE719981A90FFE71A988F
:100950001B90FFE71B981C90FFE71C981D90FFE77A
:100960001D981E90FFE71E980421C4F20201086042
:10097000FFE72B98C06A20B1FFE72B98C16A884730
:10098000FFE7B7E12A982B99096CC8408007002837
:1009900040F17F81FFE79DF8A4008007002840F127
:1009A0007881FFE72B9800680068800600280BD448
:1009B000FFE72B980168086820F00A0008602B996F
:1009C000012081F82100FFE72B9800688121C4F203
:1009D00002018842C0F0A880FFE72B980068082138
:1009E000C4F20201884203D1FFE70220149094E090
:1009F0002B9800681C21C4F20201884203D1FFE752
:100A00002020139086E02B9800683021C4F2020168
:100A1000884204D1FFE74FF40070129077E02B98E2
:100A200000684421C4F20201884204D1FFE74FF478
:100A30000050119068E02B9800685821C4F2020120
:100A4000884204D1FFE74FF40030109059E02B9812
:100A500000686C21C4F20201884204D1FFE74FF420
:100A600000100F904AE02B9800688021C4F2020128
:100A7000884204D1FFE74FF000700E903BE02B98C6
:100A8000006840F20841C4F20201884203D1FFE746
:100A900002200D902CE02B98006840F21C41C4F21B
:100AA0000201884203D1FFE720200C901DE02B9823
:100AB000006840F23041C4F20201884204D1FFE7ED
:100AC0004FF400700B900DE02B98016840F2444207
:100AD000C4F202024FF40030914208BF4FF40050BC
:100AE0000B90FFE70B980C90FFE70C980D90FFE739
:100AF0000D980E90FFE70E980F90FFE70F9810905B
:100B0000FFE710981190FFE711981290FFE71298F5
:100B10001390FFE713981490FFE7149840F20441F4
:100B2000C4F202010860A5E02B9800680821C4F215
:100B30000201884203D1FFE702200A9094E02B983B
:100B400000681C21C4F20201884203D1FFE7202083
:100B5000099086E02B9800683021C4F20201884297
:100B600004D1FFE74FF40070089077E02B980068FD
:100B70004421C4F20201884204D1FFE74FF400503F
:100B8000079068E02B9800685821C4F2020188425F
:100B900004D1FFE74FF40030069059E02B9800682D
:100BA0006C21C4F20201884204D1FFE74FF4001027
:100BB00005904AE02B9800688021C4F20201884227
:100BC00004D1FFE74FF0007004903BE02B980068E1
:100BD00040F20841C4F20201884203D1FFE702203B
:100BE00003902CE02B98006840F21C41C4F20201F3
:100BF000884203D1FFE7202002901DE02B98006877
:100C000040F23041C4F20201884204D1FFE74FF4C0
:100C1000007001900DE02B98016840F24442C4F24C
:100C200002024FF40030914208BF4FF4005001908F
:100C3000FFE701980290FFE702980390FFE703980F
:100C40000490FFE704980590FFE705980690FFE7FA
:100C500006980790FFE707980890FFE70898099023
:100C6000FFE709980A90FFE70A980421C4F20201FD
:100C70000860FFE7FFE72B99002081F82000FFE7DD
:100C80002B98806A20B1FFE72B98816A8847FFE79D
:100C90002FE02A982B99096CC8400007002827D517
:100CA000FFE79DF8A4000007002821D5FFE72B9857
:100CB0000168086820F00E0008602B98C26B016C78
:100CC000012000FA01F151602B9988632B9981F87A
:100CD0002100FFE72B99002081F82000FFE72B98E7
:100CE000006B20B1FFE72B98016B8847FFE7FFE718
:100CF000FFE7FFE72CB080BD83B00190002000909B
:100D0000019820B9FFE701208DF80B006AE00198F7
:100D1000006840F20741C4F20201884218D8FFE798
:100D2000019908684FF6F872CBF6FD7210444CF644
:100D3000CD42CCF6CC42A0FB02026FF0030000EAE9
:100D40009200086401990020C4F20200C86318E010
:100D5000019908684FF6F832CBF6FD7210444CF654
:100D6000CD42CCF6CC42A0FB02026FF0030000EAB9
:100D700092000864019940F20040C4F20200C86386
:100D8000FFE70199022081F82100019800680068BE
:100D90000090009843F6F0718843009001994868EC
:100DA000D1F808C0CB680A6940EA0C001843104328
:100DB0004A6910438A691043C9690143009808438E
:100DC00000900098019909680860019900208863E3
:100DD000019A012182F82110019981F820008DF8F3
:100DE0000B00FFE79DF80B0003B0704780B586B09D
:100DF000049003910292019300208DF80300FFE715
:100E0000049890F82000012804D1FFE702208DF813
:100E100017004CE00499012081F82000FFE7FFE76C
:100E2000049890F82100012832D1FFE704990220AC
:100E300081F82100049900208863049801680868FB
:100E400020F00100086004980399029A019BFFF7C3
:100E500005FA0498C06A38B1FFE704980168086889
:100E600040F00E0008600CE004980168086820F06B
:100E70000400086004980168086840F00A000860EF
:100E8000FFE704980168086840F00100086009E085
:100E9000FFE70499002081F82000FFE702208DF889
:100EA0000300FFE79DF803008DF81700FFE79DF8AA
:100EB000170006B080BD000080B584B0039000F03C
:100EC000DBF90290039801900198013048B1FFE7E7
:100ED00040F20C00C2F20000017801980844019031
:100EE000FFE7FFE700F0C8F90299401A019988422C
:100EF00001D2FFE7F6E704B080BD00008AB0099098
:100F0000089100200790FFE7089800680799C840FB
:100F1000002800F09881FFE708980068079A0121EF
:100F20009140084006900698002800F08881FFE76D
:100F300008984068022805D0FFE708984068122802
:100F400026D1FFE7099807996FF0030202EA5101E1
:100F50000844006A0590079800F0070081000F2000
:100F600000FA01F1059888430590089800690799EF
:100F700001F00701890000FA01F105980843059086
:100F800005980999079B02EA530211440862FFE79A
:100F900009980068059007984100032000FA01F1C4
:100FA0000598884305900898406800F00300079969
:100FB000490000FA01F10598084305900598099940
:100FC00008600898406801280FD0FFE7089840683B
:100FD00002280AD0FFE708984068112805D0FFE7EB
:100FE0000898406812282FD1FFE70998806805907B
:100FF00007984100032000FA01F105988843059005
:101000000898C0680799490000FA01F1059808435B
:101010000590059809998860099840680590079996
:10102000012000FA01F1059888430590089840686E
:10103000C0F30010079900FA01F1059808430590E4
:10104000059809994860FFE70998C06805900798D6
:101050004100032000FA01F10598884305900898A3
:1010600080680799490000FA01F105980843059046
:1010700005980999C8600898C079C006002840F111
:10108000DD80FFE7FFE741F21800C4F202000168CB
:1010900041F001010160006800F001000490049833
:1010A000FFE7079820F003001421C4F20101405823
:1010B0000590079800F0030081000F2000FA01F16D
:1010C0000598884305900998B0F1904F03D1FFE748
:1010D0000020039034E0099840F20041C4F600017A
:1010E000884203D1FFE70120029026E0099840F6EC
:1010F0000001C4F60001884203D1FFE702200190FD
:1011000018E0099840F60041C4F60001884203D176
:10111000FFE7032000900AE0099941F20002C4F6BB
:1011200000020720914208BF04200090FFE70098CA
:101130000190FFE701980290FFE702980390FFE714
:101140000398079901F00301890000FA01F105985D
:10115000084305900598079921F003011422C4F271
:101160000102885040F20040C4F20100006805907E
:10117000069905988843059008988079C00728B19A
:10118000FFE70699059808430590FFE7059840F2A8
:101190000041C4F20101086040F20440C4F20100C1
:1011A000006805900699059888430590089880790D
:1011B0008007002805D5FFE70699059808430590A4
:1011C000FFE7059840F20441C4F20101086040F2D3
:1011D0000840C4F20100006805900699059888430C
:1011E000059008988079C006002805D5FFE7069984
:1011F000059808430590FFE7059840F20841C4F2BE
:101200000101086040F20C40C4F201000068059042
:1012100006990598884305900898807980060028EB
:1012200005D5FFE70699059808430590FFE705985F
:1012300040F20C41C4F201010860FFE7FFE70798A4
:101240000130079060E60AB07047000082B001905C
:10125000ADF802108DF801209DF8010028B1FFE7DC
:10126000BDF802000199886104E0BDF8020001990F
:101270008862FFE702B0704740F2A400C2F20000AB
:101280000068704740F20C00C2F20000027840F2A1
:10129000A401C2F200010868104408607047000011
:1012A00080B5042000F0C2F80F2000F005F800F02F
:1012B0003BF8002080BD000080B582B0009040F275
:1012C0000800C2F20000006840F20C01C2F2000106
:1012D0000A784FF47A71B1FBF2F1B0FBF1F000F053
:1012E00039FE20B1FFE701208DF8070018E00098D3
:1012F00007280DD8FFE700994FF0FF30002200F0DB
:101300007BF8009840F21001C2F20001086003E08F
:1013100001208DF8070003E000208DF80700FFE7AB
:101320009DF8070002B080BD86B0FFE741F21800CB
:10133000C4F20200016841F001010160006800F0A0
:10134000010005900598FFE7FFE741F21C00C4F299
:101350000200016841F080510160006800F0805097
:1013600004900498FFE7FFE741F23400C4F2020062
:10137000016841F004010160006800F0040003907E
:101380000398FFE7FFE741F23400C4F2020001686E
:1013900041F008010160006800F008000290029826
:1013A000FFE7FFE741F21C00C4F20200016841F0D0
:1013B00001010160006800F0010001900198FFE761
:1013C000FFE741F21400C4F20200016841F002019B
:1013D0000160006800F0020000900098FFE706B08E
:1013E0007047000080B582B08DF807009DF90700B6
:1013F00002F07CFB02B080BD80B586B08DF817008E
:10140000049103920020029002F088FB02909DF963
:101410001700019002980499039A01F083FC014699
:10142000019802F083FB06B080BD000080B582B059
:101430000190019802F09CFB02B080BD80B584B0A1
:1014400002900191029820B9FFE701208DF80F006A
:1014500021E1019842F20001C4F20201096801F0A1
:101460000F01884216D9FFE742F20000C4F20200E1
:10147000016821F00F01019A11430160006800F03A
:101480000F000199884204D0FFE701208DF80F007A
:1014900001E1FFE702980078800700282AD5FFE7DE
:1014A000029800784007002809D5FFE741F20401BF
:1014B000C4F20201086840F4E0600860FFE70298A7
:1014C00000780007002809D5FFE741F20401C4F2C3
:1014D0000201086840F460500860FFE741F204012F
:1014E000C4F20201086820F0F000029A92681043EA
:1014F0000860FFE702980078C007002866D0FFE781
:1015000002984068012811D1FFE741F20000C4F2BF
:101510000200006800F400310020B0EB514F04D10C
:10152000FFE701208DF80F00B5E024E00298406845
:1015300002280ED1FFE741F20000C4F20200006869
:10154000C001002804D4FFE701208DF80F00A2E0BD
:1015500010E041F20000C4F20200006800F0020155
:101560000020B0EB510F04D1FFE701208DF80F00F0
:1015700091E0FFE7FFE741F20401C4F202010868CD
:1015800020F00300029A526810430860FFF774FECF
:101590000090FFE741F20400C4F20200006800F08E
:1015A0000C0002994968B0EB810F0ED0FFE7FFF7FE
:1015B00063FE0099401A41F28931884204D3FFE763
:1015C00003208DF80F0066E0E4E7FFE7019842F2A0
:1015D0000001C4F20201096801F00F01884216D22D
:1015E000FFE742F20000C4F20200016821F00F019F
:1015F000019A11430160006800F00F0001998842D0
:1016000004D0FFE701208DF80F0044E0FFE70298C7
:101610000078400700280CD5FFE741F20401C4F22E
:101620000201086820F4E060029AD2681043086062
:10163000FFE702980078000700280DD5FFE741F288
:101640000401C4F20201086820F46050029A126991
:1016500040EAC2000860FFE700F022F841F204010E
:10166000C4F202010968C9B20A0944F24421C0F671
:101670000001895CC84040F20801C2F20001086024
:1016800040F21000C2F200000068FFF715FE0020D3
:101690008DF80F00FFE79DF80F0004B080BD00003B
:1016A00080B598B044F20421C0F6000108A8402299
:1016B000FEF75AFD40F20120ADF81E000020069012
:1016C000059004900390029041F20400C4F20200DD
:1016D00000680690069800F00C0001460191002871
:1016E0004AD0FFE70198042804D0FFE701980828B2
:1016F00006D042E042F20040C0F2F400029042E024
:10170000069901F0C04001F47011400E40EA914189
:1017100008A8405C0390069800F44030B0F5803F84
:1017200007D0FFE7069800F44030B0F5403F18D1ED
:10173000FFE741F20400C4F20200006800F4003147
:101740000DF11E0040EA514000780590039842F2E6
:101750000041C0F2F40148430599B0FBF1F0049058
:1017600007E0039841F20021C0F27A014843049057
:10177000FFE70498029006E0FFE741F20020C0F284
:101780007A000290FFE7029818B080BD80B586B05D
:101790000490049820B9FFE701208DF81700D4E3E6
:1017A00004980078C007002800F0D680FFE741F2D7
:1017B0000400C4F20200006800F00C00042820D0ED
:1017C000FFE741F20400C4F20200006800F00C00E0
:1017D00008282BD1FFE741F20400C4F202000068A0
:1017E00000F48030B0F5803F0BD0FFE741F20400F9
:1017F000C4F20200006800F48030B0F5403F15D11B
:10180000FFE741F20000C4F20200006800F400317A
:101810000020B0EB514F08D0FFE70498406820B992
:10182000FFE701208DF817008FE394E004984068EB
:10183000B0F5803F0CD1FFE741F23801C4F202015C
:10184000086820F44070049A926810430860FFE72B
:10185000FFE704984068B0F5803F09D1FFE741F207
:101860000001C4F20201086840F48030086032E0F0
:101870000498406868B9FFE741F20001C4F2020130
:10188000086820F480300860086820F48020086030
:1018900020E004984068B0F5A02F0DD1FFE741F299
:1018A0000001C4F20201086840F480200860086862
:1018B00040F4803008600CE041F20001C4F2020103
:1018C000086820F480300860086820F480200860F0
:1018D000FFE7FFE7FFE7FFE704984068E8B1FFE7AD
:1018E000FFF7CAFC0390FFE741F20000C4F20200D8
:1018F000006800F400310020B0EB514F0CD1FFE73D
:10190000FFF7BAFC0399401A652804D3FFE70320C8
:101910008DF8170019E3E7E71CE0FFF7ADFC039033
:10192000FFE741F20000C4F20200006800F4003159
:101930000020B0EB514F0CD0FFE7FFF79DFC03995F
:10194000401A652804D3FFE703208DF81700FCE256
:10195000E7E7FFE7FFE7FFE7049800788007002844
:1019600040F19080FFE741F20400C4F202000068F9
:1019700010F00C0F20D0FFE741F20400C4F2020087
:10198000006800F00C0008282CD1FFE741F20400A9
:10199000C4F20200006800F48030B0F5803F21D02E
:1019A000FFE741F20400C4F20200006800F4803056
:1019B000B0F5403F16D0FFE741F20000C4F202004C
:1019C000006800F002010020B0EB510F09D0FFE7E2
:1019D00004984069012804D0FFE701208DF8170022
:1019E000B3E24EE00498406928B3FFE741F20001FA
:1019F000C4F20201086840F001000860FFF73CFCF7
:101A00000390FFE741F20000C4F20200006800F01A
:101A100002010020B0EB510F0CD1FFE7FFF72CFCC7
:101A20000399401A032804D3FFE703208DF8170019
:101A30008BE2E7E724E041F20001C4F2020108680A
:101A400020F001000860FFF717FC0390FFE741F268
:101A50000000C4F20200006800F002010020B0EBB8
:101A6000510F0CD0FFE7FFF707FC0399401A03283A
:101A700004D3FFE703208DF8170066E2E7E7FFE7EE
:101A8000FFE7FFE704980078C00600284FD5FFE77E
:101A90000498806928B3FFE741F22801C4F20201EB
:101AA000086840F010000860FFF7E6FB0390FFE7CE
:101AB00041F22800C4F20200006800F0200100207A
:101AC000B0EB511F0CD1FFE7FFF7D6FB0399401A8B
:101AD000032804D3FFE703208DF8170035E2E7E77A
:101AE00024E041F22801C4F20201086820F010004D
:101AF0000860FFF7C1FB0390FFE741F22800C4F242
:101B00000200006800F020010020B0EB511F0CD053
:101B1000FFE7FFF7B1FB0399401A032804D3FFE75F
:101B200003208DF8170010E2E7E7FFE7FFE70498CE
:101B300000780007002852D5FFE70498C06940B339
:101B4000FFE741F22401C4F20201086840F00100FD
:101B50000860FFF791FB0390FFE741F22400C4F215
:101B60000200006800F002010020B0EB510F0CD120
:101B7000FFE7FFF781FB0399401A032804D3FFE72F
:101B800003208DF81700E0E1E7E7012001F002F9FA
:101B900024E041F22401C4F20201086820F00100AF
:101BA0000860FFF769FB0390FFE741F22400C4F2ED
:101BB0000200006800F002010020B0EB510F0CD0D1
:101BC000FFE7FFF759FB0399401A032804D3FFE707
:101BD00003208DF81700B8E1E7E7FFE7FFE7049877
:101BE00000784007002840F1EF80FFE700208DF8E3
:101BF000070041F21C00C4F202000068C000002887
:101C000013D4FFE7FFE741F21C00C4F202000168B1
:101C100041F080510160006800F080500090009811
:101C2000FFE701208DF80700FFE747F20000C4F24C
:101C300000000068C005002822D4FFE747F2000139
:101C4000C4F20001086840F480700860FFF714FBDC
:101C50000390FFE747F20000C4F200000068C005EF
:101C600000280CD4FFE7FFF707FB0399401A65280B
:101C700004D3FFE703208DF8170066E1EAE7FFE7EA
:101C80000498C06801280CD1FFE741F22001C4F29A
:101C90000201086820F01800049A126910430860D5
:101CA000FFE7FFE70498C068012809D1FFE741F288
:101CB0002001C4F20201086840F00100086031E030
:101CC0000498C06868B9FFE741F22001C4F202013C
:101CD000086820F001000860086820F0040008602F
:101CE0001FE00498C06805280DD1FFE741F22001EC
:101CF000C4F20201086840F004000860086840F07F
:101D0000010008600CE041F22001C4F20201086801
:101D100020F001000860086820F004000860FFE778
:101D2000FFE7FFE7FFE70498C068F8B1FFE7FFF7B8
:101D3000A3FA0390FFE741F22000C4F2020000681A
:101D400000F002010020B0EB510F0ED1FFE7FFF7CA
:101D500093FA0399401A41F28931884204D3FFE78C
:101D600003208DF81700F0E0E5E71EE0FFF784FAA6
:101D70000390FFE741F22000C4F20200006800F087
:101D800002010020B0EB510F0ED0FFE7FFF774FA0D
:101D90000399401A41F28931884204D3FFE70320B6
:101DA0008DF81700D1E0E5E7FFE79DF8070001286F
:101DB00009D1FFE741F21C01C4F20201086820F0DA
:101DC00080500860FFE7FFE70498006A002800F0F1
:101DD000B880FFE741F20400C4F20200006800F09E
:101DE0000C00082800F08580FFE70498006A0228AC
:101DF00059D1FFE741F20001C4F20201086820F066
:101E000080700860FFF738FA0390FFE741F20000A6
:101E1000C4F20200006800F000710020B0EB516FC6
:101E20000CD0FFE7FFF728FA0399401A032804D3E0
:101E3000FFE703208DF8170087E0E7E741F2040190
:101E4000C4F2020108684FF6FF72C9F6C072104072
:101E5000049B5A6A9B6A1A431043086041F20001CE
:101E6000C4F20201086840F080700860FFF704FACD
:101E70000390FFE741F20000C4F20200006800F0A6
:101E800000710020B0EB516F0CD1FFE7FFF7F4F9C0
:101E90000399401A032804D3FFE703208DF81700A5
:101EA00053E0E7E724E041F20001C4F202010868D0
:101EB00020F080700860FFF7DFF90390FFE741F240
:101EC0000000C4F20200006800F000710020B0EBD6
:101ED000516F0CD0FFE7FFF7CFF90399401A0328A1
:101EE00004D3FFE703208DF817002EE0E7E7FFE7B4
:101EF00026E00498006A012804D1FFE701208DF84C
:101F0000170022E041F20400C4F2020000680290CF
:101F1000029800F480300499496A88420AD1FFE7A8
:101F200002980021C6F23C0108400499896A88425F
:101F300004D0FFE701208DF8170006E0FFE7FFE778
:101F4000FFE700208DF81700FFE79DF8170006B0A7
:101F500080BD000080B582B00190019800F03AFF8A
:101F600002B080BD81B0009001B0704781B0009098
:101F700001B0704785B003900291FFE7039890F895
:101F80003C00012804D1FFE702208DF8130039E05E
:101F90000399012081F83C00FFE7FFE70399022045
:101FA00081F83D000398006840680190039800683C
:101FB00080680090019820F07000019002980168FC
:101FC000019808430190009820F08000009002984A
:101FD0004168009808430090019803990968486097
:101FE00000980399096888600399012081F83D00F1
:101FF000FFE70399002081F83C00FFE700208DF8FF
:102000001300FFE79DF8130005B0704780B582B05C
:102010000090009820B9FFE701208DF807001DE02F
:10202000009890F83D0040B9FFE70099002081F842
:102030003C00009800F016F8FFE70099022081F8B4
:102040003D00009951F8040B00F040FF0099012079
:1020500081F83D0000208DF80700FFE79DF807009C
:1020600002B080BD80B586B0059005980068B0F1DB
:10207000804F53D1FFE7FFE741F21C00C4F202009A
:10208000016841F001010160006800F00100049066
:102090000498FFE740F22000C2F20000039040F2F3
:1020A0000841C4F2020101601021416000218160F9
:1020B0008022C2604FF4807202614FF480624261FC
:1020C0008161C161FEF718FE18B1FFE7FEF782F8E3
:1020D000FFE740F22000C2F200002121FEF774FA6F
:1020E000FFE7059840F22001C2F2000181620598E5
:1020F0004862FFE71C200090002201921146FFF782
:102100007BF90098FFF76EF9019A382002900121BF
:10211000FFF772F90298FFF765F9FFE706B080BD97
:1021200080B586B004900391FFE7049890F83C00D6
:10213000012804D1FFE702208DF81700A7E00499D9
:10214000012081F83C00FFE7FFE70499022081F8B5
:102150003D000498006880680290029820F07700A3
:102160000290029820F47F40029002980499096836
:102170008860039800680190002872D0FFE70198FA
:1021800010286ED0FFE7019820286AD0FFE7019859
:10219000302866D0FFE70198402855D0FFE7019826
:1021A000502837D0FFE70198602840D0FFE701981A
:1021B00070280BD0FFE70198B0F5805F05D0FFE7EE
:1021C0000198B0F5005F16D052E052E00498006824
:1021D000039B5A689968DB6800F0F0FF0498006878
:1021E00080680290029840F077000290029804996B
:1021F000096888603DE004980068039B5A68996804
:10220000DB6800F0DBFF04980168886840F48040D8
:1022100088602EE004980068039A5168D26801F043
:10222000C1F904980068502100F0E2FF21E0049811
:102230000068039A5168D26801F0DCF904980068DC
:10224000602100F0D5FF14E004980068039A5168FB
:10225000D26801F0A7F904980068402100F0C8FF97
:1022600007E0049800680399096800F0C1FF00E0E6
:10227000FFE70499012081F83D00FFE70499002061
:1022800081F83C00FFE700208DF81700FFE79DF87C
:10229000170006B080BD000081B0009001B070470B
:1022A00081B0009001B0704780B582B00190019874
:1022B0000068006900F002010020B0EB510F28D047
:1022C000FFE701980068C06800F002010020B0EB51
:1022D000510F1DD0FFE7019801686FF002000861FF
:1022E000019901200877019800688069800720B172
:1022F000FFE70198FFF7D4FF06E0019800F040F9EE
:10230000019800F013FAFFE7019900200877FFE732
:10231000FFE701980068006900F004010020B0EBBD
:10232000910F29D0FFE701980068C06800F0040110
:102330000020B0EB910F1ED0FFE7019801686FF00D
:1023400004000861019902200877019800688069FB
:1023500010F4407F04D0FFE70198FFF7A1FF06E0EB
:10236000019800F00DF9019800F0E0F9FFE70199FC
:1023700000200877FFE7FFE701980068006900F098
:1023800008010020B0EBD10F28D0FFE701980068CA
:10239000C06800F008010020B0EBD10F1DD0FFE7AE
:1023A000019801686FF0080008610199042008771E
:1023B00001980068C069800720B1FFE70198FFF726
:1023C0006FFF06E0019800F0DBF8019800F0AEF92D
:1023D000FFE7019900200877FFE7FFE70198006811
:1023E000006900F010010020B0EB111F29D0FFE7B9
:1023F00001980068C06800F010010020B0EB111FC8
:102400001ED0FFE7019801686FF010000861019984
:102410000820087701980068C06910F4407F04D054
:10242000FFE70198FFF73CFF06E0019800F0A8F8ED
:10243000019800F07BF9FFE7019900200877FFE79A
:10244000FFE7019800680069C00780B1FFE70198C5
:102450000068C068C00748B1FFE7019801686FF0E5
:1024600001000861019800F08FFBFFE7FFE701988A
:1024700000680069C1B20020B0EBD11F13D0FFE7A4
:1024800001980068C068C1B20020B0EBD11F09D02C
:10249000FFE7019801686FF0800008610198FFF77D
:1024A00061FDFFE7FFE701980068006900F0400167
:1024B0000020B0EB911F14D0FFE701980068C068BE
:1024C00000F040010020B0EB911F09D0FFE7019818
:1024D00001686FF040000861019800F059FBFFE7C8
:1024E000FFE701980068006900F020010020B0EBD0
:1024F000511F14D0FFE701980068C06800F0200168
:102500000020B0EB511F09D0FFE7019801686FF080
:10251000200008610198FFF729FDFFE7FFE702B0FF
:1025200080BD000080B588B007900020069005901F
:1025300004900390029007980068B0F1804F1DD17D
:10254000FFE7FFE741F23400C4F20200016841F006
:1025500004010160006800F0040001900198FFE7A9
:10256000022002900390002004900590062006901F
:102570004FF0904002A9FEF7C1FCFFE708B080BD14
:1025800081B0009001B0704780B586B0049003918F
:102590000292FFE7049890F83C00012804D1FFE77D
:1025A00002208DF817008DE00499012081F83C008D
:1025B000FFE7FFE70499022081F83D0002980190AF
:1025C0000C2800F270800199DFE801F0076D6D6D55
:1025D000206D6D6D3A6D6D6D530004980068039920
:1025E00000F01CFE04980168886940F008008861CA
:1025F00004980168886920F00400886103980269E2
:10260000049801688869104388614DE00498006867
:10261000039900F07BFE04980168886940F400602B
:10262000886104980168886920F480608861039853
:10263000026904980168886940EA0220886133E0F1
:1026400004980068039900F0DDFE04980168C869E9
:1026500040F00800C86104980168C86920F00400CF
:10266000C8610398026904980168C8691043C86189
:102670001AE004980068039900F040FF049801688C
:10268000C86940F40060C86104980168C86920F412
:102690008060C8610398026904980168C86940EACB
:1026A0000220C86100E0FFE70499012081F83D00A5
:1026B000FFE70499002081F83C00FFE700208DF837
:1026C0001700FFE79DF8170006B080BD80B582B007
:1026D0000090009820B9FFE701208DF807001DE069
:1026E000009890F83D0040B9FFE70099002081F87C
:1026F0003C00009800F016F8FFE70099022081F8EE
:102700003D00009951F8040B00F0E0FB0099012016
:1027100081F83D0000208DF80700FFE79DF80700D5
:1027200002B080BD81B0009001B0704781B00090D0
:1027300001B0704781B0009001B0704780B58AB099
:10274000089007910692ADF81630089890F83D0071
:10275000022804D1FFE702208DF8270012E1089833
:1027600090F83D00012811D1FFE7069840B9FFE736
:10277000BDF8160020B1FFE701208DF8270001E128
:102780000899022081F83D00FFE700E0FFE7FFE73E
:10279000079803900C2800F2B6800399DFE801F057
:1027A00007B3B3B332B3B3B35DB3B3B38800089820
:1027B000416A43F2A500C0F6000088620898416AA9
:1027C00043F22110C0F60000C8620898416A43F243
:1027D0009D10C0F60000086308980268406A0699D8
:1027E0003432BDF81630FEF701FB20B1FFE70120BF
:1027F0008DF82700C6E008980168C86840F40070AA
:10280000C86081E00898816A43F2A500C0F6000024
:1028100088620898816A43F22110C0F60000C862FD
:102820000898816A43F29D10C0F60000086308987A
:102830000268806A06993832BDF81630FEF7D6FA7B
:1028400020B1FFE701208DF827009BE00898016880
:10285000C86840F48060C86056E00898C16A43F2D6
:10286000A500C0F6000088620898C16A43F22110F2
:10287000C0F60000C8620898C16A43F29D10C0F615
:102880000000086308980268C06A06993C32BDF8E7
:102890001630FEF7ABFA20B1FFE701208DF82700D4
:1028A00070E008980168C86840F40060C8602BE0D8
:1028B0000898016B43F2A500C0F6000088620898F2
:1028C000016B43F22110C0F60000C8620898016B4A
:1028D00043F29D10C0F60000086308980268006B80
:1028E00006994032BDF81630FEF780FA20B1FFE7B6
:1028F00001208DF8270045E008980168C86840F479
:102900008050C86000E0FFE708980068079901223E
:10291000019200F0ABFB01980899096842F6004269
:10292000C4F20102914202900CD0FFE708980068BF
:102930004CF60041CBF6FE710844B0FA80F0400935
:102940000290FFE70298C00738B1FFE708980168D6
:10295000486C40F400404864FFE7089800688068CD
:1029600000F0070004900498062807D0FFE70898B5
:102970000168086840F001000860FFE700208DF85A
:102980002700FFE79DF827000AB080BD80B584B01E
:1029900003900291039800680299002200F066FB00
:1029A00003980168012042F60042C4F201029142FC
:1029B00001900CD0FFE7039800684CF60041CBF67D
:1029C000FE710844B0FA80F040090190FFE70198D9
:1029D000C007D8B1FFE7FFE703980068006A41F23B
:1029E0001111084210D1FFE703980068006A40F215
:1029F0004441084207D1FFE703980168486C20F47E
:102A000000404864FFE7FFE7FFE7FFE7FFE70398C1
:102A10000068006A41F21111084210D1FFE70398E3
:102A20000068006A40F24441084207D1FFE703987A
:102A30000168086820F001000860FFE7FFE7FFE792
:102A40000399012081F83D00002004B080BD000002
:102A500080B584B003900291029801900C2835D87B
:102A60000199DFE801F007333333123333331D3379
:102A70003333280003980168C86820F40070C860E8
:102A80000398406AFDF714FC21E003980168C868C8
:102A900020F48060C8600398806AFDF709FC16E0A6
:102AA00003980168C86820F40060C8600398C06A91
:102AB000FDF7FEFB0BE003980168C86820F4805026
:102AC000C8600398006BFDF7F3FB00E0FFE7039895
:102AD00000680299002200F0C9FA039801680120F9
:102AE00042F60042C4F20102914200900CD0FFE78E
:102AF000039800684CF60041CBF6FE710844B0FA2A
:102B000080F040090090FFE70098C007D8B1FFE7C8
:102B1000FFE703980068006A41F21111084210D1E2
:102B2000FFE703980068006A40F24441084207D179
:102B3000FFE703980168486C20F400404864FFE711
:102B4000FFE7FFE7FFE7FFE703980068006A41F24D
:102B50001111084210D1FFE703980068006A40F2A3
:102B60004441084207D1FFE703980168086820F054
:102B700001000860FFE7FFE7FFE70399012081F804
:102B80003D00002004B080BD81B0009001B07047CE
:102B900081B0009001B07047FFE7FEE780B58CB0D0
:102BA00000200B900A90099008900790FFE741F2EF
:102BB0003400C4F20200016841F0040101600068C1
:102BC00000F0040006900698FFE7FFE741F23400AA
:102BD000C4F20200016841F008010160006800F0E1
:102BE000080005900598FFE740F20040C4F6000099
:102BF00001900421009100220392FEF727FB009927
:102C00000198079101210891099102210A9107A9D0
:102C10000291FEF773F901980299039A4FF44073F9
:102C200007930023C1F2210308930992FEF766F986
:102C3000039A072004901146FEF7DEFB0498FEF786
:102C4000D1FB0CB080BD000080B58EB0002100919A
:102C50000D910C910B910A910991089107910691A0
:102C60000591049103910291019140F26400C2F236
:102C700000004FF08042026041608160B422C26077
:102C800001618161FFF7C2F918B1FFE7FDF7A2FA10
:102C9000FFE74FF480500A9040F26400C2F2000057
:102CA0000AA9FFF73DFA18B1FFE7FDF793FAFFE72E
:102CB00040F26400C2F20000FFF708FD18B1FFE720
:102CC000FDF788FAFFE700200890099040F26400C1
:102CD000C2F2000008A9FFF74DF918B1FFE7FDF7B0
:102CE00079FAFFE76020019000200290039004220F
:102CF000059240F26400C2F2000001A9FFF744FC13
:102D000018B1FFE7FDF766FAFFE740F26400C2F290
:102D10000000FFF707FC0EB080BD0000FFE7FEE7F4
:102D20007047000088B0079006910592079800F060
:102D3000070004900498C0F10700042803D3FFE7BC
:102D40000320019004E00498C0F107000190FFE720
:102D50000198039004980330062803D8FFE7002069
:102D6000009003E0049804380090FFE70098029078
:102D700006980399012202FA01F101390840029BE9
:102D8000984005999A40013A1140084308B07047AD
:102D90007047000082B00190019840F20801C2F231
:102DA00000010968C90844F6D352C1F26202A1FBCE
:102DB0000221890948430090FFE700BFFFE7009820
:102DC000411E00910028F8D1FFE702B070470000D3
:102DD0007047000080B584B0029002980138B0F1CD
:102DE000807F03D3FFE7012003901AE002980138A7
:102DF0004EF21401CEF2000108604FF0FF300721BF
:102E0000019100F093FE01994EF21802CEF20002F9
:102E1000002010604EF21002CEF20002116003900A
:102E2000FFE7039804B080BD80B5FEF72BFA80BDA4
:102E300080B592B007A801902C21FDF7AEF901985A
:102E40000022069205920492039202921F2107919A
:102E50004FF4803108914FF44073099310230D9380
:102E600001230C930A920E9202220F9210914FF4BA
:102E7000E0111191FEF78AFC18B1FFE7FDF7AAF9FE
:102E8000FFE70F200290022003900020049005909D
:102E90004FF48060069002A80621FEF7CFFA18B121
:102EA000FFE7FDF797F9FFE712B080BD4EF6085136
:102EB000CEF200014FF000600860704780B540F22C
:102EC0006400C2F20000FFF7EFF980BD83B002900A
:102ED0000191029800680090029842F60041C4F205
:102EE0000101884225D0FFE70298B0F1804F20D041
:102EF000FFE7029840F20041C4F20001884218D076
:102F0000FFE7029840F60001C4F20001884210D0A9
:102F1000FFE7029840F60041C4F20001884208D061
:102F2000FFE7029843F20041C4F2010188420AD14E
:102F3000FFE7009820F07000009001984168009829
:102F400008430090FFE7029842F60041C4F20101F5
:102F5000884255D0FFE70298B0F1804F50D0FFE78C
:102F6000029840F20041C4F20001884248D0FFE7D5
:102F7000029840F60001C4F20001884240D0FFE709
:102F8000029840F60041C4F20001884238D0FFE7C1
:102F9000029843F20041C4F20101884230D0FFE7B9
:102FA000029844F60041C4F20101884228D0FFE7AC
:102FB000029845F20001C4F20101884220D0FFE7E7
:102FC000029845F20041C4F20101884218D0FFE79F
:102FD000029841F60001C4F20001884210D0FFE7D8
:102FE000029841F60041C4F20001884208D0FFE790
:102FF000029842F20001C4F2000188420AD1FFE7C0
:10300000009820F4407000900198C168009808432F
:103010000090FFE7009820F080000199496908437B
:103020000090009802990860019880680299C8622F
:103030000198006802998862029842F60041C4F241
:103040000101884208D0FFE7029843F20041C4F230
:103050000101884205D1FFE70198006902990863E0
:10306000FFE702990120486103B0704784B00390E4
:1030700002910192029800F01F0101208840009007
:10308000009A0399086A904308620198029901F036
:103090001F0100FA01F20399086A1043086204B0A4
:1030A0007047000080B582B001900198406A00909E
:1030B0000099012081F83D0001980099496A8842F1
:1030C00004D1FFE700990120087721E001980099D9
:1030D000896A884204D1FFE700990220087716E048
:1030E00001980099C96A884204D1FFE70099042039
:1030F00008770BE001980099096B884204D1FFE73B
:1031000000990820087700E0FFE7FFE7FFE7FFE707
:103110000098FFF70BFB00990020087702B080BDF4
:1031200080B582B001900198406A0090009901201A
:1031300081F83D0001980099496A884204D1FFE76F
:1031400000990120087721E001980099896A884256
:1031500004D1FFE700990220087716E00198009952
:10316000C96A884204D1FFE70099042008770BE080
:1031700001980099096B884204D1FFE70099082063
:10318000087700E0FFE7FFE7FFE7FFE70098FFF7BA
:10319000D1FA00990020087702B080BD80B582B0D6
:1031A00001900198406A00900099012081F83D004B
:1031B0000098FFF771F802B080BD000085B0049060
:1031C000039102920193049880680090009820F483
:1031D0007F40009003980299019A41EA022101433D
:1031E00000980843009000980499886005B07047E3
:1031F00083B002900191029880680090009820F0BE
:103200007000009001980099084340F0070000907A
:1032100000980299886003B07047000085B0049060
:1032200003910499086A20F0010008620498006A7A
:103230000190049840680090049880690290029878
:1032400020F070000290029820F003000290039892
:103250000168029808430290019820F00200019052
:1032600003988168019808430190049842F6004150
:10327000C4F20101884208D0FFE7049843F20041FC
:10328000C4F2010188420ED1FFE7019820F0080046
:1032900001900398C168019808430190019820F0BB
:1032A00004000190FFE7049842F60041C4F20101D6
:1032B000884208D0FFE7049843F20041C4F20101BC
:1032C000884213D1FFE7009820F4807000900098A6
:1032D00020F4007000900398416900980843009022
:1032E00003988169009808430090FFE700980499CB
:1032F000486002980499886103984068049948637B
:1033000001980499086205B07047000085B00490E8
:1033100003910499086A20F0100008620498006A7A
:103320000190049840680090049880690290029887
:1033300020F4E0400290029820F44070029003983C
:103340000168029840EA01200290019820F02000D4
:10335000019003988168019840EA01100190049857
:1033600042F60041C4F20101884208D0FFE7049808
:1033700043F20041C4F2010188420FD1FFE70198F6
:1033800020F0800001900398C168019840EA011084
:103390000190019820F040000190FFE7049842F668
:1033A0000041C4F20101884208D0FFE7049843F2CB
:1033B0000041C4F20101884215D1FFE7009820F4D2
:1033C00080600090009820F40060009003984169AC
:1033D000009840EA8100009003988169009840EAD3
:1033E00081000090FFE700980499486002980499D2
:1033F0008861039840680499886301980499086279
:1034000005B0704785B0049003910499086A20F4D0
:10341000807008620498006A0190049840680090E7
:103420000498C0690290029820F0700002900298FF
:1034300020F003000290039801680298084302906C
:10344000019820F40070019003988168019840EA87
:1034500001200190049842F60041C4F20101884223
:1034600008D0FFE7049843F20041C4F2010188420A
:103470000FD1FFE7019820F4006001900398C16824
:10348000019840EA01200190019820F480600190A9
:10349000FFE7049842F60041C4F20101884208D0D7
:1034A000FFE7049843F20041C4F20101884215D1BC
:1034B000FFE7009820F480500090009820F400501E
:1034C000009003984169009840EA01100090039829
:1034D0008169009840EA01100090FFE70098049984
:1034E000486002980499C861039840680499C863C9
:1034F00001980499086205B07047000085B00490F7
:1035000003910499086A20F4805008620498006AC4
:1035100001900498406800900498C0690290029855
:1035200020F4E0400290029820F44070029003984A
:103530000168029840EA01200290019820F40050AE
:10354000019003988168019840EA01300190049845
:1035500042F60041C4F20101884208D0FFE7049816
:1035600043F20041C4F2010188420BD1FFE7009809
:1035700020F48040009003984169009840EA81104F
:103580000090FFE700980499486002980499C86188
:10359000039840680499086401980499086205B08A
:1035A0007047000085B00490039102920498006A6D
:1035B00000900499086A20F001000862049880696C
:1035C0000190019820F0F00001900299019840EAE2
:1035D00001100190009820F00A00009003990098D3
:1035E0000843009001980499886100980499086242
:1035F00005B0704785B00490039102920499086A5F
:1036000020F0100008620498806901900498006A14
:103610000090019820F4704001900299019840EACE
:1036200001300190009820F0A000009003990098CC
:1036300040EA01100090019804998861009804996B
:10364000086205B070470000FFE7FEE780B582B072
:1036500000200190FFE70198009000F051F801462A
:10366000009888423FD2FFE740F2A800C2F2000073
:10367000007CA0B1FFE7019800EB400240F2180186
:10368000C2F2000100208854019A02EB42020A446F
:103690005070019A02EB4202114488701EE040F221
:1036A000A800C2F200008069B8B1FFE740F2A801AB
:1036B000C2F200018A69019800EB40030020D05457
:1036C0008A69019B03EB43031A4450708969019A8C
:1036D00002EB420211448870FFE7FFE7FFE7019821
:1036E00001300190B7E702B080BD000080B540F224
:1036F000A801C2F2000108684968FFF747F980BDD8
:1037000081B040F2A800C2F20000406938B1FFE782
:1037100040F2A800C2F200004069009002E00120DF
:103720000090FFE7009801B07047000080B584B0BA
:10373000039002910192039940F2A800C2F20000A6
:10374000009001600299416000210174019941617A
:10375000019901EB4101C9000131C160C06840001D
:1037600000F01AFD00998860019858B1FFE70198B0
:1037700000EB400000F010FD40F2A801C2F2000191
:10378000886106E040F2A801C2F2000100208861D1
:10379000FFE7FFF75BFF04B080BD000080B582B09B
:1037A0008DF807008DF806108DF805208DF804308F
:1037B0009DF807000090FFF7A3FF0146009888429C
:1037C00001D3FFE749E040F2A800C2F20000007C0C
:1037D000E0B1FFE79DF806009DF8071001EB4102FC
:1037E00040F21801C2F2000188549DF805009DF8CE
:1037F000072002EB42020A4450709DF804009DF835
:10380000072002EB42021144887026E040F2A80033
:10381000C2F200008069F8B1FFE79DF8060040F2AF
:10382000A801C2F200018A699DF8073003EB430347
:10383000D0549DF805008A699DF8073003EB4303D7
:103840001A4450709DF8040089699DF8072002EB26
:10385000420211448870FFE7FFE702B080BD00001C
:1038600080B584B08DF80F008DF80E108DF80D2006
:1038700000200290FFE702980190FFF741FF014608
:10388000019888420FD2FFE79DF808009DF80F10BD
:103890009DF80E209DF80D30FFF780FFFFE702989E
:1038A00001300290E7E704B080BD000010B588B099
:1038B00040F2A800C2F20000007C40B9FFE740F2ED
:1038C000A800C2F20000806808B9FFE70BE1002001
:1038D0000790FFE707980590FFF712FF014605984C
:1038E000884280F0A180FFE740F2A800C2F2000009
:1038F000007CC8B1FFE7079800EB400140F21800D8
:10390000C2F20000415C8DF81B10079901EB4101E8
:10391000014449788DF81A10079901EB41010844D8
:1039200080788DF819002BE040F2A800C2F2000068
:103930008069E0B1FFE740F2A800C2F200008169AF
:10394000079A02EB4202895C8DF81B108169079A85
:1039500002EB4202114449788DF81A1080690799E8
:1039600001EB4101084480788DF8190007E0002040
:103970008DF819008DF81A008DF81B00FFE7FFE79E
:1039800000208DF81800FFE79DF81800072846DC96
:10399000FFE79DF81A109DF818E04FF0800C2CFA04
:1039A0000EF23C201142024618BF782240F2A801D4
:1039B000C2F200018B68079C04EB44040EEBC40EBA
:1039C00023F81E209DF81B209DF818E02CFA0EF31A
:1039D0001A42024618BF78228B68079C04EB440405
:1039E0000EEBC40E03EB4E031A829DF819309DF8BE
:1039F00018202CFA02FC13EA0C0F18BF78208968F3
:103A0000079B03EB430302EBC30201EB4201088473
:103A1000FFE79DF8180001308DF81800B4E7FFE7C4
:103A200007980130079055E740F2A800C2F2000065
:103A3000049080680390FFF763FE039A049900EBFB
:103A4000400003010020D05208684968FFF700F8E1
:103A50000498406848B9FFE740F2A800C2F20000AD
:103A6000006801680020486332E040F2A800C2F21A
:103A70000000406804280AD1FFE740F2A800C2F223
:103A80000000006801680020886302901EE040F298
:103A9000A800C2F20000406808280AD1FFE740F2FF
:103AA000A800C2F20000006801680020C86301900D
:103AB00009E040F2A800C2F200000068016800209E
:103AC00008640190FFE701980290FFE70298FFE782
:103AD00040F2A803C2F20003186859689A689B89EB
:103AE000FEF72CFEFFE708B010BD000081B08DF896
:103AF00003009DF9030000280ED4FFE79DF9031091
:103B000001F01F02012090404A094EF20011CEF24E
:103B1000000141F82200FFE701B070474EF60C505B
:103B2000CEF200000068C0F30220704782B08DF82A
:103B3000070000919DF9070000280AD4FFE70098CC
:103B400040019DF907104EF20042CEF20002885467
:103B50000BE0009840019DF8071001F00F014EF6B0
:103B60001452CEF200028854FFE702B07047000002
:103B700083B00290029800F0070000904EF60C51BE
:103B8000CEF200010868019001984FF6FF02104044
:103B900001900198009A40EA02200022C0F2FA52F5
:103BA000104301900198086003B0704780B582B05F
:103BB0000190019808B9FFE711E0019800780146EB
:103BC000009120B1FFE70098012804D007E0019898
:103BD00000F074FA03E0019800F046FAFFE702B043
:103BE00080BD000080B58AB00890ADF81E10069226
:103BF000089820B9FFE702208DF82700B3E0089865
:103C0000059000208DF81300BDF81E00A0F580700F
:103C100001460191092800F29D800199DFE801F039
:103C20000514202F3B536C808F96069820B9FFE730
:103C300002208DF8270096E0069800780599087311
:103C40000598FFF7B3FF89E0069820B9FFE7022047
:103C50008DF8270087E00598007B069908707DE0C5
:103C6000069820B9FFE702208DF827007BE0069830
:103C70000078059948730598FFF798FF6EE006985D
:103C800020B9FFE702208DF827006CE00598407B03
:103C90000699087062E0069820B9FFE702208DF8C7
:103CA000270060E00599069882884A820068C1F87A
:103CB0000E000598007B022804D1FFE70598FFF766
:103CC00075FFFFE74AE0069820B9FFE702208DF86C
:103CD000270048E0069800680390BDF80E0005999B
:103CE00008750398000A0599487503980599887521
:103CF0000598FFF75BFF31E0069820B9FFE7022047
:103D00008DF827002FE00599087D4A7D897D000404
:103D100040EA0220084402900298069908601DE0DB
:103D2000059903200873069828B1FFE706980078E4
:103D300005994873FFE70598FFF738FF0EE00599EE
:103D4000002008730598FFF731FF07E005208DF884
:103D5000130003E005208DF81300FFE79DF8130022
:103D60008DF82700FFE79DF827000AB080BD00000E
:103D700080B58AB00890089818B9FFE7002009902C
:103D800065E0202000F008FA0790079818B9FFE7CF
:103D9000002009905BE00799089B18685A689B68A7
:103DA0008B604A600860079800210173079AFF2022
:103DB0005073079B4FF4FA72DA81079B1A82079AB5
:103DC000518207990875079948750799887507986A
:103DD00000780146019120B1FFE7019801281AD02F
:103DE00029E0002000900690059004900390029036
:103DF0000799098902910121039104900590079880
:103E0000406802A9FDF77AF8009A0799486809897D
:103E1000FDF71CFA15E00798428940F26400C2F2EF
:103E200000000421FFF782FC079840F21C01C2F257
:103E30000001086005E0079800F086F9002009906D
:103E400005E00798FFF7B2FE07980990FFE7099889
:103E50000AB080BD80B58AB0089007910692089894
:103E600030B1FFE7079818B1FFE7069820B9FFE7E0
:103E70006FF00100099064E00898059005980078BB
:103E80000146019120B1FFE7019801281AD054E0C2
:103E90000698B0B1FFE7079800788DF813009DF8F9
:103EA000130020B1FFE705990120087303E005998D
:103EB00000200873FFE70598FFF778FE01200990BE
:103EC0003FE03AE0069803281CD3FFE707980390E9
:103ED0000398007805994875039840780599087506
:103EE00003988078059988750598007B20B9FFE7CD
:103EF000059901200873FFE70598FFF757FE032097
:103F000009901EE00698B0B1FFE7079800788DF899
:103F10000B009DF80B00059948730598007B20B9AC
:103F2000FFE7059901200873FFE70598FFF73EFEBC
:103F30000120099005E0FFE7FFE76FF0010009901D
:103F4000FFE709980AB080BD80B590B000200F90BF
:103F5000FDF7A6F9FEF76CFFFEF720FEFEF774FEF4
:103F600044F25420C0F60000FFF702FF0E900E98B6
:103F700018B9FFE7FCF72EF9FFE744F26020C0F61E
:103F80000000FFF7F5FE0D900D9818B9FFE7FCF75C
:103F900021F9FFE7FFE7012006908DF833000E9826
:103FA0004FF4807100910DF133020192FFF71AFE78
:103FB0004FF4FA700790FCF77FFF0099019A0020F8
:103FC00005908DF833000E98FFF70CFE0798FCF76C
:103FD00073FFFF2002908DF83200ADF830000D988D
:103FE0000CA90322FFF736FF4FF47A700490FCF718
:103FF00063FF4FF47F000B900D9840F20511039181
:104000000BAAFFF7EFFD0498FCF756FF03994FF456
:104010007F400A900D980AAAFFF7E4FD0498FCF788
:104020004BFF0298039909900D9809AAFFF7DAFD52
:104030000498FCF741FF069A8DF823200E980DF1A5
:104040002301FFF707FF0798FCF736FF0598069A4C
:104050008DF822000E980DF12201FFF7FBFE079864
:10406000FCF72AFF97E7000080B582B00190019825
:10407000007D8DF803000198407D8DF802000198C5
:10408000807D8DF801000198007B40B9FFE700209A
:104090008DF801008DF802008DF80300FFE79DF810
:1040A00003009DF802109DF80120FFF7D9FB01984D
:1040B00000F034F8002002B080BD000080B584B06C
:1040C000039000208DF80B000398007B01460191BE
:1040D00048B1FFE70198012809D0FFE701980238AD
:1040E00003280DD310E000208DF80B000CE003989E
:1040F000417B00200029C8BF01208DF80B0003E0A0
:1041000001208DF80B00FFE70399486809899DF8A5
:104110000B20FDF79BF8002004B080BD80B582B075
:104120000190FFF7C3FB02B080BD02E008C8121F78
:1041300008C1002AFAD170477047002001E001C190
:10414000121F002AFBD1704710B5002821D0114B57
:104150000022001F196803E0814203D80A4649681B
:104160000029F9D152B11368841A9C4204D1006825
:1041700018441060104602E0506000E0186039B149
:1041800002680B1A934203D10B681A440260496813
:10419000416010BD00000020F0B50B30154D20F03F
:1041A00007010024144A0FE003688B420BD38B42B3
:1041B00005D95E1A43184768C3E9006700E0436801
:1041C000136002C004E0021D10680028ECD12046F4
:1041D000002802D1286808B10020F0BD064A07482F
:1041E0001060074A121A22F00702C0E900240120D9
:1041F0002860D7E70400002000000020CC00002049
:10420000C804002002030405060708090A0B0C0D68
:104210000E0F101112131415161718191A1B1C1D46
:104220001E1F202122232425262728292A2B2C2D36
:104230002E2F303132333435363738393A3B3C3D26
:104240003E3F3F3F00000000000000000102030469
:1042500006070809000000000004004804000000F0
:104260000100000000000048020001009042000828
:1042700000000020180000002A410008A8420008A1
:1042800018000020B00800003A41000800000000BB
:10429000000000000000000000127A000100000091
:0842A00008000000000000000E
:0400000508000131BD
:00000001FF
