:020000040800F2
:1000000048400020450100088945000805330008E4
:1000100085450008F5010008C14C000800000000FB
:100020000000000000000000000000003946000849
:100030007502000800000000F9450008914600081C
:100040005F0100085F0100085F0100085F01000810
:100050005F0100085F0100087902000895030008AD
:10006000C1030008ED03000819040008F9010008A5
:100070000D0200085F0100085F0100085F01000831
:100080005F0100085F0100085F0100085F010008D0
:100090005F0100085F0100085F01000845040008D7
:1000A0005F0100085F0100085F0100085F010008B0
:1000B000314700085F0100085F010008193300089C
:1000C000093300083D330008293300085F010008A8
:1000D0005F0100085F010008AD4C00085F010008E7
:1000E000A10200085F0100085F0100085F0100082D
:1000F0005F0100085F0100085F0100085F01000860
:100100005F0100085F0100085F0100085F0100084F
:100110005F0100085F0100085F0100085F0100083F
:10012000210200085F0100085F0100085F0100086C
:10013000DFF80CD000F044F800480047314E0008CA
:10014000484000200648804706480047FEE7FEE793
:10015000FEE7FEE7FEE7FEE7FEE7FEE7FEE7FEE777
:10016000214700083101000840EA01039B0703D042
:1001700009E008C9121F08C0042AFAD203E011F8E6
:10018000013B00F8013B521EF9D27047D2B201E0A8
:1001900000F8012B491EFBD270470022F6E710B58C
:1001A00013460A4604461946FFF7F0FF204610BDE5
:1001B000421C10F8011B0029FBD1801A7047000077
:1001C0001CB509480090094801900546009C06E0CE
:1001D000E06840F0010394E8070098471034AC420F
:1001E000F6D3FFF7A9FF00009C620008BC6200087C
:1001F000FFE7FEE7FFE7FEE780B542F23C20C2F2F0
:100200000000D0F8700500F0E3FB80BD80B542F23D
:100210003C20C2F20000D0F8740500F0D9FB80BD8C
:100220007047000084B003900291019200930398FC
:10023000C16B026C012090404860009803990968E6
:10024000486003984068102809D1FFE70198039996
:1002500009688860029803990968C86008E00298F4
:10026000039909688860019803990968C860FFE7E5
:1002700004B070477047000080B540F21440C4F2EB
:1002800001000068C00750B1FFE7002004F094FDB2
:1002900040F21441C4F2010101200860FFE780BD73
:1002A00080B540F21440C4F2010000684005002807
:1002B0000BD5FFE70A2004F07FFD40F21441C4F2A1
:1002C00001014FF480600860FFE740F21440C4F27F
:1002D00001000068000500280BD5FFE70B2004F0A3
:1002E0006BFD40F21441C4F201014FF4006008605C
:1002F000FFE740F21440C4F201000068C004002887
:100300000BD5FFE70C2004F057FD40F21441C4F276
:1003100001014FF480500860FFE740F21440C4F23E
:1003200001000068800400280BD5FFE70D2004F0D1
:1003300043FD40F21441C4F201014FF40050086043
:10034000FFE740F21440C4F20100006840040028B6
:100350000BD5FFE70E2004F02FFD40F21441C4F24C
:1003600001014FF480400860FFE740F21440C4F2FE
:1003700001000068000400280BD5FFE70F2004F0FF
:100380001BFD40F21441C4F201014FF4004008602B
:10039000FFE780BD80B540F21440C4F20100006860
:1003A000800700280AD5FFE7012004F005FD40F290
:1003B0001441C4F2010102200860FFE780BD000083
:1003C00080B540F21440C4F20100006840070028E4
:1003D0000AD5FFE7022004F0EFFC40F21441C4F21A
:1003E000010104200860FFE780BD000080B540F2F5
:1003F0001440C4F201000068000700280AD5FFE796
:10040000032004F0D9FC40F21441C4F20101082099
:100410000860FFE780BD000080B540F21440C4F2E0
:1004200001000068C00600280AD5FFE7042004F098
:10043000C3FC40F21441C4F2010110200860FFE740
:1004400080BD000080B540F21440C4F20100006895
:10045000800600280AD5FFE7052004F0ADFC40F235
:100460001441C4F2010120200860FFE740F214406B
:10047000C4F201000068400600280AD5FFE7062004
:1004800004F09AFC40F21441C4F2010140200860DB
:10049000FFE740F21440C4F20100006800060028A3
:1004A0000AD5FFE7072004F087FC40F21441C4F2AC
:1004B000010180200860FFE740F21440C4F201000F
:1004C0000068C00500280BD5FFE7082004F074FC85
:1004D00040F21441C4F201014FF480700860FFE75C
:1004E00040F21440C4F201000068800500280BD5DA
:1004F000FFE7092004F060FC40F21441C4F201015E
:100500004FF400700860FFE780BD000080B596B032
:10051000159000208DF85300159890F821000228BE
:1005200007D0FFE715990420886301208DF8530058
:1005300074E115980168086820F00E0008601598AD
:100540000168086820F001000860159800688121A2
:10055000C4F202018842C0F0A880FFE71598006845
:100560000821C4F20201884203D1FFE70120139061
:1005700094E0159800681C21C4F20201884203D15E
:10058000FFE71020129086E0159800683021C4F231
:100590000201884204D1FFE74FF48070119077E0A8
:1005A000159800684421C4F20201884204D1FFE793
:1005B0004FF48050109068E0159800685821C4F2FC
:1005C0000201884204D1FFE74FF480300F9059E0D8
:1005D000159800686C21C4F20201884204D1FFE73B
:1005E0004FF480100E904AE0159800688021C4F204
:1005F0000201884204D1FFE74FF080700D903BE08C
:100600001598006840F20841C4F20201884203D103
:10061000FFE701200C902CE01598006840F21C4187
:10062000C4F20201884203D1FFE710200B901DE0C5
:100630001598006840F23041C4F20201884204D1AA
:10064000FFE74FF480700A900DE01598016840F2C2
:100650004442C4F202024FF48030914208BF4FF48A
:1006600080500A90FFE70A980B90FFE70B980C90D8
:10067000FFE70C980D90FFE70D980E90FFE70E989E
:100680000F90FFE70F981090FFE710981190FFE789
:1006900011981290FFE712981390FFE7139840F219
:1006A0000441C4F202010860A5E015980068082121
:1006B000C4F20201884203D1FFE70120099094E0CF
:1006C000159800681C21C4F20201884203D1FFE79B
:1006D0001020089086E0159800683021C4F20201CD
:1006E000884204D1FFE74FF48070079077E01598B7
:1006F00000684421C4F20201884204D1FFE74FF4AC
:100700008050069068E0159800685821C4F20201F4
:10071000884204D1FFE74FF48030059059E01598E6
:1007200000686C21C4F20201884204D1FFE74FF453
:10073000801004904AE0159800688021C4F20201FC
:10074000884204D1FFE74FF0807003903BE015989A
:10075000006840F20841C4F20201884203D1FFE779
:10076000012002902CE01598006840F21C41C4F270
:100770000201884203D1FFE7102001901DE0159887
:10078000006840F23041C4F20201884204D1FFE720
:100790004FF4807000900DE01598016840F24442DB
:1007A000C4F202024FF48030914208BF4FF48050EF
:1007B0000090FFE700980190FFE701980290FFE7A3
:1007C00002980390FFE703980490FFE704980590D0
:1007D000FFE705980690FFE706980790FFE7079860
:1007E0000890FFE708980990FFE709980421C4F2F0
:1007F00002010860FFE71599012081F82100FFE759
:100800001599002081F82000FFE71598406B20B172
:10081000FFE71598416B8847FFE7FFE79DF8530016
:1008200016B080BD84B0039002910398006840F236
:100830000741C4F20201884210D8FFE7039800681C
:100840004FF6F871CBF6FD7108444CF6CD41CCF66D
:10085000CC41A0FB01100009019011E00398006851
:100860004FF6F831CBF6FD7108444CF6CD41CCF68D
:10087000CC41A0FB0101072000EB11100190FFE724
:10088000FFE741F21800C4F20200016841F00101E3
:100890000160006800F0010000900098FFE70198F7
:1008A00020F003000822C4F201028058019901F0EF
:1008B00003034FEAC30C7F2303FA0CF39843029B14
:1008C00003FA0CF3184321F00301885004B0704779
:1008D00082B00090009820B9FFE701208DF8070052
:1008E0006AE000980168086820F00100086000983C
:1008F000016800200860009909684860009909684B
:10090000886000990968C8600098006840F2074153
:10091000C4F20201884218D8FFE7009908684FF630
:10092000F872CBF6FD7210444CF6CD42CCF6CC42B8
:10093000A0FB02026FF0030000EA92000864009935
:100940000020C4F20200C86318E0009908684FF65E
:10095000F832CBF6FD7210444CF6CD42CCF6CC42C8
:10096000A0FB02026FF0030000EA92000864009905
:1009700040F20040C4F20200C863FFE70098C16B78
:10098000026C012090404860009900208862009924
:10099000C8620099086300994863009988630099C8
:1009A00081F82100FFE70099002081F82000FFE78F
:1009B00000208DF80700FFE79DF8070002B07047A0
:1009C00081B00090009890F8210001B070470000BD
:1009D00080B5ACB02B902B98C06B00682A902B98F8
:1009E0000068006829902A982B99096CC840400734
:1009F000002840F17581FFE79DF8A400400700281A
:100A000040F16E81FFE72B9800680068800600289F
:100A100007D4FFE72B980168086820F004000860FD
:100A2000FFE72B9800688121C4F202018842C0F0E0
:100A3000A880FFE72B9800680821C4F202018842D1
:100A400003D1FFE70420289094E02B9800681C2134
:100A5000C4F20201884203D1FFE74020279086E0DC
:100A60002B9800683021C4F20201884204D1FFE7CC
:100A70004FF48060269077E02B9800684421C4F200
:100A80000201884204D1FFE74FF48040259068E0DE
:100A90002B9800685821C4F20201884204D1FFE774
:100AA0004FF48020249059E02B9800686C21C4F208
:100AB0000201884204D1FFE74FF4800023904AE00E
:100AC0002B9800688021C4F20201884204D1FFE71C
:100AD0004FF0806022903BE02B98006840F2084184
:100AE000C4F20201884203D1FFE7042021902CE0E8
:100AF0002B98006840F21C41C4F20201884203D1E5
:100B0000FFE7402020901DE02B98006840F2304124
:100B1000C4F20201884204D1FFE74FF480601F90C5
:100B20000DE02B98016840F24442C4F202024FF4F7
:100B30008020914208BF4FF480401F90FFE71F982C
:100B40002090FFE720982190FFE721982290FFE76F
:100B500022982390FFE723982490FFE7249825907C
:100B6000FFE725982690FFE726982790FFE727982C
:100B70002890FFE7289840F20441C4F2020108607F
:100B8000A5E02B9800680821C4F20201884203D135
:100B9000FFE704201E9094E02B9800681C21C4F20B
:100BA0000201884203D1FFE740201D9086E02B9888
:100BB00000683021C4F20201884204D1FFE74FF4FB
:100BC00080601C9077E02B9800684421C4F20201F9
:100BD000884204D1FFE74FF480401B9068E02B98D7
:100BE00000685821C4F20201884204D1FFE74FF4A3
:100BF00080201A9059E02B9800686C21C4F2020101
:100C0000884204D1FFE74FF4800019904AE02B9806
:100C100000688021C4F20201884204D1FFE74FF04E
:100C2000806018903BE02B98006840F20841C4F2C5
:100C30000201884203D1FFE7042017902CE02B9893
:100C4000006840F21C41C4F20201884203D1FFE770
:100C5000402016901DE02B98006840F23041C4F20D
:100C60000201884204D1FFE74FF4806015900DE047
:100C70002B98016840F24442C4F202024FF48020F3
:100C8000914208BF4FF480401590FFE715981690E9
:100C9000FFE716981790FFE717981890FFE7189846
:100CA0001990FFE719981A90FFE71A981B90FFE731
:100CB0001B981C90FFE71C981D90FFE71D981E9045
:100CC000FFE71E980421C4F202010860FFE72B9899
:100CD000C06A20B1FFE72B98C16A8847FFE7B7E1F8
:100CE0002A982B99096CC8408007002840F17F8121
:100CF000FFE79DF8A4008007002840F17881FFE716
:100D00002B9800680068800600280BD4FFE72B981A
:100D10000168086820F00A0008602B99012081F81A
:100D20002100FFE72B9800688121C4F2020188426C
:100D3000C0F0A880FFE72B9800680821C4F20201E8
:100D4000884203D1FFE70220149094E02B980068BA
:100D50001C21C4F20201884203D1FFE72020139036
:100D600086E02B9800683021C4F20201884204D149
:100D7000FFE74FF40070129077E02B980068442151
:100D8000C4F20201884204D1FFE74FF400501190F1
:100D900068E02B9800685821C4F20201884204D10F
:100DA000FFE74FF40030109059E02B9800686C2159
:100DB000C4F20201884204D1FFE74FF400100F9003
:100DC0004AE02B9800688021C4F20201884204D1D5
:100DD000FFE74FF000700E903BE02B98006840F268
:100DE0000841C4F20201884203D1FFE702200D90BE
:100DF0002CE02B98006840F21C41C4F202018842AA
:100E000003D1FFE720200C901DE02B98006840F2F2
:100E10003041C4F20201884204D1FFE74FF4007070
:100E20000B900DE02B98016840F24442C4F202029C
:100E30004FF40030914208BF4FF400500B90FFE791
:100E40000B980C90FFE70C980D90FFE70D980E9013
:100E5000FFE70E980F90FFE70F981090FFE71098AC
:100E60001190FFE711981290FFE712981390FFE797
:100E700013981490FFE7149840F20441C4F2020161
:100E80000860A5E02B9800680821C4F2020188429E
:100E900003D1FFE702200A9094E02B9800681C2100
:100EA000C4F20201884203D1FFE72020099086E0C6
:100EB0002B9800683021C4F20201884204D1FFE778
:100EC0004FF40070089077E02B9800684421C4F23A
:100ED0000201884204D1FFE74FF40050079068E018
:100EE0002B9800685821C4F20201884204D1FFE720
:100EF0004FF40030069059E02B9800686C21C4F242
:100F00000201884204D1FFE74FF4001005904AE047
:100F10002B9800688021C4F20201884204D1FFE7C7
:100F20004FF0007004903BE02B98006840F20841BD
:100F3000C4F20201884203D1FFE7022003902CE0B3
:100F40002B98006840F21C41C4F20201884203D190
:100F5000FFE7202002901DE02B98006840F230410E
:100F6000C4F20201884204D1FFE74FF400700190FF
:100F70000DE02B98016840F24442C4F202024FF4A3
:100F80000030914208BF4FF400500190FFE70198F4
:100F90000290FFE702980390FFE703980490FFE7B1
:100FA00004980590FFE705980690FFE706980790DC
:100FB000FFE707980890FFE708980990FFE709986E
:100FC0000A90FFE70A980421C4F202010860FFE7D3
:100FD000FFE72B99002081F82000FFE72B98806A1B
:100FE00020B1FFE72B98816A8847FFE72FE02A9816
:100FF0002B99096CC8400007002827D5FFE79DF80A
:10100000A4000007002821D5FFE72B980168086895
:1010100020F00E0008602B98C26B016C012000FAD2
:1010200001F151602B9988632B9981F82100FFE72A
:101030002B99002081F82000FFE72B98006B20B14E
:10104000FFE72B98016B8847FFE7FFE7FFE7FFE724
:101050002CB080BD83B0019000200090019820B991
:10106000FFE701208DF80B006AE00198006840F26C
:101070000741C4F20201884218D8FFE701990868C5
:101080004FF6F872CBF6FD7210444CF6CD42CCF61A
:10109000CC42A0FB02026FF0030000EA9200086459
:1010A00001990020C4F20200C86318E001990868A1
:1010B0004FF6F832CBF6FD7210444CF6CD42CCF62A
:1010C000CC42A0FB02026FF0030000EA9200086429
:1010D000019940F20040C4F20200C863FFE70199A1
:1010E000022081F8210001980068006800900098B3
:1010F00043F6F0718843009001994868D1F808C020
:10110000CB680A6940EA0C00184310434A6910434F
:101110008A691043C9690143009808430090009808
:10112000019909680860019900208863019A0121EA
:1011300082F82110019981F820008DF80B00FFE75B
:101140009DF80B0003B0704780B586B00490039102
:101150000292019300208DF80300FFE7049890F8B5
:101160002000012804D1FFE702208DF817004CE091
:101170000499012081F82000FFE7FFE7049890F828
:101180002100012832D1FFE70499022081F82100D3
:1011900004990020886304980168086820F0010021
:1011A000086004980399029A019BFFF73BF80498A2
:1011B000C06A38B1FFE704980168086840F00E0083
:1011C00008600CE004980168086820F004000860DA
:1011D00004980168086840F00A000860FFE7049876
:1011E0000168086840F00100086009E0FFE7049921
:1011F000002081F82000FFE702208DF80300FFE7C0
:101200009DF803008DF81700FFE79DF8170006B062
:1012100080BD000080B584B0039000F0C5F9029055
:10122000039801900198013048B1FFE740F20C00AB
:10123000C2F200000178019808440190FFE7FFE73F
:1012400000F0B2F90299401A0199884201D2FFE7F1
:10125000F6E704B080BD00008AB009900891002034
:101260000790FFE7089800680799C840002800F039
:101270009881FFE708980068079A0121914008408B
:1012800006900698002800F08881FFE708984068DB
:10129000022805D0FFE708984068122826D1FFE70A
:1012A000099807996FF0030202EA51010844006AA5
:1012B0000590079800F0070081000F2000FA01F167
:1012C00005988843059008980069079901F007017F
:1012D000890000FA01F105980843059005980999DD
:1012E000079B02EA530211440862FFE7099800686D
:1012F000059007984100032000FA01F10598884302
:1013000005900898406800F003000799490000FA2A
:1013100001F1059808430590059809990860089817
:10132000406801280FD0FFE70898406802280AD0DB
:10133000FFE708984068112805D0FFE70898406843
:1013400012282FD1FFE7099880680590079841007F
:10135000032000FA01F10598884305900898C068B9
:101360000799490000FA01F105980843059005988E
:10137000099988600998406805900799012000FA4A
:1013800001F105988843059008984068C0F3001063
:10139000079900FA01F10598084305900598099905
:1013A0004860FFE70998C06805900798410003204E
:1013B00000FA01F10598884305900898806807991C
:1013C000490000FA01F1059808430590059809992C
:1013D000C8600898C079C006002840F1DD80FFE7AA
:1013E000FFE741F21800C4F20200016841F0010178
:1013F0000160006800F0010004900498FFE707987E
:1014000020F003001421C4F2010140580590079810
:1014100000F0030081000F2000FA01F105988843D5
:1014200005900998B0F1904F03D1FFE70020039099
:1014300034E0099840F20041C4F60001884203D12B
:10144000FFE70120029026E0099840F60001C4F66B
:101450000001884203D1FFE70220019018E00998BB
:1014600040F60041C4F60001884203D1FFE70320A3
:1014700000900AE0099941F20002C4F60002072038
:10148000914208BF04200090FFE700980190FFE719
:1014900001980290FFE702980390FFE703980799ED
:1014A00001F00301890000FA01F105980843059055
:1014B0000598079921F003011422C4F20102885013
:1014C00040F20040C4F201000068059006990598BA
:1014D0008843059008988079C00728B1FFE70699EE
:1014E000059808430590FFE7059840F20041C4F2D3
:1014F0000101086040F20440C4F201000068059058
:1015000006990598884305900898807980070028F7
:1015100005D5FFE70699059808430590FFE705986C
:1015200040F20441C4F20101086040F20840C4F2F4
:101530000100006805900699059888430590089871
:101540008079C006002805D5FFE70699059808436D
:101550000590FFE7059840F20841C4F201010860D8
:1015600040F20C40C4F2010000680590069905980D
:1015700088430590089880798006002805D5FFE704
:101580000699059808430590FFE7059840F20C413D
:10159000C4F201010860FFE7FFE7079801300790F8
:1015A00060E60AB07047000043F64040C2F2000017
:1015B0000068704781B0009001B0704782B0019020
:1015C0008DF80310ADF8002002B0704780B588B0E8
:1015D0000790079800684069029007980068406883
:1015E0000190002000909DF80900C007A8B1FFE716
:1015F0009DF80500C00780B1FFE7009840F00100AA
:101600000090079801686FF480704861079801683E
:10161000086840F400400860FFE79DF8090000F00A
:1016200002010020B0EB510F0FD0FFE79DF805003D
:10163000C00750B1FFE7009840F002000090079803
:1016400001686FF400704861FFE79DF8090000F041
:1016500004010020B0EB910F4DD0FFE79DF805008D
:10166000C007002847D0FFE7079890F83E008DF8A4
:101670001B000798408D0590079890F83D008DF865
:1016800013000798006B03909DF81B0020281AD1C7
:10169000FFE70598B8B9FFE79DF8130021280ED0A1
:1016A000FFE79DF81300292809D0FFE79DF81300F4
:1016B000282808D1FFE70398212804D1FFE70798DD
:1016C00002F0CAFD16E0079801686FF48060486177
:1016D000009840F004000090079890F83E00102811
:1016E00007D1FFE707980168086840F400700860B8
:1016F000FFE7FFE7FFE79DF8090000F00801002081
:10170000B0EBD10F0FD0FFE79DF80500C00750B137
:10171000FFE7009840F008000090079801686FF418
:1017200000604861FFE7009848B1FFE7009A079919
:10173000086C10430864079801F088FEFFE708B0C2
:1017400080BD000080B588B0079000200590079804
:101750000068406804900798C06A0390079890F862
:101760003E008DF80B00079890F83D008DF80A00B8
:101770009DF80B00102806D0FFE79DF80B004028CD
:1017800040F0F080FFE707980068806905900798AF
:101790000068406906900698C007A0B9FFE7039962
:1017A0000120B1F52A0F019008D0FFE7039800F15E
:1017B000AC40B0FA80F040090190FFE70198C00703
:1017C00008B1FFE791E10698C00780B1FFE79DF8F7
:1017D000110000F002010020B0EB510F07D0FFE72D
:1017E000079801F0B5FD079802F0C8FBB9E09DF835
:1017F000180000F008010020B0EBD10F0DD0FFE77A
:101800009DF8110000F002010020B0EB510F04D050
:10181000FFE7079802F0E2F9A2E09DF8180000F057
:1018200002010020B0EB510F0DD0FFE79DF8110031
:1018300000F002010020B0EB510F04D0FFE7079841
:1018400002F0F0F98BE09DF8140000F00401002094
:10185000B0EB910F40D0FFE707980068406800F4B4
:101860000060B0F5006F36D0FFE79DF8181000203B
:10187000B0EBD11F16D0FFE79DF8110000F0040176
:101880000020B0EB910F0DD0FFE79DF8180000F09D
:1018900004010020B0EB910F04D1FFE7079802F09C
:1018A000A1F817E09DF8180000F004010020B0EB4B
:1018B000910F0DD0FFE79DF8110000F0020100200C
:1018C000B0EB510F04D0FFE7079802F01DF800E0DD
:1018D000FFE7FFE7FFE741E007980068406800F492
:1018E0000060B0F5006F38D0FFE79DF8180000F0F9
:1018F00040010020B0EB911F16D0FFE79DF81100CA
:1019000000F004010020B0EB910F0DD0FFE79DF82F
:10191000180000F004010020B0EB910F04D1FFE7A4
:10192000079801F07BFF17E09DF8180000F0040114
:101930000020B0EB910F0DD0FFE79DF8110000F0F3
:1019400002010020B0EB510F04D0FFE7079801F02F
:1019500095FE00E0FFE7FFE7FFE7FFE7FFE7FFE7B0
:10196000FFE7C2E00798006C28B1FFE7079800681E
:101970004069069008E0079800688069059007981C
:10198000006840690690FFE79DF8180000F002012A
:101990000020B0EB510F17D0FFE79DF8110000F0C9
:1019A00002010020B0EB510F0ED0FFE70798006C4A
:1019B00028B1FFE70798006880690590FFE707985E
:1019C000059902F0F1FB8FE09DF8180000F010017E
:1019D0000020B0EB111F0DD0FFE79DF8110000F0C3
:1019E00002010020B0EB510F04D0FFE7079802F08E
:1019F000A3FC78E09DF80A00212805D0FFE79DF8B8
:101A00000A00292836D1FFE79DF818100020B0EB16
:101A1000D11F16D0FFE79DF8110000F0040100204F
:101A2000B0EB910F0DD0FFE79DF8180000F0040116
:101A30000020B0EB910F04D1FFE7079802F07EFB86
:101A400017E09DF8180000F004010020B0EB910FA2
:101A50000DD0FFE79DF8110000F002010020B0EB6F
:101A6000510F04D0FFE7079802F052FB00E0FFE7B8
:101A7000FFE737E09DF8180000F040010020B0EBD0
:101A8000911F16D0FFE79DF8110000F0040100201F
:101A9000B0EB910F0DD0FFE79DF8180000F00401A6
:101AA0000020B0EB910F04D1FFE7079802F0F8FA9D
:101AB00017E09DF8180000F004010020B0EB910F32
:101AC0000DD0FFE79DF8110000F002010020B0EBFF
:101AD000510F04D0FFE7079802F0CAFA00E0FFE7D1
:101AE000FFE7FFE7FFE7FFE7FFE708B080BD000083
:101AF00081B0009001B0704781B0009001B0704794
:101B000081B0009001B0704781B0009001B0704783
:101B100081B0009001B0704781B0009001B0704773
:101B200081B0009001B0704781B0009001B0704763
:101B300040F20C00C2F20000027843F64041C2F2CB
:101B400000010868104408607047000080B5042058
:101B500000F0A4F80F2000F005F800F03BF800209A
:101B600080BD000080B582B0009040F20000C2F25B
:101B70000000006840F20C01C2F200010A784FF444
:101B80007A71B1FBF2F1B0FBF1F000F047FE20B149
:101B9000FFE701208DF8070018E0009807280DD80E
:101BA000FFE700994FF0FF30002200F05DF8009849
:101BB00040F21001C2F20001086003E001208DF83C
:101BC000070003E000208DF80700FFE79DF80700FD
:101BD00002B080BD84B0FFE741F21800C4F20200F9
:101BE000016841F001010160006800F0010003900C
:101BF0000398FFE7FFE741F21C00C4F2020001680E
:101C000041F080510160006800F08050029002981D
:101C1000FFE7FFE741F23400C4F20200016841F03F
:101C200004010160006800F0040001900198FFE7E2
:101C3000FFE741F23400C4F20200016841F00801FC
:101C40000160006800F0080000900098FFE704B011
:101C50007047000080B582B08DF807009DF907003D
:101C600003F030F802B080BD80B586B08DF8170063
:101C7000049103920020029003F03CF802909DF939
:101C80001700019002980499039A02F07FFC014624
:101C9000019803F037F806B080BD000080B582B02F
:101CA0000190019803F050F802B080BD80B584B077
:101CB00002900191029820B9FFE701208DF80F00F2
:101CC00021E1019842F20001C4F20201096801F029
:101CD0000F01884216D9FFE742F20000C4F2020069
:101CE000016821F00F01019A11430160006800F0C2
:101CF0000F000199884204D0FFE701208DF80F0002
:101D000001E1FFE702980078800700282AD5FFE765
:101D1000029800784007002809D5FFE741F2040146
:101D2000C4F20201086840F4E0600860FFE702982E
:101D300000780007002809D5FFE741F20401C4F24A
:101D40000201086840F460500860FFE741F20401B6
:101D5000C4F20201086820F0F000029A9268104371
:101D60000860FFE702980078C007002866D0FFE708
:101D700002984068012811D1FFE741F20000C4F247
:101D80000200006800F400310020B0EB514F04D194
:101D9000FFE701208DF80F00B5E024E002984068CD
:101DA00002280ED1FFE741F20000C4F202000068F1
:101DB000C001002804D4FFE701208DF80F00A2E045
:101DC00010E041F20000C4F20200006800F00201DD
:101DD0000020B0EB510F04D1FFE701208DF80F0078
:101DE00091E0FFE7FFE741F20401C4F20201086855
:101DF00020F00300029A526810430860FFF7D4FBFA
:101E00000090FFE741F20400C4F20200006800F015
:101E10000C0002994968B0EB810F0ED0FFE7FFF785
:101E2000C3FB0099401A41F28931884204D3FFE78D
:101E300003208DF80F0066E0E4E7FFE7019842F227
:101E40000001C4F20201096801F00F01884216D2B4
:101E5000FFE742F20000C4F20200016821F00F0126
:101E6000019A11430160006800F00F000199884257
:101E700004D0FFE701208DF80F0044E0FFE702984F
:101E80000078400700280CD5FFE741F20401C4F2B6
:101E90000201086820F4E060029AD26810430860EA
:101EA000FFE702980078000700280DD5FFE741F210
:101EB0000401C4F20201086820F46050029A126919
:101EC00040EAC2000860FFE700F04CF841F204016C
:101ED000C4F202010968C9B20A0946F29C11C0F6AF
:101EE0000001895CC84040F20001C2F200010860B4
:101EF00040F21000C2F200000068FFF733FE00203D
:101F00008DF80F00FFE79DF80F0004B080BD0000C2
:101F100040F20000C2F200000068704780B5FFF791
:101F2000F7FF41F20401C4F202010968C1F3022281
:101F300046F2AC11C0F60001895CC84080BD0000CB
:101F400080B5FFF7E5FF41F20401C4F20201096820
:101F5000C1F3C22246F2AC11C0F60001895CC84050
:101F600080BD000080B598B046F25C11C0F600015B
:101F700008A84022FEF7F8F840F20120ADF81E0054
:101F800000200690059004900390029041F2040016
:101F9000C4F2020000680690069800F00C000146AA
:101FA000019100284AD0FFE70198042804D0FFE7F8
:101FB0000198082806D042E042F20040C0F2F40046
:101FC000029042E0069901F0C04001F47011400E09
:101FD00040EA914108A8405C0390069800F4403024
:101FE000B0F5803F07D0FFE7069800F44030B0F529
:101FF000403F18D1FFE741F20400C4F2020000683C
:1020000000F400310DF11E0040EA514000780590C7
:10201000039842F20041C0F2F40148430599B0FB35
:10202000F1F0049007E0039841F20021C0F27A0138
:1020300048430490FFE70498029006E0FFE741F26E
:102040000020C0F27A000290FFE7029818B080BD2D
:1020500080B586B00490049820B9FFE701208DF880
:102060001700D4E304980078C007002800F0D68059
:10207000FFE741F20400C4F20200006800F00C0027
:10208000042820D0FFE741F20400C4F202000068F7
:1020900000F00C0008282BD1FFE741F20400C4F245
:1020A0000200006800F48030B0F5803F0BD0FFE7FD
:1020B00041F20400C4F20200006800F48030B0F580
:1020C000403F15D1FFE741F20000C4F20200006872
:1020D00000F400310020B0EB514F08D0FFE7049826
:1020E000406820B9FFE701208DF817008FE394E0E6
:1020F00004984068B0F5803F0CD1FFE741F2380109
:10210000C4F20201086820F44070049A92681043F7
:102110000860FFE7FFE704984068B0F5803F09D109
:10212000FFE741F20001C4F20201086840F4803088
:10213000086032E00498406868B9FFE741F20001A6
:10214000C4F20201086820F480300860086820F4B6
:102150008020086020E004984068B0F5A02F0DD1E1
:10216000FFE741F20001C4F20201086840F4802058
:102170000860086840F4803008600CE041F200011B
:10218000C4F20201086820F480300860086820F476
:1021900080200860FFE7FFE7FFE7FFE7049840685B
:1021A000E8B1FFE7FFF700FA0390FFE741F2000014
:1021B000C4F20200006800F400310020B0EB514F7F
:1021C0000CD1FFE7FFF7F0F90399401A652804D313
:1021D000FFE703208DF8170019E3E7E71CE0FFF79E
:1021E000E3F90390FFE741F20000C4F20200006847
:1021F00000F400310020B0EB514F0CD0FFE7FFF7A7
:10220000D3F90399401A652804D3FFE703208DF81A
:102210001700FCE2E7E7FFE7FFE7FFE70498007835
:102220008007002840F19080FFE741F20400C4F2EB
:102230000200006810F00C0F20D0FFE741F204000C
:10224000C4F20200006800F00C0008282CD1FFE75F
:1022500041F20400C4F20200006800F48030B0F5DE
:10226000803F21D0FFE741F20400C4F20200006881
:1022700000F48030B0F5403F16D0FFE741F2000097
:10228000C4F20200006800F002010020B0EB510F20
:1022900009D0FFE704984069012804D0FFE7012036
:1022A0008DF81700B3E24EE00498406928B3FFE7C9
:1022B00041F20001C4F20201086840F00100086028
:1022C000FFF772F90390FFE741F20000C4F2020049
:1022D000006800F002010020B0EB510F0CD1FFE7C5
:1022E000FFF762F90399401A032804D3FFE703209C
:1022F0008DF817008BE2E7E724E041F20001C4F219
:102300000201086820F001000860FFF74DF9039012
:10231000FFE741F20000C4F20200006800F0020191
:102320000020B0EB510F0CD0FFE7FFF73DF9039908
:10233000401A032804D3FFE703208DF8170066E254
:10234000E7E7FFE7FFE7FFE704980078C00600280B
:102350004FD5FFE70498806928B3FFE741F22801D1
:10236000C4F20201086840F010000860FFF71CF991
:102370000390FFE741F22800C4F20200006800F079
:1023800020010020B0EB511F0CD1FFE7FFF70CF943
:102390000399401A032804D3FFE703208DF81700A0
:1023A00035E2E7E724E041F22801C4F202010868BF
:1023B00020F010000860FFF7F7F80390FFE741F204
:1023C0002800C4F20200006800F020010020B0EBF9
:1023D000511F0CD0FFE7FFF7E7F80399401A0328D5
:1023E00004D3FFE703208DF8170010E2E7E7FFE7CB
:1023F000FFE7049800780007002852D5FFE704980B
:10240000C06940B3FFE741F22401C4F20201086849
:1024100040F001000860FFF7C7F80390FFE741F2C2
:102420002400C4F20200006800F002010020B0EBBA
:10243000510F0CD1FFE7FFF7B7F80399401A0328B3
:1024400004D3FFE703208DF81700E0E1E7E7012060
:1024500002F0D4F824E041F22401C4F20201086839
:1024600020F001000860FFF79FF80390FFE741F2BA
:102470002400C4F20200006800F002010020B0EB6A
:10248000510F0CD0FFE7FFF78FF80399401A03288C
:1024900004D3FFE703208DF81700B8E1E7E7FFE773
:1024A000FFE7049800784007002840F1EF80FFE73D
:1024B00000208DF8070041F21C00C4F20200006801
:1024C000C000002813D4FFE7FFE741F21C00C4F26C
:1024D0000200016841F080510160006800F0805006
:1024E00000900098FFE701208DF80700FFE747F212
:1024F0000000C4F200000068C005002822D4FFE7F5
:1025000047F20001C4F20001086840F480700860DE
:10251000FFF74AF80390FFE747F20000C4F200001B
:102520000068C00500280CD4FFE7FFF73DF80399C9
:10253000401A652804D3FFE703208DF8170066E1F1
:10254000EAE7FFE70498C06801280CD1FFE741F2F1
:102550002001C4F20201086820F01800049A1269F0
:1025600010430860FFE7FFE70498C068012809D11D
:10257000FFE741F22001C4F20201086840F00100C7
:10258000086031E00498C06868B9FFE741F22001B3
:10259000C4F20201086820F001000860086820F019
:1025A000040008601FE00498C06805280DD1FFE70B
:1025B00041F22001C4F20201086840F00400086002
:1025C000086840F0010008600CE041F22001C4F20C
:1025D0000201086820F001000860086820F004008B
:1025E0000860FFE7FFE7FFE7FFE70498C068F8B17E
:1025F000FFE7FEF7D9FF0390FFE741F22000C4F2A6
:102600000200006800F002010020B0EB510F0ED173
:10261000FFE7FEF7C9FF0399401A41F2893188426A
:1026200004D3FFE703208DF81700F0E0E5E71EE094
:10263000FEF7BAFF0390FFE741F22000C4F2020068
:10264000006800F002010020B0EB510F0ED0FFE750
:10265000FEF7AAFF0399401A41F28931884204D358
:10266000FFE703208DF81700D1E0E5E7FFE79DF8CD
:102670000700012809D1FFE741F21C01C4F2020161
:10268000086820F080500860FFE7FFE70498006AC0
:10269000002800F0B880FFE741F20400C4F2020015
:1026A000006800F00C00082800F08580FFE704981F
:1026B000006A022859D1FFE741F20001C4F2020189
:1026C000086820F080700860FEF76EFF0390FFE757
:1026D00041F20000C4F20200006800F00071002026
:1026E000B0EB516F0CD0FFE7FEF75EFF0399401A85
:1026F000032804D3FFE703208DF8170087E0E7E7FE
:1027000041F20401C4F2020108684FF6FF72C9F6F3
:10271000C0721040049B5A6A9B6A1A4310430860B7
:1027200041F20001C4F20201086840F080700860C4
:10273000FEF73AFF0390FFE741F20000C4F2020007
:10274000006800F000710020B0EB516F0CD1FFE782
:10275000FEF72AFF0399401A032804D3FFE703205A
:102760008DF8170053E0E7E724E041F20001C4F2DE
:102770000201086820F080700860FEF715FF0390E2
:10278000FFE741F20000C4F20200006800F00071AF
:102790000020B0EB516F0CD0FFE7FEF705FF039967
:1027A000401A032804D3FFE703208DF817002EE01A
:1027B000E7E7FFE726E00498006A012804D1FFE775
:1027C00001208DF8170022E041F20400C4F202005B
:1027D00000680290029800F480300499496A8842A7
:1027E0000AD1FFE702980021C6F23C010840049993
:1027F000896A884204D0FFE701208DF8170006E0BF
:10280000FFE7FFE7FFE700208DF81700FFE79DF8DF
:10281000170006B080BD00007047000080B582B090
:102820000190019801F00AFF02B080BD80B5FFF76A
:10283000F3FF80BD80B582B00090009820B9FFE71B
:1028400001208DF807001FE00099242081F8450041
:1028500000980168C86820F40050C860009800F033
:10286000D5F9009900208864009981F84500009905
:1028700081F84600FFE70099002081F84400FFE757
:1028800000208DF80700FFE79DF8070002B080BD2B
:1028900080B584B0039000200290FFE702980428DE
:1028A0003BDCFFE7029842F23C22C2F2000240F217
:1028B000345100FB01200399884229D1FFE7029897
:1028C00042F23C22C2F2000240F2345100FB0120ED
:1028D00001900199D1F884000130C1F88400019978
:1028E000002081F87800019981F87900019981F838
:1028F0001703019981F818030198806E38B1FFE73A
:1029000001999DF808008A6EC96E9047FFE704E0C0
:10291000FFE7029801300290C0E704B080BD0000DC
:1029200080B588B0079007980068006806900798FF
:102930000068C0680590079800684069049000200E
:1029400003900290069800F00F000390039888B956
:10295000FFE79DF81800800600280AD5FFE79DF8DC
:1029600014008006002804D5FFE7079801F0BEFF99
:10297000EFE0FFE70398002800F0AE80FFE79DF846
:102980001000C00738B9FFE7BDF8140010F4907FBD
:1029900000F0A280FFE79DF81800C00758B1FFE7DC
:1029A0009DF81500C00730B1FFE70799886C40F02B
:1029B00001008864FFE79DF81800400700280BD548
:1029C000FFE79DF81000C00730B1FFE70799886C5A
:1029D00040F002008864FFE79DF818008007002897
:1029E0000BD5FFE79DF81000C00730B1FFE707994E
:1029F000886C40F004008864FFE79DF81800000729
:102A000000280BD5FFE79DF81000C00730B1FFE7A5
:102A10000799886C40F008008864FFE70798806C8D
:102A2000002858D0FFE79DF81800800600280AD536
:102A3000FFE79DF814008006002804D5FFE70798FB
:102A400001F054FFFFE7079800684069C0F3801069
:102A500002900798806C0007002803D4FFE70298D3
:102A600088B3FFE7079801F00BFF079800684069FB
:102A70004006002822D5FFE707980168486920F042
:102A8000400048610798006C98B1FFE70798016C17
:102A900044F28570C0F6000048630798006CFDF7AB
:102AA00035FD28B1FFE70798006C416B8847FFE7C9
:102AB00003E00798FFF7ECFEFFE703E00798FFF756
:102AC000E7FEFFE706E00798FFF7E2FE0799002020
:102AD0008864FFE7FFE73CE09DF81800C006002887
:102AE00017D5FFE79DF81400C006002811D5FFE7B1
:102AF000FFE70020019007980068006801900798A0
:102B00000068406801900198FFE7079800F024F8FA
:102B1000FFE79DF81800000600280AD5FFE79DF89A
:102B200014000006002804D5FFE7079802F022F8F9
:102B30000FE09DF81800400600280AD5FFE79DF831
:102B400014004006002804D5FFE7079801F0ACFE0A
:102B5000FFE708B080BD000081B0009001B0704771
:102B600080B582B00090009820B9FFE701208DF871
:102B7000070046E00098806908B1FFE700E0FFE742
:102B8000009890F8450040B9FFE70099002081F8CF
:102B90004400009800F03EF8FFE70099242081F8F7
:102BA000450000980168C86820F40050C86000988B
:102BB00001F0F8FE0098006A20B1FFE7009801F0EC
:102BC000B9FDFFE700980168086920F490400861AA
:102BD00000980168486920F02A004861009801685F
:102BE000C86840F40050C860009900208864009ACA
:102BF000202182F84510009A82F846108DF80700CF
:102C0000FFE79DF8070002B080BD000081B0009092
:102C100001B0704780B58CB00B9000200A900990ED
:102C20000890079006900B98006844F20041C4F2A7
:102C30000001884237D1FFE7FFE741F23400C4F2D8
:102C40000200016841F004010160006800F0040026
:102C500005900598FFE7FFE741F21C00C4F202006F
:102C6000016841F400310160006800F40030049014
:102C70000498FFE7042006900220019007900121AC
:102C8000089109900A904FF09040029006A9039194
:102C9000FEF7E2FA019A02980399082306930A9232
:102CA000FEF7DAFAFFE70CB080BD000080B58AB00D
:102CB00008900791ADF81A2005930020029008981B
:102CC00090F84600202840F09580FFE7079820B153
:102CD000FFE7BDF81A0020B9FFE701208DF82700B3
:102CE0008CE008988068B0F5805F0ED1FFE7089807
:102CF000006950B9FFE79DF81C00C00720B1FFE74D
:102D000001208DF8270079E0FFE7FFE7089890F8A9
:102D10004400012804D1FFE702208DF827006DE070
:102D20000899012081F84400FFE7FFE70899002097
:102D300088640899222081F84600FEF735FC02904D
:102D4000BDF81A0008990887BDF81A000899488745
:102D500008988068B0F5805F09D1FFE7089800699E
:102D600028B9FFE7002004900798039004E0079833
:102D7000049000200390FFE7FFE70898408F58B3C6
:102D8000FFE70898029B05996A46116020210022FE
:102D900001F03EFF20B1FFE703208DF827002DE072
:102DA000049858B9FFE70898006840686FF35F20FF
:102DB0000399088003980230039008E0089800689F
:102DC000406804990870049801300490FFE708995E
:102DD000488F01384887D0E70899202081F84600BD
:102DE000FFE70899002081F84400FFE700208DF8F4
:102DF000270003E002208DF82700FFE79DF8270059
:102E00000AB080BD84B002900191ADF80220029812
:102E100090F8460020284AD1FFE7019820B1FFE74B
:102E2000BDF8020020B9FFE701208DF80F0042E055
:102E3000FFE7029890F84400012804D1FFE7022040
:102E40008DF80F0037E00299012081F84400FFE778
:102E5000FFE7019802994863BDF8020002990887CC
:102E6000BDF80200029948870299002088640299FF
:102E7000222081F84600FFE70299002081F84400F3
:102E8000FFE702980168C86840F48070C860029843
:102E90000168486940F00100486102980168C8680B
:102EA00040F02000C86000208DF80F0003E00220F1
:102EB0008DF80F00FFE79DF80F0004B07047000089
:102EC00080B584B0039000200290FFE702980428A8
:102ED00033DCFFE7029842F23C22C2F2000240F2E9
:102EE000345100FB01200399884221D1FFE7029869
:102EF00042F23C22C2F2000240F2345100FB0120B7
:102F000001900199002081F87900019981F8180356
:102F10009DF8080002F00AFD0198806D38B1FFE7C6
:102F200001999DF808008A6DC96D9047FFE704E09C
:102F3000FFE7029801300290C8E704B080BD0000AE
:102F400080B58AB008900791ADF81A20059300204B
:102F50000290089890F84500202840F0A480FFE7F0
:102F6000079820B1FFE7BDF81A0020B9FFE701205C
:102F70008DF827009BE008988068B0F5805F0ED13F
:102F8000FFE70898006950B9FFE79DF81C00C007EB
:102F900020B1FFE701208DF8270088E0FFE7FFE779
:102FA000089890F84400012804D1FFE702208DF82A
:102FB00027007CE00899012081F84400FFE7FFE743
:102FC0000899002088640899212081F84500FEF7BF
:102FD000EBFA0290BDF81A0008990886BDF81A00AD
:102FE0000899488608988068B0F5805F09D1FFE7A6
:102FF0000898006928B9FFE700200490079803901B
:1030000004E00798049000200390FFE7FFE708988A
:10301000408E58B3FFE70898029B05996A461160F5
:103020008021002201F0F4FD20B1FFE703208DF89C
:1030300027003CE0049858B9FFE7039800886FF335
:103040005F2008990968486003980230039008E0FF
:103050000498007808990968486004980130049041
:10306000FFE70899488E01384886D0E70898029B08
:1030700005996A4611604021002201F0C9FD20B186
:10308000FFE703208DF8270011E00899202081F840
:103090004500FFE70899002081F84400FFE7002081
:1030A0008DF8270003E002208DF82700FFE79DF848
:1030B00027000AB080BD000080B586B0049003915F
:1030C000ADF80A20049890F84500202867D1FFE762
:1030D000039820B1FFE7BDF80A0020B9FFE70120FF
:1030E0008DF817005FE0FFE7049890F8440001288E
:1030F00004D1FFE702208DF8170054E00499012065
:1031000081F84400FFE7FFE703980499C862BDF81F
:103110000A0004990886BDF80A00049948860499B3
:1031200000208864049A212182F845100499CA6B12
:1031300044F62101C0F6000191620499CA6B44F67D
:103140006901C0F60001D1620499CA6B44F2A5710D
:10315000C0F6000111630499C96B486303A801908C
:1031600004980268C06B019909680432BDF80A30FE
:10317000FDF7EAFF049801686FF040000860FFE780
:103180000499002081F84400FFE704980168486929
:1031900040F08000486100208DF8170003E0022015
:1031A0008DF81700FFE79DF8170006B080BD0000FE
:1031B00084B002900191ADF80220029890F8450089
:1031C00020283ED1FFE7019820B1FFE7BDF80200BB
:1031D00020B9FFE701208DF80F0036E0FFE70298E5
:1031E00090F84400012804D1FFE702208DF80F0079
:1031F0002BE00299012081F84400FFE7FFE70198E6
:103200000299C862BDF8020002990886BDF8020062
:10321000029948860299002088640299212081F849
:103220004500FFE70299002081F84400FFE702987B
:103230000168C86840F08000C86000208DF80F0069
:1032400003E002208DF80F00FFE79DF80F0004B0A7
:103250007047000080B584B0039000200290FFE723
:103260000298042847DCFFE7029842F23C22C2F2AF
:10327000000240F2345100FB01200399884235D10D
:10328000FFE7029842F23C22C2F2000240F23451BF
:1032900000FB012001900199002081F8780001993C
:1032A00081F817030398008EADF80200019800F52D
:1032B0004A70BDF8021002F0B9F9019800F54A70A1
:1032C00002F03AF8012805DBFFE79DF8080002F05C
:1032D00071FEFFE70198006D38B1FFE701999DF895
:1032E00008000A6D496D9047FFE704E0FFE7029888
:1032F00001300290B4E704B080BD000081B00090BE
:1033000001B07047FFE7FEE780B542F22C10C2F231
:103310000000FEF75BF980BD80B542F22C10C2F2CE
:103320000000FEF70FFA80BD80B542F22C10C2F209
:1033300000008030FEF74AF980BD000080B542F2FF
:103340002C10C2F200008030FEF7FCF980BD0000B6
:1033500081B000900098C06AB0F52A0F04D1FFE751
:1033600000990120C8620BE00098C06AB0F12A4FB2
:1033700004D1FFE700990820C86200E0FFE7FFE7FB
:1033800001B0704780B584B003900398406A029002
:10339000029890F83D008DF807000298416B0020DC
:1033A00088620299896B886202990A68116821F41F
:1033B00080611160029948850299496B48630299BE
:1033C000896B486302980168086820F00100086072
:1033D000029890F83D0060280ED1FFE70299202066
:1033E00081F83D000299002081F83E0002990864AE
:1033F0000298FEF7DFF827E09DF8070000F02800AC
:10340000282814D1FFE702980168086840F00100FD
:10341000086002980168086840F4806008600299BA
:10342000002008630299282081F83D0008E00299F5
:10343000202081F83D000299002081F83E00FFE73E
:103440000298FEF755FBFFE704B080BD80B582B05F
:103450000190019890F83D008DF80300019890F8D4
:103460003E0010280CD1FFE79DF80300222807D169
:10347000FFE701980168086820F400600860FFE732
:103480009DF8030000F02800282808D1FFE70199E3
:10349000002008630199282081F83D0019E0019877
:1034A0000068406800F40060B0F5006F0AD0FFE7E4
:1034B0009DF80300602805D0FFE70199202081F8DE
:1034C0003D00FFE7019900200863019981F83E0063
:1034D000FFE7019800684068000500285DD5FFE718
:1034E00001980168486820F4006048600198406BCA
:1034F00090F8210001281DD0FFE70198416B43F2AD
:103500008530C0F6000048630198406BFCF7FEFF71
:1035100078B1FFE701980168086820F001000860B1
:103520000199202081F83D000198406B416B88474C
:10353000FFE731E00198816B43F28530C0F600006F
:1035400048630198806BFCF7E1FF20B3FFE7019827
:103550000068406900F040010120B0EB911F0BD1E1
:10356000FFE70198006800690199496A08700199AC
:10357000486A01304862FFE701980168086820F056
:10358000010008600199202081F83D000198806BBE
:10359000416B8847FFE7FFE745E0019890F83D0061
:1035A000602826D1FFE70199202081F83D0001998C
:1035B0000020086401980068406900F04001012083
:1035C000B0EB911F0BD1FFE70198006800690199EA
:1035D000496A08700199486A01304862FFE701981A
:1035E0000168086820F0010008600198FDF7E2FF1B
:1035F00018E001980068406900F040010120B0EB3C
:10360000911F0BD1FFE70198006800690199496A91
:1036100008700199486A01304862FFE70198FEF797
:1036200067FAFFE7FFE7019890F83D008DF8030087
:103630000198006C400700281ED5FFE79DF80300A5
:10364000282819D1FFE701980168486820F4E06054
:10365000486001990020CFF6FF70C86201990020F0
:103660000863019A202182F83D10019981F83E00FB
:103670000198FEF741FAFFE702B080BD80B582B045
:1036800001900198C06A00900198408D042815D1DE
:10369000FFE701980168486820F48060486001985D
:1036A000006800690199496A08700199486A013007
:1036B00048620199488D01384885ACE00198408DF9
:1036C000032824D1FFE701980168486820F480604E
:1036D0004860009804280BD0FFE70098022807D024
:1036E000FFE701980168086820F480600860FFE740
:1036F0000198006800690199496A08700199486A4F
:10370000013048620199488D0138488582E001986E
:10371000408D02286ED1FFE70098012804D0FFE712
:103720000098102807D1FFE701980168086820F485
:10373000806008601CE00098042804D0FFE700982F
:10374000022807D1FFE701980168086840F480600B
:1037500008600CE00098102807D0FFE70198016886
:10376000086840F40070086000E0FFE7FFE7FFE74B
:103770000198006800690199496A08700199486ACE
:10378000013048620199488D0138488501980068E8
:1037900000690199496A08700199486A01304862D4
:1037A0000199488D0138488501980168486820F4DE
:1037B000407048600199202081F83D00019890F800
:1037C0003E0040280AD1FFE70199002081F83E0021
:1037D000019908630198FEF79BF90AE0019900201E
:1037E00081F83E000199122008630198FEF788F9DC
:1037F000FFE70EE00198006800690199496A0870C6
:103800000199486A013048620199488D013848851C
:10381000FFE7FFE7FFE702B080BD000080B582B0A0
:103820000190019890F83D0022286BD1FFE70198A4
:10383000408D0090009804281BD3FFE70198006892
:1038400000690199496A08700199486A0130486223
:103850000199488D013848850198408D032807D18A
:10386000FFE701980168486820F480604860FFE73E
:1038700047E00198C06A022841D0FFE7009801287C
:1038800003D0FFE70098D0BBFFE701980168086804
:1038900020F48060086001980168486820F4E060C6
:1038A00048600198006800690199496A08700199A7
:1038B000486A013048620199488D0138488501996C
:1038C000202081F83D00019890F83E0040280AD160
:1038D000FFE70199002081F83E00019908630198F3
:1038E000FEF716F90AE00199002081F83E000199DF
:1038F000122008630198FEF703F9FFE700E0FFE7F5
:10390000FFE7FFE702B080BD80B582B0019001986B
:10391000C06A0090019890F83D00212860D1FFE72F
:103920000198408D70B1FFE701980168406A007806
:1039300008610199486A013048620199488D01384F
:1039400048854CE0009808281ED0FFE70098202802
:103950001AD0FFE7009810F5803F15D0FFE70198D7
:103960000168486820F4E06048600199112008630C
:103970000199002081F83E000199202081F83D0046
:103980000198FEF7C1F829E001980168486820F421
:10399000E060486001980168086840F400700860C1
:1039A0000199002008630199202081F83D000198C9
:1039B00090F83E00402808D1FFE70199002081F8E7
:1039C0003E000198FEF7A8F807E00199002081F871
:1039D0003E000198FEF798F8FFE7FFE7FFE7FFE7F3
:1039E00002B080BD80B584B00390039890F83D008C
:1039F0008DF80B00039890F83E008DF80A000398AC
:103A0000C06A01900398008D002852D1FFE79DF80D
:103A10000B0021284DD1FFE7019808281ED0FFE7B1
:103A2000019820281AD0FFE7019810F5803F15D0A3
:103A3000FFE703980168486820F4E0604860039954
:103A4000112008630399002081F83E00039920208B
:103A500081F83D000398FEF757F829E003980168C4
:103A6000486820F4E060486003980168086840F402
:103A7000007008600399002008630399202081F8F2
:103A80003D00039890F83E00402808D1FFE70399D5
:103A9000002081F83E000398FEF73EF807E0039906
:103AA000002081F83E000398FEF72EF8FFE7FFE7BD
:103AB00091E09DF80B0021280CD0FFE79DF80A004B
:103AC000402840F08680FFE79DF80B00222840F058
:103AD0008080FFE70398408D38B9FFE703980168BD
:103AE000486820F48060486072E0039890F83E00D7
:103AF00040285ED1FFE70398006DE8B9FFE703981F
:103B0000C06C01280BD1FFE70398806CC0B2039909
:103B1000096808610399086D023008650BE0039895
:103B2000806C80B2000A0399096808610399086DE6
:103B300001300865FFE73BE00398006D01280BD1D9
:103B4000FFE70398806CC0B2039909680861039984
:103B5000086D013008652AE00398006D022824D121
:103B6000FFE7039890F83D00222807D1FFE703986C
:103B70000168086840F48070086015E0039890F8C8
:103B80003D0021280ED1FFE703980168406A0078C4
:103B900008610399486A013048620399488D0138E9
:103BA000488500E0FFE7FFE700E0FFE7FFE7FFE70A
:103BB0000DE003980168406A007808610399486A3B
:103BC000013048620399488D01384885FFE7FFE7D7
:103BD00000E0FFE7FFE704B080BD000081B0009087
:103BE0000098406CC0B20099096808610098406B69
:103BF00020B9FFE70098806B90B1FFE70098406B19
:103C0000806A28B9FFE70098806B806A38B1FFE7C7
:103C100000980168486840F400604860FFE7FFE7EB
:103C200001B070478FB00E900E9890F83E008DF85E
:103C300037000E98C06A0C900E98006B0B900E988F
:103C400090F83D00222840F08981FFE70E98006D32
:103C500098B9FFE79DF8370040280ED1FFE7FFE74E
:103C600000200A900E98006840690A900E9800683B
:103C700080690A900A98FFE76FE10E98006DF0B92D
:103C8000FFE70E980069B0F5404F18D1FFE7FFE756
:103C9000002009900E980068406909900E9800680D
:103CA000806909900998FFE70E980168086840F458
:103CB000807008600E99086D013008654CE10E981F
:103CC000408DA0B9FFE7FFE7002008900E9800683C
:103CD000406908900E980068806908900898FFE78E
:103CE0000E980168086840F40070086030E10E9892
:103CF000408D012840F09080FFE70C9810F5803F40
:103D000036D1FFE70E980168086820F480600860EB
:103D10000E98006840680005002814D5FFE70E984B
:103D20000168086820F480600860FFE700200790C1
:103D30000E980068406907900E98006880690790A7
:103D40000798FFE713E0FFE7002006900E98006851
:103D5000406906900E980068806906900698FFE713
:103D60000E980168086840F400700860FFE752E0B0
:103D70000C98082834D0FFE70C98202830D0FFE7B3
:103D80000B98122804D1FFE70C98012828D1FFE7EF
:103D90000C9804280FD0FFE70C9802280BD0FFE7FF
:103DA0000C98102807D0FFE70E980168086820F4E7
:103DB0008060086006E00E980168086840F4806042
:103DC0000860FFE7FFE7002005900E980068406953
:103DD00005900E980068806905900598FFE719E046
:103DE0000E980168086820F480600860FFE70020F2
:103DF00004900E980068406904900E9800688069ED
:103E000004900498FFE70E980168086840F4007079
:103E10000860FFE7FFE79AE00E98408D02285ED128
:103E2000FFE70C98042822D0FFE70C9802281ED048
:103E3000FFE70C9810281AD0FFE70E980168086871
:103E400040F400600860FFE7002003900E980068CF
:103E5000406903900E980068806903900398FFE71B
:103E60000E980168086820F48060086013E00E98DE
:103E70000168086840F480600860FFE70020029055
:103E80000E980068406902900E9800688069029060
:103E90000298FFE7FFE70E980068406800050028D9
:103EA0001CD5FFE70C9810F5803F10D0FFE70C9869
:103EB00001280CD0FFE70C98082808D0FFE70C98E1
:103EC000102804D0FFE70C98202807D1FFE70E98B0
:103ED0000168486840F480504860FFE736E00E987B
:103EE0000168086840F4806008600E9800684068C7
:103EF000000500281CD5FFE70C9810F5803F10D076
:103F0000FFE70C9801280CD0FFE70C98082808D090
:103F1000FFE70C98102804D0FFE70C98202807D161
:103F2000FFE70E980168486840F480504860FFE75A
:103F3000FFE7002001900E980068406901900E98FC
:103F40000068806901900198FFE7FFE7FFE7FFE75E
:103F50000E9900200865FFE7FFE70DE0FFE700206E
:103F600000900E980068406900900E980068806983
:103F700000900098FFE7FFE70FB0704781B0009016
:103F8000009890F83E00402816D1FFE70098006D99
:103F900040B9FFE70098406C00F0FE000099096806
:103FA000086108E00098406C40F00100C0B2009940
:103FB00009680861FFE758E000980069B0F5804F94
:103FC00032D1FFE7009890F83D00212808D1FFE7A3
:103FD0000098406C00F0FE0000990968086108E054
:103FE0000098406C40F00100C0B200990968086177
:103FF000FFE70098406B20B9FFE70098806B90B115
:10400000FFE70098406B806A28B9FFE70098806B53
:10401000806A38B1FFE700980168486840F40060A2
:104020004860FFE7FFE71FE00098006D50B9FFE729
:104030000098406C00F44070C009F03000990968A5
:10404000086110E00098006D01280AD1FFE7009890
:10405000406C00F44070C009F130009909680861B3
:1040600000E0FFE7FFE7FFE7FFE701B07047000070
:1040700081B000900098408D78B1FFE7009800680B
:1040800000690099496A08700099486A01304862DD
:104090000099488D01384885FFE701B0704700005E
:1040A00080B582B00190019890F83D008DF8030032
:1040B0000198408D48B3FFE70198006800690199B5
:1040C000496A08700199486A013048620199488D2F
:1040D000013848850198408DB0B9FFE79DF803008D
:1040E0002A2811D1FFE701980168486820F4806010
:1040F00048600199222008630199282081F83D0039
:104100000198FDF70DFDFFE7FFE702B080BD00005D
:1041100081B000900098408D70B1FFE70098016871
:10412000406A007808610099486A01304862009945
:10413000488D01384885FFE701B0704780B582B0EF
:104140000190019890F83D008DF803000198408D92
:1041500040B3FFE701980168406A0078086101995F
:10416000486A013048620199488D013848850198B4
:10417000408DB0B9FFE79DF80300292811D1FFE772
:1041800001980168486820F4806048600199212006
:1041900008630199282081F83D000198FDF7C4FCCF
:1041A000FFE7FFE702B080BD80B584B003900291C5
:1041B00000208DF80700039890F83D0000F02800DB
:1041C000282832D1FFE703980168486820F480600E
:1041D00048609DF8080000F004010020B0EB910F4A
:1041E00004D1FFE701208DF80700FFE79DF80810D4
:1041F0000020B0EBD11F05D1FFE70398C068ADF8F0
:10420000040004E003988069ADF80400FFE7FFE7CD
:104210000399002081F83C00FFE703989DF8071000
:10422000BDF80420FDF7CAF913E0FFE70020009075
:1042300003980068406900900398006880690090C6
:104240000098FFE7FFE70399002081F83C00FFE7B3
:10425000FFE704B080BD000080B584B003900398F0
:1042600090F83D008DF80B000398C06A019001980A
:10427000082804D0FFE70198202829D1FFE79DF8FE
:104280000B00282824D1FFE703990020CFF6FF7008
:10429000C86203980168486820F4E06048600398A9
:1042A00001686FF48060486103980168086820F431
:1042B00080600860039900200863039A202182F837
:1042C0003D10039981F83E000398FDF715FC30E09E
:1042D0009DF80B00212825D1FFE703990020CFF698
:1042E000FF70C8620399212008630399202081F898
:1042F0003D000399002081F83E000398016848685A
:1043000020F4E0604860039801686FF480604861C1
:1043100003980168086820F4806008600398FDF73E
:1043200003FC05E0039801686FF480604861FFE7D3
:10433000FFE704B080BD000080B584B0039003980F
:1043400090F83D008DF80B0003980168486820F450
:10435000E0604860FFE70020019003980068406932
:10436000019003980168086840F001000860019816
:10437000FFE703980168086820F4806008600398EC
:1043800000684068000500286DD5FFE79DF80B0028
:10439000222805D0FFE79DF80B002A2831D1FFE73E
:1043A0000398806B00684068039948850398408DA6
:1043B00030B1FFE70399086C40F004000864FFE7A0
:1043C00003980168486820F4006048600398806B97
:1043D000FCF7F6FA012813D0FFE70398816B43F24C
:1043E0008530C0F6000048630398806BFCF78EF8B8
:1043F00028B1FFE70398806B416B8847FFE7FFE731
:1044000030E00398406B0068406803994885039842
:10441000408D30B1FFE70399086C40F00400086458
:10442000FFE703980168486820F40060486003983B
:10443000406BFCF7C5FA012813D0FFE70398416BE6
:1044400043F28530C0F6000048630398406BFCF7E8
:104450005DF828B1FFE70398406B416B8847FFE7A1
:10446000FFE7FFE7FFE70398408DE8B3FFE7039816
:104470000068406900F004010120B0EB910F0FD1FA
:10448000FFE70398006800690399496A0870039977
:10449000486A013048620399488D01384885FFE732
:1044A00003980068406900F040010120B0EB911FC3
:1044B0000FD1FFE70398006800690399496A087003
:1044C0000399486A013048620399488D013848854C
:1044D000FFE70398408D30B1FFE70399086C40F087
:1044E00004000864FFE7FFE70398006C20B1FFE7D2
:1044F0000398FEF7ABFF42E09DF80B002A280BD192
:10450000FFE70399002008630399282081F83D0004
:104510000398FDF705FBFFE7039890F83D00282876
:1045200013D1FFE703990020CFF6FF70C86203990B
:1045300000200863039A202182F83D10039981F836
:104540003E000398FDF7D8FA18E00398006B222884
:1045500005D0FFE79DF80B0022280ED1FFE7039955
:1045600000200863039A202182F83D10039981F806
:104570003E000398FDF7D4FAFFE7FFE7FFE704B03A
:1045800080BD0000FFE7FEE77047000088B007909D
:1045900006910592079800F0070004900498C0F176
:1045A0000700042803D3FFE70320019004E00498E8
:1045B000C0F107000190FFE70198039004980330D1
:1045C000062803D8FFE70020009003E00498043891
:1045D0000090FFE70098029006980399012202FAE2
:1045E00001F101390840029B984005999A40013A2F
:1045F0001140084308B070477047000082B0019036
:10460000019840F20001C2F200010968C90844F6AD
:10461000D352C1F26202A1FB0221890948430090F2
:10462000FFE700BFFFE70098411E00910028F8D186
:10463000FFE702B0704700007047000080B584B00B
:10464000029002980138B0F1807F03D3FFE7012088
:1046500003901AE0029801384EF21401CEF20001E4
:1046600008604FF0FF300721019100F04BFB0199EA
:104670004EF21802CEF20002002010604EF210023C
:10468000CEF2000211600390FFE7039804B080BDF2
:1046900080B5FDF74DFAFEF7C9F8012000F0F4FBF4
:1046A00080BD000080B592B007A801902C21FBF7D7
:1046B00074FD0198002306930593049303930293DA
:1046C0001F2107914FF4803108914FF440720992F5
:1046D00010220D9201220C920A930E9202220F9246
:1046E00010914FF4E0111191FDF7B2FC18B1FFE702
:1046F000FBF77EFDFFE70F200290022003900020D1
:10470000049005904FF48060069002A80621FDF702
:10471000CDFA18B1FFE7FBF76BFDFFE712B080BDE4
:104720004EF60851CEF200014FF00060086070476D
:104730007047000081B00090009890F8200040067B
:1047400000281CD5FFE700980068406920F48050DD
:10475000009A1168526A104348610098406AB0F5A7
:10476000805F0BD1FFE700980068406920F4C040EB
:10477000009A1168926A10434861FFE7FFE701B0B1
:104780007047000080B582B001900198406A0090A7
:10479000009900204887009948860098FEF778F82D
:1047A00002B080BD80B584B00390002002900398D1
:1047B000406A0190019800684069C0B2C009029047
:1047C000019890F8450021280AD1FFE7029838B1F6
:1047D000FFE7019900204886019800F079F8FFE78B
:1047E000019800684069C0F380100290019890F829
:1047F000460022280AD1FFE7029838B1FFE7019965
:1048000000204887019800F03BF8FFE70199886C89
:1048100040F0100088640198FEF73AF804B080BDBB
:1048200080B582B001900198406A009001980068BC
:1048300000688006002810D4FFE700990020488611
:1048400000980168486920F080004861009801687C
:10485000C86840F04000C86003E00098FEF7FAFC2A
:10486000FFE702B080BD000080B582B001900198E2
:10487000406A00900098FEF741FD02B080BD000044
:1048800081B0009000980168C86820F49070C860FA
:1048900000980168486920F00100486100992020D3
:1048A00081F8460001B0704780B582B00190019850
:1048B0000168C86820F04000C8600199202081F894
:1048C00045000198FEF7C6FC002002B080BD000044
:1048D00081B0009000980168C86820F0C000C860EE
:1048E0000099202081F8450001B0704780B584B060
:1048F0000290029890F8460022284AD1FFE70298D9
:104900008068B0F5805F13D1FFE70298006978B93D
:10491000FFE70298406B01900298006840686FF3CF
:104920005F20019908800299486B0230486308E0D3
:10493000029800684068029B596B4A1C5A630870D1
:10494000FFE70299488F013848870004E8B9FFE77C
:1049500002980168C86820F02000C86002980168C9
:10496000C86820F48070C86002980168486920F027
:10497000010048610299202081F846000298FEF764
:104980009FFA00208DF80F0007E000208DF80F003F
:1049900003E002208DF80F00FFE79DF80F0004B040
:1049A00080BD000080B584B0039003980068006962
:1049B00020F44050039A1168D268104308610399AB
:1049C00088680A694969104308430290039800689F
:1049D000C06841F20C618843029908430399096851
:1049E000C86003980068406920F44070039A116819
:1049F00092691043486103980068406920F40060A0
:104A0000039A1168D269104348610398C069B0F5F0
:104A1000006F58D1FFE70398006843F60001C4F225
:104A20000101884227D1FFE7FDF78AFA019001983A
:104A300019214843039A116852685200B0FBF2FEF4
:104A400048F21F53C5F2EB13AEFB032042091001DD
:104A50004FF0640C02FB1CEC322202EBCC02A2FBF6
:104A60000332F82303EA521300EB4300C2F342126D
:104A70001044886026E0FDF751FA01900198192151
:104A80004843039A116852685200B0FBF2FE48F2A4
:104A90001F53C5F2EB13AEFB0320420910014FF088
:104AA000640C02FB1CEC322202EBCC02A2FB0332B0
:104AB000F82303EA521300EB4300C2F342121044FE
:104AC0008860FFE753E00398006843F60001C4F2F2
:104AD0000101884225D1FFE7FDF732FA01900198E4
:104AE00019214843039A116852689200B0FBF2FC06
:104AF00048F21F52C5F2EB12ACFB023043096420AE
:104B000003FB10CC322000EB0C10A0FB0202F020C3
:104B100000EA521000EB0310C2F343121044886005
:104B200024E0FDF7FBF90190019819214843039A0D
:104B3000116852689200B0FBF2FC48F21F52C5F2B5
:104B4000EB12ACFB02304309642003FB10CC322093
:104B500000EB0C10A0FB0202F02000EA521000EB68
:104B60000310C2F3431210448860FFE7FFE704B06C
:104B700080BD000084B00290029890F84500212882
:104B80003ED1FFE702988068B0F5805F13D1FFE760
:104B90000298006978B9FFE70298C06A019001980D
:104BA00000886FF35F200299096848600299C86A1B
:104BB0000230C8620CE00298C06A00900098007849
:104BC0000299096848600299C86A0130C862FFE723
:104BD0000299488E01384886000468B9FFE70298B8
:104BE0000168C86820F08000C86002980168C86841
:104BF00040F04000C860FFE700208DF80F0003E0A0
:104C000002208DF80F00FFE79DF80F0004B07047F9
:104C100080B586B0DDF820C0049003918DF80B209C
:104C20000193FFE704980068006803990840401A60
:104C3000B0FA80F040099DF80B1088422ED1FFE7B2
:104C40000898013048B3FFE7089840B1FFE7FCF748
:104C5000ABFC0199401A089988421DD9FFE70498D6
:104C60000168C86820F4D070C86004980168486979
:104C700020F0010048610499202081F84500049942
:104C800081F84600FFE70499002081F84400FFE71F
:104C900003208DF8170005E0FFE7C3E700208DF83B
:104CA0001700FFE79DF8170006B080BD80B542F2FF
:104CB0003C20C2F2000000F23450FDF731FE80BD0E
:104CC000FFE7FEE781B08DF803009DF9030000289F
:104CD0000ED4FFE79DF9031001F01F020120904060
:104CE0004A094EF20011CEF2000141F82200FFE71E
:104CF00001B070474EF60C50CEF200000068C0F3D1
:104D00000220704782B08DF8070000919DF90700DE
:104D100000280AD4FFE7009840019DF907104EF2E1
:104D20000042CEF2000288540BE0009840019DF84A
:104D3000071001F00F014EF61452CEF20002885413
:104D4000FFE702B07047000083B00290029800F0C5
:104D5000070000904EF60C51CEF200010868019059
:104D600001984FF6FF02104001900198009A40EA26
:104D700002200022C0F2FA5210430190019808600C
:104D800003B0704782B08DF803009DF8030005283A
:104D900003DBFFE7002001900BE09DF8030042F2E7
:104DA0003C22C2F2000240F2345110FB012001907B
:104DB000FFE7019802B0704780B582B08DF8070018
:104DC0009DF807000F2817DCFFE79DF8071042F257
:104DD0002C00C2F2000000EB0110406860B1FFE758
:104DE0009DF8071042F22C00C2F2000000EB011007
:104DF000416880688847FFE702B080BD80B584B015
:104E00008DF80F009DF80F00FFF7BCFF029002998C
:104E10000020019039B1FFE702980068002818BF10
:104E200001200190FFE7019800F0010004B080BD6F
:104E300080B5FCF78BFEFFF735FC00F061FE00202B
:104E400080BD000083B08DF8070040F21800C2F268
:104E5000000000680090FFE7009870B1FFE700983D
:104E6000007B9DF80710884203D1FFE7009802906D
:104E700006E0009800680090EEE700200290FFE74F
:104E8000029803B07047000080B586B0ADF80E0000
:104E9000EFF3108072B60590BDF80E2042F230217B
:104EA000C2F2000108681044086062B642F238207D
:104EB000C2F200000068002872D0FFE742F23820FA
:104EC000C2F200000068029000200190FFE7029803
:104ED000002864D0FFE700200090EFF3108072B646
:104EE000049002988088BDF80E10884204DCFFE729
:104EF00002990020888006E002998888BDF80E207B
:104F0000801A8880FFE70298808888B9FFE70298B6
:104F1000408968B1FFE70298C08848B1FFE702996D
:104F2000087AC98800F0E2F9029948898880FFE789
:104F30000298808820B1FFE70298C088B0B9FFE7E7
:104F4000019840B9FFE70298006842F23821C2F2A6
:104F50000001086004E00298006801990860FFE71A
:104F60000298009002980068029005E00298019073
:104F7000029800680290FFE762B6009870B1FFE700
:104F80000098808830B9FFE70099087AC98800F056
:104F9000ADF9FFE7009800F021F9FFE797E7FFE799
:104FA00006B080BD80B586B0ADF8120000208DF847
:104FB000050042F23420C2F200000078E22803D05B
:104FC000FFE700F049F9FFE7BDF812000430ADF843
:104FD0001200BDF8120000F003008DF804009DF8E7
:104FE000040048B1FFE79DF80410BDF81200401A14
:104FF0000430ADF81200FFE7EFF3108072B60590B1
:10500000BDF81200102807DCFFE742F22400C2F2CC
:1050100000000068029006E042F22800C2F20000A0
:1050200000680290FFE702980068ADF80600FFE70D
:10503000BDF80600000400280AD5FFE7BDF8060009
:1050400080F40040ADF8060000208DF8050035E042
:105050009DF8050018B3FFE742F21C01C2F20001FF
:1050600008880138088042F21E01C2F20001088857
:1050700001380880029802680399086810440860A3
:1050800003980068BDF81210884207D3FFE7039821
:10509000029002980068ADF8060024E00DE0BDF82B
:1050A0000600BDF81210884201DBFFE71BE001207B
:1050B0008DF8050002980390FFE7FFE70298BDF81E
:1050C00006100844029002980068ADF80600BDF88A
:1050D000060018B9FFE70020029004E0FFE7012076
:1050E0000028A5D1FFE70298002872D0FFE7BDF89D
:1050F0001210BDF80600401AADF80600BDF8060013
:10510000042834DBFFE70298BDF812100844009031
:10511000BDF8060000990860BDF8120040F4004098
:105120000299086042F21C01C2F2000108880130B5
:10513000088042F22000C2F20000008809888842FC
:105140000BDAFFE742F21C00C2F20000008842F2D4
:105150002001C2F200010880FFE7BDF8122042F2F0
:105160002C21C2F2000108881044088015E0029842
:10517000026842F22C21C2F2000108881044088023
:1051800042F21E01C2F2000108880138088002992B
:10519000086840F400400860FFE742F22E20C2F2A7
:1051A0000000008842F22C21C2F2000109888842E6
:1051B0000BDAFFE742F22C20C2F20000008842F234
:1051C0002E21C2F200010880FFE70298043002900D
:1051D000FFE762B6029806B080BD000080B584B0DB
:1051E000029042F23420C2F200000078E22803D09C
:1051F000FFE700F031F8FFE7EFF3108072B603909D
:105200000298043801900199086820F40040086071
:1052100042F22400C2F2000000680199884207D9D6
:10522000FFE7019842F22401C2F200010860FFE7A3
:105230000198026842F22C21C2F200010888801A0B
:10524000088042F21E01C2F2000108880130088085
:1052500062B604B080BD000080B584B040F20801A1
:10526000C2F200010091086841F6FC7210440390FC
:10527000039A0020029010600A680392039BE822C0
:105280001A600968E8310391039A41F614711160BC
:1052900042F23422C2F20002E2211170039942F27A
:1052A0002402C2F2000201921160FFF77BFE009916
:1052B000019A0346029842F2280CC2F2000CCCF884
:1052C00000300968116042F21E02C2F2000202219F
:1052D000118042F21C02C2F20002118042F22C2123
:1052E000C2F20001088004B080BD000080B584B027
:1052F0008DF80A00ADF808109DF80A00FFF7A2FD2E
:105300000190019860B1FFE7EFF3108072B603904F
:10531000BDF808200199C8891043C88162B603E02E
:1053200002208DF80B0003E001208DF80B00FFE751
:105330009DF80B0004B080BD82B00190019820B1AF
:10534000FFE701984089009002E000200090FFE70D
:10535000009880B202B0704782B00190019830B1DD
:10536000FFE7019988884989401A009002E00020EF
:105370000090FFE7009880B202B0704780B586B019
:1053800004900391ADF80A20049838B1FFE7039820
:1053900020B1FFE7BDF80A0020B9FFE70020ADF813
:1053A000160045E00498FFF7C7FFADF80800BDF808
:1053B0000A00BDF80810884204DDFFE7BDF80800C8
:1053C000009003E0BDF80A000090FFE70098ADF8F8
:1053D00006000020ADF80400FFE7BDF80400BDF8AA
:1053E0000610884219DAFFE7049908680989405CC9
:1053F0000399BDF80420885404980089431C04993B
:105400008A88B3FBF2F000FB12300881FFE7BDF899
:1054100004000130ADF80400DFE7BDF80620049970
:105420004889801A4881BDF80600ADF81600FFE7EC
:10543000BDF8160006B080BD84B002900191ADF8B1
:105440000220029838B1FFE7019820B1FFE7BDF8CC
:10545000020020B9FFE700208DF80F0011E001984D
:1054600002990860BDF80200029988800299002024
:10547000C880029908810299488101208DF80F00A7
:10548000FFE79DF80F0004B07047000080B588B0BA
:1054900006900591ADF81220ADF81030069838B19D
:1054A000FFE7059820B1FFE7BDF8120020B9FFE73C
:1054B0000020ADF81E0057E00698FFF73DFFADF85D
:1054C0000E00BDF81000BDF80E10884204DBFFE7A7
:1054D0000020ADF81E0047E0BDF81200BDF80E1028
:1054E000BDF81020891A884207DDFFE7BDF80E00DD
:1054F000BDF81010401A019003E0BDF812000190B1
:10550000FFE70198ADF80C000020ADF80A00FFE7B6
:10551000BDF80A00BDF80C10884220DAFFE70698B3
:105520000089BDF810100844BDF80A10421806980A
:105530008188B2FBF1F000FB1120ADF8080006985D
:105540000068BDF80810405C0599BDF80A20885431
:10555000FFE7BDF80A000130ADF80A00D8E7BDF852
:105560000C00ADF81E00FFE7BDF81E0008B080BDBE
:1055700080B586B004900391ADF80A20049838B144
:10558000FFE7039820B1FFE7BDF80A0020B9FFE765
:105590000020ADF8160045E00498FFF7DDFEADF8F9
:1055A0000800BDF80A00BDF80810884204DDFFE7D6
:1055B000BDF80800009003E0BDF80A000090FFE786
:1055C0000098ADF806000020ADF80400FFE7BDF834
:1055D0000400BDF80610884219DAFFE70398BDF809
:1055E0000410405C049A1168D28888540498C088DA
:1055F000431C04998A88B3FBF2F000FB1230C88088
:10560000FFE7BDF804000130ADF80400DFE7BDF8A6
:1056100006200499488910444881BDF80600ADF879
:105620001600FFE7BDF8160006B080BD80B584B057
:105630000390ADF80A10039820B1FFE7BDF80A0007
:1056400008B9FFE729E00398FFF776FEADF80800F8
:10565000BDF80A00BDF80810884204DDFFE7BDF878
:105660000800009003E0BDF80A000090FFE70098F2
:10567000ADF8060003980089BDF806104318039999
:105680008A88B3FBF2F000FB12300881BDF80620D7
:1056900003994889801A4881FFE704B080BD000063
:1056A00080B586B08DF816009DF81600052804DB3D
:1056B000FFE7FE208DF817003CE09DF8161046F23B
:1056C0009420C0F60000405C8DF815009DF915008F
:1056D00001210022FCF7C8FA9DF91500FCF7BAFA7F
:1056E0009DF8160042F23C22C2F2000240F2345110
:1056F00010FB01200490049890F84C00022815D16A
:10570000FFE70B2002900421009100220192FCF798
:10571000ABFA0099019A0C200390FCF7A5FA0298C5
:10572000FCF798FA0398FCF795FAFFE700208DF84C
:105730001700FFE79DF9170006B080BD80B584B063
:105740008DF80E009DF80E00FFF71CFB02900298EA
:1057500020B9FFE7FE208DF80F00E2E0FFE741F2FD
:105760001400C4F20200016841F001010160006808
:1057700000F0010001900198FFE702988830442171
:10578000FAF70BFD9DF80E1046F28020C0F60000DF
:1057900050F821000299C1F8880002991020C1F840
:1057A0008C0002990020C1F89000029A8021C2F872
:1057B00094100299C1F898000299C1F89C000299CE
:1057C000C1F8A00002994FF48050C1F8A4000298DB
:1057D0008830FBF73FFC20B1FFE7FA208DF80F007F
:1057E0009FE0FFE7029901F18800C8630298C0F8C2
:1057F000AC00FFE70298CC304421FAF7CEFC9DF8CC
:105800000E1046F25820C0F6000050F82100029910
:10581000C1F8CC0002990020C1F8D0000299C1F86B
:10582000D400029A8021C2F8D8100299C1F8DC0095
:105830000299C1F8E00002992020C1F8E400029921
:105840004FF40050C1F8E8000298CC30FBF702FC9E
:1058500040B1FFE702988830FBF73AF8FA208DF85C
:105860000F005EE0FFE7029901F1CC0008640298A6
:10587000C0F8F000FFE79DF80E00042819DCFFE7F0
:10588000029888309DF80E2046F26C21C0F6000187
:1058900051F82210FAF7C6FF0298CC309DF80E207E
:1058A00046F24421C0F6000151F82210FAF7BAFF7F
:1058B000FFE7029901F5477001F54D714FF48072D1
:1058C0000092FFF7B9FD009A029901F54A7001F2C2
:1058D0003441FFF7B1FD0099029800F58870FAF79E
:1058E0005CFC0099029800F50470FAF756FC0299E6
:1058F0000020A1F810030299A1F81203029981F87F
:105900001403029981F81503029A012182F81613F3
:10591000029981F81703029981F818038DF80F0096
:10592000FFE79DF90F0004B080BD000080B584B092
:105930008DF80F009DF80F0042F23C22C2F20002E7
:1059400040F2345110FB01200290029890F81503A8
:10595000C00708B1FFE71FE08020ADF806000299FC
:1059600001F54770BDF80620114401F58871FFF775
:10597000FFFDADF804000299012081F8150302999A
:10598000002081F81403BDF804200299D1F88000AA
:105990001044C1F88000FFE704B080BD80B582B03C
:1059A0000020ADF8000046F20120C0F6000000F033
:1059B000DFFAFFE70DF1030006216A4600F0BAF9AD
:1059C000C8B9FFE740F20400C2F2000000780DF110
:1059D000030106224FF47A7300F0E0F99DF803000A
:1059E0000D2807D1FFE746F2E910C0F6000000F0ED
:1059F000BFFA04E0FFE70A20FBF70CFCDAE702B08D
:105A000080BD000080B586B08DF8160004918DF839
:105A10000F209DF81600052804DBFFE7FE208DF817
:105A2000170068E09DF80F00022801D1FFE7FFE7AB
:105A30009DF8160042F23C22C2F2000240F23451BC
:105A400010FB012002900298006820B1FFE7FD20C2
:105A50008DF817004FE0029840F23451FAF79DFBA1
:105A60009DF8161046F23020C0F6000050F82100D4
:105A700002990860049802994860029900208860A1
:105A80000299C86002990861029A0C215161029939
:105A900088610299C861029908620298FDF760F86E
:105AA00020B1FFE7FF208DF8170024E09DF80F00DC
:105AB000022813D1FFE79DF81600FFF73FFE8DF88F
:105AC00007009DF9070040B1FFE70298FCF7B2FE1E
:105AD0009DF807008DF817000DE0FFE79DF80F0017
